:020000040800F2
:100000000050002011490008B1490008B14900081A
:10001000B1490008B1490008B149000800000000DA
:10002000000000000000000000000000B1490008CE
:10003000B149000800000000B1490008150500089A
:10004000B1490008B1490008B1490008B1490008A8
:10005000B1490008B1490008B1490008B149000898
:10006000B1490008B1490008B1490008B149000888
:10007000B1490008B1490008A9160008B1490008B3
:10008000B1490008B1490008B1490008B149000868
:10009000B1490008B1490008B1490008B149000858
:1000A000B1490008B1490008B1490008890F0008AA
:1000B000810F0008750F00086B0F00082705000866
:1000C000130800082505000811080008B1490008B8
:1000D000B149000873160008B1490008B149000889
:1000E000B1490008B1490008B1490008000000000A
:1000F0000000000000000000000000000000000000
:0C01000000000000000000005FF808F1A3
:100110007047044B4FF4805208B11A6170475A611E
:10012000704700BF00080140034B4FF4805208B1F4
:100130005A6170471A617047000801408848F0B55D
:100140000368884A9C8AA4B2E1B211F0010F32D050
:100150001988854C21F400610904090C198019885B
:1001600089B241F480611980002111707F490978BA
:10017000A9B1517819B97E490978FF290FD1012118
:1001800051707C490978022901BF198889B241F46C
:1001900000611980217841F00101198201E1217883
:1001A00001F0FE011982724B1B78FF2B00F0F980E1
:1001B000FF231370F5E08E073CD5BFF35F8F6D49C9
:1001C0000C78E4B2012C14D1684D2D788DB155789E
:1001D0007DB1198821F480610904090C1980BFF3ED
:1001E0005F8F198B1988947089B241F4007119805E
:1001F0001BE01C8BBFF35F8F0C78022C0BD15B4C88
:10020000247844B1547834B1198821F48061090408
:10021000090C1980BFE00978032906D153490978F0
:1002200019B15178002940F0B680998889B241F41B
:100230008061B5E04D075BD5012191704B4909788C
:1002400000293AD05178002937D04A494A4D0978D7
:100250001C88022911781ED924F480642404240CFB
:100260001C801E8A2F68CCB2F6B249B27E5419881F
:100270002D6889B241F4007119800168A31C1370C4
:100280000B8A0134DBB264B22B558B889BB243F4EA
:1002900080638B8027E0A4B244F400741C802E6835
:1002A0001D8ACCB2EDB249B275541B8A611C49B2A9
:1002B000DBB203347354147015E0517811B92F492F
:1002C000097841B1198889B241F400711980137815
:1002D0000133137007E0198889B241F480711980E5
:1002E000204B0121597001680B88DC05FCD458E0D3
:1002F00001F0400101F0FF061E4DF1B114781E49D6
:100300001F8AD1F800E0E6B2FFB264B2711C0EF8A9
:100310000470C9B22F78117049B2CC1CA74201BF3A
:100320009C8824F480642404240C08BF9C802B78CF
:100330008B4236D10236167033E0210631D5117862
:100340004CB2671C1ED00E4E01313668C9B2345D06
:1003500011701C822C7849B28C4222D11BE000BF64
:10036000CC0800208C060020BC080020BF0800201C
:10037000BD080020C8080020C4080020BE080020D6
:10038000C0080020124916700978198211490978AD
:1003900009B9297829B9998821F480610904090CDF
:1003A00099800D4B92F900201B780C4901339A4239
:1003B0000DD100234B708B7833B10268938823F4FE
:1003C00040731B041B0C9380054B00221A70F0BD78
:1003D000BD080020BF080020C80800208C060020AF
:1003E000C908002030B5002385B0ADF80A30ADF85B
:1003F0000430ADF80630ADF80830ADF80C300379B4
:100400000446DA0744BF0422ADF80A209B0748BF20
:10041000BDF80A300D46009148BF43F00803806CD8
:10042000694648BFADF80A3000F0B8FFA56005B0D6
:1004300030BD836A8169426B1944D160416A994237
:1004400097BF0169CB1ACB1A536096BF0023536044
:1004500083624FF0000380F84430136888BF8162E4
:1004600043F0010313607047014B1B68184700BF3E
:100470009009002010B50949094B4C689B684A68EF
:100480009442F8D18A684FF47A7042438968D31A4B
:10049000B3FBF1F300FB043010BD00BF8C0600205D
:1004A00010E000E038B50446FFF7E4FF0546FFF72B
:1004B000E1FF401BA042FAD338BD10B504462CB171
:1004C0004FF47A70FFF7EEFF013CF8E710BD40F201
:1004D000DB14604308B50E4B10221A6108225A61E2
:1004E000841E0B4B2046DA6882F01002DA60DA686C
:1004F00082F00802DA60FFF7E0FF0120FFF7B4FFA7
:100500001920FFF7DAFF0020FFF7AEFFE9E700BF91
:10051000000C0140024A536801335360704700BF2A
:100520008C0600200AE609E6F0B5B1F800E00023E9
:100530004EFA03F2D50725D58E784FEAD30CF40690
:1005400048BFCC7806F00F0203F0070748BF2243EC
:10055000BF0050F82C500F24BC4025EA0404BA40D8
:100560002243282E40F82C2005D1C46801229A404D
:1005700024EA020205E0482E04D1C46801229A4010
:100580002243C2600133102BD2D1F0BD012828BF15
:1005900001202DE9F04F0546142000FB05F36B4FB9
:1005A000DFF8C481FA18FB581169C8F80030684BAD
:1005B00016891D73674BB2F80AA0DC6989B0214324
:1005C00054684AEA0609D9610222C4F8109003A9C6
:1005D0008DF80E0020460193ADF80C908DF80F2099
:1005E000FFF7A2FF019B00971F464FF0080BA26880
:1005F000164203D10A20FFF755FFF8E70A2066618B
:10060000FFF750FF26610A20FFF74CFFBBF1010BFB
:10061000EDD1C4F814A00A20FFF744FF66610A2058
:10062000FFF740FF26610A20FFF73CFF0222C4F8D3
:1006300010A0204603A98DF80F201C228DF80E2053
:10064000ADF80C90FFF770FFD8F80040424A03A8BD
:1006500094423A690BBF42F4001242F480023A61BC
:100660003A610BBF3A693A6922F4001222F480021F
:100670003A61A38823F440731B041B0CA3802388D6
:100680009BB243F001032380A68800F03FFE05994A
:10069000324B26F03F06B1FBF3F33604360C1E4313
:1006A000B6B2A6802288002622F001021204120CA3
:1006B00022802B4A03A8B1FBF2F100298AB208BFBD
:1006C000012242F400414FF4967253434FF47A7280
:1006D00093FBF2F301339BB22384A1832388009A16
:1006E0009BB243F001032380238823F4816323F02A
:1006F00002031B041B0C23804FF48043238114232B
:1007000003FB05256B7B01248DF80C308DF80D6003
:100710008DF80E608DF80F4000F02CFF2B7B9DF8BC
:100720000F208DF80C308DF80D601AB103A800F081
:1007300021FF08E05A0903F01F039C4002F1200347
:10074000084A42F8234009B0BDE8F08F945D0008E4
:100750008C060020001002400054004040420F0070
:10076000804F120000E100E0CC08002013B52449BE
:100770000B680C469A8A92B20192019A12F4706F39
:100780001EBF204A01211170019A12F4E06F2AD095
:100790001A8B9A8822F480621204120C9A80019AB1
:1007A000910520D41A8892051DD41A88D0050FD53A
:1007B0001A88D105FCD41A8892B242F400721A80C9
:1007C0001A889205FCD4104B187BFFF7DFFE0AE075
:1007D0001A8892B242F400721A809A8822F4407207
:1007E0001204120C9A802268938A23F470631B040B
:1007F0001B0C9382054B00221A7002B010BD00BF83
:10080000CC080020CA0800208C060020C90800205F
:10081000ACE7ABE7054A08B5D389107B01339BB23F
:10082000D381FFF7B3FE002008BD00BF8C06002077
:1008300010B54000204CC0B220702048204C017000
:10084000204800210170012020701F4C23601F4CA4
:1008500023601F4B1A701F4A1F4B107019701F49DD
:10086000086811461A4630B383889C0515D403885E
:10087000DB050DD447F230530488A40502D5013BB3
:10088000FAD112E08BB103889BB243F480730380EA
:1008900083889BB243F44073838047F230530878D7
:1008A00010B1013BFBD100E013B9BDE81040B1E746
:1008B000107880F0010010BDBC080020BD080020A9
:1008C000BF080020BE080020C4080020C008002087
:1008D000C8080020C9080020CA080020CC08002051
:1008E00038B504460D46242000F0E8FF4D2000F006
:1008F000E5FF002C094C14BF21203E2000F0DEFF54
:100900002368002228461A7100F0D8FF236893F864
:100910008600BDE8384000F0D1BF00BF24000020B1
:1009200001460020DCE7074B1A685379D118981C60
:100930000133DBB2134489795071987901EB0020BF
:1009400080B270472400002010B50446C0B200F009
:10095000B5FFC4F3072000F0B1FFC4F3074000F077
:10096000ADFF200EBDE8104000F0A8BF10B5044652
:10097000C0B200F0A3FFC4F30720BDE8104000F0B0
:100980009DBF00BF024B186803681B68184700BF73
:100990006C03002070B50646104C002504EB811155
:1009A00001F10C040E4A308A2A445388B18903426B
:1009B00089B20DD00B420BD0DB439BB23382304661
:1009C0005368984754F8043C01460BB12078984787
:1009D0000835202D04F11004E4D170BDB4070020C7
:1009E000BC5D0008024B53F820301B68198070472B
:1009F000E00400200328104B0BD8104A12888A42CA
:100A00003FBF012293F8001182400A4338BF83F8A8
:100A1000002193F800310F2B0CD1074B084A00211D
:100A200083F80011138818B2142802DD143B1380D8
:100A300070471180704700BFB407002014000020E9
:100A400088050020144B10B5B3F80221A3F8021159
:100A5000A3F80421891A40F68C2289B291421C46DF
:100A600003D9002283F8062110BD40F2DA52A1F228
:100A7000EF239BB2934208D894F80601072804D8C4
:100A8000064B23F81010FFF7B5FF94F80631013339
:100A900084F8063110BD00BFB40700206E090020A5
:100AA00030B57A4B1D78038C91BB23F001031B04F6
:100AB0001B0C0384048B7649A4B2038C24F0F3044A
:100AC00044F0010488429BB244EA051512D001F5B6
:100AD000006188420ED0B0F1804F0BD0A1F5983163
:100AE000884207D001F58061884203D001F580611A
:100AF000884202D123F0020301E023F00A0343F00D
:100B000001031A4305830284038B23F00C033AE0AC
:100B100004293FD123F010031B041B0C0384048B16
:100B2000018C24F440742405240D44F48073584C43
:100B300043EA0533A04289B29BB212D004F50064A7
:100B4000A0420ED0B0F1804F0BD0A4F59834A04253
:100B500007D004F58064A04203D004F58064A0426D
:100B600007D121F0200141F0100141EA021292B2B6
:100B700004E021F0A00141F010010A430383028444
:100B8000038B23F440631B041B0C0383038B9BB276
:100B9000038330BD082937D123F480731B041B0C59
:100BA0000384848B3A49A4B2038C24F0F30444F008
:100BB000010488429BB244EA051512D001F5006198
:100BC00088420ED0B0F1804F0BD0A1F59831884209
:100BD00007D001F58061884203D001F58061884229
:100BE00007D123F4007343F4807343EA022292B2E4
:100BF00004E023F4206343F480731A438583028462
:100C0000838B23F00C0339E023F480531B041B0C6B
:100C10000384818B048C21F440731B051B0D1C493C
:100C200043F4807343EA05338842A4B29BB212D0E6
:100C300001F5006188420ED0B0F1804F0BD0A1F5D4
:100C40009831884207D001F58061884203D001F5D0
:100C50008061884207D124F4005444F4805444EA6B
:100C6000023292B205E047F6FF51214041F4805133
:100C70000A4383830284838B23F440631B041B0C8D
:100C80008383838B9BB2838330BD00BF84030020AA
:100C9000002C0140F8B50446184F182303FB0073DD
:100CA00003F10802D079164E250138B919820123C3
:100CB000D37173197059197B02221CE003F11000E3
:100CC00059821B8AC91A89B2818040F2DA50A1F296
:100CD000EF239BB2834205D890790A4B23F810107A
:100CE000FFF788FE182303FB0474731908340022ED
:100CF0007059197BE271BDE8F840D1E690030020FD
:100D0000085E00086E09002008B1014B187070479A
:100D10002800002008B1014B5870704728000020BF
:100D20001FB504466B46432106226820FFF780FD6D
:100D30009DF801309DF80020042143EA022212B2FE
:100D400092FBF1F29DF80230ADF808209DF80320E7
:100D500002A842EA032212B292FBF1F29DF804309B
:100D6000ADF80A209DF8052042EA03231BB293FB4D
:100D7000F1F3ADF80C30034B21461A7800F044FC37
:100D800004B010BD280000201FB504466B463B216F
:100D900006226820FFF74CFD9DF800209DF80130E9
:100DA00002A843EA0223ADF808309DF802209DF81E
:100DB0000330214643EA0223ADF80A309DF80420AF
:100DC0009DF8053043EA0223ADF80C30024B5A7807
:100DD00000F01AFC04B010BD2800002080EAE07387
:100DE000A3EBE0738B4206DB002801DD401A70475D
:100DF00002D008447047002070472DE9F04F0C687E
:100E0000836887B0D0F800A0D0F804900746204649
:100E100001938B4603F0CEFD8046204603F03CFE56
:100E2000DBF804500446284603F0C4FD0646284675
:100E300003F032FEDBF8082005461046009203F06E
:100E4000B9FD009A8346104603F026FE4146009005
:100E5000584601F06BFA41460290009801F066FA9C
:100E600059460390204601F061FA0099049020460B
:100E700001F05CFA31460590584601F057FA0146F8
:100E8000504601F053FA29468346049801F04EFA81
:100E90000146039801F042F90146484601F046FA3E
:100EA0000146584601F03AF929468346029801F076
:100EB0003DFA0146059801F02FF90146019801F02D
:100EC00035FA0146584601F029F90099386006F1D3
:100ED000004001F02BFA0146504601F027FA29465E
:100EE0008346059801F022FA0146029801F014F9B0
:100EF0000146484601F01AFA0146584601F00EF93B
:100F000029468346039801F011FA0146049801F03E
:100F100005F90146019801F009FA0146584601F029
:100F2000FDF829467860504601F000FA3146054642
:100F300004F1004001F0FAF90146484601F0F6F9E3
:100F40000146284601F0EAF841460446304601F0E1
:100F5000EDF90146019801F0E9F90146204601F05A
:100F6000DDF8B86007B0BDE8F08F0148032111E556
:100F700000080040014802210CE500BF00040040C9
:100F80004FF08040012105E50148002102E500BF46
:100F9000002C0140084B9A8998811A89D007FCD50A
:100FA000054B9889C0B2044B1A899107FBD51A8961
:100FB0001206FCD4704700BF00380040484B2DE9B2
:100FC000F347484E182707FB00370401331903F194
:100FD000080A814658689B68BA73ADF804308846A1
:100FE000282301A902258DF806308DF80750FFF758
:100FF0009BFA34599AF80460002220463146FFF7E4
:101000004FFD20464FF6FF7100F010F9238801A82C
:101010009BB243F0010323809AF805304FF0010A98
:101020008DF804308DF805A08DF806A08DF807A086
:1010300000F0A0FA2C4B9C420DD0B4F1804F0CD0A4
:10104000A3F594339C420AD003F580639C4214BFFD
:101050000423032304E0002302E0534600E02B4670
:1010600036B1042E31D0082E31D00C2E0DD130E007
:101070003246042B09D002EB83031C4A02EB031314
:10108000C3F808801E7183F80C900C2E23D8DFE87B
:1010900006F0072222220C222222112222221600EE
:1010A000A3899BB243F002030DE0A3899BB243F0F6
:1010B000040308E0A3899BB243F0080303E0A3897B
:1010C0009BB243F01003A38105E00122D1E7022285
:1010D000CFE70322CDE7384602B0BDE8F08700BF76
:1010E00090030020085E0008002C0140B407002097
:1010F000034607B502AA02F8011D6820194600F050
:101100005AF803B05DF804FBB0F8400080B27047B5
:10111000808F80B27047008F80B27047808E80B21F
:101120007047016B0346C26810B5406941B1196C44
:10113000541A013918BF0A46005D1A64C0B210BDC6
:10114000196A405C0131B1FBF2F402FB1412C0B227
:101150001A6210BD436B13B190F844007047836A64
:10116000406A1B1A584258417047036B13B15B68C1
:10117000006C01E0036AC069181A18BF01207047AB
:10118000426A10B58469A154426A04690132B2FB13
:10119000F4F104FB11224262426B32B11368DB07A7
:1011A00008D4BDE81040FFF744B9826CD36843F01F
:1011B0008003D36010BD1C4B4000C0B21870597042
:1011C000002001219970D8701973597398731869A8
:1011D0005A609A6030B38288910515D40288D2058E
:1011E0000DD447F230520188890502D5013AFAD16F
:1011F00012E08AB1028892B242F480720280828840
:1012000092B242F44072828047F23052597B11B15F
:10121000013AFBD100E00AB9FFF7FCBA024B987B18
:1012200080F00100704700BFBC080020244B254A15
:101230001B6810B5B3FBF2F2234C03880139013A65
:10124000A04289B292B29BB212D004F50064A042CF
:101250000ED0B0F1804F0BD0A4F59834A04207D047
:1012600004F58064A04203D004F58064A04202D15A
:1012700023F070039BB2154CA04206D004F58064A5
:10128000A0421CBF23F440739BB203800E4B8185A8
:10129000984202850FD003F5006398420BD003F506
:1012A0004063984207D003F58063984203D003F56A
:1012B0008063984201D1002303860123838210BDFD
:1012C0004400002040420F00002C0140001000406C
:1012D00070B505460E460024AC420FD00A4A0120E4
:1012E000D368013483F00803D360FFF7BDF83046BC
:1012F000FFF7E3F80020FFF7B7F8EDE73C20BDE883
:101300007040FFF7DAB800BF000C01401F4A10B56B
:1013100053681F4903F00C03042B03D0082B03D0A0
:101320001C4B12E00B6810E053685468C3F383430E
:10133000E40303F1020301D4174C05E0546814F4EC
:10134000003F0C6818BF6408634303605368C3F32D
:1013500003130B441C790368E34043605468C4F3EF
:1013600002240C44247923FA04F484605468C4F3FE
:10137000C2240C442479E340C3605268C2F3813232
:1013800011440A7DB3FBF2F3036110BD001002406B
:101390002C00002000127A0000093D0070B50E46B6
:1013A0000446038ACA889BB223F440531343038242
:1013B00082890989B38892B20B43718922F4B052B1
:1013C0000B4322F00C0213439BB28381838AB289C0
:1013D0009BB223F4407386B01343838201A8FFF7C6
:1013E00095FF039B049D174A3168944218BF1D4620
:1013F000A38919226A431BB2002BB4BF4D008D0094
:10140000B2FBF5F56426B5FBF6F00001010906FB19
:101410001153A28912B2002AADBF1A01D90032318C
:101420003232B5BFB1FBF6F2B2FBF6F302F00702BF
:1014300003F00F03B4BF1043184380B2208106B0FD
:1014400070BD00BF003801408A6810B50C6A03689F
:1014500014430A6923F4FF4314434A6923F07003D9
:1014600014438A691443CA6914434A6A14438A6A52
:10147000224313430360CB6843600B6883604B686F
:10148000C36010BD4FF6FE73026813400360002373
:10149000036043608360C360284B984201D1284AAF
:1014A00027E0284B984201D1254A2AE0264B984252
:1014B00001D1234A2DE0254B984201D1204A30E04A
:1014C000234B984201D11E4A33E0224B984204D16B
:1014D0001B4A536843F470032EE01F4B984204D11B
:1014E000174A536843F0706326E01C4B984204D1BE
:1014F0001B4A536843F00F031EE01A4B984204D175
:10150000174A536843F0F00316E0174B984204D192
:10151000134A536843F470630EE0144B984204D1AD
:101520000F4A536843F4704306E0114B984204D1CC
:101530000B4A536843F4702353607047080002401D
:10154000000002401C000240300002404400024003
:10155000580002406C000240800002400804024033
:10156000000402401C0402403004024044040240D3
:10157000580402400F4BD9684378C943C1F3022194
:10158000C1F1040203FA02F20F23CB4081780B4031
:101590001343094902781B01DBB20A4482F8003385
:1015A00003780122580903F01F0302FA03F341F8FC
:1015B0002030704700ED00E000E100E00F4B1A68BA
:1015C00042F001021A6059680D4A0A405A601A68CE
:1015D00022F0847222F480321A601A6822F4802287
:1015E0001A605A6822F4FE025A604FF41F029A6091
:1015F000044B4FF000629A60704700BF0010024039
:101600000000FFF800ED00E0013A072A30D8DFE8DB
:1016100002F004080C12191E222603880B8043884E
:101620000DE043880B80038803E003885B420B8056
:1016300043885B4203E043885B420B8003884B8016
:10164000838814E003885B420B8043880CE0438866
:101650000B80038808E003880B80438803E04388FD
:101660005B420B8003885B424B8083885B428B80AC
:1016700070470C4BD96D0A88120612D5DA6B986B3D
:1016800082420AD0D86A805C01328880586AB2FBF4
:10169000F0F100FB1122DA637047CB6823F080037E
:1016A000CB607047BC0800200A4B4FF400525A60D0
:1016B0004FF6FE730848826C11680B401360826B12
:1016C000C36B9A4202D01430FEF7B3BE012380F8F8
:1016D0005830704700000240BC0800202DE9F74F49
:1016E000664A00251046B2F9023030F9081B83EA39
:1016F000E37EAEEBE37E81EAE173A3EBE1739E450B
:10170000B8BF9E46A8462B469146022B4FEA430C93
:1017100036D039F913205A4C5200B2F5FA7F594E9F
:1017200034F91350A8BF4FF4FA72B242ACBFC5EB04
:101730000202C5EB060254494FF0640831F9135018
:101740005A211544694391FBF8F1B1F5FA7FA8BF1E
:101750004FF4FA71B142B8BF31468846211D42F2BA
:10176000107451F823202A44A242A8BF2246474CB5
:101770000A25A242B8BF2246554341F823202D1323
:101780003E4A434932F90CA0203232F80C705C5CBE
:101790003EB286EAE672A2EBE672B2F5207F0168FD
:1017A00019DC022B11D0502202FB0AF292FBF4F456
:1017B000A41B0C44B4F57A5F364AA8BF4FF47A54A0
:1017C0009442ACBF0460026007E08AEAEA72A2EBCE
:1017D000EA72642AE7DD0022026004687D2294FB3D
:1017E000F2F22D49022BC95C01FB02F24FEAA21270
:1017F0000FD00EFB0AF10EFB02F2CEF5FA7404FBD9
:10180000081104FB05224FF4FA7B91FBFBFA92FBD3
:10181000FBF2224C6FF04F0BE15C0430714391FB03
:10182000FBF1514404F1040A3AF90CB02AF80C70A7
:10183000CBEB060604F10A0A04F1160B5BF82370E1
:1018400001915AF823104AF823600F44374404F1F9
:1018500022062834E45C4BF823106743202497FBCE
:10186000F4F70199D21B01330A44032B26F80C200C
:101870007FF44BAF03B0BDE8F08F00BF1C09002020
:10188000300900200CFEFFFFDC5D0008F0D8FFFFF0
:10189000E05D000880C1FFFFE35D00084209002011
:1018A000044B03EB8000027B034B03EB4203B3F8D2
:1018B00052007047DC5D00081C09002038B5044662
:1018C000054D21462B68186803681B6898472B68EC
:1018D00018796040187138BD2400002081F0004163
:1018E00002E000BF83F0004330B54FEA41044FEA05
:1018F000430594EA050F08BF90EA020F1FBF54EAA0
:10190000000C55EA020C7FEA645C7FEA655C00F03B
:10191000E2804FEA5454D4EB5555B8BF6D420CDD0C
:101920002C4480EA020281EA030382EA000083EA8F
:10193000010180EA020281EA0303362D88BF30BD2F
:1019400011F0004F4FEA01314FF4801C4CEA113185
:1019500002D0404261EB410113F0004F4FEA0333E4
:101960004CEA133302D0524263EB430394EA050F6F
:1019700000F0A780A4F10104D5F1200E0DDB02FADE
:101980000EFC22FA05F2801841F1000103FA0EF272
:10199000801843FA05F359410EE0A5F120050EF138
:1019A000200E012A03FA0EFC28BF4CF0020C43FA69
:1019B00005F3C01851EBE37101F0004507D54FF076
:1019C000000EDCF1000C7EEB00006EEB0101B1F5C6
:1019D000801F1BD3B1F5001F0CD349085FEA30000C
:1019E0004FEA3C0C04F101044FEA445212F5800F17
:1019F00080F09A80BCF1004F08BF5FEA500C50F1B4
:101A0000000041EB045141EA050130BD5FEA4C0C96
:101A1000404141EB010111F4801FA4F10104E9D11F
:101A200091F0000F04BF01460020B1FA81F308BF16
:101A30002033A3F10B03B3F120020CDA0C3208DDE2
:101A400002F1140CC2F10C0201FA0CF021FA02F1BD
:101A50000CE002F11402D8BFC2F1200C01FA02F12D
:101A600020FA0CFCDCBF41EA0C019040E41AA2BF52
:101A700001EB0451294330BD6FEA04041F3C1CDA1A
:101A80000C340EDC04F11404C4F1200220FA04F03A
:101A900001FA02F340EA030021FA04F345EA0301E4
:101AA00030BDC4F10C04C4F1200220FA02F001FAA6
:101AB00004F340EA0300294630BD21FA04F0294628
:101AC00030BD94F0000F83F4801306BF81F48011C1
:101AD0000134013D4EE77FEA645C18BF7FEA655C34
:101AE00029D094EA050F08BF90EA020F05D054EA06
:101AF000000C04BF1946104630BD91EA030F1EBF0B
:101B00000021002030BD5FEA545C05D1400049410E
:101B100028BF41F0004130BD14F580043CBF01F501
:101B2000801130BD01F0004545F0FE4141F47001E7
:101B30004FF0000030BD7FEA645C1ABF19461046C2
:101B40007FEA655C1CBF0B46024650EA013406BFC3
:101B500052EA033591EA030F41F4002130BD00BF82
:101B600090F0000F04BF0021704730B54FF480643F
:101B700004F132044FF000054FF0000150E700BFC0
:101B800090F0000F04BF0021704730B54FF480641F
:101B900004F1320410F0004548BF40424FF000010C
:101BA0003EE700BF42004FEAE2014FEA31014FEA4F
:101BB00002701FBF12F07F4393F07F4F81F060519E
:101BC000704792F0000F14BF93F07F4F704730B50D
:101BD0004FF4607401F0004521F0004120E700BFA0
:101BE00050EA010208BF704730B54FF000050AE027
:101BF00050EA010208BF704730B511F0004502D528
:101C0000404261EB41014FF4806404F132045FEA29
:101C1000915C3FF4DCAE4FF003025FEADC0C18BFCE
:101C200003325FEADC0C18BF033202EBDC02C2F1C4
:101C3000200300FA03FC20FA02F001FA03FE40EA56
:101C40000E0021FA02F11444C1E600BF70B54FF056
:101C5000FF0C4CF4E06C1CEA11541DBF1CEA135538
:101C600094EA0C0F95EA0C0F00F0DEF82C4481EAA0
:101C7000030621EA4C5123EA4C5350EA013518BFC0
:101C800052EA033541F4801143F4801338D0A0FBAD
:101C900002CE4FF00005E1FB02E506F00042E0FB5A
:101CA00003E54FF00006E1FB03569CF0000F18BF60
:101CB0004EF0010EA4F1FF04B6F5007F64F5407408
:101CC00004D25FEA4E0E6D4146EB060642EAC6219B
:101CD00041EA55514FEAC52040EA5E504FEACE2E08
:101CE000B4F1FD0C88BFBCF5E06F1ED8BEF1004F0B
:101CF00008BF5FEA500E50F1000041EB045170BD87
:101D000006F0004646EA010140EA020081EA0301CA
:101D1000B4EB5C04C2BFD4EB0C0541EA045170BDC6
:101D200041F480114FF0000E013C00F3AB8014F140
:101D3000360FDEBF002001F0004170BDC4F1000489
:101D4000203C35DA0C341BDC04F11404C4F120050A
:101D500000FA05F320FA04F001FA05F240EA020065
:101D600001F0004221F0004110EBD37021FA04F69B
:101D700042EB06015EEA430E08BF20EAD37070BD55
:101D8000C4F10C04C4F1200500FA04F320FA05F0B4
:101D900001FA04F240EA020001F0004110EBD370B6
:101DA00041F100015EEA430E08BF20EAD37070BD26
:101DB000C4F1200500FA05F24EEA020E20FA04F3FF
:101DC00001FA05F243EA020321FA04F001F00041AE
:101DD00021FA04F220EA020000EBD3705EEA430E1F
:101DE00008BF20EAD37070BD94F0000F0FD101F04E
:101DF0000046400041EB010111F4801F08BF013C87
:101E0000F7D041EA060195F0000F18BF704703F0C4
:101E10000046520043EB030313F4801F08BF013D4B
:101E2000F7D043EA0603704794EA0C0F0CEA135507
:101E300018BF95EA0C0F0CD050EA410618BF52EAC1
:101E40004306D1D181EA030101F000414FF00000C7
:101E500070BD50EA410606BF1046194652EA4306D5
:101E600019D094EA0C0F02D150EA013613D195EA49
:101E70000C0F05D152EA03361CBF104619460AD191
:101E800081EA030101F0004141F0FE4141F470019B
:101E90004FF0000070BD41F0FE4141F4780170BD8B
:101EA00070B54FF0FF0C4CF4E06C1CEA11541DBFF0
:101EB0001CEA135594EA0C0F95EA0C0F00F0A7F8F2
:101EC000A4EB050481EA030E52EA03354FEA01311F
:101ED00000F088804FEA03334FF0805545EA131332
:101EE00043EA12634FEA022245EA111545EA1065FA
:101EF0004FEA00260EF000419D4208BF964244F191
:101F0000FD0404F5407402D25B084FEA3202B61AAF
:101F100065EB03055B084FEA32024FF480104FF483
:101F2000002CB6EB020E75EB030E22BFB61A7546F7
:101F300040EA0C005B084FEA3202B6EB020E75EB8A
:101F4000030E22BFB61A754640EA5C005B084FEAF2
:101F50003202B6EB020E75EB030E22BFB61A7546BF
:101F600040EA9C005B084FEA3202B6EB020E75EBCA
:101F7000030E22BFB61A754640EADC0055EA060E8B
:101F800018D04FEA051545EA16754FEA06164FEACE
:101F9000C30343EA52734FEAC2025FEA1C1CC0D17A
:101FA00011F4801F0BD141EA00014FF000004FF007
:101FB000004CB6E711F4801F04BF01430020B4F1C8
:101FC000FD0C88BFBCF5E06F3FF6AFAEB5EB030C80
:101FD00004BFB6EB020C5FEA500C50F1000041EB7D
:101FE000045170BD0EF0004E4EEA113114EB5C044A
:101FF000C2BFD4EB0C0541EA045170BD41F480111D
:102000004FF0000E013C90E645EA060E8DE60CEA24
:10201000135594EA0C0F08BF95EA0C0F3FF43BAF41
:1020200094EA0C0F0AD150EA01347FF434AF95EAF8
:102030000C0F7FF425AF104619462CE795EA0C0FDC
:1020400006D152EA03353FF4FDAE1046194622E7A9
:1020500050EA410618BF52EA43067FF4C5AE50EA83
:1020600041047FF40DAF52EA43057FF4EBAE12E773
:102070004FEA4102B2F1E04324BFB3F5001CDCF1AA
:10208000FE5C0DD901F0004C4FEAC0024CEA5070E2
:10209000B2F1004F40EB830008BF20F00100704711
:1020A00011F0804F21D113F13872BCBF01F0004014
:1020B000704741F480114FEA5252C2F11802C2F146
:1020C000200C10FA0CF320FA02F018BF40F00100C7
:1020D0004FEAC1234FEAD32303FA0CFC40EA0C0079
:1020E00023FA02F34FEA4303CCE77FEA625307D1B6
:1020F00050EA01331EBF4FF0FE4040F440007047ED
:1021000001F0004040F0FE4040F40000704700BF86
:1021100080F0004002E000BF81F0004142001FBF9C
:102120005FEA410392EA030F7FEA226C7FEA236CA5
:102130006AD04FEA1262D2EB1363C1BFD21841409A
:1021400048404140B8BF5B42192B88BF704710F030
:10215000004F40F4000020F07F4018BF404211F0D3
:10216000004F41F4000121F07F4118BF494292EA3B
:10217000030F3FD0A2F1010241FA03FC10EB0C0067
:10218000C3F1200301FA03F100F0004302D54942F4
:1021900060EB4000B0F5000F13D3B0F1807F06D3A1
:1021A00040084FEA310102F10102FE2A51D2B1F199
:1021B000004F40EBC25008BF20F0010040EA03008E
:1021C0007047490040EB000010F4000FA2F101023B
:1021D000EDD1B0FA80FCACF1080CB2EB0C0200FAC5
:1021E0000CF0AABF00EBC25052421843BCBFD04013
:1021F0001843704792F0000F81F4000106BF80F48D
:1022000000000132013BB5E74FEA41037FEA226C4F
:1022100018BF7FEA236C21D092EA030F04D092F01A
:10222000000F08BF0846704790EA010F1CBF00204E
:10223000704712F07F4F04D1400028BF40F00040AB
:10224000704712F100723CBF00F50000704700F0CB
:10225000004343F0FE4040F4000070477FEA2262F2
:1022600016BF08467FEA23630146420206BF5FEAC3
:10227000412390EA010F40F4800070474FF00003C3
:1022800004E000BF10F0004348BF40425FEA000C8A
:1022900008BF704743F0964301464FF000001CE032
:1022A00050EA010208BF70474FF000030AE000BF88
:1022B00050EA010208BF704711F0004302D54042C6
:1022C00061EB41015FEA010C02BF84460146002038
:1022D00043F0B64308BFA3F18053A3F50003BCFA53
:1022E0008CF2083AA3EBC25310DB01FA02FC634400
:1022F00000FA02FCC2F12002BCF1004F20FA02F207
:1023000043EB020008BF20F00100704702F12002F9
:1023100001FA02FCC2F1200250EA4C0021FA02F25A
:1023200043EB020008BF20EADC7070474FF0FF0C5F
:102330001CEAD0521EBF1CEAD15392EA0C0F93EA5A
:102340000C0F6FD01A4480EA010C400218BF5FEAFC
:1023500041211ED04FF0006343EA501043EA51116F
:10236000A0FB01310CF00040B1F5000F3EBF490069
:1023700041EAD3715B0040EA010062F17F02FD2A6D
:102380001DD8B3F1004F40EBC25008BF20F0010050
:10239000704790F0000F0CF0004C08BF49024CEA67
:1023A000502040EA51207F3AC2BFD2F1FF0340EAF9
:1023B000C250704740F400004FF00003013A5DDC6A
:1023C00012F1190FDCBF00F000407047C2F10002AB
:1023D000410021FA02F1C2F1200200FA02FC5FEA98
:1023E000310040F1000053EA4C0308BF20EADC70E2
:1023F000704792F0000F00F0004C02BF400010F454
:10240000000F013AF9D040EA0C0093F0000F01F000
:10241000004C02BF490011F4000F013BF9D041EA22
:102420000C018FE70CEAD15392EA0C0F18BF93EA24
:102430000C0F0AD030F0004C18BF31F0004CD8D14E
:1024400080EA010000F00040704790F0000F17BFD5
:1024500090F0004F084691F0000F91F0004F14D01B
:1024600092EA0C0F01D142020FD193EA0C0F03D173
:102470004B0218BF084608D180EA010000F0004076
:1024800040F0FE4040F40000704740F0FE4040F451
:10249000400070474FF0FF0C1CEAD0521EBF1CEAF0
:1024A000D15392EA0C0F93EA0C0F69D0A2EB03020E
:1024B00080EA010C49024FEA402037D04FF08053A8
:1024C00043EA111143EA10130CF000408B4238BF6D
:1024D0005B0042F17D024FF4000C8B4224BF5B1A7B
:1024E00040EA0C00B3EB510F24BFA3EB510340EAC9
:1024F0005C00B3EB910F24BFA3EB910340EA9C0077
:10250000B3EBD10F24BFA3EBD10340EADC001B01E6
:1025100018BF5FEA1C1CE0D1FD2A3FF650AF8B428A
:1025200040EBC25008BF20F0010070470CF0004C97
:102530004CEA50207F32C2BFD2F1FF0340EAC250C2
:10254000704740F400004FF00003013A37E792F083
:10255000000F00F0004C02BF400010F4000F013AE1
:10256000F9D040EA0C0093F0000F01F0004C02BFDC
:10257000490011F4000F013BF9D041EA0C0195E745
:102580000CEAD15392EA0C0F08D142027FF47DAFDE
:1025900093EA0C0F7FF470AF084676E793EA0C0FCE
:1025A00004D14B023FF44CAF08466EE730F0004CCC
:1025B00018BF31F0004CCAD130F000427FF45CAF5C
:1025C00031F000437FF43CAF5FE700BF4FF0FF3CCA
:1025D00006E000BF4FF0010C02E000BF4FF0010C1D
:1025E0004DF804CD4FEA40024FEA41037FEA226CE6
:1025F00018BF7FEA236C11D001B052EA530C18BF08
:1026000090EA010F58BFB2EB030088BFC81738BF6C
:102610006FEAE17018BF40F0010070477FEA226C5A
:1026200002D15FEA402C05D17FEA236CE4D15FEA56
:10263000412CE1D05DF8040B704700BF844608468A
:102640006146FFE70FB5FFF7C9FF002848BF10F14B
:10265000000F0FBD4DF808EDFFF7F4FF0CBF012090
:1026600000205DF808FB00BF4DF808EDFFF7EAFF1A
:1026700034BF012000205DF808FB00BF4DF808EDD5
:10268000FFF7E0FF94BF012000205DF808FB00BFCA
:102690004DF808EDFFF7D2FF94BF012000205DF850
:1026A00008FB00BF4DF808EDFFF7C8FF34BF01205D
:1026B00000205DF808FB00BF4FEA4002B2F1FE4F78
:1026C0000FD34FF09E03B3EB12620DD94FEA0023F4
:1026D00043F0004310F0004F23FA02F018BF4042CD
:1026E00070474FF00000704712F1610F01D14202B4
:1026F00005D110F0004008BF6FF0004070474FF068
:102700000000704742000ED2B2F1FE4F0BD34FF0E3
:102710009E03B3EB126209D44FEA002343F0004357
:1027200023FA02F070474FF00000704712F1610F7A
:1027300001D1420202D14FF0FF3070474FF000004C
:10274000704700BF000000002DE980480023A3B0BF
:102750000A93624C0B930C934FF4E0130D93236890
:1027600043F480332360A36943F01003A36123681B
:1027700003F400330B930A9B01330A930B9B1BB9A1
:102780000A9BB3F5A06FF2D12368544913F40033C8
:1027900001D0022315E00A6842F001020A600A93A0
:1027A000236803F002030B930A9B01330A930B9BEC
:1027B0001BB90A9BB3F5A06FF2D123689B0739D5EB
:1027C00001230C93464B47491A6842F010021A60E5
:1027D0001A6822F003021A601A6842F002021A60B4
:1027E0006368636063686360636843F48063636025
:1027F0003D4B1A68043B22F070425A603B4A11601C
:10280000616821F47C116160596841F000415960B0
:10281000D96821F40041D9609B681F0449BF344B3B
:102820004FF4E01313604FF480130D930C9B012BB6
:1028300001D108E0FEE7022B09D10D9963680B4333
:1028400043F4803302E0636843F4601363602368F9
:1028500043F0807323602168204B8E01FBD55968BB
:1028600021F003015960596841F002015960636821
:102870001A4903F00C03082BF9D14B68DFF880905C
:1028800003F00C03042B03D0082B03D0154B12E0EC
:10289000136810E04B684868C3F38343C50303F132
:1028A000020301D4134905E0496811F4003F11689F
:1028B00018BF49084B43C9F8003063680E4EC3F394
:1028C0000313F15CD9F800300C4FCB40C9F800304D
:1028D0001368044A934215D1012317E00010024007
:1028E0000020024000127A00041001402C00002059
:1028F000001BB70000093D000000002084090020F3
:1029000044000020B04A934201D102233B60DFF82B
:1029100000E317ADBEE80F000FC59EE80F0085E885
:102920000F00AA4AAA4BAB48DA60E3690FA943F04B
:102930000703E361A36918AD43F4944343F01D0317
:10294000A36163690DF1800A43F001036361636A67
:1029500043F0807363624FF6FF73ADF83C300023A1
:102960008DF83E30FDF7E0FD9B480FA9FDF7DCFD3B
:102970009A480FA9FDF7D8FD994A0020536843F003
:10298000007353603B68012BC8BF964A964BD8BF73
:10299000964A1A60FDF768FD8F4B08221A611022D3
:1029A0001A61D7F80080B8F1010F04DDAB78142B61
:1029B00004BF1023AB7055F8040C29460835FDF709
:1029C000B3FD5545EDD112A8FEF7A0FC129B884A35
:1029D000F021B3FBF2F3874A00251360D9F80030E9
:1029E0004FF47A72B3FBF2F3834A013B5360784BA6
:1029F000642083F823100723956013607F4B804A7F
:102A000083E82400FDF759FD2B4641F2DA6103FB10
:102A100003F2193A4A4340F6C41102F55B3202F55B
:102A20003A725A4392FBF1F2764921F813200133AE
:102A3000072BEAD100224FF47A7000FB02F3A3F5D2
:102A40009C534FF00A0E083B93FBFEF303F5FA7319
:102A50009BB24FF47F7E0EFB03F393FBF0F3674DC5
:102A600003F2DE3305F1160121F8123001320C2A8F
:102A7000E1D1E369DFF8609143F48043E361182317
:102A80008DF83A304FF420434846ADF838300EA95F
:102A900003238DF83B30FDF747FD4FF48043484654
:102AA000ADF838300EA904234FF0100B8DF83A30F2
:102AB0004FF4805AFDF738FD48460EA9ADF838A00E
:102AC0008DF83AB0FDF730FD2369002143F48043CF
:102AD00023612369012023F4804323614FF482732F
:102AE000ADF85E304FF40073ADF866300223ADF8F8
:102AF00062300724444BADF85C10ADF86010ADF8BF
:102B00006A10ADF86C40ADF86400ADF868B01A8892
:102B100002F4415242F4457242F003021A809A8B49
:102B200022F4006202FA0BF222FA0BF29A831C8260
:102B30001A8892B242F040021A809F228DF83D100E
:102B40008DF83E108DF83F108DF83C2085F82E0052
:102B5000C9F814A09B894FF005090FAB12A9B9F170
:102B6000010909D013B11878013300E0FF20264A8B
:102B70001489A407FBD535E1174C4FF4805AC4F8EB
:102B800010A09DF84A309DF849201B0243EA0243F9
:102B90009DF84B20194D13431C4A93423FD03220DD
:102BA000FDF78BFCC4F814A0F520FEF7F3F9FF2025
:102BB000FEF7F0F970288DF84800C4F810A029D06D
:102BC00085F82E902BE000BF001BB7000005FA052A
:102BD00000ED00E000080140000C01400010014041
:102BE000000001401301000890090020290100089D
:102BF00040420F009406002010E000E0B0000020EA
:102C000085090008B8000020003800401520200089
:102C1000085D0008B8F1020F04BF03233B603C6865
:102C2000032C02D00120FDF7B1FC0422012C8D4BB6
:102C300085F82F204FF000024FF0010785F8302073
:102C4000C2BF052283F8312083F832708648C8BF9E
:102C500002274FF00008FEF715FC022F18BFC146EF
:102C6000824B08BF4FF080091793814BCDF87090CD
:102C700018934FF48073DFF8F0911D934FF4806345
:102C80001E9320231F9348464FF4005317A91A9709
:102C90002093CDF86480CDF86C80CDF88480FEF769
:102CA000D3FBD9F800307348012F43F001034FF4F0
:102CB0006022FFB2C9F8003014928DF85870CDF838
:102CC0004880CDF854804168D8BF4FF0000E21F401
:102CD0007022C8BF4FF0010E22F4807242EA0E2229
:102CE00001238DF84CE08DF84D3042608168624AD6
:102CF000013F0A4042F4602242F002028260C26A4E
:102D0000FFB222F4700242EA0757C7625B4A12F828
:102D10001870002F4FD0092F03F101015548DBB285
:102D20000DD9A7F10A02D0F80CE002EB42024FF0F5
:102D3000070C0CFA02F242EA0E02C26009E00269D4
:102D400007EB470C4FF0070E0EFA0CFE4EEA02029C
:102D50000261062B47480ED8013B03EB8302D0F8F3
:102D600034C01F2393402CEA030E07FA02F34EEA05
:102D7000030343631EE00C2B0ED8DA1FD0F830C0DB
:102D800002EB82021F2393402CEA030E07FA02F3A0
:102D90004EEA030303630DE00D3BC26A03EB8303BA
:102DA0004FF01F0E0EFA03FE22EA0E0207FA03F39B
:102DB0001343C3620B4608F10108B8F1040FA5D113
:102DC0002C4B9A6842F480729A609A6842F0010231
:102DD0009A609A6842F008029A609968254A090741
:102DE0000ED5FAE780B290811089C007FCD5244A3D
:102DF000928992B200293FF4B2AE0A700131AEE678
:102E0000936843F0040393601A4B9A685707FBD406
:102E10009A68062142F4A0029A604FF480537382AC
:102E20000A4617AB6820FDF703FD9DF85F309DF85B
:102E3000612003F001035B0002F0010243EA820219
:102E40009DF85D3003F001031343DAB28DF848209A
:102E5000C3B1012B00F05484022A24D00520FDF7D1
:102E600036FB00BFB0000020080002404C240140A7
:102E7000E800002000240140FDF7F1FFDF00002002
:102E80000038004012AB68200C210122FDF7D0FC75
:102E90009DF8483003F00F038DF84830002BDDD04B
:102EA000042B00F02D84C04B012CEB644FF0030386
:102EB00033740DDD4FF40053ADF85C3002238DF810
:102EC0005F30BA48042317A98DF85E30FDF72CFB5C
:102ED00080216B20FEF70CF96420FDF7EEFA00214B
:102EE0001920FEF705F903216B20FEF701F90A20EE
:102EF000FDF7E3FA03211A20FEF7FAF818211B2048
:102F0000FEF7F6F810211C20FEF7F2F81221372008
:102F1000FEF7EEF801213820FEF7EAF8A44B002076
:102F20002B65A44B0A246B65A34B2B64A34B6B64EA
:102F3000FDF7F0FE2B6C00209847A14B10225A6140
:102F400008221A619E4F1920FB68013C83F0100390
:102F5000FB60FB6883F00803FB60FDF7AEFA01201D
:102F6000FDF782FA1920FDF7A8FA0020FDF77CFA98
:102F700014F0FF04E6D108233B6110233B61708A03
:102F8000FFF780F98F490746FFF7D0F901F048FDB8
:102F90003946A5F860008C48FFF77CFA8B49FFF7AB
:102FA00079FA8B4B6866AB668A4BEB66DFF850E2CA
:102FB000DFF850C20EF17007274404EB0C03103405
:102FC000402C0FCB87E80F00F0D1834C4FF47A737D
:102FD000AEF8B030AEF8B230AEF8B430AEF8B630CD
:102FE0000CF1400323600EF1BC0363610EF5DE7348
:102FF000A3614FF48073E3602361784B4FF00008C6
:10300000774A4FF4E139CEF8B880C4F808902363CA
:10301000143B63639369734843F4804393610223D1
:103020008DF84B304FF40073ADF8483012A91823D7
:103030008DF84A30FDF778FA4FF48063ADF84830E8
:1030400048230DEB030167488DF84A30FDF76CFA11
:103050000E23654F8DF85C3017A801238DF85D3085
:103060008DF85E308DF85F30FEF784FA032323710C
:1030700038460C2312A9ADF85230A764C4F820805A
:10308000C4F81C80C4F82880C4F82480C4F82C80BC
:10309000C4F80890CDF84890ADF84C80ADF84E805B
:1030A000ADF85080ADF85480FEF778F9BB89206BFD
:1030B0009BB243F40053BB814C4BCDF86080179317
:1030C0004FF4805320938023CDF86480CDF868803E
:1030D000CDF86C80CDF87480CDF87880CDF87C8008
:1030E000CDF884801C93C8B1E3681A9320231F9302
:1030F00063691893FEF7C6F9206B17A9FEF7A4F9C8
:10310000226B136843F001031360BB8A9BB243F048
:103110004003BB8253689BB2236404E0344A1368C3
:1031200043F020031360606BDFF8AC80E0B1D8F8A7
:10313000103000271A93102319931F97FEF7A2F956
:10314000D8F8340017A9FEF77FF9D8F834301A6898
:1031500042F002021A60244A5F605F60938A9BB269
:1031600043F08003938204E0214A136843F0800314
:103170001360204B00271C60D5F8B830C5F8BC425E
:103180000133C5F8B83040F2D93385F8D472B38230
:10319000194BFB5CFF2B03F00F0635D1174BC5F81D
:1031A000D8320023D4E100BF18449231001001400E
:1031B000150D0008890D0008090D0008210D0008F3
:1031C000000C0140C903683F0AE81C4100401C464E
:1031D000F62421443661023DD00800205800024008
:1031E000001002400008014000380140043801404E
:1031F0000C3801409C060020805D0008E5090008AD
:10320000B0000020285D0008DC0606D53046BC4929
:103210000022FDF7D3FE08230DE003F0200202F0A8
:10322000FF0B5AB13046B74995F8DC22FDF7C6FED0
:1032300095F8DC32013385F8DC3284E1580640F140
:10324000828195F8DDA218220AF1010385F8DD32AA
:10325000AD4BDFF8B89202FB06334FEA061859F877
:1032600008400193204609EB080340F6C41105927B
:103270000293FDF7DBFF029B059A03F1080C5868E7
:103280009B6817A9ADF85C300223CDF810C08DF80B
:103290005E208DF85F300293FDF746F9DDF810C02F
:1032A0007021029BADF85C109CF804200121ADF860
:1032B0005E10ADF864304FF47A714FF48073ADF85E
:1032C00060B0ADF866B0ADF86AB0ADF86210ADF8B8
:1032D00068300C2A00F2E980DFE812F00D00E70008
:1032E000E700E7004D00E700E700E7008200E700A5
:1032F000E700E700B600238CDFF814C223F00103D7
:103300001B041B0C2384218CA088238B1FFA81FEB5
:1033100023F073031B041B0C2EF00201644580B2E2
:1033200043F0700341F003010FD00CF5006C6445CD
:103330000BD00CF5406C644507D00CF5806C6445EF
:1033400003D00CF5806C644507D12EF00E0120F4FB
:10335000407041F0030140F48070A08023834FF45B
:103360007A73A3862184238B23F008031B041B0C90
:1033700043F0080332E0238CDFF894C123F01003FC
:103380001B041B0C2384218CA088238B1FFA81FE35
:1033900023F4E6431B041B0C2EF02001644580B28D
:1033A00043F4E04341F0300103D00CF5006C644578
:1033B00007D12EF0E00120F4406041F0300140F4EC
:1033C0008060A08023834FF47A7323872184238B2A
:1033D00023F400631B041B0C43F40063238364E0A9
:1033E000238CDFF82CC123F480731B041B0C238473
:1033F000218CA088A38B1FFA81FE23F073031B048A
:103400001B0C2EF40071644580B243F0700341F44C
:10341000407103D00CF5006C644507D12EF4606157
:1034200020F4405041F4407140F48050A080A383C8
:103430004FF47A73A3872184A38B23F008031B0422
:103440001B0C43F008032FE0238CDFF8C4E023F4C7
:1034500080531B041B0C2384238CA088A18B23F492
:10346000005321F4E64109041B04090C1B0C7445AC
:1034700080B241F4E04143F4405303D00EF5006EB6
:10348000744503D120F4804040F48040A080A183A3
:103490004FF47A71A4F840102384A38B23F40063C3
:1034A0001B041B0C43F40063A383C14499F80E3042
:1034B00043B1B4F844306FEA43436FEA53439BB2DD
:1034C000A4F84430238804F124009BB243F00103A4
:1034D0002380182303FB0651C1F8E442C1F8E80237
:1034E0000C2A24D8DFE802F0072323231623232302
:1034F0001A2323231E0003FB0653343415E000BFB8
:10350000450A0008950C000890030020085E00089A
:10351000002C014003FB0653383406E003FB06533E
:103520003C3402E003FB06534034C3F8E042182366
:1035300003FB065640F6C413A6F8EC32019B05EBDC
:103540008A0ACAF8303401370E2F7FF421AE25E6FF
:1035500040F2DE51A04C04F5886222F813100133CA
:10356000122BF5D19D4BC4F86434082384F8D03273
:10357000FCF780FF4FF47A73A4F86C34012384F8CD
:103580006E3422AA5123C4F8680402F8613D702009
:103590000021FDF710FE84F86F048F4C904BD4F897
:1035A00070241B6827469A1A002AC0F2AE8004F5E0
:1035B000886804F27446C146B24603F59C43203342
:1035C000C4F870340025D7F86434E8B2984740F264
:1035D000DC52A0F2EE239BB2934288BF1046D7F88C
:1035E000B414804B7C4A0B40002BBEBF03F1FF3369
:1035F00063F00303013303EB850302EB4303A3F8FA
:1036000074043AF83520738801351344B288082DC4
:103610001344F28806F1080613441BB24FF004026B
:1036200093FBF2F328F8023BCDD16B4A4B1CC2F856
:10363000B4340022134640F24C4039F912109B0872
:10364000814206DD40F26B7063F07F038142DBB2A2
:1036500001DC43F040030132042AECD194F8B82491
:103660005D499A4205D191F8B924F92A04D801326A
:1036700000E0002281F8B92440F24B42B4F946142C
:1036800084F8B834914241F3018194F8B914524A54
:1036900014292BD192F8BA1451B15F2B26D1D2F84C
:1036A000BC14002382F8BA3401B3C2F8BC341DE064
:1036B000572B04D14FF47A73A2F86C3416E06F2BB9
:1036C0000ED1B2F86C3433B992F8C0341BB1012377
:1036D00082F8BA340AE00220FF21FDF7F9FD05E087
:1036E000972B02BF404B4FF4C8721A8040F214521D
:1036F000B4F94814384B914201F3D28001F0EDB88F
:103700004FF4FF637382FFF7CEBBD4F8E424042A9E
:1037100000F2A081DFE812F0050039009A019A0159
:103720009A0194F86F242C4D62B3D5F8DC249A1AD0
:10373000002A27DB03F51C5395F8E0141033C5F875
:10374000DC3449B922AA512302F8503D7020FDF71C
:1037500032FDB8B1012313E0012910D170208F216F
:10376000022217ABFDF764F860B19DF85C209DF86C
:103770005D3003EB0223A5F8E234022300E00023CE
:1037800085F8E0340123C4F8E434FCF773FED4F880
:10379000E824164BC2EB000846F2A71290455D885C
:1037A0000D4E1B8840F252812AB282EAE275A5EBE7
:1037B000E2751AB282EAE273A3EBE2739D42B8BFEC
:1037C0001D462DB2FA2DC6F8E80411DD4FF0FF3387
:1037D000C6F8EC3423E000BFB0000020A1180008B8
:1037E00080090020030000808809002030090020A3
:1037F000D6F8EC04FEF742FD07462846FEF742FDE8
:103800000146BD48FEF788FC01463846FEF78EFDAE
:10381000B949FEF73FFEFEF775FFC6F8EC04DFF886
:10382000F892B64ED9F80000FEF728FDB4490746D5
:10383000FEF77CFD8346D4F8F804FEF723FD8246AC
:10384000D4F8FC04FEF71EFD01465046FEF722FEAA
:10385000616E0190FEF76AFD3946FEF767FD4FF095
:103860007C510490FEF762FD5946FEF75FFDD4F8E7
:103870000075594602903846FEF758FD029B0146F6
:103880001846FEF74BFCD4F80415FEF747FCFEF78C
:1038900089F991A3D3E90023FEF7D8F9D4F8ECA471
:1038A000CDE902015046FEF7E9FCFEF77BF98CA357
:1038B000D3E90023FEF7CAF902460B46DDE902010F
:1038C000FEF712F8FEF7D4FBDDF810C0C4F80405CB
:1038D00061463846C4F8C8A4FEF720FC00270290D1
:1038E000C4F8F074C4F8F474C4F8F874D4F8080593
:1038F000C9F80070C4F8FC74C0EB0A00FEF7BEFC07
:103900008049FEF713FD81464046FEF7B7FC0146AD
:103910004846FEF7BFFDFEF7CFFE40F2DC5398426B
:10392000A8BF1846A3F6B8339842B8BF18460A2174
:10393000C4F808A5FDF752FA029A83461046FEF72E
:1039400031F969A3D3E90023FEF780F98046584690
:103950008946FEF715F966A3D3E90023FEF776F949
:1039600002460B4640464946FDF7BEFFFEF780FB88
:10397000C4F8000501F054F805218046FDF72EFA41
:10398000B5F5487FC4F80C055ADAD6F8C4040A2104
:10399000CAEB000ABAF5FA7F5B48A8BF4FF4FA7A7F
:1039A0005045B8BF5046FDF719FA322242438020F5
:1039B00092FBF0F2B2F5967FA8BF4FF49672A0F595
:1039C000D6708242ACBFC8EB0208C8EB0008D6F83C
:1039D000D0342D2202FB08334C4A78219342A8BFF1
:1039E00013464B4A20249342B8BF134601FB08F20A
:1039F00092FBF4F242F20404C6F8D03493FBF4F3E1
:103A0000B2F5967FA8BF4FF496728242ACBF9C1865
:103A10001C18D6F810150198FEF780FB4FF06C517A
:103A2000FEF784FCFEF748FE9628A8BF96206FF0AC
:103A300095039842ACBF241AE41AC6F8D44401E0B6
:103A4000C6F8D4742D4B019AC3F810252B4B0022D5
:103A5000C3F8E424FCF70EFD284C2E4BA346186057
:103A6000D4F81435C31A002BFFF697AD00F6AC500E
:103A7000C4F81405626C04F5A3609047B4F86C2494
:103A800004F5A36704F5AD69002A00F0B78004F5DA
:103A9000A46604F22C554FF00008BBF86C3437F9DB
:103AA0001800B3F57A7F02BF002232602A613268C3
:103AB000019302443260FEF7E5FB2A694FEA480AA7
:103AC0000132012A2A6129D1002268602860AA6097
:103AD0004DE000BFAFF30080E17A14AE47E1EE3F66
:103AE000F051B81E85EBA13F85EB51B81E85EF3F25
:103AF000C01E85EB51B88E3F00006144B00000202D
:103B0000BD378635002474490CFEFFFF20031900E1
:103B1000E0FCE6FF800900208C0900202B6806925B
:103B2000194604930590FEF7F7FA069A029010469C
:103B3000FEF7A8FB01460298FEF7ACFC049B014689
:103B40001846FEF7EBFA0246DDF814C0114668602D
:103B500060460492FEF7E0FA01460298FEF7E6FBA3
:103B6000A968FEF7DBFA049AE8602A60A860019B66
:103B70000022012B27F80A2029F80A202FD12869D2
:103B8000012807DD0138FEF77DFB0146E868FEF7F6
:103B900081FC00E0002000F0BFFF4FF08441FEF701
:103BA00081FD4FF47A7178B10022ABF86C14CBF838
:103BB0003C25CBF85025CBF86425CBF82825CBF84D
:103BC0002425CBF820250AE032680A2002F5FA7293
:103BD00092FBF1F20F2129F80A20FDF779FB08F199
:103BE0000108B8F1030F06F1040605F114057FF48E
:103BF00054AFB4F86C34013BA4F86C34002337F8AC
:103C0000132039F81310BA4E521A27F81320013333
:103C1000032BF4D1B74D736D06F26E509847298887
:103C200006F26E5600293DD04FF0000CB24BB1F5B4
:103C3000C87F04BF002243F82C204FEA8C0E36F9CF
:103C40001C8053F80E00AA4A404443F80E0000239B
:103C500002F5B06026F81C3020F81C300CF1010C85
:103C6000BCF1030FE2D101291AD1D2F874354FF417
:103C7000C87603F1C80090FBF6F0A2F88005D2F8F0
:103C80007805D2F87C35C83090FBF6F0C83393FB4A
:103C9000F6F3A2F882059948408A1B1AA2F88435E7
:103CA0004B1E2B80B4F86E35B4F880254FF0000918
:103CB0009B1AA4F86E35B4F88225B4F87035CB465B
:103CC0009B1AA4F87035B4F88425B4F872359B1AA1
:103CD000A4F87235FCF7CEFBD4F888350546C31A34
:103CE00018460193FEF7CAFAE16C0290FEF71EFB3C
:103CF0008246C4F8885537F91B00FEF7C3FA5146CF
:103D0000FEF714FB7E4D0DF13C0848F82B004FF0F8
:103D10007D5155F82B00FEF709FBA5F11E03064661
:103D200033F91B00FEF7AEFA4FF07A51FEF7FEFAB8
:103D300001463046FEF7F2F945F82B00FEF7BCFCD1
:103D400005F10C0680B226F81B000BF1010B00B246
:103D5000BBF1030F00FB0099CDD1684F642303FB37
:103D600009F3B7F8129005F1140009FB09F993FB68
:103D7000F9F9A9F1490941461FFA89F9FDF73DF81A
:103D8000B9F13B0F05F1140540F29380B4F96000DE
:103D9000FEF778FAD4F8A865014630464FF00105E1
:103DA000FEF780FC00B90546514B3146D4F8A40516
:103DB00083F86E5400F0AEFE0646C4F8AC05D4F8A5
:103DC000A005D4F8A8A500F10045D4F8A405014643
:103DD000FEF7ACFA514681465046FEF7A7FA014677
:103DE0004846FEF79BF900F097FE0146284600F092
:103DF00091FE0546C4F8B0053046FDF7D3FE3AA360
:103E0000D3E90023FDF722FFFEF732F900F008FEA8
:103E1000DFF8F890A9F800002846FDF7C3FE32A3AA
:103E2000D3E90023FDF712FFFEF722F900F0F8FDB9
:103E3000A9F80200DFF8C490414609F11800FCF728
:103E4000DCFFB869D7F81CA00146FEF76FFAD7F877
:103E50002080514607465046FEF768FA014638462C
:103E6000FEF75CF9414607464046FEF75FFA014619
:103E70003846FEF753F900F04FFE00210746FEF7E3
:103E8000E9FB002844D1D9F818003946FEF702FBB7
:103E90003946C9F81800D9F81C00FEF7FBFA394674
:103EA000C9F81C00D9F82000FEF7F4FAC9F8200080
:103EB0002EE04FF0000955F829001249FEF736FAB6
:103EC000824636F91900FEF7DDF901465046FEF745
:103ED00025F90D49FEF72AFA45F8290009F10109EB
:103EE000B9F1030FE7D151E73B597E90A9E7814033
:103EF000B0000020880900202406002000000020D7
:103F00003C060020000016440017DA3A3009002071
:103F1000304600F04FFD8046304600F0BDFD834640
:103F2000284600F047FD0790284600F0B5FDC64F33
:103F30008146FB69414618460693FEF7F7F9D7F824
:103F400020A0594604905046FEF7F0F9049A014625
:103F50001046FEF7E1F8DDF81CC0B969059060462F
:103F6000FEF7E4F9069B594604901846FEF7DEF981
:103F70004946FEF7DBF9DDF810C001466046FEF762
:103F8000CDF8494683465046FEF7D0F94146FEF744
:103F9000CDF901465846FEF7C1F8059A014610468C
:103FA00000F0B8FDA949FEF7C1F9FDF7FBFDA2A39A
:103FB000D3E90023FDF774FF00220023FDF794FCF2
:103FC0000022A34BFDF76CFFFEF752F800F028FD2E
:103FD0001FFA80F919F4004F18BF00F5B470049768
:103FE0009C4F18BF1FFA80F99B490298A7F8B49517
:103FF000FEF79CF906F1004605F1004580460FFAF0
:1040000089F012961395FEF73DF900F10040FDF797
:10401000C9FD8BA3D3E90023FDF718FEFEF728F8AE
:104020001490B7F99805FEF72DF91790B7F99A058E
:10403000FEF728F91890B7F99C05FEF723F912A9A5
:10404000199017A8FCF7D9FE97F8BA643D4676B9DF
:10405000D7F8B805402390FBF3F3C01AFEF712F926
:104060001999FEF75BF8FEF727FBC7F8B805D4F8F7
:10407000B805402390FBF3F0FEF704F901461998C8
:10408000FEF74AF8E16E074619904046FEF746F8FB
:1040900001464046FEF7FEF9D4F8BC9580464946F5
:1040A0003846FEF739F801464046FEF73FF901462B
:1040B0004846FEF733F8C4F8BC050746179800F0E9
:1040C000AFFC2821FCF78AFED4F8F0341844C4F879
:1040D000F004189800F0A4FC2821FCF77FFED4F827
:1040E000F4341844C4F8F404384600F099FC28214C
:1040F000FCF774FED4F8F834584A18440199136850
:10410000C4F8F8041944D4F8FC3411600133B4F84D
:104110001C25C4F8FC34524B9A80B4F818251A8038
:10412000B4F81A255A80FCF7A5F94E4B0022186006
:10413000D4F86834C4F86804C31AA4F8C035B4F8D5
:104140004644494B4FEA420833F912E040F2DC534F
:104150009E4505DDBEF5FA6F0BDB4FF4FA710AE000
:10416000CEF5BB610431B1F5FA7FA8BF4FF4FA7107
:1041700001E0AEF2DC51022ADFF808A14FF064033F
:1041800022D091FBF3FB334F6FF0630907EB4B0C2D
:1041900009FB0B19BCF808C007EB4B07B7F90A700D
:1041A0000FFA8CFBCBEB070707FB09F999FBF3F33D
:1041B00063442AF808302D4B9B5C59432C4B91FBF0
:1041C000F3F364339BB202E04942AAF80410294990
:1041D0006427895CDFF8B0C0594391FBF7F10CF814
:1041E00002102549DFF8A4C0895C594391FBF7F11F
:1041F0000CF802102149895C4B4393FBF7F32049EB
:10420000204F8B5440F2DB539E45D8BF37F808301F
:1042100002F10102DCBF5B4227F80830032A90D18B
:1042200040F24B4324B29C4232DDB4F5FA6FA8BF92
:104230004FF4FA642EE000BF182D4454FB210940CE
:10424000399D52A246DF913F000000200000E1446A
:1042500000002440B0000020BD3786358C090020C6
:104260003C09002080090020F00400208C5D00083B
:104270000CFEFFFFE05D0008E35D00088E5D0008B6
:104280006A0900201C090020420900207206002053
:1042900040F24C444FF47A73A4F24C445C434FF424
:1042A0006173B4FBF3F44FF0640C94FBFCF205EB88
:1042B0004203D98A6FF0630303FB024405EB420516
:1042C000B5F918200BB2D21A544394FBFCF30B44FB
:1042D000FB80BB4BDFF8F0E21B8813B9BEF86C34EF
:1042E0002BB1B84AD36883F00803D36009E09EF885
:1042F000C03413B1B34B08221A6116B1B14B082276
:104300005A61B14CD4F8C8352546C31A002B13DBCB
:1043100094F86E346BB9AB4A84F8C034D36800F5B6
:10432000F42083F0080300F59070D360C4F8C8054A
:1043300002E0012384F8C0344FF00008D5F8B8300B
:10434000A148984580F2AE81A04A8C2303FB082344
:104350009F4E336090F8CC3543B39E4AD36943F007
:10436000C053D361A2F5D032136843F48073136055
:104370004BF20702984B1A8045F2F7021A81974ACE
:10438000974BDA6012E0D9F80030186803689B6830
:104390009847D9F8002092F88930CBB9A0F12401D0
:1043A0004B424B41522882F8893009D03368DFF8FC
:1043B0002092186803685B6898470028E3D16EE193
:1043C00095F8BA34002BF1D1864A874B1A60C4E7BE
:1043D000012B03D14D2808BF022304E0022B05D195
:1043E0003C2808BF032318BF002316E0032B0CD181
:1043F00080284FF000039FBF82F88730537182F806
:104400008800107198BF042307E0042B08D11379AA
:1044100082F8860058401071052382F88930C5E77C
:10442000052BC3D192F8881092F887309942117900
:1044300007D941401171591C134482F887109871B3
:10444000B4E7814240F0268192F88630692B00F073
:10445000D78019D8652B5ED00BD8442B00F0FA809A
:10446000452B40F00F811320FCF75AFA4FF000095A
:10447000F7E0662B62D0682B40F004811020FCF737
:104480004FFA4FF000098FE07D2B00F0D9800FD854
:104490006C2B00F0C5806D2B40F0F4800620FCF7FB
:1044A0003FFAD5F8C804FCF74FFAB5F90C05CEE091
:1044B000C82B0AD0D62B1ED07E2B40F0E3800220E2
:1044C000FCF72EFAB5F9E204C1E04FF00009FCF761
:1044D0002AFADFF8F4A00AF5886323F8190009F135
:1044E0000109B9F1080FF2D10020FCF719FA0123F4
:1044F0008AF8CD35CAE04FF00009FCF714FA3B4BBF
:1045000023F8190009F10109B9F1040FF5D10020D0
:10451000FCF706FABAE00B20FCF702FAB5F9C00581
:10452000FCF724FA324B188800B2FCF71FFA00207F
:10453000FCF71CFA0020FDF7C1F9A7E01220FCF7F8
:10454000EFF9049B5B8AB3F5806F20D94FF0000927
:10455000284B33F91900082390FBF3F009F1010906
:10456000FCF704FAB9F1030FF2D1DFF89090B9F932
:104570000000FCF7FBF9B9F90200FCF7F7F9B9F90B
:104580000400FCF7F3F90020FCF7F0F95BE0B5F963
:104590009805FCF7EBF9B5F99A05FCF7E7F9B5F9D9
:1045A0009C05FCF7E3F9E0E7134B13F8090009F168
:1045B0000109FDF783F9B9F1100FF5D166E000BFED
:1045C00088090020000C0140B00000209C0600205B
:1045D0002400002000100240086C00400400FA058E
:1045E00000ED00E0EFBEADDEF04F002060010020E6
:1045F0009A060020480600207E0600203C09002084
:104600001020FCF78DF94FF00009B64B33F9190073
:1046100009F10109FCF7AAF9B9F1080FF5D135E064
:10462000DFF8E4920620FCF77BF9B9F90000FCF70B
:104630009DF9B9F90200FCF799F9B5F9B40506E05E
:104640000420FCF76DF90020FCF790F90020FCF73E
:104650008DF91BE00020FCF763F9012385F8CC35C8
:1046600014E0A14B13F8090009F10109FDF726F93F
:10467000B9F10B0FF5D10020FCF766F90020FCF72B
:1046800063F903E001200021FCF72AF93368187967
:10469000FDF714F93368002283F8892086E608F1D3
:1046A00001084BE6836C13B100F2D650984794F89A
:1046B000C1348E4AA3B3F988B2F9CC340EB2C3EB3D
:1046C000060E8EEAEE70A0EBEE7028280EDD0020BC
:1046D000C2F8D004012082F8D8054FF6D8709E4267
:1046E000CCBF034628231944F98019E092F8D81565
:1046F00031B1D2F8C814C2F8C414002182F8D81518
:10470000D4F8D4241A4440F2DD339A4205DD40F255
:10471000DA739342A8BF134601E040F2DE33FB8018
:10472000FCF7DCFFB7F90430714C83EAE371B4F9AC
:104730000420A1EBE3716FF06308C1EB0808424568
:1047400005DB01F164039342A8BF13469846B7F90D
:104750000600A4F80480FDF795FD8246B4F9020036
:10476000FDF790FD8146B4F90000FDF78BFD83460F
:10477000604F002357F8081C50460293FDF7D6FD02
:10478000396801904846FDF7D1FD019A014610466F
:10479000FDF7C4FC57F8041C01905846FDF7C6FD10
:1047A000019A01461046FDF7B9FC0190C8F10000DE
:1047B000FDF768FD7968FDF7B9FD019A01461046DD
:1047C000FDF7ACFCFDF778FF484C029B04F2CE5697
:1047D00026F813000133042B07F11007CAD1B4F9EE
:1047E000CE35B4F9D025B4F846749342B8BF134619
:1047F000B4F9D22594F8BAE49342B8BF1346B4F999
:10480000D42500209342B8BF134604F2CC5499B289
:1048100040F2DA730AB29A42C1BF6388C1F5FB6203
:1048200002329B18C8BF638040F2DD3334F9022F97
:104830009A4205DD40F2DA739342A8BF134601E0C5
:1048400040F2DE33238040F24B433AB29A42DCBF5F
:1048500040F2DE332380BEF1000F03D1264B33F844
:104860001030238001300428D2D1002495F8DD32A5
:10487000E0B2834236F8141003D91C4BD3F8D83277
:1048800098470134042CF1D1FEF787BE1B49002262
:104890000A604A608A601A490A604A60FEF7F5BEFB
:1048A00093F8C12472B9012183F8C114D3F8C81454
:1048B000C3F8D024C3F8C4141249C3F8D424C98857
:1048C000A3F8CC14B4F9D834322B7FF7C3A80C4B1F
:1048D00000221A605A60FFF7BDB8002283F8C12495
:1048E000F0E700BFF0040020E85E0008B000002000
:1048F0006409002028010020600100202409002014
:10490000340900201C09002030090020AFF300808A
:1049100019481A49026800608A4217D0002103E052
:10492000174B5B58435004311648174B42189A42B4
:10493000F6D3164A02E0002342F8043B144B9A4295
:10494000F9D3FCF73BFEFDF7FFFEFEE7114E1248E0
:1049500030601248016821F070610160410201601D
:104960000F4C182020600F490F4808600F48D0F8FE
:1049700000D0406800470000F04F0020EFBEADDEE1
:10498000F862000800000020B0000020B000002005
:1049900094090020181002400900000004000140A2
:1049A000140C0140000C01404434434400F0FF1F4C
:1049B000FEE7000000B5194A20F00043934283B09F
:1049C000014617DDB3F1FF4F04DBFDF7A5FB03B094
:1049D0005DF804FB694600F07DF900F00302012A4E
:1049E0000098019911D0022A0AD09AB1012200F050
:1049F00035FFECE7002100F033FB03B05DF804FB6A
:104A000000F02EFB00F10040E1E700F027FF00F18D
:104A10000040DCE700F024FBD9E700BFD80F493F96
:104A200030B5C0F3C755A5F17F021E2A83B00146F9
:104A300021DC501C1CDB162A4FEAD1740ADDC1F3BD
:104A4000160343F40003963DAB40604243401819FF
:104A500003B030BD0F4B53F824502846FDF75EFBE2
:104A6000019001982946FDF757FB20F0004333B928
:104A7000002003B030BDFDF71FFE03B030BDC0F312
:104A80001603C0F3C75043F40003C0F19600C340BF
:104A9000DBE700BFF45E000800B51D4A20F00043CC
:104AA000934283B0014618DDB3F1FF4F04DBFDF7FD
:104AB00033FB03B05DF804FB694600F00BF900F02E
:104AC0000300012818D002280ED0D0B10098019917
:104AD00000F0C6FA00F10040EBE70021002200F0F0
:104AE000BDFE03B05DF804FB00980199012200F0BF
:104AF000B5FE00F10040DCE70098019900F0B0FA43
:104B0000D7E700980199012200F0A8FED1E700BF85
:104B1000D80F493F00F04EB870B58AB0064600F095
:104B20004BFA224D044695F90030013308D0304647
:104B300001F06CF820B130460021FDF795FD10B969
:104B400020460AB070BD1A49012200233046019167
:104B500000920893FDF726F82C78CDE90401CDE901
:104B600002017CB900220023CDE90623684600F04B
:104B7000EBFE88B1089BA3B9DDE90601FDF778FAE1
:104B80000AB070BD0020002102460B46FDF788F9EF
:104B9000022CCDE90601E9D101F0B0F82123036030
:104BA000E8E701F0ABF8089B0360E5E74800002068
:104BB000FC5E0008F8B521F00044B4F1FF4F034655
:104BC00014DC20F00046B6F1FF4F07460EDCB1F1D1
:104BD0007E5F3AD08D1705F0020545EAD07556B9CB
:104BE000022D30D0032D2BD13148F8BD084619468F
:104BF000FDF794FAF8BDFCB1B4F1FF4F29D0B6F13E
:104C0000FF4F19D0341BE4153C2C1ADC002938DB8B
:104C10001846FDF73FFC00F0AFFF00F097FE012DB6
:104C20002CD0022D22D0002D2FD02249FDF776FA6C
:104C30002149FDF771FAF8BD002F15DB1F48F8BDBB
:104C4000F8BD1E48EBE71C48F8BDBDE8F84000F091
:104C50007DBEB6F1FF4F19D0022DF4D0032DC3D085
:104C6000012D1BD00020F8BD1548F8BD1149FDF7F6
:104C700055FA01461048FDF74FFAF8BD00F1004023
:104C8000F8BD3C34C4DA0020C9E7F8BD022D0CD0D1
:104C9000032D08D0012D04D00A48F8BD4FF0004084
:104CA000F8BD0948F8BD0948F8BD0948F8BD00BF7E
:104CB000DB0F49C02EBDBB33DB0F4940DB0FC93FC3
:104CC000DB0FC9BFDB0F493FDB0F49BFE4CB16C089
:104CD000E4CB16402DE9F04FAA4A20F0004494425C
:104CE00089B007460D4664DDA74A94421CDC0028C3
:104CF000A64940F3EB80FDF70FFAA54B24F00F0413
:104D00009C42064664D0A349FDF706FA01463046A8
:104D10002960FDF701FA9F49FDF7FEF9012368605C
:104D2000184609B0BDE8F08F9B4A944262DDB4F1A9
:104D3000FF4F46DAE615863EA4EBC6542046FDF743
:104D4000BBFCFDF79FFA0346204619460593FDF785
:104D5000E3F94FF08741FDF7E9FA8046FDF7ACFC37
:104D6000FDF790FA0446404621460694FDF7D4F933
:104D70004FF08741FDF7DAFA00210790FDF76AFC52
:104D8000002800F0C48020460021FDF763FC0028C5
:104D900014BF012302238148022101900091324671
:104DA00005A8294600F020FA002FC0F2A68003468D
:104DB00003E00022286000234A60184609B0BDE8DD
:104DC000F08F0146FDF7A8F9002368602860F4E73A
:104DD0007349FDF7A1F973490446FDF79DF90146B2
:104DE00020462960FDF798F96E49FDF795F90123F2
:104DF0006860E2E700F0C0FE6B498046FDF796FA76
:104E00004FF07C51FDF78AF9FDF756FC0646FDF799
:104E100039FA5E498346FDF789FA01464046FDF7B7
:104E20007BF95C4981465846FDF780FA82461F2E81
:104E30004846514618DC5D4B721E53F8223024F070
:104E4000FF029A4210D0FDF767F98046C5F800804E
:104E500041464846FDF760F95146FDF75DF9002FE0
:104E6000686056DB3346A8E7FDF756F9E215C0F354
:104E7000C753D31A082B8046E8DD494958460392A8
:104E8000FDF754FA804648464146FDF745F9044689
:104E900048462146FDF740F94146FDF73DF9804679
:104EA00040495846FDF742FA4146FDF735F982463A
:104EB00020465146FDF730F9039AC0F3C753D21A82
:104EC000192A804641DC2860A146C1E7FDF726F992
:104ED0002F4B24F00F049C42064623D02D49FDF7AA
:104EE0001DF9014630462960FDF716F92949FDF7FD
:104EF00015F94FF0FF3368605FE795E80C0002F1A9
:104F0000004103F10042296043426A6055E70323F0
:104F100041E708F1004800F10040C5F800806860F2
:104F200073424AE71E49FDF7F9F81E490446FDF7AA
:104F3000F5F8014620462960FDF7EEF81949FDF71E
:104F4000EDF84FF0FF33686037E719495846FDF731
:104F5000EDF9804620464146FDF7DEF881462046C1
:104F60004946FDF7D9F84146FDF7D6F80446114900
:104F70005846FDF7DBF92146FDF7CEF88246484654
:104F8000514660E7D80F493FE3CB1640800FC93F39
:104F9000D00FC93F43443537800F4943845F000831
:104FA0000044353708A3852E84F9223F045F0008AA
:104FB00000A3852E32318D2420F00042B2F1FF4F44
:104FC00070B5034604462DD25AB300283DDBB2F536
:104FD000000F4FEAE0502CD3002631467F38C3F350
:104FE0001603C20743F4000348BF5B0040105B0098
:104FF00019244FF080728D189D4202DC5B1BA918AA
:105000001644013C4FEA43034FEA5202F3D113B175
:1050100006F001031E44761006F17C5606EBC050E4
:1050200070BD70BD0146FDF781F92146FDF776F8A8
:1050300070BD14F400020FD15B00190202F10102ED
:10504000FAD5C2F101021044C6E70146FDF764F843
:105050000146FDF71FFA70BD01221044BCE700BFF6
:105060002DE9F84320F00044B4F1485F06460F46AE
:1050700049DAFDF721FB002800F09D8031463046DB
:10508000FDF754F905464E49FDF750F94D49FDF736
:1050900045F82946FDF74AF94B49FDF73DF8294601
:1050A000FDF744F94949FDF739F82946FDF73EF97E
:1050B0004749FDF731F82946FDF738F94549FDF72D
:1050C0002DF82946FDF732F9804628464FF07C51ED
:1050D000FDF72CF9414604462846FDF727F93946E5
:1050E00005463046FDF722F901462846FDF714F83B
:1050F00001462046FDF710F801464FF07E50FDF7BF
:105100000BF8BDE8F8830146FDF710F905462C4978
:10511000FDF70CF92B49FDF701F82946FDF706F9D3
:105120002949FCF7F9FF2946FDF700F92749FCF763
:10513000F5FF2946FDF7FAF82549FCF7EDFF29466A
:10514000FDF7F4F82349FCF7E9FF2946FDF7EEF8EF
:10515000214B80469C42B8DD204B9C4227DC04F169
:105160007F4421464FF07E50FCF7D6FF814628460B
:105170004FF07C51FDF7DAF82146FCF7CDFF4146B0
:1051800004462846FDF7D2F8394605463046FDF775
:10519000CDF801462846FCF7BFFF01462046FCF744
:1051A000BBFF01464846FCF7B7FFBDE8F883DFF8D0
:1051B00034900B4CDBE74FF07E50BDE8F88300BF26
:1051C0004ED747ADF6740F317CF29334010DD037D2
:1051D000610BB63AABAA2A3D9999993E0000483F27
:1051E0000000903E0000383F2DE9F04F1C46DFB034
:1051F0000891611E01910A936899BA4B039053F884
:10520000213001980793D31E48BF131DDB1023EAFA
:10521000E37319460C93DB4302EBC3030693079B2E
:105220000D1AC41815D42C44013421AE699F08E02E
:1052300057F82500FDF726F80135A54246F8040F7A
:1052400007D0002DF4DA01350020A54246F8040FFE
:10525000F7D1079B002B2CDB079B0A9A1946019B71
:1052600001EB0208C2EB827722AA02EB830502EB74
:105270008808BF0049AE019B002BC0F2F5812C4687
:10528000039B05EB0709A3F1040B4FF0000A54F848
:1052900004095BF8041FFDF749F801465046FCF786
:1052A0003DFF4C458246F2D10435454546F804AFF2
:1052B000E1D1079B0EA91D4603F18043013B9B00F2
:1052C0001A1D0A440B440D920B93AB005EA91A46BB
:1052D0000293002D0B4453F8508C20DD4AAFBC18CC
:1052E0000DAE4FF06E514046FDF720F8FDF7E4F9A2
:1052F000FCF7C8FF4FF087418146FDF717F80146DC
:105300004046FCF709FFFDF7D7F954F8041D46F8AD
:10531000040F4846FCF702FFBC428046E1D1069EDE
:105320004046314600F08CFC4FF078510446FCF7C3
:10533000FDFF00F025FC4FF08241FCF7F7FF01462E
:105340002046FCF7E9FE0446FDF7B6F90746FCF7F0
:1053500099FF01462046FCF7DFFE002E80463446CA
:1053600040F36A81691E0EAB53F82130C6F1080084
:1053700043FA00F202FA00F69E1B0EA8C4F10703DE
:1053800040F8216017441E41002E2FDD002D07F14B
:10539000010740F3F481002214460DA907E0C3F58C
:1053A00080700BB108600124013295420BDD51F889
:1053B000043F002CF3D00132C3F1FF0395420B6090
:1053C0004FF00104F3DC069B002B0DDD012B00F0F8
:1053D0003A81022B08D16A1E0EAB53F822300EA977
:1053E00003F03F0341F82230022E7DD040460021D9
:1053F000FDF730F9002800F09180079B6C1EA34256
:105400000DDC029B0EAA0D981344002253F8041DD4
:10541000834242EA0102F9D1002A40F09981079BB8
:105420000EAA013B52F82330002B40F0A6810B9AC4
:10543000012352F8041D01330029FAD0EB181A4653
:1054400009936B1C934241DC0C9A9E180A9B099AA3
:1054500005EB030B06F18046551B699A013E02EBF2
:105460008606AA004FEA8B03049222AA02EB0309E4
:105470000593029B4AAA02EB0308002556F8040F85
:10548000FCF700FF019B49F8040B002B20DB029A7C
:10549000059BAC18EB1822AAD718039B4FF0000B02
:1054A0001444A3F1040A57F804095AF8041FFCF73E
:1054B0003DFF01465846FCF731FEA7428346F2D134
:1054C000049B04359D4248F804BFD7D1099DFCE6F2
:1054D000049B04354FF0000B9D4248F804BFCDD12A
:1054E000F4E700BF9C62000841464FF07E50FCF795
:1054F00013FE8046002C3FF479AF06994FF07E50A2
:1055000000F09EFB01464046FCF706FE8046002167
:105510004046FDF79FF800287FF46FAF069B40469A
:105520005942029700F08CFB4FF087410446FDF78B
:10553000AFF8002800F087814FF06E512046FCF74D
:10554000F5FEFDF7B9F8FCF79DFE4FF087410746E1
:10555000FCF7ECFE01462046FCF7DEFDFDF7ACF85B
:105560000EAB43F825003846FDF7A6F8069B6C1CE9
:10557000083306930EAB43F8240006994FF07E5093
:1055800000F05EFB002C0746C0F2CB80631C9D0040
:1055900001930EAB03EB050A4AAB03EB05095AF87E
:1055A000040DFCF76FFE3946FCF7C0FE4FF06E515C
:1055B00049F8040D3846FCF7B9FE0EAB9A4507468C
:1055C000EDD1083D4AABDDF81CA0DDF804B003EBDB
:1055D0000509002703960494BAF1000FC0F29E80DB
:1055E000002FC0F29B809C4E4C464FF000080025D7
:1055F00001E0BD420DDC54F8041F56F8040BFCF723
:1056000095FE01464046FCF789FD0135AA458046D6
:10561000EFDA5EAB03EB870301375F45A9F10409BD
:1056200043F8A08CD8D1689B039E049C032B58D8C8
:10563000DFE803F05D3232A70FD16B1E0EAA52F8DD
:1056400023603612A0E66A1E0EAB53F822300EA974
:1056500003F07F0341F82230C6E64FF07C51FDF79E
:1056600017F850B90646C1E604354FF0000A454523
:1056700046F804AF7FF4FFAD1BE6002D07F10107EC
:10568000C8BF02263FF787AE41464FF07E50FCF779
:1056900043FD02268046A9E6019B36AD05EB830853
:1056A000002058F8041DFCF739FDA845F9D1002E5B
:1056B00041D0089A00F10043014613603698FCF788
:1056C0002BFD002C09DD36AF0125013557F8041FED
:1056D000FCF724FDAC42F8DA0EB100F10040089B63
:1056E0005860029B03F007005FB0BDE8F08F019B9C
:1056F00036AA002002EB8308013C58F8041DFCF791
:105700000DFD631CF8D10EB100F10040089B18603C
:10571000029B03F007005FB0BDE8F08F4FF0000878
:1057200077E7689B032BDCD8DFE803F010020287E1
:105730000020002EBDD1089B014618603698FCF76A
:10574000EBFC002CBFDC089B5860CAE70020DAE7BE
:10575000069A0EAB53F82430083A02970692002BB3
:105760007FF40BAF0EAB03EB840353F8041D013C35
:10577000083A0029F9D00692FFE601235EE60024EC
:1057800021E6002C59DDA5005EAB2B440DF1D808B5
:1057900053F8A09C08EB050757F804BD4846594646
:1057A000FCF7BCFC824658465146FCF7B5FC014666
:1057B0004846FCF7B3FC4745D1467860C7F800A0DF
:1057C000EAD1012C39DD5EAB2B4453F8A04C08EB39
:1057D00005070DF1DC0B57F804AD21465046FCF7E8
:1057E0009DFC814650464946FCF796FC2146FCF755
:1057F00095FC5F454C467860C7F80090EBD10435C6
:1058000008EB0504002038AD54F8041DFCF786FCB5
:10581000AC42F9D1A6B1369A379B00F1004002F1B3
:10582000004203F10043089C6360029BA06003F008
:10583000070022605FB0BDE8F08F0020002EEAD1A3
:10584000369A379BEFE72046FCF736FF0EAB2C4627
:1058500043F8250091E600BFA86200082DE9F8434F
:1058600020F00043B3F1485F04460F46904603DA48
:10587000FCF722FF002857D021462046FCF756FDB2
:1058800021460546FCF752FD294906462846FCF705
:105890004DFD2849FCF740FC2946FCF747FD264909
:1058A000FCF73CFC2946FCF741FD2449FCF734FC9D
:1058B0002946FCF73BFD2249FCF730FC8146B8F154
:1058C000000F22D038464FF07C51FCF72FFD49469F
:1058D00080463046FCF72AFD01464046FCF71CFC9A
:1058E0002946FCF723FD3946FCF716FC1549054609
:1058F0003046FCF71BFD01462846FCF70FFC01462D
:105900002046FCF709FCBDE8F88349462846FCF729
:105910000DFD0C49FCF700FC3146FCF707FD214664
:10592000FCF7FCFBBDE8F8832046BDE8F88300BF28
:10593000D3C92E2F342FD7321BEF3836010D5039F3
:105940008988083CABAA2A3E002070472DE9F04127
:1059500020F00045B5F1A14F0446064608DBB5F13D
:10596000FF4F6FDC002840F3A0806F48BDE8F08156
:105970006E4B9D4277DCB5F1445F68DB4FF0FF373B
:1059800021462046FCF7D2FC01468046FCF7CEFCBF
:1059900005466749FCF7CAFC6649FCF7BFFB294688
:1059A000FCF7C4FC6449FCF7B9FB2946FCF7BEFCD4
:1059B0006249FCF7B3FB2946FCF7B8FC6049FCF7E9
:1059C000ADFB2946FCF7B2FC5E49FCF7A7FB41465C
:1059D000FCF7ACFC5C4980462846FCF7A7FC5B4919
:1059E000FCF79AFB2946FCF7A1FC5949FCF794FB0C
:1059F0002946FCF79BFC5749FCF78EFB2946FCF730
:105A000095FC5549FCF788FB2946FCF78FFC7B1C6D
:105A1000014640464CD0FCF781FB2146FCF786FC52
:105A20004E4B4F4D53F82710FCF776FB2146FCF701
:105A300073FB014655F82700FCF76EFB002E30DBA8
:105A4000BDE8F0810146FCF769FBBDE8F0814549FE
:105A5000FCF764FB4FF07E51FCF724FE00288DD04C
:105A60002046BDE8F08100F087F83F4B04469D4298
:105A700029DCA3F5D0039D4244DC0146FCF74EFB34
:105A80004FF07E51FCF748FB4FF080410546204621
:105A9000FCF744FB01462846FCF7FCFC00270446C3
:105AA0006EE700F10040BDE8F0813048BDE8F081CC
:105AB000FCF734FB2146FCF739FC01462046FCF795
:105AC0002BFBBDE8F0812A4B9D4214DC4FF07F5147
:105AD000FCF722FB4FF07F5105462046FCF726FCE1
