:020000040800F2
:100000000050002051450008F1450008F145000866
:10001000F1450008F1450008F14500080000000026
:10002000000000000000000000000000F145000892
:10003000F145000800000000F14500081505000822
:10004000F1450008F1450008F1450008F1450008B8
:10005000F1450008F1450008F1450008F1450008A8
:10006000F1450008F1450008F1450008F145000898
:10007000F1450008F1450008A9160008F1450008FF
:10008000F1450008F1450008F1450008F145000878
:10009000F1450008F1450008F1450008F145000868
:1000A000F1450008F1450008F14500086D0F000812
:1000B000650F0008590F00084D0F000827050008BC
:1000C000130800082505000811080008F14500087C
:1000D000F145000873160008F1450008F1450008D5
:1000E000F1450008F1450008F14500080000000056
:1000F0000000000000000000000000000000000000
:0C01000000000000000000005FF808F1A3
:100110007047044B4FF4805208B11A6170475A611E
:10012000704700BF00080140034B4FF4805208B1F4
:100130005A6170471A617047000801408848F0B55D
:100140000368884A9C8AA4B2E1B211F0010F32D050
:100150001988854C21F400610904090C198019885B
:1001600089B241F480611980002111707F490978BA
:10017000A9B1517819B97E490978FF290FD1012118
:1001800051707C490978022901BF198889B241F46C
:1001900000611980217841F00101198201E1217883
:1001A00001F0FE011982724B1B78FF2B00F0F980E1
:1001B000FF231370F5E08E073CD5BFF35F8F6D49C9
:1001C0000C78E4B2012C14D1684D2D788DB155789E
:1001D0007DB1198821F480610904090C1980BFF3ED
:1001E0005F8F198B1988947089B241F4007119805E
:1001F0001BE01C8BBFF35F8F0C78022C0BD15B4C88
:10020000247844B1547834B1198821F48061090408
:10021000090C1980BFE00978032906D153490978F0
:1002200019B15178002940F0B680998889B241F41B
:100230008061B5E04D075BD5012191704B4909788C
:1002400000293AD05178002937D04A494A4D0978D7
:100250001C88022911781ED924F480642404240CFB
:100260001C801E8A2F68CCB2F6B249B27E5419881F
:100270002D6889B241F4007119800168A31C1370C4
:100280000B8A0134DBB264B22B558B889BB243F4EA
:1002900080638B8027E0A4B244F400741C802E6835
:1002A0001D8ACCB2EDB249B275541B8A611C49B2A9
:1002B000DBB203347354147015E0517811B92F492F
:1002C000097841B1198889B241F400711980137815
:1002D0000133137007E0198889B241F480711980E5
:1002E000204B0121597001680B88DC05FCD458E0D3
:1002F00001F0400101F0FF061E4DF1B114781E49D6
:100300001F8AD1F800E0E6B2FFB264B2711C0EF8A9
:100310000470C9B22F78117049B2CC1CA74201BF3A
:100320009C8824F480642404240C08BF9C802B78CF
:100330008B4236D10236167033E0210631D5117862
:100340004CB2671C1ED00E4E01313668C9B2345D06
:1003500011701C822C7849B28C4222D11BE000BF64
:1003600094080020540600208408002087080020FC
:1003700085080020900800208C08002086080020B6
:1003800088080020124916700978198211490978E5
:1003900009B9297829B9998821F480610904090CDF
:1003A00099800D4B92F900201B780C4901339A4239
:1003B0000DD100234B708B7833B10268938823F4FE
:1003C00040731B041B0C9380054B00221A70F0BD78
:1003D000850800208708002090080020540600208F
:1003E0009108002030B5002385B0ADF80A30ADF893
:1003F0000430ADF80630ADF80830ADF80C300379B4
:100400000446DA0744BF0422ADF80A209B0748BF20
:10041000BDF80A300D46009148BF43F00803806CD8
:10042000694648BFADF80A3000F0B8FFA56005B0D6
:1004300030BD836A8169426B1944D160416A994237
:1004400097BF0169CB1ACB1A536096BF0023536044
:1004500083624FF0000380F84430136888BF8162E4
:1004600043F0010313607047014B1B68184700BF3E
:100470005809002010B50949094B4C689B684A6827
:100480009442F8D18A684FF47A7042438968D31A4B
:10049000B3FBF1F300FB043010BD00BF5406002095
:1004A00010E000E038B50446FFF7E4FF0546FFF72B
:1004B000E1FF401BA042FAD338BD10B504462CB171
:1004C0004FF47A70FFF7EEFF013CF8E710BD40F201
:1004D000DB14604308B50E4B10221A6108225A61E2
:1004E000841E0B4B2046DA6882F01002DA60DA686C
:1004F00082F00802DA60FFF7E0FF0120FFF7B4FFA7
:100500001920FFF7DAFF0020FFF7AEFFE9E700BF91
:10051000000C0140024A536801335360704700BF2A
:10052000540600200AE609E6F0B5B1F800E0002321
:100530004EFA03F2D50725D58E784FEAD30CF40690
:1005400048BFCC7806F00F0203F0070748BF2243EC
:10055000BF0050F82C500F24BC4025EA0404BA40D8
:100560002243282E40F82C2005D1C46801229A404D
:1005700024EA020205E0482E04D1C46801229A4010
:100580002243C2600133102BD2D1F0BD012828BF15
:1005900001202DE9F04F0546142000FB05F36B4FB9
:1005A000DFF8C481FA18FB581169C8F80030684BAD
:1005B00016891D73674BB2F80AA0DC6989B0214324
:1005C00054684AEA0609D9610222C4F8109003A9C6
:1005D0008DF80E0020460193ADF80C908DF80F2099
:1005E000FFF7A2FF019B00971F464FF0080BA26880
:1005F000164203D10A20FFF755FFF8E70A2066618B
:10060000FFF750FF26610A20FFF74CFFBBF1010BFB
:10061000EDD1C4F814A00A20FFF744FF66610A2058
:10062000FFF740FF26610A20FFF73CFF0222C4F8D3
:1006300010A0204603A98DF80F201C228DF80E2053
:10064000ADF80C90FFF770FFD8F80040424A03A8BD
:1006500094423A690BBF42F4001242F480023A61BC
:100660003A610BBF3A693A6922F4001222F480021F
:100670003A61A38823F440731B041B0CA3802388D6
:100680009BB243F001032380A68800F03FFE05994A
:10069000324B26F03F06B1FBF3F33604360C1E4313
:1006A000B6B2A6802288002622F001021204120CA3
:1006B00022802B4A03A8B1FBF2F100298AB208BFBD
:1006C000012242F400414FF4967253434FF47A7280
:1006D00093FBF2F301339BB22384A1832388009A16
:1006E0009BB243F001032380238823F4816323F02A
:1006F00002031B041B0C23804FF48043238114232B
:1007000003FB05256B7B01248DF80C308DF80D6003
:100710008DF80E608DF80F4000F02CFF2B7B9DF8BC
:100720000F208DF80C308DF80D601AB103A800F081
:1007300021FF08E05A0903F01F039C4002F1200347
:10074000084A42F8234009B0BDE8F08FD4590008A8
:1007500054060020001002400054004040420F00A8
:10076000804F120000E100E09408002013B52449F6
:100770000B680C469A8A92B20192019A12F4706F39
:100780001EBF204A01211170019A12F4E06F2AD095
:100790001A8B9A8822F480621204120C9A80019AB1
:1007A000910520D41A8892051DD41A88D0050FD53A
:1007B0001A88D105FCD41A8892B242F400721A80C9
:1007C0001A889205FCD4104B187BFFF7DFFE0AE075
:1007D0001A8892B242F400721A809A8822F4407207
:1007E0001204120C9A802268938A23F470631B040B
:1007F0001B0C9382054B00221A7002B010BD00BF83
:10080000940800209208002054060020910800203F
:10081000ACE7ABE7054A08B5D389107B01339BB23F
:10082000D381FFF7B3FE002008BD00BF54060020AF
:1008300010B54000204CC0B220702048204C017000
:10084000204800210170012020701F4C23601F4CA4
:1008500023601F4B1A701F4A1F4B107019701F49DD
:10086000086811461A4630B383889C0515D403885E
:10087000DB050DD447F230530488A40502D5013BB3
:10088000FAD112E08BB103889BB243F480730380EA
:1008900083889BB243F44073838047F230530878D7
:1008A00010B1013BFBD100E013B9BDE81040B1E746
:1008B000107880F0010010BD840800208508002019
:1008C00087080020860800208C0800208808002067
:1008D0009008002091080020920800209408002031
:1008E00038B504460D46242000F0E8FF4D2000F006
:1008F000E5FF002C094C14BF21203E2000F0DEFF54
:100900002368002228461A7100F0D8FF236893F864
:100910008600BDE8384000F0D1BF00BF24000020B1
:1009200001460020DCE7074B1A685379D118981C60
:100930000133DBB2134489795071987901EB0020BF
:1009400080B270472400002010B50446C0B200F009
:10095000B5FFC4F3072000F0B1FFC4F3074000F077
:10096000ADFF200EBDE8104000F0A8BF10B5044652
:10097000C0B200F0A3FFC4F30720BDE8104000F0B0
:100980009DBF00BF024B186803681B68184700BF73
:100990006C03002070B50646104C002504EB811155
:1009A00001F10C040E4A308A2A445388B18903426B
:1009B00089B20DD00B420BD0DB439BB23382304661
:1009C0005368984754F8043C01460BB12078984787
:1009D0000835202D04F11004E4D170BD7C070020FF
:1009E000FC590008024B53F820301B6819807047EF
:1009F000E00400200328104B0BD8104A12888A42CA
:100A00003FBF012293F8001182400A4338BF83F8A8
:100A1000002193F800310F2B0CD1074B084A00211D
:100A200083F80011138818B2142802DD143B1380D8
:100A300070471180704700BF7C0700201400002021
:100A400072050020144B10B5B3F80221A3F802116F
:100A5000A3F80421891A40F68C2289B291421C46DF
:100A600003D9002283F8062110BD40F2DA52A1F228
:100A7000EF239BB2934208D894F80601072804D8C4
:100A8000064B23F81010FFF7B5FF94F80631013339
:100A900084F8063110BD00BF7C0700203609002015
:100AA00030B57A4B1D78038C91BB23F001031B04F6
:100AB0001B0C0384048B7649A4B2038C24F0F3044A
:100AC00044F0010488429BB244EA051512D001F5B6
:100AD000006188420ED0B0F1804F0BD0A1F5983163
:100AE000884207D001F58061884203D001F580611A
:100AF000884202D123F0020301E023F00A0343F00D
:100B000001031A4305830284038B23F00C033AE0AC
:100B100004293FD123F010031B041B0C0384048B16
:100B2000018C24F440742405240D44F48073584C43
:100B300043EA0533A04289B29BB212D004F50064A7
:100B4000A0420ED0B0F1804F0BD0A4F59834A04253
:100B500007D004F58064A04203D004F58064A0426D
:100B600007D121F0200141F0100141EA021292B2B6
:100B700004E021F0A00141F010010A430383028444
:100B8000038B23F440631B041B0C0383038B9BB276
:100B9000038330BD082937D123F480731B041B0C59
:100BA0000384848B3A49A4B2038C24F0F30444F008
:100BB000010488429BB244EA051512D001F5006198
:100BC00088420ED0B0F1804F0BD0A1F59831884209
:100BD00007D001F58061884203D001F58061884229
:100BE00007D123F4007343F4807343EA022292B2E4
:100BF00004E023F4206343F480731A438583028462
:100C0000838B23F00C0339E023F480531B041B0C6B
:100C10000384818B048C21F440731B051B0D1C493C
:100C200043F4807343EA05338842A4B29BB212D0E6
:100C300001F5006188420ED0B0F1804F0BD0A1F5D4
:100C40009831884207D001F58061884203D001F5D0
:100C50008061884207D124F4005444F4805444EA6B
:100C6000023292B205E047F6FF51214041F4805133
:100C70000A4383830284838B23F440631B041B0C8D
:100C80008383838B9BB2838330BD00BF84030020AA
:100C9000002C0140F8B50446184F182303FB0073DD
:100CA00003F10802D079164E250138B919820123C3
:100CB000D37173197059197B02221CE003F11000E3
:100CC00059821B8AC91A89B2818040F2DA50A1F296
:100CD000EF239BB2834205D890790A4B23F810107A
:100CE000FFF788FE182303FB0474731908340022ED
:100CF0007059197BE271BDE8F840D1E690030020FD
:100D0000485A00083609002008B1014B1870704796
:100D10002800002008B1014B5870704728000020BF
:100D20001FB504466B46432106226820FFF780FD6D
:100D30009DF801309DF80020042143EA022212B2FE
:100D400092FBF1F29DF80230ADF808209DF80320E7
:100D500002A842EA032212B292FBF1F29DF804309B
:100D6000ADF80A209DF8052042EA03231BB293FB4D
:100D7000F1F3ADF80C30034B21461A7800F044FC37
:100D800004B010BD280000201FB504466B463B216F
:100D900006226820FFF74CFD9DF800209DF80130E9
:100DA00002A843EA0223ADF808309DF802209DF81E
:100DB0000330214643EA0223ADF80A309DF80420AF
:100DC0009DF8053043EA0223ADF80C30024B5A7807
:100DD00000F01AFC04B010BD280000202DE9F04FEF
:100DE0000C68836887B0D0F800A0D0F8049007465C
:100DF000204601938B4603F0FDFB8046204603F01E
:100E00006BFCDBF804500446284603F0F3FB06466F
:100E1000284603F061FCDBF80820054610460092E6
:100E200003F0E8FB009A8346104603F055FC414668
:100E30000090584601F07AFA41460290009801F07D
:100E400075FA59460390204601F070FA0099049013
:100E5000204601F06BFA31460590584601F066FADB
:100E60000146504601F062FA29468346049801F093
:100E70005DFA0146039801F051F90146484601F038
:100E800055FA0146584601F049F929468346029829
:100E900001F04CFA0146059801F03EF9014601982F
:100EA00001F044FA0146584601F038F900993860DB
:100EB00006F1004001F03AFA0146504601F036FAD8
:100EC00029468346059801F031FA0146029801F05F
:100ED00023F90146484601F029FA0146584601F037
:100EE0001DF929468346039801F020FA014604982B
:100EF00001F014F90146019801F018FA014658462C
:100F000001F00CF929467860504601F00FFA31469D
:100F1000054604F1004001F009FA0146484601F097
:100F200005FA0146284601F0F9F8414604463046E4
:100F300001F0FCF90146019801F0F8F9014620465C
:100F400001F0ECF8B86007B0BDE8F08F014803216C
:100F500020E500BF00080040014802211AE500BF5B
:100F6000000400404FF08040012113E501480021BA
:100F700010E500BF002C0140084B9A8998811A891E
:100F8000D007FCD5054B9889C0B2044B1A8991074C
:100F9000FBD51A891206FCD4704700BF0038004008
:100FA000484B2DE9F347484E182707FB003704014B
:100FB000331903F1080A814658689B68BA73ADF883
:100FC00004308846282301A902258DF806308DF8C3
:100FD0000750FFF7A9FA34599AF804600022204616
:100FE0003146FFF75DFD20464FF6FF7100F010F926
:100FF000238801A89BB243F0010323809AF80530AF
:101000004FF0010A8DF804308DF805A08DF806A088
:101010008DF807A000F0AEFA2C4B9C420DD0B4F135
:10102000804F0CD0A3F594339C420AD003F5806323
:101030009C4214BF0423032304E0002302E0534630
:1010400000E02B4636B1042E31D0082E31D00C2EC4
:101050000DD130E03246042B09D002EB83031C4A49
:1010600002EB0313C3F808801E7183F80C900C2E5A
:1010700023D8DFE806F0072222220C2222221122A6
:1010800022221600A3899BB243F002030DE0A3893C
:101090009BB243F0040308E0A3899BB243F008032A
:1010A00003E0A3899BB243F01003A38105E0012272
:1010B000D1E70222CFE70322CDE7384602B0BDE8F0
:1010C000F08700BF90030020485A0008002C014020
:1010D0007C070020034607B502AA02F8011D68201C
:1010E000194600F05AF803B05DF804FBB0F8400070
:1010F00080B27047808F80B27047008F80B2704797
:10110000808E80B27047016B0346C26810B540699B
:1011100041B1196C541A013918BF0A46005D1A64AE
:10112000C0B210BD196A405C0131B1FBF2F402FBA0
:101130001412C0B21A6210BD436B13B190F8440090
:101140007047836A406A1B1A584258417047036BC4
:1011500013B15B68006C01E0036AC069181A18BF1C
:1011600001207047426A10B58469A154426A04693B
:101170000132B2FBF4F104FB11224262426B32B144
:101180001368DB0708D4BDE81040FFF752B9826C42
:10119000D36843F08003D36010BD1C4B4000C0B245
:1011A00018705970002001219970D8701973597303
:1011B000987318695A609A6030B38288910515D483
:1011C0000288D2050DD447F230520188890502D534
:1011D000013AFAD112E08AB1028892B242F48072E6
:1011E0000280828892B242F44072828047F230528A
:1011F000597B11B1013AFBD100E00AB9FFF70ABBF4
:10120000024B987B80F00100704700BF84080020EB
:10121000244B254A1B6810B5B3FBF2F2234C03881C
:101220000139013AA04289B292B29BB212D004F5C0
:101230000064A0420ED0B0F1804F0BD0A4F59834DA
:10124000A04207D004F58064A04203D004F5806476
:10125000A04202D123F070039BB2154CA04206D0ED
:1012600004F58064A0421CBF23F440739BB203804A
:101270000E4B8185984202850FD003F5006398429A
:101280000BD003F54063984207D003F58063984282
:1012900003D003F58063984201D100230386012324
:1012A000838210BD4400002040420F00002C01400A
:1012B0000010004080EAE073A3EBE073272B06DD0B
:1012C000002801DD2838704702D028307047002000
:1012D000704770B505460E460024AC420FD00A4A4E
:1012E0000120D368013483F00803D360FFF7BCF812
:1012F0003046FFF7E2F80020FFF7B6F8EDE73C20B4
:10130000BDE87040FFF7D9B8000C01401F4A10B586
:1013100053681F4903F00C03042B03D0082B03D0A0
:101320001C4B12E00B6810E053685468C3F383430E
:10133000E40303F1020301D4174C05E0546814F4EC
:10134000003F0C6818BF6408634303605368C3F32D
:1013500003130B441C790368E34043605468C4F3EF
:1013600002240C44247923FA04F484605468C4F3FE
:10137000C2240C442479E340C3605268C2F3813232
:1013800011440A7DB3FBF2F3036110BD001002406B
:101390002C00002000127A0000093D0070B50E46B6
:1013A0000446038ACA889BB223F440531343038242
:1013B00082890989B38892B20B43718922F4B052B1
:1013C0000B4322F00C0213439BB28381838AB289C0
:1013D0009BB223F4407386B01343838201A8FFF7C6
:1013E00095FF039B049D174A3168944218BF1D4620
:1013F000A38919226A431BB2002BB4BF4D008D0094
:10140000B2FBF5F56426B5FBF6F00001010906FB19
:101410001153A28912B2002AADBF1A01D90032318C
:101420003232B5BFB1FBF6F2B2FBF6F302F00702BF
:1014300003F00F03B4BF1043184380B2208106B0FD
:1014400070BD00BF003801408A6810B50C6A03689F
:1014500014430A6923F4FF4314434A6923F07003D9
:1014600014438A691443CA6914434A6A14438A6A52
:10147000224313430360CB6843600B6883604B686F
:10148000C36010BD4FF6FE73026813400360002373
:10149000036043608360C360284B984201D1284AAF
:1014A00027E0284B984201D1254A2AE0264B984252
:1014B00001D1234A2DE0254B984201D1204A30E04A
:1014C000234B984201D11E4A33E0224B984204D16B
:1014D0001B4A536843F470032EE01F4B984204D11B
:1014E000174A536843F0706326E01C4B984204D1BE
:1014F0001B4A536843F00F031EE01A4B984204D175
:10150000174A536843F0F00316E0174B984204D192
:10151000134A536843F470630EE0144B984204D1AD
:101520000F4A536843F4704306E0114B984204D1CC
:101530000B4A536843F4702353607047080002401D
:10154000000002401C000240300002404400024003
:10155000580002406C000240800002400804024033
:10156000000402401C0402403004024044040240D3
:10157000580402400F4BD9684378C943C1F3022194
:10158000C1F1040203FA02F20F23CB4081780B4031
:101590001343094902781B01DBB20A4482F8003385
:1015A00003780122580903F01F0302FA03F341F8FC
:1015B0002030704700ED00E000E100E00F4B1A68BA
:1015C00042F001021A6059680D4A0A405A601A68CE
:1015D00022F0847222F480321A601A6822F4802287
:1015E0001A605A6822F4FE025A604FF41F029A6091
:1015F000044B4FF000629A60704700BF0010024039
:101600000000FFF800ED00E0013A072A30D8DFE8DB
:1016100002F004080C12191E222603880B8043884E
:101620000DE043880B80038803E003885B420B8056
:1016300043885B4203E043885B420B8003884B8016
:10164000838814E003885B420B8043880CE0438866
:101650000B80038808E003880B80438803E04388FD
:101660005B420B8003885B424B8083885B428B80AC
:1016700070470C4BD96D0A88120612D5DA6B986B3D
:1016800082420AD0D86A805C01328880586AB2FBF4
:10169000F0F100FB1122DA637047CB6823F080037E
:1016A000CB607047840800200A4B4FF400525A6008
:1016B0004FF6FE730848826C11680B401360826B12
:1016C000C36B9A4202D01430FEF7B3BE012380F8F8
:1016D0005830704700000240840800202DE9F74F81
:1016E000664A00251046B2F9023030F9081B83EA39
:1016F000E37EAEEBE37E81EAE173A3EBE1739E450B
:10170000B8BF9E46A8462B469146022B4FEA430C93
:1017100036D039F913205A4C5200B2F5FA7F594E9F
:1017200034F91350A8BF4FF4FA72B242ACBFC5EB04
:101730000202C5EB060254494FF0640831F9135018
:101740005A211544694391FBF8F1B1F5FA7FA8BF1E
:101750004FF4FA71B142B8BF31468846211D42F2BA
:10176000107451F823202A44A242A8BF2246474CB5
:101770000A25A242B8BF2246554341F823202D1323
:101780003E4A434932F90CA0203232F80C705C5CBE
:101790003EB286EAE672A2EBE672B2F5207F0168FD
:1017A00019DC022B11D0502202FB0AF292FBF4F456
:1017B000A41B0C44B4F57A5F364AA8BF4FF47A54A0
:1017C0009442ACBF0460026007E08AEAEA72A2EBCE
:1017D000EA72642AE7DD0022026004687D2294FB3D
:1017E000F2F22D49022BC95C01FB02F24FEAA21270
:1017F0000FD00EFB0AF10EFB02F2CEF5FA7404FBD9
:10180000081104FB05224FF4FA7B91FBFBFA92FBD3
:10181000FBF2224C6FF04F0BE15C0430714391FB03
:10182000FBF1514404F1040A3AF90CB02AF80C70A7
:10183000CBEB060604F10A0A04F1160B5BF82370E1
:1018400001915AF823104AF823600F44374404F1F9
:1018500022062834E45C4BF823106743202497FBCE
:10186000F4F70199D21B01330A44032B26F80C200C
:101870007FF44BAF03B0BDE8F08F00BFE408002059
:10188000F80800200CFEFFFF1C5A0008F0D8FFFFEC
:10189000205A000880C1FFFF235A00080A090020CF
:1018A000044B03EB8000027B034B03EB4203B3F8D2
:1018B000520070471C5A0008E408002038B504465E
:1018C000054D21462B68186803681B6898472B68EC
:1018D00018796040187138BD2400002081F0004163
:1018E00002E000BF83F0004330B54FEA41044FEA05
:1018F000430594EA050F08BF90EA020F1FBF54EAA0
:10190000000C55EA020C7FEA645C7FEA655C00F03B
:10191000E2804FEA5454D4EB5555B8BF6D420CDD0C
:101920002C4480EA020281EA030382EA000083EA8F
:10193000010180EA020281EA0303362D88BF30BD2F
:1019400011F0004F4FEA01314FF4801C4CEA113185
:1019500002D0404261EB410113F0004F4FEA0333E4
:101960004CEA133302D0524263EB430394EA050F6F
:1019700000F0A780A4F10104D5F1200E0DDB02FADE
:101980000EFC22FA05F2801841F1000103FA0EF272
:10199000801843FA05F359410EE0A5F120050EF138
:1019A000200E012A03FA0EFC28BF4CF0020C43FA69
:1019B00005F3C01851EBE37101F0004507D54FF076
:1019C000000EDCF1000C7EEB00006EEB0101B1F5C6
:1019D000801F1BD3B1F5001F0CD349085FEA30000C
:1019E0004FEA3C0C04F101044FEA445212F5800F17
:1019F00080F09A80BCF1004F08BF5FEA500C50F1B4
:101A0000000041EB045141EA050130BD5FEA4C0C96
:101A1000404141EB010111F4801FA4F10104E9D11F
:101A200091F0000F04BF01460020B1FA81F308BF16
:101A30002033A3F10B03B3F120020CDA0C3208DDE2
:101A400002F1140CC2F10C0201FA0CF021FA02F1BD
:101A50000CE002F11402D8BFC2F1200C01FA02F12D
:101A600020FA0CFCDCBF41EA0C019040E41AA2BF52
:101A700001EB0451294330BD6FEA04041F3C1CDA1A
:101A80000C340EDC04F11404C4F1200220FA04F03A
:101A900001FA02F340EA030021FA04F345EA0301E4
:101AA00030BDC4F10C04C4F1200220FA02F001FAA6
:101AB00004F340EA0300294630BD21FA04F0294628
:101AC00030BD94F0000F83F4801306BF81F48011C1
:101AD0000134013D4EE77FEA645C18BF7FEA655C34
:101AE00029D094EA050F08BF90EA020F05D054EA06
:101AF000000C04BF1946104630BD91EA030F1EBF0B
:101B00000021002030BD5FEA545C05D1400049410E
:101B100028BF41F0004130BD14F580043CBF01F501
:101B2000801130BD01F0004545F0FE4141F47001E7
:101B30004FF0000030BD7FEA645C1ABF19461046C2
:101B40007FEA655C1CBF0B46024650EA013406BFC3
:101B500052EA033591EA030F41F4002130BD00BF82
:101B600090F0000F04BF0021704730B54FF480643F
:101B700004F132044FF000054FF0000150E700BFC0
:101B800090F0000F04BF0021704730B54FF480641F
:101B900004F1320410F0004548BF40424FF000010C
:101BA0003EE700BF42004FEAE2014FEA31014FEA4F
:101BB00002701FBF12F07F4393F07F4F81F060519E
:101BC000704792F0000F14BF93F07F4F704730B50D
:101BD0004FF4607401F0004521F0004120E700BFA0
:101BE00050EA010208BF704730B54FF000050AE027
:101BF00050EA010208BF704730B511F0004502D528
:101C0000404261EB41014FF4806404F132045FEA29
:101C1000915C3FF4DCAE4FF003025FEADC0C18BFCE
:101C200003325FEADC0C18BF033202EBDC02C2F1C4
:101C3000200300FA03FC20FA02F001FA03FE40EA56
:101C40000E0021FA02F11444C1E600BF70B54FF056
:101C5000FF0C4CF4E06C1CEA11541DBF1CEA135538
:101C600094EA0C0F95EA0C0F00F0DEF82C4481EAA0
:101C7000030621EA4C5123EA4C5350EA013518BFC0
:101C800052EA033541F4801143F4801338D0A0FBAD
:101C900002CE4FF00005E1FB02E506F00042E0FB5A
:101CA00003E54FF00006E1FB03569CF0000F18BF60
:101CB0004EF0010EA4F1FF04B6F5007F64F5407408
:101CC00004D25FEA4E0E6D4146EB060642EAC6219B
:101CD00041EA55514FEAC52040EA5E504FEACE2E08
:101CE000B4F1FD0C88BFBCF5E06F1ED8BEF1004F0B
:101CF00008BF5FEA500E50F1000041EB045170BD87
:101D000006F0004646EA010140EA020081EA0301CA
:101D1000B4EB5C04C2BFD4EB0C0541EA045170BDC6
:101D200041F480114FF0000E013C00F3AB8014F140
:101D3000360FDEBF002001F0004170BDC4F1000489
:101D4000203C35DA0C341BDC04F11404C4F120050A
:101D500000FA05F320FA04F001FA05F240EA020065
:101D600001F0004221F0004110EBD37021FA04F69B
:101D700042EB06015EEA430E08BF20EAD37070BD55
:101D8000C4F10C04C4F1200500FA04F320FA05F0B4
:101D900001FA04F240EA020001F0004110EBD370B6
:101DA00041F100015EEA430E08BF20EAD37070BD26
:101DB000C4F1200500FA05F24EEA020E20FA04F3FF
:101DC00001FA05F243EA020321FA04F001F00041AE
:101DD00021FA04F220EA020000EBD3705EEA430E1F
:101DE00008BF20EAD37070BD94F0000F0FD101F04E
:101DF0000046400041EB010111F4801F08BF013C87
:101E0000F7D041EA060195F0000F18BF704703F0C4
:101E10000046520043EB030313F4801F08BF013D4B
:101E2000F7D043EA0603704794EA0C0F0CEA135507
:101E300018BF95EA0C0F0CD050EA410618BF52EAC1
:101E40004306D1D181EA030101F000414FF00000C7
:101E500070BD50EA410606BF1046194652EA4306D5
:101E600019D094EA0C0F02D150EA013613D195EA49
:101E70000C0F05D152EA03361CBF104619460AD191
:101E800081EA030101F0004141F0FE4141F470019B
:101E90004FF0000070BD41F0FE4141F4780170BD8B
:101EA00070B54FF0FF0C4CF4E06C1CEA11541DBFF0
:101EB0001CEA135594EA0C0F95EA0C0F00F0A7F8F2
:101EC000A4EB050481EA030E52EA03354FEA01311F
:101ED00000F088804FEA03334FF0805545EA131332
:101EE00043EA12634FEA022245EA111545EA1065FA
:101EF0004FEA00260EF000419D4208BF964244F191
:101F0000FD0404F5407402D25B084FEA3202B61AAF
:101F100065EB03055B084FEA32024FF480104FF483
:101F2000002CB6EB020E75EB030E22BFB61A7546F7
:101F300040EA0C005B084FEA3202B6EB020E75EB8A
:101F4000030E22BFB61A754640EA5C005B084FEAF2
:101F50003202B6EB020E75EB030E22BFB61A7546BF
:101F600040EA9C005B084FEA3202B6EB020E75EBCA
:101F7000030E22BFB61A754640EADC0055EA060E8B
:101F800018D04FEA051545EA16754FEA06164FEACE
:101F9000C30343EA52734FEAC2025FEA1C1CC0D17A
:101FA00011F4801F0BD141EA00014FF000004FF007
:101FB000004CB6E711F4801F04BF01430020B4F1C8
:101FC000FD0C88BFBCF5E06F3FF6AFAEB5EB030C80
:101FD00004BFB6EB020C5FEA500C50F1000041EB7D
:101FE000045170BD0EF0004E4EEA113114EB5C044A
:101FF000C2BFD4EB0C0541EA045170BD41F480111D
:102000004FF0000E013C90E645EA060E8DE60CEA24
:10201000135594EA0C0F08BF95EA0C0F3FF43BAF41
:1020200094EA0C0F0AD150EA01347FF434AF95EAF8
:102030000C0F7FF425AF104619462CE795EA0C0FDC
:1020400006D152EA03353FF4FDAE1046194622E7A9
:1020500050EA410618BF52EA43067FF4C5AE50EA83
:1020600041047FF40DAF52EA43057FF4EBAE12E773
:102070004FEA4102B2F1E04324BFB3F5001CDCF1AA
:10208000FE5C0DD901F0004C4FEAC0024CEA5070E2
:10209000B2F1004F40EB830008BF20F00100704711
:1020A00011F0804F21D113F13872BCBF01F0004014
:1020B000704741F480114FEA5252C2F11802C2F146
:1020C000200C10FA0CF320FA02F018BF40F00100C7
:1020D0004FEAC1234FEAD32303FA0CFC40EA0C0079
:1020E00023FA02F34FEA4303CCE77FEA625307D1B6
:1020F00050EA01331EBF4FF0FE4040F440007047ED
:1021000001F0004040F0FE4040F40000704700BF86
:1021100080F0004002E000BF81F0004142001FBF9C
:102120005FEA410392EA030F7FEA226C7FEA236CA5
:102130006AD04FEA1262D2EB1363C1BFD21841409A
:1021400048404140B8BF5B42192B88BF704710F030
:10215000004F40F4000020F07F4018BF404211F0D3
:10216000004F41F4000121F07F4118BF494292EA3B
:10217000030F3FD0A2F1010241FA03FC10EB0C0067
:10218000C3F1200301FA03F100F0004302D54942F4
:1021900060EB4000B0F5000F13D3B0F1807F06D3A1
:1021A00040084FEA310102F10102FE2A51D2B1F199
:1021B000004F40EBC25008BF20F0010040EA03008E
:1021C0007047490040EB000010F4000FA2F101023B
:1021D000EDD1B0FA80FCACF1080CB2EB0C0200FAC5
:1021E0000CF0AABF00EBC25052421843BCBFD04013
:1021F0001843704792F0000F81F4000106BF80F48D
:1022000000000132013BB5E74FEA41037FEA226C4F
:1022100018BF7FEA236C21D092EA030F04D092F01A
:10222000000F08BF0846704790EA010F1CBF00204E
:10223000704712F07F4F04D1400028BF40F00040AB
:10224000704712F100723CBF00F50000704700F0CB
:10225000004343F0FE4040F4000070477FEA2262F2
:1022600016BF08467FEA23630146420206BF5FEAC3
:10227000412390EA010F40F4800070474FF00003C3
:1022800004E000BF10F0004348BF40425FEA000C8A
:1022900008BF704743F0964301464FF000001CE032
:1022A00050EA010208BF70474FF000030AE000BF88
:1022B00050EA010208BF704711F0004302D54042C6
:1022C00061EB41015FEA010C02BF84460146002038
:1022D00043F0B64308BFA3F18053A3F50003BCFA53
:1022E0008CF2083AA3EBC25310DB01FA02FC634400
:1022F00000FA02FCC2F12002BCF1004F20FA02F207
:1023000043EB020008BF20F00100704702F12002F9
:1023100001FA02FCC2F1200250EA4C0021FA02F25A
:1023200043EB020008BF20EADC7070474FF0FF0C5F
:102330001CEAD0521EBF1CEAD15392EA0C0F93EA5A
:102340000C0F6FD01A4480EA010C400218BF5FEAFC
:1023500041211ED04FF0006343EA501043EA51116F
:10236000A0FB01310CF00040B1F5000F3EBF490069
:1023700041EAD3715B0040EA010062F17F02FD2A6D
:102380001DD8B3F1004F40EBC25008BF20F0010050
:10239000704790F0000F0CF0004C08BF49024CEA67
:1023A000502040EA51207F3AC2BFD2F1FF0340EAF9
:1023B000C250704740F400004FF00003013A5DDC6A
:1023C00012F1190FDCBF00F000407047C2F10002AB
:1023D000410021FA02F1C2F1200200FA02FC5FEA98
:1023E000310040F1000053EA4C0308BF20EADC70E2
:1023F000704792F0000F00F0004C02BF400010F454
:10240000000F013AF9D040EA0C0093F0000F01F000
:10241000004C02BF490011F4000F013BF9D041EA22
:102420000C018FE70CEAD15392EA0C0F18BF93EA24
:102430000C0F0AD030F0004C18BF31F0004CD8D14E
:1024400080EA010000F00040704790F0000F17BFD5
:1024500090F0004F084691F0000F91F0004F14D01B
:1024600092EA0C0F01D142020FD193EA0C0F03D173
:102470004B0218BF084608D180EA010000F0004076
:1024800040F0FE4040F40000704740F0FE4040F451
:10249000400070474FF0FF0C1CEAD0521EBF1CEAF0
:1024A000D15392EA0C0F93EA0C0F69D0A2EB03020E
:1024B00080EA010C49024FEA402037D04FF08053A8
:1024C00043EA111143EA10130CF000408B4238BF6D
:1024D0005B0042F17D024FF4000C8B4224BF5B1A7B
:1024E00040EA0C00B3EB510F24BFA3EB510340EAC9
:1024F0005C00B3EB910F24BFA3EB910340EA9C0077
:10250000B3EBD10F24BFA3EBD10340EADC001B01E6
:1025100018BF5FEA1C1CE0D1FD2A3FF650AF8B428A
:1025200040EBC25008BF20F0010070470CF0004C97
:102530004CEA50207F32C2BFD2F1FF0340EAC250C2
:10254000704740F400004FF00003013A37E792F083
:10255000000F00F0004C02BF400010F4000F013AE1
:10256000F9D040EA0C0093F0000F01F0004C02BFDC
:10257000490011F4000F013BF9D041EA0C0195E745
:102580000CEAD15392EA0C0F08D142027FF47DAFDE
:1025900093EA0C0F7FF470AF084676E793EA0C0FCE
:1025A00004D14B023FF44CAF08466EE730F0004CCC
:1025B00018BF31F0004CCAD130F000427FF45CAF5C
:1025C00031F000437FF43CAF5FE700BF4FF0FF3CCA
:1025D00006E000BF4FF0010C02E000BF4FF0010C1D
:1025E0004DF804CD4FEA40024FEA41037FEA226CE6
:1025F00018BF7FEA236C11D001B052EA530C18BF08
:1026000090EA010F58BFB2EB030088BFC81738BF6C
:102610006FEAE17018BF40F0010070477FEA226C5A
:1026200002D15FEA402C05D17FEA236CE4D15FEA56
:10263000412CE1D05DF8040B704700BF844608468A
:102640006146FFE70FB5FFF7C9FF002848BF10F14B
:10265000000F0FBD4DF808EDFFF7F4FF0CBF012090
:1026600000205DF808FB00BF4DF808EDFFF7EAFF1A
:1026700034BF012000205DF808FB00BF4DF808EDD5
:10268000FFF7E0FF94BF012000205DF808FB00BFCA
:102690004DF808EDFFF7D2FF94BF012000205DF850
:1026A00008FB00BF4DF808EDFFF7C8FF34BF01205D
:1026B00000205DF808FB00BF4FEA4002B2F1FE4F78
:1026C0000FD34FF09E03B3EB12620DD94FEA0023F4
:1026D00043F0004310F0004F23FA02F018BF4042CD
:1026E00070474FF00000704712F1610F01D14202B4
:1026F00005D110F0004008BF6FF0004070474FF068
:1027000000007047000000002DE980480023A1B0C0
:102710000893624C09930A934FF4E0130B932368D8
:1027200043F480332360A36943F01003A36123685B
:1027300003F400330993089B01330893099B1BB9E9
:10274000089BB3F5A06FF2D12368544913F400330A
:1027500001D0022315E00A6842F001020A600893E2
:10276000236803F002030993089B01330893099B34
:102770001BB9089BB3F5A06FF2D123689B0739D52D
:1027800001230A93464B47491A6842F010021A6027
:102790001A6822F003021A601A6842F002021A60F4
:1027A0006368636063686360636843F48063636065
:1027B0003D4B1A68043B22F070425A603B4A11605C
:1027C000616821F47C116160596841F000415960F1
:1027D000D96821F40041D9609B681F0449BF344B7C
:1027E0004FF4E01313604FF480130B930A9B012BFB
:1027F00001D108E0FEE7022B09D10B9963680B4376
:1028000043F4803302E0636843F460136360236839
:1028100043F0807323602168204B8E01FBD55968FB
:1028200021F003015960596841F002015960636861
:102830001A4903F00C03082BF9D14B68DFF880909C
:1028400003F00C03042B03D0082B03D0154B12E02C
:10285000136810E04B684868C3F38343C50303F172
:10286000020301D4134905E0496811F4003F1168DF
:1028700018BF49084B43C9F8003063680E4EC3F3D4
:102880000313F15CD9F800300C4FCB40C9F800308D
:102890001368044A934215D1012317E00010024047
:1028A0000020024000127A00041001402C00002099
:1028B000001BB70000093D00000000204C0900206B
:1028C00044000020B04A934201D102233B60DFF86C
:1028D00000E315ADBEE80F000FC59EE80F0085E8C8
:1028E0000F00AA4AAA4BAB48DA60E3690DA943F08E
:1028F0000703E361A36916AD43F4944343F01D035A
:10290000A36163690DF1780A43F001036361636AAF
:1029100043F0807363624FF6FF73ADF834300023E9
:102920008DF83630FDF700FE9B480DA9FDF7FCFD44
:102930009A480DA9FDF7F8FD994A0020536843F025
:10294000007353603B68012BC8BF964A964BD8BFB3
:10295000964A1A60FDF788FD8F4B08221A611022F3
:102960001A61D7F80080B8F1010F04DDAB78142BA1
:1029700004BF1023AB7055F8040C29460835FDF749
:10298000D3FD5545EDD110A8FEF7C0FC109B884A39
:10299000F021B3FBF2F3874A00251360D9F8003029
:1029A0004FF47A72B3FBF2F3834A013B5360784BE6
:1029B000642083F823100723956013607F4B804ABF
:1029C00083E82400FDF779FD2B4641F2DA6103FB31
:1029D00003F2193A4A4340F6C41102F55B3202F59C
:1029E0003A725A4392FBF1F2764921F813200133EF
:1029F000072BEAD100224FF47A7000FB02F3A3F513
:102A00009C534FF00A0E083B93FBFEF303F5FA7359
:102A10009BB24FF47F7E0EFB03F393FBF0F3674D05
:102A200003F2DE3305F1160121F8123001320C2ACF
:102A3000E1D1E369DFF8609143F48043E361182357
:102A40008DF832304FF420434846ADF830300CA9B1
:102A500003238DF83330FDF767FD4FF4804348467C
:102A6000ADF830300CA904234FF0100B8DF8323044
:102A70004FF4805AFDF758FD48460CA9ADF830A038
:102A80008DF832B0FDF750FD2369002143F48043F7
:102A900023612369012023F4804323614FF482736F
:102AA000ADF856304FF40073ADF85E300223ADF848
:102AB0005A300724444BADF85410ADF85810ADF817
:102AC0006210ADF86440ADF85C00ADF860B01A88F3
:102AD00002F4415242F4457242F003021A809A8B8A
:102AE00022F4006202FA0BF222FA0BF29A831C82A1
:102AF0001A8892B242F040021A809F228DF8351057
:102B00008DF836108DF837108DF8342085F82E00AA
:102B1000C9F814A09B894FF005090DAB10A9B9F1B4
:102B2000010909D013B11878013300E0FF20264ACB
:102B30001489A407FBD535E1174C4FF4805AC4F82B
:102B400010A09DF842309DF841201B0243EA024349
:102B50009DF84320194D13431C4A93423FD0322025
:102B6000FDF7ABFCC4F814A0F520FEF705FAFF2032
:102B7000FEF702FA70288DF84000C4F810A029D0A2
:102B800085F82E902BE000BF001BB7000005FA056A
:102B900000ED00E000080140000C01400010014081
:102BA0000000014013010008580900202901000815
:102BB00040420F005C06002010E000E0B000002062
:102BC00085090008B80000200038004015202000CA
:102BD00048590008B8F1020F04BF03233B603C686A
:102BE000032C02D00120FDF7D1FC0422012C8D4BD7
:102BF00085F82F204FF000024FF0010785F83020B4
:102C0000C2BF052283F8312083F832708648C8BFDE
:102C100002274FF00008FEF735FC022F18BFC1460F
:102C2000824B08BF4FF080091593814BCDF8689017
:102C300016934FF48073DFF8F0911B934FF4806389
:102C40001C9320231D9348464FF4005315A9189751
:102C50001E93CDF85C80CDF86480CDF87C80FEF7C3
:102C6000F3FBD9F800307348012F43F001034FF410
:102C70006022FFB2C9F8003012928DF85070CDF882
:102C80004080CDF84C804168D8BF4FF0000E21F451
:102C90007022C8BF4FF0010E22F4807242EA0E2269
:102CA00001238DF844E08DF8453042608168624A26
:102CB000013F0A4042F4602242F002028260C26A8E
:102CC000FFB222F4700242EA0757C7625B4A12F869
:102CD0001870002F4FD0092F03F101015548DBB2C6
:102CE0000DD9A7F10A02D0F80CE002EB42024FF036
:102CF000070C0CFA02F242EA0E02C26009E0026915
:102D000007EB470C4FF0070E0EFA0CFE4EEA0202DC
:102D10000261062B47480ED8013B03EB8302D0F833
:102D200034C01F2393402CEA030E07FA02F34EEA45
:102D3000030343631EE00C2B0ED8DA1FD0F830C01B
:102D400002EB82021F2393402CEA030E07FA02F3E0
:102D50004EEA030303630DE00D3BC26A03EB8303FA
:102D60004FF01F0E0EFA03FE22EA0E0207FA03F3DB
:102D70001343C3620B4608F10108B8F1040FA5D153
:102D80002C4B9A6842F480729A609A6842F0010271
:102D90009A609A6842F008029A609968254A090781
:102DA0000ED5FAE780B290811089C007FCD5244A7D
:102DB000928992B200293FF4B2AE0A700131AEE6B8
:102DC000936843F0040393601A4B9A685707FBD447
:102DD0009A68062142F4A0029A604FF480537382ED
:102DE0000A4615AB6820FDF723FD9DF857309DF886
:102DF000592003F001035B0002F0010243EA820262
:102E00009DF8553003F001031343DAB28DF84020EA
:102E1000C3B1012B01F03283022A24D00520FDF733
:102E200056FB00BFB0000020080002404C240140C7
:102E3000E800002000240140FDF7F1FFDF00002042
:102E40000038004010AB68200C210122FDF7F0FC97
:102E50009DF8403003F00F038DF84030002BDDD09B
:102E6000042B01F00B83BF4B012CEB644FF00303E9
:102E700033740DDD4FF40053ADF8543002238DF858
:102E80005730B948042315A98DF85630FDF74CFB8F
:102E900080216B20FEF71EF96420FDF70EFB002158
:102EA0001920FEF717F903216B20FEF713F90A200A
:102EB000FDF703FB03211A20FEF70CF918211B2054
:102EC000FEF708F910211C20FEF704F91221372023
:102ED000FEF700F901213820FEF7FCF8A34B002093
:102EE0002B65A34B0A246B65A24B2B64A24B6B642E
:102EF000FDF710FF2B6C00209847A04B10225A6161
:102F000008221A619D4F1920FB68013C83F01003D1
:102F1000FB60FB6883F00803FB60FDF7CEFA01203D
:102F2000FDF7A2FA1920FDF7C8FA0020FDF79CFA78
:102F300014F0FF04E6D108233B6110233B61708A43
:102F4000FFF7A0F98E490746FFF7F0F901F088FB7B
:102F50003946A5F860008B48FFF79CFA8A49FFF7CD
:102F600099FA8A4B6866AB66894BEB66DFF84CE2F0
:102F7000DFF84CC20EF17007274404EB0C03103449
:102F8000402C0FCB87E80F00F0D1824C4FF47A73BE
:102F9000AEF8B030AEF8B230AEF8B430AEF8B6300D
:102FA0000CF1400323600EF1BC0363610EF5DE7388
:102FB000A3614FF48073E3602361774B4FF0000807
:102FC000764A4FF4E139CEF8B880C4F8089023630C
:102FD000143B63639369724843F480439361022313
:102FE0008DF843304FF40073ADF8403010A918232A
:102FF0008DF84230FDF798FA4FF4806310A9ADF8D0
:103000004030674848238DF84230FDF78DFA0E2393
:10301000644F8DF8543015A801238DF855308DF884
:1030200056308DF85730FEF7A5FA03232371384642
:103030000C2310A9ADF84A30A764C4F82080C4F866
:103040001C80C4F82880C4F82480C4F82C80C4F8FC
:103050000890CDF84090ADF84480ADF84680ADF8CA
:103060004880ADF84C80FEF799F9BB89206B9BB284
:1030700043F40053BB814C4BCDF8588015934FF46B
:1030800080531E938023CDF85C80CDF86080CDF80E
:103090006480CDF86C80CDF87080CDF87480CDF868
:1030A0007C801A93C8B1E368189320231D93636949
:1030B0001693FEF7E7F9206B15A9FEF7C5F9226B09
:1030C000136843F001031360BB8A9BB243F04003D3
:1030D000BB8253689BB2236404E0344A136843F014
:1030E00020031360606BDFF8AC80E0B1D8F81030DB
:1030F00000271893102317931D97FEF7C3F9D8F8EC
:10310000340015A9FEF7A0F9D8F834301A6842F057
:1031100002021A60234A5F605F60938A9BB243F0A9
:103120008003938204E0214A136843F08003136014
:103130001F4B00271C60D5F8B830C5F8BC420133DE
:10314000C5F8B83040F2D93385F8D472B382194B40
:10315000FB5CFF2B03F00F0634D1174BC5F8D832B8
:103160000023D3E11844923100100140150D0008EE
:10317000890D0008090D0008210D0008000C014010
:10318000C903683F0AE81C4100401C46F62421445C
:103190003661023D980800205800024000100240AD
:1031A0000008014000380140043801400C3801405B
:1031B00064060020C0590008E5090008B00000209E
:1031C00068590008DC0606D53046BC490022FDF7E8
:1031D000E7FE08230DE003F0200202F0FF0B5AB1D6
:1031E0003046B74995F8DC22FDF7DAFE95F8DC3277
:1031F000013385F8DC3284E1580640F1828195F88C
:10320000DDA218220AF1010385F8DD32AD4BDFF8AB
:10321000B89202FB06334FEA061859F808400093AB
:10322000204609EB080340F6C41103920193FDF711
:10323000EFFF019B039A03F1080C58689B6815A9DE
:10324000ADF854300223CDF808C08DF856208DF823
:1032500057300193FDF768F9DDF808C07021019B34
:10326000ADF854109CF804200121ADF85610ADF8CB
:103270005C304FF47A714FF48073ADF858B0ADF80C
:103280005EB0ADF862B0ADF85A10ADF860300C2AFF
:1032900000F2E980DFE812F00D00E700E700E70048
:1032A0004D00E700E700E7008200E700E700E700E5
:1032B000B600238CDFF814C223F001031B041B0C9F
:1032C0002384218CA088238B1FFA81FE23F07303B3
:1032D0001B041B0C2EF00201644580B243F0700306
:1032E00041F003010FD00CF5006C64450BD00CF5D8
:1032F000406C644507D00CF5806C644503D00CF538
:10330000806C644507D12EF00E0120F4407041F02E
:10331000030140F48070A08023834FF47A73A38666
:103320002184238B23F008031B041B0C43F00803A8
:1033300032E0238CDFF894C123F010031B041B0C34
:103340002384218CA088238B1FFA81FE23F4E6437B
:103350001B041B0C2EF02001644580B243F4E043B3
:1033600041F0300103D00CF5006C644507D12EF01C
:10337000E00120F4406041F0300140F48060A08022
:1033800023834FF47A7323872184238B23F40063F0
:103390001B041B0C43F40063238364E0238CDFF8DD
:1033A0002CC123F480731B041B0C2384218CA08864
:1033B000A38B1FFA81FE23F073031B041B0C2EF456
:1033C0000071644580B243F0700341F4407103D052
:1033D0000CF5006C644507D12EF4606120F4405078
:1033E00041F4407140F48050A080A3834FF47A737D
:1033F000A3872184A38B23F008031B041B0C43F039
:1034000008032FE0238CDFF8C4E023F480531B046F
:103410001B0C2384238CA088A18B23F4005321F45C
:10342000E64109041B04090C1B0C744580B241F4ED
:10343000E04143F4405303D00EF5006E744503D1D0
:1034400020F4804040F48040A080A1834FF47A7142
:10345000A4F840102384A38B23F400631B041B0CEB
:1034600043F40063A383C14499F80E3043B1B4F828
:1034700044306FEA43436FEA53439BB2A4F84430AD
:10348000238804F124009BB243F001032380182316
:1034900003FB0651C1F8E442C1F8E8020C2A24D823
:1034A000DFE802F007232323162323231A232323F1
:1034B0001E0003FB0653343415E000BF450A000824
:1034C000950C000890030020485A0008002C014089
:1034D00003FB0653383406E003FB06533C3402E09A
:1034E00003FB06534034C3F8E042182303FB06569F
:1034F00040F6C413A6F8EC32009B05EB8A0ACAF822
:10350000303401370E2F7FF422AE26E640F2DE5132
:10351000C54C04F5886222F813100133122BF5D143
:10352000C24BC4F86434082384F8D032FCF7A2FFFD
:103530004FF47A73A4F86C34012384F86E3420AA13
:103540005123C4F8680402F8613D70200021FDF7A2
:1035500024FE84F86F04B44CB54ED4F8702433685C
:1035600025469A1A002AC0F28E8704F5886904F26B
:103570007448CA46C34603F59C432033C4F87034EC
:103580000027D5F86434F8B2984740F2DC52A0F234
:10359000EE239BB2934288BF1046D5F8B424A54BC6
:1035A000A1491340002BBEBF03F1FF3363F00303B7
:1035B000013303EB870301EB4303A3F874043BF8E7
:1035C0003710B8F8023001370B44B8F80410082F50
:1035D0000B44B8F8061008F108080B441BB24FF072
:1035E000040193FBF1F329F8023BCAD18E4B01325F
:1035F000C3F8B4240022134640F24C403AF91210AA
:103600009B08814206DD40F26B7063F07F038142CC
:10361000DBB201DC43F040030132042AECD194F820
:10362000B82481499A4205D191F8B924F92A04D8DD
:10363000013200E0002281F8B92440F24B42B4F993
:10364000461484F8B834914240F3658794F8B9146D
:10365000754A14292BD192F8BA1451B15F2B26D197
:10366000D2F8BC14002382F8BA3401B3C2F8BC34D7
:103670001DE0572B04D14FF47A73A2F86C3416E096
:103680006F2B0ED1B2F86C3433B992F8C0341BB141
:10369000012382F8BA340AE00220FF21FDF719FE67
:1036A00005E0972B02BF644B4FF4C8721A80B4F93F
:1036B000C234322B15DD614B00221A605A6010E0D3
:1036C0000123C4F8C434D4F8C4340133C4F8C43476
:1036D00094F86F34544F002B40F0E8860023C4F870
:1036E000C434FCF7C7FED4F8D0343060C31A002BC2
:1036F000DFF83481FFF62FAF00F6AC50C8F8D004E5
:10370000D8F8443008F2D4409847B8F86C3408F23E
:10371000D44708F22459002B00F0AC8008F2DC46B4
:1037200008F59D6B4FF00008B5F86C3437F91800B8
:10373000B3F57A7F02BF00223260CBF810203268E6
:10374000009302443260FEF79DFDDBF810204FEA43
:10375000480A0132012ACBF8102007D10022CBF809
:103760000400CBF80000CBF808202EE0DBF8003096
:103770000492194602930390FEF7CEFC049A01903E
:103780001046FEF77FFD01460198FEF783FE029B7F
:1037900001461846FEF7C2FC0246DDF80CC0114691
:1037A000CBF8040060460292FEF7B6FC0146019891
:1037B000FEF7BCFDDBF80810FEF7B0FC029ACBF870
:1037C0000C00CBF80020CBF80800009B0022012B56
:1037D00027F80A2029F80A203DD1DBF8100001283B
:1037E00008DD0138FEF74EFD0146DBF80C00FEF760
:1037F00051FE00E0002000F0AFFF4FF08441FEF7E3
:1038000051FF4FF47A71D8B10022A5F86C14C5F8B5
:10381000F824C5F80C25C5F82025C5F8E424C5F81A
:10382000E024C5F8DC2416E0B0000020A118000850
:10383000480900200300008050090020FC080020F7
:1038400032680A2002F5FA7292FBF1F20F2129F890
:103850000A20FDF73EFD08F10108B8F1030F06F15B
:1038600004060BF1140B7FF45FAFB4F86C34013B2A
:10387000A4F86C34002337F8132039F81310BA4E2B
:10388000521A27F813200133032BF4D1B74D736D6F
:1038900006F22A509847298806F22A5600293DD078
:1038A0004FF0000CB24BB1F5C87F04BF002243F8C3
:1038B0002C204FEA8C0E36F91C8053F80E00AA4AD1
:1038C000404443F80E00002302F23C5026F81C301E
:1038D00020F81C300CF1010CBCF1030FE2D10129DE
:1038E0001AD1D2F830354FF4C87603F1C80090FBF6
:1038F000F6F0A2F83C05D2F83405D2F83835C830D5
:1039000090FBF6F0C83393FBF6F3A2F83E05994816
:10391000408A1B1AA2F840354B1E2B80B4F82A357A
:10392000B4F83C254FF000099B1AA4F82A35B4F8E6
:103930003E25B4F82C35CB469B1AA4F82C35B4F8A8
:103940004025B4F82E359B1AA4F82E35FCF792FDCD
:10395000D4F844350546C31A18460093FEF78EFC8A
:10396000E16C0190FEF7E2FC8246C4F8445537F959
:103970001B00FEF787FC5146FEF7D8FC7E4D0DF18B
:10398000340848F82B004FF07D5155F82B00FEF716
:10399000CDFCA5F11E03064633F91B00FEF772FCB1
:1039A0004FF07A51FEF7C2FC01463046FEF7B6FBF7
:1039B00045F82B00FEF780FE05F10C0680B226F8D4
:1039C0001B000BF1010B00B2BBF1030F00FB0099D0
:1039D000CDD1684F642303FB09F3B7F8129005F1CA
:1039E000140009FB09F993FBF9F9A9F149094146CA
:1039F0001FFA89F9FDF7F2F9B9F13B0F05F114054A
:103A000040F29380B4F96000FEF73CFCD4F86465A2
:103A1000014630464FF00105FEF744FE00B9054669
:103A2000514B3146D4F8600583F86E5400F092FE95
:103A30000646C4F86805D4F85C05D4F864A500F11E
:103A40000045D4F860050146FEF770FC51468146FA
:103A50005046FEF76BFC01464846FEF75FFB00F060
:103A60007BFE0146284600F075FE0546C4F86C054D
:103A70003046FEF797F83AA3D3E90023FEF7E6F8BD
:103A8000FEF7F6FA00F0ECFDDFF8F890A9F8000078
:103A90002846FEF787F832A3D3E90023FEF7D6F8CD
:103AA000FEF7E6FA00F0DCFDA9F80200DFF8C490AA
:103AB000414609F11800FDF791F9B869D7F81CA043
:103AC0000146FEF733FCD7F82080514607465046A2
:103AD000FEF72CFC01463846FEF720FB4146074620
:103AE0004046FEF723FC01463846FEF717FB00F080
:103AF00033FE00210746FEF7ADFD002844D1D9F87A
:103B000018003946FEF7C6FC3946C9F81800D9F83E
:103B10001C00FEF7BFFC3946C9F81C00D9F820008C
:103B2000FEF7B8FCC9F820002EE04FF0000955F868
:103B300029001249FEF7FAFB824636F91900FEF712
:103B4000A1FB01465046FEF7E9FA0D49FEF7EEFBF0
:103B500045F8290009F10109B9F1030FE7D151E74F
:103B60003B597E90A9E78140B00000205009002019
:103B7000E005002000000020F805002000001644A9
:103B80000017DA3AF8080020304600F033FD80468E
:103B9000304600F0A1FD8346284600F02BFD05903D
:103BA000284600F099FDC44F8146FB6941461846FE
:103BB0000493FEF7BBFBD7F820A05946029050466D
:103BC000FEF7B4FB029A01461046FEF7A5FADDF8AF
:103BD00014C0B96903906046FEF7A8FB049B5946E0
:103BE00002901846FEF7A2FB4946FEF79FFBDDF860
:103BF00008C001466046FEF791FA494683465046A2
:103C0000FEF794FB4146FEF791FB01465846FEF74E
:103C100085FA039A0146104600F09CFDA749FEF77D
:103C200085FBFDF7BFFFA0A3D3E90023FEF738F91A
:103C300000220023FDF758FE0022A14BFEF730F9C9
:103C4000FEF716FA00F00CFD1FFA80F919F4004F88
:103C500018BF00F5B47002979A4F18BF1FFA80F989
:103C600099490198A7F87095FEF760FB06F10046A8
:103C700005F1004580460FFA89F010961195FEF780
:103C800001FB00F10040FDF78DFF89A3D3E900237C
:103C9000FDF7DCFFFEF7ECF91290B7F95405FEF7DB
:103CA000F1FA1590B7F95605FEF7ECFA1690B7F948
:103CB0005805FEF7E7FA10A9179015A8FDF78EF83A
:103CC00097F8BA643D4676B9D7F87405402390FB5F
:103CD000F3F3C01AFEF7D6FA1799FEF71FFAFEF7AC
:103CE000EBFCC7F87405D4F87405402390FBF3F09F
:103CF000FEF7C8FA01461798FEF70EFAE16E07467E
:103D000017904046FEF70AFA01464046FEF7C2FB0E
:103D1000D4F87895804649463846FEF7FDF90146C5
:103D20004046FEF703FB01464846FEF7F7F9C4F8A4
:103D300078050746159800F093FCFDF7BBFAD4F818
:103D40007C351844C4F87C05169800F089FCFDF712
:103D5000B1FAD4F880351844C4F88005384600F02C
:103D60007FFCFDF7A7FAD4F88435584A1844009927
:103D70001368C4F884051944D4F8883511600133F8
:103D8000B4F8D824C4F88835514B9A80B4F8D424B8
:103D90001A80B4F8D6245A80FCF76CFB4D4B0022F5
:103DA0001860D4F86834C4F86804C31AA4F88C35D1
:103DB000B4F84644484B4FEA420833F912E040F267
:103DC000DC539E4505DDBEF5FA6F0BDB4FF4FA714F
:103DD0000AE0CEF5BB610431B1F5FA7FA8BF4FF41C
:103DE000FA7101E0AEF2DC51022A4FF06403DFF811
:103DF00004A122D091FBF3FB324F6FF0630907EB74
:103E00004B0C09FB0B19BCF808C007EB4B07B7F9C3
:103E10000A700FFA8CFBCBEB070707FB09F999FB3C
:103E2000F3F363442AF808302C4B9B5C59432C4B2A
:103E300091FBF3F364339BB202E04942AAF8041009
:103E400028496427895CDFF8B0C0594391FBF7F13A
:103E50000CF802102449DFF8A4C0895C594391FB97
:103E6000F7F10CF802102149895C4B4393FBF7F3FF
:103E70001F49204F8B5440F2DB539E45D8BF37F883
:103E8000083002F10102DCBF5B4227F80830032A48
:103E900090D140F24B4324B29C4231DDB4F5FA6F2D
:103EA000A8BF4FF4FA642DE0182D4454FB210940BB
:103EB000399D52A246DF913F000000200000E144FE
:103EC00000002440B0000020BD3786355409002092
:103ED0000409002048090020F0040020CC59000803
:103EE0000CFEFFFF205A0008235A0008CE59000894
:103EF00032090020E40800200A0900203E060020C4
:103F000040F24C444FF47A73A4F24C445C434FF4B7
:103F10006173B4FBF3F44FF0640C94FBFCF205EB1B
:103F20004203D98A6FF0630303FB024405EB4205A9
:103F3000B5F918200BB2D21A544394FBFCF30B448E
:103F4000FB80B84BDFF8E4E21B8813B9BEF86C3491
:103F50002BB1B54AD36883F00803D36009E09EF81B
:103F6000C03413B1B04B08221A6116B1AE4B08220F
:103F70005A61AE4BD3F894251D46821A002A13DBF2
:103F800093F86E246AB9A84983F8C024CA6800F57A
:103F9000F42082F0080200F59070CA60C3F894051E
:103FA00002E0012283F8C0240026D5F8B8309F48EB
:103FB0009E4280F2A8819E4A8C2303FB06239D4CDF
:103FC000236090F8983543B39B4AD36943F0C053BC
:103FD000D361A2F5D032136843F4807313604BF2BF
:103FE0000702964B1A8045F2F7021A81944A954BC4
:103FF000DA6012E0D8F80030186803689B689847C8
:10400000D8F8003093F88920CAB9A0F124014A42B7
:104010004A41522883F8892009D02368DFF81482A6
:10402000186803685B6898470028E3D169E195F850
:10403000BA34002BF1D1844A844B1A60C4E7012AB8
:1040400003D14D2808BF022204E0022A05D13C28F2
:1040500008BF032218BF002250E1032A0CD1802898
:104060004FF000029FBF83F887205A7183F88800C1
:10407000187198BF042241E1042A06D11A7983F805
:10408000860050401871052238E1052AC5D193F801
:10409000881093F887209142197907D94140197106
:1040A000511C83F8871013449871B6E7814240F0A1
:1040B000238193F88630692B00F0D48019D8652BC2
:1040C0005BD00BD8442B00F0F780452B40F00C81DF
:1040D0001320FCF725FC4FF00008F4E0662B5FD0BE
:1040E000682B40F001811020FCF71AFC4FF000080B
:1040F0008CE07D2B00F0D6800CD86C2B00F0C280B9
:104100006D2B40F0F1800620FCF70AFC0020FCF744
:104110001BFCCDE0C82B0AD0D62B1ED07E2B40F046
:10412000E3800220FCF7FCFBB5F9CE04C1E04FF0C0
:104130000008FCF7F8FBDFF8F49009F5886323F832
:10414000180008F10108B8F1080FF2D10020FCF7BF
:10415000E7FB012389F89935CAE04FF00008FCF726
:10416000E2FB3B4B23F8180008F10108B8F1040FFB
:10417000F5D10020FCF7D4FBBAE00B20FCF7D0FB14
:10418000B5F98C05FCF7F2FB324B188800B2FCF74E
:10419000EDFB0020FCF7EAFB0020FDF78FFBA7E01A
:1041A0001220FCF7BDFB029B5B8AB3F5806F20D920
:1041B0004FF00008284B33F91800082390FBF3F068
:1041C00008F10108FCF7D2FBB8F1030FF2D1DFF8D8
:1041D0009080B8F90000FCF7C9FBB8F90200FCF7C1
:1041E000C5FBB8F90400FCF7C1FB0020FCF7BEFBDF
:1041F0005BE0B5F95405FCF7B9FBB5F95605FCF7DA
:10420000B5FBB5F95805FCF7B1FBE0E7134B13F824
:10421000080008F10108FDF751FBB8F1100FF5D1C6
:1042200066E000BF50090020000C0140B0000020F3
:10423000640600202400002000100240086C0040AA
:104240000400FA0500ED00E0EFBEADDEF04F002007
:104250006001002062060020040600204A060020BB
:10426000040900201020FCF75BFB4FF00008AF4B67
:1042700033F9180008F10108FCF778FBB8F1080FD2
:10428000F5D135E0DFF8C4820620FCF749FBB8F928
:104290000000FCF76BFBB8F90200FCF767FBB5F90F
:1042A000700506E00420FCF73BFB0020FCF75EFBFA
:1042B0000020FCF75BFB1BE00020FCF731FB012337
:1042C00085F8983514E09A4B13F8080008F10108B6
:1042D000FDF7F4FAB8F10B0FF5D10020FCF734FB31
:1042E0000020FCF731FB03E001200021FCF7F8FA85
:1042F00023681879FDF7E2FA2368002283F8892001
:104300008BE6013651E6836C13B100F2A250984758
:10431000FDF7E4F9B7F90430864C83EAE371B4F9A8
:104320000420A1EBE3716FF06308C1EB080842457C
:1043300005DB01F164039342A8BF13469846B7F921
:104340000600A4F80480FDF79DFF8246B4F9020040
:10435000FDF798FF8146B4F90000FDF793FF83460F
:10436000754F002357F8081C50460193FDF7DEFFF8
:10437000396800904846FDF7D9FF009A014610467B
:10438000FDF7CCFE57F8041C00905846FDF7CEFF11
:10439000009A01461046FDF7C1FE0090C8F10000EA
:1043A000FDF770FF7968FDF7C1FF009A01461046DE
:1043B000FDF7B4FEFEF780F9604C019B04F29A56BB
:1043C00026F813000133042B07F11007CAD1B4F902
:1043D0009A35B4F99C25B4F846749342B8BF134695
:1043E000B4F99E2594F8BAE49342B8BF1346B4F9E1
:1043F000A02500209342B8BF134604F5B36499B2D8
:1044000040F2DA730AB29A42C1BF6388C1F5FB6217
:1044100002329B18C8BF638040F2DD3334F9022FAB
:104420009A4205DD40F2DA739342A8BF134601E0D9
:1044300040F2DE33238040F24B433AB29A42DCBF73
:1044400040F2DE332380BEF1000F03D13C4B33F842
:104450001030238001300428D2D1002495F8DD32B9
:10446000E0B2834236F8141003D9344BD3F8D83273
:1044700098470134042CF1D1FFF76DB84FF4FF6376
:104480007382FEF7F0BCD4F8C434042B3FF629A99C
:1044900001A252F823F000BFC1360008C736000859
:1044A000D1360008DD360008DD3600083368D7F85D
:1044B000C8249A1A002AFFF611A903F51C5397F88D
:1044C000CC141033C7F8C83459B920AA512302F8C4
:1044D000503D7020FCF761FE00283FF4FFA8012347
:1044E00015E0012912D170208F21022215ABFCF7B3
:1044F0009FF900283FF4F2A89DF854209DF855300C
:1045000003EB0223A7F8CE34022300E0002387F850
:10451000CC34FFF7E3B80B4900220A604A608A6096
:1045200009490A604A60FFF791B800BFF004002013
:10453000285B00082C09002028010020B000002082
:1045400060010020EC080020FC080020F808002092
:1045500019481A49026800608A4217D0002103E016
:10456000174B5B58435004311648174B42189A4278
:10457000F6D3164A02E0002342F8043B144B9A4259
:10458000F9D3FDF71BF8FEF7BFF8FEE7114E12480E
:1045900030601248016821F07061016041020160E1
:1045A0000F4C182020600F490F4808600F48D0F8C2
:1045B00000D0406800470000F04F0020EFBEADDEA5
:1045C000385F000800000020B0000020B00000208C
:1045D0005C0900201810024009000000040001409E
:1045E000140C0140000C01404434434400F0FF1F10
:1045F000FEE7000000B5194A20F00043934283B063
:10460000014617DDB3F1FF4F04DBFDF785FD03B075
:104610005DF804FB694600F07DF900F00302012A11
:104620000098019911D0022A0AD09AB1012200F013
:1046300035FFECE7002100F033FB03B05DF804FB2D
:1046400000F02EFB00F10040E1E700F027FF00F151
:104650000040DCE700F024FBD9E700BFD80F493F5A
:1046600030B5C0F3C755A5F17F021E2A83B00146BD
:1046700021DC501C1CDB162A4FEAD1740ADDC1F381
:10468000160343F40003963DAB40604243401819C3
:1046900003B030BD0F4B53F824502846FDF73EFDC4
:1046A000019001982946FDF737FD20F0004333B90A
:1046B000002003B030BDFDF7FFFF03B030BDC0F3F5
:1046C0001603C0F3C75043F40003C0F19600C34083
:1046D000DBE700BF345B000800B51D4A20F0004353
:1046E000934283B0014618DDB3F1FF4F04DBFDF7C1
:1046F00013FD03B05DF804FB694600F00BF900F010
:104700000300012818D002280ED0D0B100980199DA
:1047100000F0C6FA00F10040EBE70021002200F0B3
:10472000BDFE03B05DF804FB00980199012200F082
:10473000B5FE00F10040DCE70098019900F0B0FA06
:10474000D7E700980199012200F0A8FED1E700BF49
:10475000D80F493F00F04EB870B58AB0064600F059
:104760004BFA224D044695F90030013308D030460B
:1047700001F06CF820B130460021FDF775FF10B94B
:1047800020460AB070BD1A4901220023304601912B
:1047900000920893FDF706FA2C78CDE90401CDE9E3
:1047A00002017CB900220023CDE90623684600F00F
:1047B000EBFE88B1089BA3B9DDE90601FDF758FCC3
:1047C0000AB070BD0020002102460B46FDF768FBD1
:1047D000022CCDE90601E9D101F0B0F821230360F4
:1047E000E8E701F0ABF8089B0360E5E7480000202C
:1047F0003C5B0008F8B521F00044B4F1FF4F0346DC
:1048000014DC20F00046B6F1FF4F07460EDCB1F194
:104810007E5F3AD08D1705F0020545EAD07556B98E
:10482000022D30D0032D2BD13148F8BD0846194652
:10483000FDF774FCF8BDFCB1B4F1FF4F29D0B6F11F
:10484000FF4F19D0341BE4153C2C1ADC002938DB4F
:104850001846FDF71FFE00F0AFFF00F097FE012D98
:104860002CD0022D22D0002D2FD02249FDF756FC4E
:104870002149FDF751FCF8BD002F15DB1F48F8BD9D
:10488000F8BD1E48EBE71C48F8BDBDE8F84000F055
:104890007DBEB6F1FF4F19D0022DF4D0032DC3D049
:1048A000012D1BD00020F8BD1548F8BD1149FDF7BA
:1048B00035FC01461048FDF72FFCF8BD00F1004023
:1048C000F8BD3C34C4DA0020C9E7F8BD022D0CD095
:1048D000032D08D0012D04D00A48F8BD4FF0004048
:1048E000F8BD0948F8BD0948F8BD0948F8BD00BF42
:1048F000DB0F49C02EBDBB33DB0F4940DB0FC93F87
:10490000DB0FC9BFDB0F493FDB0F49BFE4CB16C04C
:10491000E4CB16402DE9F04FAA4A20F0004494421F
:1049200089B007460D4664DDA74A94421CDC002886
:10493000A64940F3EB80FDF7EFFBA54B24F00F04F5
:104940009C42064664D0A349FDF7E6FB014630468B
:104950002960FDF7E1FB9F49FDF7DEFB012368605D
:10496000184609B0BDE8F08F9B4A944262DDB4F16D
:10497000FF4F46DAE615863EA4EBC6542046FDF707
:104980009BFEFDF77FFC0346204619460593FDF785
:10499000C3FB4FF08741FDF7C9FC8046FDF78CFE55
:1049A000FDF770FC0446404621460694FDF7B4FB33
:1049B0004FF08741FDF7BAFC00210790FDF74AFE52
:1049C000002800F0C48020460021FDF743FE0028A7
:1049D00014BF012302238148022101900091324635
:1049E00005A8294600F020FA002FC0F2A680034651
:1049F00003E00022286000234A60184609B0BDE8A1
:104A0000F08F0146FDF788FB002368602860F4E71B
:104A10007349FDF781FB73490446FDF77DFB0146B1
:104A200020462960FDF778FB6E49FDF775FB0123F1
:104A30006860E2E700F0C0FE6B498046FDF776FC57
:104A40004FF07C51FDF76AFBFDF736FE0646FDF799
:104A500019FC5E498346FDF769FC01464046FDF7B7
:104A60005BFB5C4981465846FDF760FC82461F2E81
:104A70004846514618DC5D4B721E53F8223024F034
:104A8000FF029A4210D0FDF747FB8046C5F8008030
:104A900041464846FDF740FB5146FDF73DFB002FE0
:104AA000686056DB3346A8E7FDF736FBE215C0F336
:104AB000C753D31A082B8046E8DD4949584603926C
:104AC000FDF734FC804648464146FDF725FB044689
:104AD00048462146FDF720FB4146FDF71DFB804679
:104AE00040495846FDF722FC4146FDF715FB82463A
:104AF00020465146FDF710FB039AC0F3C753D21A64
:104B0000192A804641DC2860A146C1E7FDF706FB73
:104B10002F4B24F00F049C42064623D02D49FDF76D
:104B2000FDFA014630462960FDF7F6FA2949FDF7FE
:104B3000F5FA4FF0FF3368605FE795E80C0002F18B
:104B4000004103F10042296043426A6055E70323B4
:104B500041E708F1004800F10040C5F800806860B6
:104B600073424AE71E49FDF7D9FA1E490446FDF78C
:104B7000D5FA014620462960FDF7CEFA1949FDF71E
:104B8000CDFA4FF0FF33686037E719495846FDF713
:104B9000CDFB804620464146FDF7BEFA81462046C1
:104BA0004946FDF7B9FA4146FDF7B6FA0446114900
:104BB0005846FDF7BBFB2146FDF7AEFA8246484654
:104BC000514660E7D80F493FE3CB1640800FC93FFD
:104BD000D00FC93F43443537800F4943C45B0008B9
:104BE0000044353708A3852E84F9223F445B000832
:104BF00000A3852E32318D2420F00042B2F1FF4F08
:104C000070B5034604462DD25AB300283DDBB2F5F9
:104C1000000F4FEAE0502CD3002631467F38C3F313
:104C20001603C20743F4000348BF5B0040105B005B
:104C300019244FF080728D189D4202DC5B1BA9186D
:104C40001644013C4FEA43034FEA5202F3D113B139
:104C500006F001031E44761006F17C5606EBC050A8
:104C600070BD70BD0146FDF761FB2146FDF756FAA8
:104C700070BD14F400020FD15B00190202F10102B1
:104C8000FAD5C2F101021044C6E70146FDF744FA25
:104C90000146FDF7FFFB70BD01221044BCE700BFD9
:104CA0002DE9F84320F00044B4F1485F06460F4672
:104CB00049DAFDF701FD002800F09D8031463046BD
:104CC000FDF734FB05464E49FDF730FB4D49FDF736
:104CD00025FA2946FDF72AFB4B49FDF71DFA29461F
:104CE000FDF724FB4949FDF719FA2946FDF71EFB9C
:104CF0004749FDF711FA2946FDF718FB4549FDF72D
:104D00000DFA2946FDF712FB804628464FF07C51EC
:104D1000FDF70CFB414604462846FDF707FB3946E4
:104D200005463046FDF702FB01462846FDF7F4F93B
:104D300001462046FDF7F0F901464FF07E50FDF7A1
:104D4000EBF9BDE8F8830146FDF7F0FA05462C497A
:104D5000FDF7ECFA2B49FDF7E1F92946FDF7E6FAF4
:104D60002949FDF7D9F92946FDF7E0FA2749FDF76A
:104D7000D5F92946FDF7DAFA2549FDF7CDF9294697
:104D8000FDF7D4FA2349FDF7C9F92946FDF7CEFA14
:104D9000214B80469C42B8DD204B9C4227DC04F12D
:104DA0007F4421464FF07E50FDF7B6F981462846F4
:104DB0004FF07C51FDF7BAFA2146FDF7ADF94146B7
:104DC00004462846FDF7B2FA394605463046FDF757
:104DD000ADFA01462846FDF79FF901462046FDF74A
:104DE0009BF901464846FDF797F9BDE8F883DFF8DF
:104DF00034900B4CDBE74FF07E50BDE8F88300BFEA
:104E00004ED747ADF6740F317CF29334010DD03795
:104E1000610BB63AABAA2A3D9999993E0000483FEA
:104E20000000903E0000383F2DE9F04F1C46DFB0F7
:104E30000891611E01910A936899BA4B039053F847
:104E4000213001980793D31E48BF131DDB1023EABE
:104E5000E37319460C93DB4302EBC3030693079BF2
:104E60000D1AC41815D42C44013421AE699F08E0F2
:104E700057F82500FDF706FA0135A54246F8040F5C
:104E800007D0002DF4DA01350020A54246F8040FC2
:104E9000F7D1079B002B2CDB079B0A9A1946019B35
:104EA00001EB0208C2EB827722AA02EB830502EB38
:104EB0008808BF0049AE019B002BC0F2F5812C464B
:104EC000039B05EB0709A3F1040B4FF0000A54F80C
:104ED00004095BF8041FFDF729FA01465046FDF767
:104EE0001DF94C458246F2D10435454546F804AFDC
:104EF000E1D1079B0EA91D4603F18043013B9B00B6
:104F00001A1D0A440B440D920B93AB005EA91A467E
:104F10000293002D0B4453F8508C20DD4AAFBC188F
:104F20000DAE4FF06E514046FDF700FAFDF7C4FBA1
:104F3000FDF7A8F94FF087418146FDF7F7F90146E3
:104F40004046FDF7E9F8FDF7B7FB54F8041D46F8B5
:104F5000040F4846FDF7E2F8BC428046E1D1069EC8
:104F60004046314600F08CFC4FF078510446FDF786
:104F7000DDF900F025FC4FF08241FDF7D7F901463D
:104F80002046FDF7C9F80446FDF796FB0746FDF7F6
:104F900079F901462046FDF7BFF8002E80463446D9
:104FA00040F36A81691E0EAB53F82130C6F1080048
:104FB00043FA00F202FA00F69E1B0EA8C4F10703A2
:104FC00040F8216017441E41002E2FDD002D07F10F
:104FD000010740F3F481002214460DA907E0C3F550
:104FE00080700BB108600124013295420BDD51F84D
:104FF000043F002CF3D00132C3F1FF0395420B6054
:105000004FF00104F3DC069B002B0DDD012B00F0BB
:105010003A81022B08D16A1E0EAB53F822300EA93A
:1050200003F03F0341F82230022E7DD0404600219C
:10503000FDF710FB002800F09180079B6C1EA34237
:105040000DDC029B0EAA0D981344002253F8041D98
:10505000834242EA0102F9D1002A40F09981079B7C
:105060000EAA013B52F82330002B40F0A6810B9A88
:10507000012352F8041D01330029FAD0EB181A4617
:1050800009936B1C934241DC0C9A9E180A9B099A67
:1050900005EB030B06F18046551B699A013E02EBB6
:1050A0008606AA004FEA8B03049222AA02EB0309A8
:1050B0000593029B4AAA02EB0308002556F8040F49
:1050C000FDF7E0F8019B49F8040B002B20DB029A66
:1050D000059BAC18EB1822AAD718039B4FF0000BC6
:1050E0001444A3F1040A57F804095AF8041FFDF701
:1050F0001DF901465846FDF711F8A7428346F2D143
:10510000049B04359D4248F804BFD7D1099DFCE6B5
:10511000049B04354FF0000B9D4248F804BFCDD1ED
:10512000F4E700BFDC5E000841464FF07E50FCF71C
:10513000F3FF8046002C3FF479AF06994FF07E5084
:1051400000F09EFB01464046FCF7E6FF804600214A
:105150004046FDF77FFA00287FF46FAF069B40467C
:105160005942029700F08CFB4FF087410446FDF74F
:105170008FFA002800F087814FF06E512046FDF72E
:10518000D5F8FDF799FAFDF77DF84FF0874107460E
:10519000FDF7CCF801462046FCF7BEFFFDF78CFA80
:1051A0000EAB43F825003846FDF786FA069B6C1CCB
:1051B000083306930EAB43F8240006994FF07E5057
:1051C00000F05EFB002C0746C0F2CB80631C9D0004
:1051D00001930EAB03EB050A4AAB03EB05095AF842
:1051E000040DFDF74FF83946FDF7A0F84FF06E516A
:1051F00049F8040D3846FDF799F80EAB9A45074675
:10520000EDD1083D4AABDDF81CA0DDF804B003EB9E
:105210000509002703960494BAF1000FC0F29E809E
:10522000002FC0F29B809C4E4C464FF0000800259A
:1052300001E0BD420DDC54F8041F56F8040BFDF7E5
:1052400075F801464046FCF769FF0135AA458046DE
:10525000EFDA5EAB03EB870301375F45A9F1040981
:1052600043F8A08CD8D1689B039E049C032B58D88C
:10527000DFE803F05D3232A70FD16B1E0EAA52F8A1
:1052800023603612A0E66A1E0EAB53F822300EA938
:1052900003F07F0341F82230C6E64FF07C51FDF762
:1052A000F7F950B90646C1E604354FF0000A454506
:1052B00046F804AF7FF4FFAD1BE6002D07F10107B0
:1052C000C8BF02263FF787AE41464FF07E50FCF73D
:1052D00023FF02268046A9E6019B36AD05EB830835
:1052E000002058F8041DFCF719FFA845F9D1002E3D
:1052F00041D0089A00F10043014613603698FCF74C
:105300000BFF002C09DD36AF0125013557F8041FCE
:10531000FCF704FFAC42F8DA0EB100F10040089B44
:105320005860029B03F007005FB0BDE8F08F019B5F
:1053300036AA002002EB8308013C58F8041DFCF754
:10534000EDFE631CF8D10EB100F10040089B18601F
:10535000029B03F007005FB0BDE8F08F4FF000083C
:1053600077E7689B032BDCD8DFE803F010020287A5
:105370000020002EBDD1089B014618603698FCF72E
:10538000CBFE002CBFDC089B5860CAE70020DAE7A0
:10539000069A0EAB53F82430083A02970692002B77
:1053A0007FF40BAF0EAB03EB840353F8041D013CF9
:1053B000083A0029F9D00692FFE601235EE60024B0
:1053C00021E6002C59DDA5005EAB2B440DF1D80879
:1053D00053F8A09C08EB050757F804BD484659460A
:1053E000FCF79CFE824658465146FCF795FE014666
:1053F0004846FCF793FE4745D1467860C7F800A0C1
:10540000EAD1012C39DD5EAB2B4453F8A04C08EBFC
:1054100005070DF1DC0B57F804AD21465046FCF7AB
:105420007DFE814650464946FCF776FE2146FCF754
:1054300075FE5F454C467860C7F80090EBD10435A7
:1054400008EB0504002038AD54F8041DFCF766FE97
:10545000AC42F9D1A6B1369A379B00F1004002F177
:10546000004203F10043089C6360029BA06003F0CC
:10547000070022605FB0BDE8F08F0020002EEAD167
:10548000369A379BEFE72046FDF716F90EAB2C4610
:1054900043F8250091E600BFE85E00082DE9F843D7
:1054A00020F00043B3F1485F04460F46904603DA0C
:1054B000FDF702F9002857D021462046FCF736FFB9
:1054C00021460546FCF732FF294906462846FCF7E7
:1054D0002DFF2849FCF720FE2946FCF727FF264927
:1054E000FCF71CFE2946FCF721FF2449FCF714FEBB
:1054F0002946FCF71BFF2249FCF710FE8146B8F154
:10550000000F22D038464FF07C51FCF70FFF494680
:1055100080463046FCF70AFF01464046FCF7FCFD9A
:105520002946FCF703FF3946FCF7F6FD1549054609
:105530003046FCF7FBFE01462846FCF7EFFD01462E
:105540002046FCF7E9FDBDE8F88349462846FCF70C
:10555000EDFE0C49FCF7E0FD3146FCF7E7FE214685
:10556000FCF7DCFDBDE8F8832046BDE8F88300BF0A
:10557000D3C92E2F342FD7321BEF3836010D5039B7
:105580008988083CABAA2A3E002070472DE9F041EB
:1055900020F00045B5F1A14F0446064608DBB5F101
:1055A000FF4F6FDC002840F3A0806F48BDE8F0811A
:1055B0006E4B9D4277DCB5F1445F68DB4FF0FF37FF
:1055C00021462046FCF7B2FE01468046FCF7AEFEBF
:1055D00005466749FCF7AAFE6649FCF79FFD294688
:1055E000FCF7A4FE6449FCF799FD2946FCF79EFEF2
:1055F0006249FCF793FD2946FCF798FE6049FCF7E9
:105600008DFD2946FCF792FE5E49FCF787FD414679
:10561000FCF78CFE5C4980462846FCF787FE5B4918
:10562000FCF77AFD2946FCF781FE5949FCF774FD29
:105630002946FCF77BFE5749FCF76EFD2946FCF72F
:1056400075FE5549FCF768FD2946FCF76FFE7B1C8B
:10565000014640464CD0FCF761FD2146FCF766FE52
:105660004E4B4F4D53F82710FCF756FD2146FCF7E3
:1056700053FD014655F82700FCF74EFD002E30DBA8
:10568000BDE8F0810146FCF749FDBDE8F0814549E0
:10569000FCF744FD4FF07E51FDF704F800288DD053
:1056A0002046BDE8F08100F087F83F4B04469D425C
:1056B00029DCA3F5D0039D4244DC0146FCF72EFD16
:1056C0004FF07E51FCF728FD4FF080410546204603
:1056D000FCF724FD01462846FCF7DCFE00270446C3
:1056E0006EE700F10040BDE8F0813048BDE8F08190
:1056F000FCF714FD2146FCF719FE01462046FCF795
:105700000BFDBDE8F0812A4B9D4214DC4FF07F5128
:10571000FCF702FD4FF07F5105462046FCF706FEE0
:105720004FF07E51FCF7FAFC01462846FCF7B2FE2A
:105730000227044644E701461E48FCF7ABFE032758
:1057400004463DE74FF07E51FCF7E6FC4FF07E51FA
:1057500005462046FCF7E2FC01462846FCF79AFE87
:10576000012704462CE700BFDB0FC93FFFFFDF3EE8
:10577000D769853C59DA4B3D356B883D6E2EBA3D75
:105780002549123EABAAAA3E21A215BD6BF16E3D82
:1057900095879D3D388EE33DCDCC4C3E145F00088F
:1057A000245F0008CAF24971FFFF973FDB0FC9BFB2
:1057B000FFFF1B40000080BF20F00040704700BF8B
:1057C0002DE9F04120F00047FC0D7F3C162C0546EA
:1057D00013DC002C80461BDB194F2741074214D0F5
:1057E0001849FCF79BFC0021FCF75CFF68B1002D19
:1057F0001BDB28EA0700BDE8F081B7F1FF4F04D3B7
:105800000146FCF78BFCBDE8F0812846BDE8F0813D
:105810000C49FCF783FC0021FCF744FF0028F4D07E
:10582000002D07DB0020BDE8F0814FF40003234189
:105830009844DEE7002FE8D00348BDE8F08100BFC0
:10584000FFFF7F00CAF24971000080BF30F00040C6
:1058500001D102207047A0F50003B3F1FE4F01D241
:1058600004207047054B421E9A4201D8032070471E
:10587000A0F1FF40B0FA80F040097047FEFF7F00C2
:1058800030F0004238B50346044615D0B2F1FF4F60
:105890000ED2B2F5000F0D460FD3D20D2A44FE2AC8
:1058A0002EDC002A1DDD24F0FF4444EAC25038BD3E
:1058B0000146FCF733FC38BD38BD4FF09841FCF78A
:1058C00035FD184A0346954207DBC0F3C75204462C
:1058D000193AE3E7144800F02BF81349FCF726FDCA
:1058E00038BD12F1160F13DA4CF2503295421946B8
:1058F000F0DD0E4800F01CF80C49FCF717FD38BD30
:1059000019460A4800F014F80849FCF70FFD38BDA5
:10591000193224F0FF4040EAC2504FF04C51FCF7DE
:1059200005FD38BDB03CFFFF6042A20DCAF24971CF
:1059300001F0004120F0004008437047014B186817
:10594000704700BFAC000020000C014008001002AE
:10595000000C014010001002000801400010140269
:10596000000C0140040010020000803F000080BFD6
:105970000000803F000080BF0000803F000080BF2B
:10598000000080BF0000803F0000803F0000803F9B
:105990000000803F0000803F0000803F0000803F0B
:1059A000000080BF000080BF651100084F11000893
:1059B00007110008E503000839110008110100086B
:1059C0001048494A4B4C4D44454647FF00001717C5
:1059D0000000000000540040000C01404000800026
:1059E0001F2000000000200000580040000C014073
:1059F0000004000821220000000040000000020016
:105A00000111000804000400FB1000080800080051
:105A1000F51000080C001000ED1000080000000058
:105A20002828551E1E2D0000000000000100000067
:105A30000300000002000000040000000500000058
:105A400006000000070000000000004000080140C0
:105A500001000000001C00000000004000080140A0
:105A600002000000041C000000000040000801408B
:105A700004000000081C0000000000400008014075
:105A8000080000000C1C0000000400400008014059
:105A900040000000001D000000040040000801401C
:105AA00080000000041D000000040040000C0140C4
:105AB00001000000081D000000040040000C01402F
:105AC000020000000C1D0000002C014000080140F5
:105AD00000010000001B0100002C014000080140F3
