:020000040800F2
:1000000000500020414A0008E14A0008E14A000887
:10001000E14A0008E14A0008E14A00080000000047
:10002000000000000000000000000000E14A00089D
:10003000E14A000800000000E14A0008B119000888
:10004000E14A0008E14A0008E14A0008E14A0008E4
:10005000E14A0008E14A0008E14A0008E14A0008D4
:10006000E14A0008E14A0008E14A0008E14A0008C4
:10007000E14A0008E14A0008D5180008E14A0008F2
:10008000E14A0008E14A0008E14A0008E14A0008A4
:10009000E14A0008E14A0008E14A0008E14A000894
:1000A000E14A0008E14A0008E14A0008350E00086C
:1000B0002D0E0008210E0008170E0008BB030008D3
:1000C000A7060008B9030008A5060008E14A0008D1
:1000D000E14A00089D180008E14A0008E14A0008CA
:1000E000E14A0008E14A0008E14A00080000000077
:1000F0000000000000000000000000000000000000
:0C01000000000000000000005FF808F1A3
:100110008848F0B50368884A9C8AA4B2E1B211F01D
:10012000010F32D01988854C21F400610904090CB3
:100130001980198889B241F48061198000211170F9
:100140007F490978A9B1517819B97E490978FF2901
:100150000FD1012151707C490978022901BF19880A
:1001600089B241F400611980217841F001011982BE
:1001700001E1217801F0FE011982724B1B78FF2BFF
:1001800000F0F980FF231370F5E08E073CD5BFF334
:100190005F8F6D490C78E4B2012C14D1684D2D7835
:1001A0008DB155787DB1198821F480610904090C5D
:1001B0001980BFF35F8F198B1988947089B241F44D
:1001C000007119801BE01C8BBFF35F8F0C78022C31
:1001D0000BD15B4C247844B1547834B1198821F4A4
:1001E00080610904090C1980BFE00978032906D150
:1001F0005349097819B15178002940F0B68099889F
:1002000089B241F48061B5E04D075BD50121917061
:100210004B49097800293AD05178002937D04A490A
:100220004A4D09781C88022911781ED924F480646B
:100230002404240C1C801E8A2F68CCB2F6B249B26A
:100240007E5419882D6889B241F4007119800168C3
:10025000A31C13700B8A0134DBB264B22B558B885C
:100260009BB243F480638B8027E0A4B244F4007413
:100270001C802E681D8ACCB2EDB249B275541B8A1F
:10028000611C49B2DBB203347354147015E0517829
:1002900011B92F49097841B1198889B241F4007127
:1002A000198013780133137007E0198889B241F47B
:1002B00080711980204B0121597001680B88DC0581
:1002C000FCD458E001F0400101F0FF061E4DF1B1F1
:1002D00014781E491F8AD1F800E0E6B2FFB264B27A
:1002E000711C0EF80470C9B22F78117049B2CC1C81
:1002F000A74201BF9C8824F480642404240C08BF16
:100300009C802B788B4236D10236167033E0210662
:1003100031D511784CB2671C1ED00E4E01313668B3
:10032000C9B2345D11701C822C7849B28C4222D142
:100330001BE000BF8C080020540600207C08002031
:100340007F0800207D080020880800208408002005
:100350007E08002080080020124916700978198252
:100360001149097809B9297829B9998821F4806156
:100370000904090C99800D4B92F900201B780C4957
:1003800001339A420DD100234B708B7833B1026850
:10039000938823F440731B041B0C9380054B0022AD
:1003A0001A70F0BD7D0800207F080020880800201A
:1003B0005406002089080020AAE6A9E6F0B5B1F8A5
:1003C00000E000234EFA03F2D50725D58E784FEAD8
:1003D000D30CF40648BFCC7806F00F0203F00707F1
:1003E00048BF2243BF0050F82C500F24BC4025EAE0
:1003F0000404BA402243282E40F82C2005D1C468BA
:1004000001229A4024EA020205E0482E04D1C46881
:1004100001229A402243C2600133102BD2D1F0BD99
:10042000012828BF01202DE9F04F0546142000FBCC
:1004300005F36B4FDFF8C481FA18FB581169C8F84F
:100440000030684B1689DD70674BB2F80AA0DC6992
:1004500089B0214354684AEA0609D9610222C4F8E6
:10046000109003A98DF80E0020460193ADF80C9072
:100470008DF80F20FFF7A2FF019B00971F464FF05A
:10048000080BA268164203D10A2001F059FAF8E7D6
:100490000A20666101F054FA26610A2001F050FA40
:1004A000BBF1010BEDD1C4F814A00A2001F048FA09
:1004B00066610A2001F044FA26610A2001F040FA40
:1004C0000222C4F810A0204603A98DF80F201C2298
:1004D0008DF80E20ADF80C90FFF770FFD8F80040B3
:1004E000424A03A894423A690BBF42F4001242F414
:1004F00080023A613A610BBF3A693A6922F400120C
:1005000022F480023A61A38823F440731B041B0C7D
:10051000A38023889BB243F001032380A68800F0C8
:10052000F7FE0599324B26F03F06B1FBF3F3360494
:10053000360C1E43B6B2A6802288002622F00102A5
:100540001204120C22802B4A03A8B1FBF2F10029FD
:100550008AB208BF012242F400414FF4967253431D
:100560004FF47A7293FBF2F301339BB22384A1839D
:100570002388009A9BB243F001032380238823F44D
:10058000816323F002031B041B0C23804FF4804380
:100590002381142303FB05256B7B01248DF80C308C
:1005A0008DF80D608DF80E608DF80F4000F0E4FFBF
:1005B0002B7B9DF80F208DF80C308DF80D601AB153
:1005C00003A800F0D9FF08E05A0903F01F039C407C
:1005D00002F12003084A42F8234009B0BDE8F08F39
:1005E000C45E000854060020001002400054004081
:1005F00040420F00804F120000E100E08C08002014
:1006000013B524490B680C469A8A92B20192019A5A
:1006100012F4706F1EBF204A01211170019A12F46A
:10062000E06F2AD01A8B9A8822F480621204120C8E
:100630009A80019A910520D41A8892051DD41A88AF
:10064000D0050FD51A88D105FCD41A8892B242F48D
:1006500000721A801A889205FCD4104BD878FFF7E4
:10066000DFFE0AE01A8892B242F400721A809A8879
:1006700022F440721204120C9A802268938A23F4A6
:1006800070631B041B0C9382054B00221A7002B08E
:1006900010BD00BF8C0800208A08002054060020EE
:1006A00089080020ACE7ABE7054A08B59388D07805
:1006B00001339BB29380FFF7B3FE002008BD00BF5B
:1006C0005406002010B54000204CC0B220702048D5
:1006D000204C0170204800210170012020701F4C27
:1006E00023601F4C23601F4B1A701F4A1F4B107052
:1006F00019701F49086811461A4630B383889C0553
:1007000015D40388DB050DD447F230530488A405C3
:1007100002D5013BFAD112E08BB103889BB243F4BE
:100720008073038083889BB243F44073838047F2D5
:100730003053087810B1013BFBD100E013B9BDE89C
:100740001040B1E7107880F0010010BD7C08002057
:100750007D0800207F0800207E08002084080020FB
:100760008008002088080020890800208A080020CE
:100770008C080020074B1A685379D118981C013354
:10078000DBB2134489795071987901EB002080B273
:10079000704700BF2400002038B50446054D2146AF
:1007A0002B68186803681B6898472B6818796040A5
:1007B000187138BD2400002038B504460D462420A9
:1007C000FFF7EAFF4D20FFF7E7FF002C084C14BFAE
:1007D00021203E20FFF7E0FF2368002228461A71FF
:1007E000FFF7DAFF236893F88600BDE83840D3E7C7
:1007F0002400002001460020DEE710B50446C0B208
:10080000FFF7CAFFC4F30720FFF7C6FFC4F3074092
:10081000FFF7C2FF200EBDE81040BDE710B504464B
:10082000C0B2FFF7B9FFC4F30720BDE81040B3E73B
:10083000024B186803681B68184700BF980800201F
:1008400070B50646104C002504EB811101F10C0433
:100850000E4A308A2A445388B189034289B20DD0A6
:100860000B420BD0DB439BB2338230465368984730
:1008700054F8043C01460BB1207898470835202DE8
:1008800004F11004E4D170BD74070020EC5E000890
:10089000024B53F820301B6819807047C0040020B9
:1008A0000328104B0BD8104A12888A423FBF0122FE
:1008B00093F8001182400A4338BF83F8002193F86F
:1008C00000310F2B0CD1074B084A002183F800118F
:1008D000138818B2142802DD143B1380704711806E
:1008E000704700BF7407002014000020520500204C
:1008F000144B10B5B3F80221A3F80211A3F8042198
:10090000891A40F68C2289B291421C4603D90022F2
:1009100083F8062110BD40F2DA52A1F2EF239BB218
:10092000934208D894F80601072804D8064B23F808
:100930001010FFF7B5FF94F80631013384F8063143
:1009400010BD00BF740700205609002030B57A4B57
:100950001D78038C91BB23F001031B041B0C038443
:10096000048B7649A4B2038C24F0F30444F0010410
:1009700088429BB244EA051512D001F50061884215
:100980000ED0B0F1804F0BD0A1F59831884207D03E
:1009900001F58061884203D001F58061884202D16F
:1009A00023F0020301E023F00A0343F001031A439A
:1009B00005830284038B23F00C033AE004293FD122
:1009C00023F010031B041B0C0384048B018C24F400
:1009D00040742405240D44F48073584C43EA0533D5
:1009E000A04289B29BB212D004F50064A0420ED09E
:1009F000B0F1804F0BD0A4F59834A04207D004F595
:100A00008064A04203D004F58064A04207D121F0A5
:100A1000200141F0100141EA021292B204E021F0FB
:100A2000A00141F010010A4303830284038B23F4E5
:100A300040631B041B0C0383038B9BB2038330BDF9
:100A4000082937D123F480731B041B0C0384848B87
:100A50003A49A4B2038C24F0F30444F00104884220
:100A60009BB244EA051512D001F5006188420ED010
:100A7000B0F1804F0BD0A1F59831884207D001F535
:100A80008061884203D001F58061884207D123F458
:100A9000007343F4807343EA022292B204E023F429
:100AA000206343F480731A4385830284838B23F08D
:100AB0000C0339E023F480531B041B0C0384818B4B
:100AC000048C21F440731B051B0D1C4943F48073F7
:100AD00043EA05338842A4B29BB212D001F500610B
:100AE00088420ED0B0F1804F0BD0A1F598318842EA
:100AF00007D001F58061884203D001F5806188420A
:100B000007D124F4005444F4805444EA023292B2EF
:100B100005E047F6FF51214041F480510A438383A9
:100B20000284838B23F440631B041B0C8383838B1D
:100B30009BB2838330BD00BF64030020002C0140C2
:100B4000F8B50446184F182303FB007303F108029D
:100B5000D079164E250138B919820123D371731942
:100B60007059197B02221CE003F1100059821B8A84
:100B7000C91A89B2818040F2DA50A1F2EF239BB208
:100B8000834205D890790A4B23F81010FFF788FEAE
:100B9000182303FB04747319083400227059197B5D
:100BA000E271BDE8F840D1E670030020385F00082C
:100BB0005609002008B1014B18707047280000202A
:100BC00008B1014B58707047280000201FB504463B
:100BD0006B46432106226820FFF774FD9DF8013023
:100BE0009DF80020042143EA022212B292FBF1F2A6
:100BF0009DF80230ADF808209DF8032002A842EAD3
:100C0000032212B292FBF1F29DF80430ADF80A20F3
:100C10009DF8052042EA03231BB293FBF1F3ADF8E4
:100C20000C30034B21461A7800F091FD04B010BD42
:100C3000280000201FB504466B463B210622682091
:100C4000FFF740FD9DF800209DF8013002A843EA1F
:100C50000223ADF808309DF802209DF803302146AC
:100C600043EA0223ADF80A309DF804209DF80530D0
:100C700043EA0223ADF80C30024B5A7800F067FDCE
:100C800004B010BD2800002080EAE073A3EBE073FD
:100C90008B4206DB002801DD401A704702D0084471
:100CA0007047002070472DE9F04F0C68836887B0CB
:100CB000D0F800A0D0F804900746204601938B4658
:100CC00003F010FF8046204603F07EFFDBF804505F
:100CD0000446284603F006FF0646284603F074FF44
:100CE000DBF8082005461046009203F0FBFE009A50
:100CF0008346104603F068FF41460090584601F0D5
:100D000077FC41460290009801F072FC594603902E
:100D1000204601F06DFC00990490204601F068FC2B
:100D200031460590584601F063FC0146504601F0FB
:100D30005FFC29468346049801F05AFC014603985B
:100D400001F04EFB0146484601F052FC0146584670
:100D500001F046FB29468346029801F049FC014612
:100D6000059801F03BFB0146019801F041FC01466A
:100D7000584601F035FB0099386006F1004001F05B
:100D800037FC0146504601F033FC2946834605985E
:100D900001F02EFC0146029801F020FB0146484676
:100DA00001F026FC0146584601F01AFB294683460D
:100DB000039801F01DFC0146049801F011FB014667
:100DC000019801F015FC0146584601F009FB29463F
:100DD0007860504601F00CFC3146054604F10040B5
:100DE00001F006FC0146484601F002FC0146284697
:100DF00001F0F6FA41460446304601F0F9FB01469F
:100E0000019801F0F5FB0146204601F0E9FAB860CF
:100E100007B0BDE8F08F0148032111E5000800404C
:100E2000014802210CE500BF000400404FF0804063
:100E3000012105E50148002102E500BF002C014029
:100E4000084B9A8998811A89D007FCD5054B988957
:100E5000C0B2044B1A899107FBD51A891206FCD43B
:100E6000704700BF00380040484B2DE9F347484E1B
:100E7000182707FB00370401331903F1080A8146DC
:100E800058689B68BA73ADF804308846282301A9D6
:100E900002258DF806308DF80750FFF78FFA345988
:100EA0009AF80460002220463146FFF74FFD2046A5
:100EB0004FF6FF7100F0C6F8238801A89BB243F0FB
:100EC000010323809AF805304FF0010A8DF80430B1
:100ED0008DF805A08DF806A08DF807A000F04CFB5A
:100EE0002C4B9C420DD0B4F1804F0CD0A3F5943321
:100EF0009C420AD003F580639C4214BF0423032361
:100F000004E0002302E0534600E02B4636B1042EF5
:100F100031D0082E31D00C2E0DD130E03246042BCA
:100F200009D002EB83031C4A02EB0313C3F80880C9
:100F30001E7183F80C900C2E23D8DFE806F00722F0
:100F400022220C222222112222221600A3899BB2E5
:100F500043F002030DE0A3899BB243F0040308E0D1
:100F6000A3899BB243F0080303E0A3899BB243F03B
:100F70001003A38105E00122D1E70222CFE703227B
:100F8000CDE7384602B0BDE8F08700BF700300200F
:100F9000385F0008002C014074070020034607B5A5
:100FA00002AA02F8011D6820194600F010F803B0EB
:100FB0005DF804FBB0F8400080B27047808F80B2CB
:100FC0007047008F80B27047808E80B270471C4B94
:100FD0004000C0B218705970002001219970D8707B
:100FE00019735973987318695A609A6030B382887C
:100FF000910515D40288D2050DD447F230520188EC
:10100000890502D5013AFAD112E08AB1028892B27A
:1010100042F480720280828892B242F440728280EE
:1010200047F23052597B11B1013AFBD100E00AB9C5
:10103000FFF73ABB024B987B80F00100704700BF7E
:101040007C080020244B254A1B6810B5B3FBF2F244
:10105000234C03880139013AA04289B292B29BB273
:1010600012D004F50064A0420ED0B0F1804F0BD036
:10107000A4F59834A04207D004F58064A04203D0C0
:1010800004F58064A04202D123F070039BB2154C9A
:10109000A04206D004F58064A0421CBF23F4407334
:1010A0009BB203800E4B8185984202850FD003F5D9
:1010B000006398420BD003F54063984207D003F5D4
:1010C0008063984203D003F58063984201D10023E6
:1010D00003860123838210BD4400002040420F009C
:1010E000002C01400010004070B505460E4600245B
:1010F000AC420FD00A4A0120D368013483F00803C0
:10110000D36000F0FFFB304600F025FC002000F02B
:10111000F9FBEDE73C20BDE8704000F01CBC00BFCF
:10112000000C01400FB4784B2DE9F04F994689B07F
:1011300013AC5E699F69754D04942978002900F00D
:101140009480252902D0013530468BE06A784FF033
:101150000008302A0CBFAA7805F1020BA2F1300377
:1011600012BF4FF0000A05F1030B4FF0010A092BE3
:1011700019D8A2F13003D9B2092905D80A2202FBF5
:1011800008381BF8012BF4E7A2F16103052B02D804
:10119000A2F1570305E0A2F14103052B03D8A2F108
:1011A00037030A2BEADD6C2A3DD19BF800200BF1B6
:1011B0000105632A3AD006D8252A51D0582A0CD0E6
:1011C000002A52D0B9E7732A3BD002D8642A73D0E0
:1011D000B3E7752A5BD0782AAFD104F1040B2068FD
:1011E000A2F1580462424FF01001624105AB00F0D9
:1011F0002EFB5C460EE0582A36D1A2F158035A4223
:1012000004F1040520685A41102105AB2C4600F07A
:10121000F7FA5D4605AB00933046394642465346E1
:1012200000F0CAFA89E7632A07D15D46217804F104
:1012300004083046B84744467FE70ED9732A1CD1CC
:101240005D46236804F1040A00933046394642465D
:10125000002300F0B1FA54466FE7252ACBD15D4652
:1012600030462521B84768E752B9D9F81C00036811
:101270001B6998470028F8D040E003D8642A2BD097
:101280005D465AE7752A08D0782AB6D0F8E704F107
:10129000040B20680A210022A8E704F1040C20684E
:1012A000CDF80CC00A21002205AB00F0A9FADDF848
:1012B0000CC05D466446ADE7206804F1040B0028CD
:1012C00008DA2D238DF8143040420DF115030A2160
:1012D00000228CE705ABFAE7206804F1040C002833
:1012E0000ADA2D238DF8143040420DF11503CDF8A4
:1012F0000CC00A210022D8E705ABF8E709B0BDE829
:10130000F04F04B0704700BF7C0800201860000850
:101310001F4A10B553681F4903F00C03042B03D078
:10132000082B03D01C4B12E00B6810E05368546884
:10133000C3F38343E40303F1020301D4174C05E034
:10134000546814F4003F0C6818BF640863430360DA
:101350005368C3F303130B441C790368E3404360F1
:101360005468C4F302240C44247923FA04F48460FE
:101370005468C4F3C2240C442479E340C360526827
:10138000C2F3813211440A7DB3FBF2F3036110BD55
:10139000001002402C00002000127A0000093D00DD
:1013A00070B50E460446038ACA889BB223F44053A4
:1013B0001343038282890989B38892B20B437189EE
:1013C00022F4B0520B4322F00C0213439BB28381F0
:1013D000838AB2899BB223F4407386B0134383821D
:1013E00001A8FFF795FF039B049D174A31689442BB
:1013F00018BF1D46A38919226A431BB2002BB4BF34
:101400004D008D00B2FBF5F56426B5FBF6F000014A
:10141000010906FB1153A28912B2002AADBF1A01BD
:10142000D90032313232B5BFB1FBF6F2B2FBF6F37E
:1014300002F0070203F00F03B4BF1043184380B259
:10144000208106B070BD00BF003801408A6810B529
:101450000C6A036814430A6923F4FF4314434A697E
:1014600023F0700314438A691443CA6914434A6A17
:1014700014438A6A224313430360CB6843600B68BA
:1014800083604B68C36010BD4FF6FE730268134063
:1014900003600023036043608360C360284B98426D
:1014A00001D1284A27E0284B984201D1254A2AE059
:1014B000264B984201D1234A2DE0254B984201D179
:1014C000204A30E0234B984201D11E4A33E0224BA0
:1014D000984204D11B4A536843F470032EE01F4B1B
:1014E000984204D1174A536843F0706326E01C4BBE
:1014F000984204D11B4A536843F00F031EE01A4B75
:10150000984204D1174A536843F0F00316E0174B92
:10151000984204D1134A536843F470630EE0144BAD
:10152000984204D10F4A536843F4704306E0114BCC
:10153000984204D10B4A536843F4702353607047B8
:1015400008000240000002401C000240300002403F
:1015500044000240580002406C00024080000240FB
:1015600008040240000402401C040240300402400F
:1015700044040240580402400F4BD9684378C943E1
:10158000C1F30221C1F1040203FA02F20F23CB409E
:1015900081780B401343094902781B01DBB20A44EE
:1015A00082F8003303780122580903F01F0302FA7E
:1015B00003F341F82030704700ED00E000E100E067
:1015C0000F4B1A6842F001021A6059680D4A0A402E
:1015D0005A601A6822F0847222F480321A601A6803
:1015E00022F480221A605A6822F4FE025A604FF4F4
:1015F0001F029A60044B4FF000629A60704700BF70
:10160000001002400000FFF800ED00E0016B03460F
:10161000C26810B5406941B1196C541A013918BF3C
:101620000A46005D1A64C0B210BD196A405C0131FF
:10163000B1FBF2F402FB1412C0B21A6210BD436B8C
:1016400013B190F844007047836A406A1B1A5842ED
:1016500058417047036B13B15B68006C01E0036A8B
:10166000C069181A18BF01207047836A8169426BEC
:101670001944D160416A994297BF0169CB1ACB1ACC
:10168000536096BF0023536083624FF0000380F8DD
:101690004430136888BF816243F0010313607047D0
:1016A000426A10B58469A154426A04690132B2FBEE
:1016B000F4F104FB11224262426B2AB11368DB078A
:1016C00007D4BDE81040D0E7826CD36843F08003B4
:1016D000D36010BD7047044B4FF4805208B11A61BB
:1016E00070475A61704700BF00080140034B4FF438
:1016F000805208B15A6170471A6170470008014072
:1017000030B5002385B0ADF80A30ADF80430ADF83F
:101710000630ADF80830ADF80C3003790446DA072E
:1017200044BF0422ADF80A209B0748BFBDF80A3029
:101730000D46009148BF43F00803806C694648BFDE
:10174000ADF80A30FFF72CFEA56005B030BD013AB8
:10175000072A30D8DFE802F004080C12191E2226EE
:1017600003880B8043880DE043880B80038803E0E7
:1017700003885B420B8043885B4203E043885B4203
:101780000B8003884B80838814E003885B420B80C6
:1017900043880CE043880B80038808E003880B80B3
:1017A000438803E043885B420B8003885B424B80A5
:1017B00083885B428B8070472DE9F041069D002BAA
:1017C00006460F462B4614BF4FF030084FF0200856
:1017D00013F8011B09B9144603E0002AFBDD013AA6
:1017E000F6E7002C04DD30464146B847013CF8E7F7
:1017F00015F8011B11B13046B847F9E7BDE8F08193
:10180000F0B50124B0FBF4F58D4201D34C43F9E768
:101810000026D4B1B0FBF4F504FB1500B4FBF1F4E1
:101820001EB9002D01DC002CF3D1092D03F1010EAE
:10183000EFB204DD002A14BF3725572500E030251C
:101840003D441D7001367346E3E71C70F0BDF0B5F2
:101850000124B0FBF4F58D4201D34C43F9E7002697
:10186000D4B1B0FBF4F504FB1500B4FBF1F41EB9E0
:10187000002D01DC002CF3D1092D03F1010EEFB294
:1018800004DD002A14BF3725572500E030253D44EC
:101890001D7001367346E3E71C70F0BD0C4B996C6C
:1018A0000A88120612D59A6A586A82420AD0986942
:1018B000805C013288801869B2FBF0F100FB1122D4
:1018C0009A627047CB6823F08003CB60704700BFFB
:1018D000B0080020094B4FF400525A604FF6FE73D7
:1018E0000748426B11680B401360426A836A9A4250
:1018F00000D0BAE6012380F844307047000002406F
:10190000B0080020014B1B68184700BF7809002071
:1019100010B50949094BCC6C9B68CA6C9442F8D14C
:101920000A6D4FF47A704243096DD31AB3FBF1F399
:1019300000FB043010BD00BFB008002010E000E044
:1019400038B50446FFF7E4FF0546FFF7E1FF401B0B
:10195000A042FAD338BD10B504462CB14FF47A70CA
:10196000FFF7EEFF013CF8E710BD40F2DB146043E7
:1019700008B50E4B10221A6108225A61841E0B4BC7
:101980002046DA6882F01002DA60DA6882F0080233
:10199000DA60FFF7E0FF0120FFF7B4FF1920FFF73F
:1019A000DAFF0020FFF7AEFFE9E700BF000C0140BF
:1019B000024AD36C0133D364704700BFB0080020E3
:1019C0002DE9F74F664A00251046B2F9023030F98A
:1019D000081B83EAE37EAEEBE37E81EAE173A3EBCF
:1019E000E1739E45B8BF9E46A8462B469146022B02
:1019F0004FEA430C36D039F913205A4C5200B2F555
:101A0000FA7F594E34F91350A8BF4FF4FA72B2421C
:101A1000ACBFC5EB0202C5EB060254494FF06408A7
:101A200031F913505A211544694391FBF8F1B1F58E
:101A3000FA7FA8BF4FF4FA71B142B8BF3146884669
:101A4000211D42F2107451F823202A44A242A8BF5B
:101A50002246474C0A25A242B8BF2246554341F8C8
:101A600023202D133E4A434932F90CA0203232F88C
:101A70000C705C5C3EB286EAE672A2EBE672B2F5EE
:101A8000207F016819DC022B11D0502202FB0AF2E0
:101A900092FBF4F4A41B0C44B4F57A5F364AA8BF59
:101AA0004FF47A549442ACBF0460026007E08AEAC3
:101AB000EA72A2EBEA72642AE7DD0022026004689F
:101AC0007D2294FBF2F22D49022BC95C01FB02F24C
:101AD0004FEAA2120FD00EFB0AF10EFB02F2CEF576
:101AE000FA7404FB081104FB05224FF4FA7B91FB06
:101AF000FBFA92FBFBF2224C6FF04F0BE15C0430DF
:101B0000714391FBFBF1514404F1040A3AF90CB022
:101B10002AF80C70CBEB060604F10A0A04F1160B46
:101B20005BF8237001915AF823104AF823600F44A0
:101B3000374404F122062834E45C4BF82310674351
:101B4000202497FBF4F70199D21B01330A44032B9D
:101B500026F80C207FF44BAF03B0BDE8F08F00BF38
:101B600004090020180900200CFEFFFF0C5F00088C
:101B7000F0D8FFFF105F000880C1FFFF135F00086F
:101B80002A090020044B03EB8000027B034B03EB8C
:101B90004203B3F8520070470C5F000804090020AC
:101BA00081F0004102E000BF83F0004330B54FEA0E
:101BB00041044FEA430594EA050F08BF90EA020F7B
:101BC0001FBF54EA000C55EA020C7FEA645C7FEA0E
:101BD000655C00F0E2804FEA5454D4EB5555B8BF31
:101BE0006D420CDD2C4480EA020281EA030382EAA2
:101BF000000083EA010180EA020281EA0303362D34
:101C000088BF30BD11F0004F4FEA01314FF4801C06
:101C10004CEA113102D0404261EB410113F0004F18
:101C20004FEA03334CEA133302D0524263EB4303CF
:101C300094EA050F00F0A780A4F10104D5F1200E6D
:101C40000DDB02FA0EFC22FA05F2801841F10001C8
:101C500003FA0EF2801843FA05F359410EE0A5F19C
:101C600020050EF1200E012A03FA0EFC28BF4CF0CD
:101C7000020C43FA05F3C01851EBE37101F0004583
:101C800007D54FF0000EDCF1000C7EEB00006EEB90
:101C90000101B1F5801F1BD3B1F5001F0CD349081A
:101CA0005FEA30004FEA3C0C04F101044FEA445271
:101CB00012F5800F80F09A80BCF1004F08BF5FEAF8
:101CC000500C50F1000041EB045141EA050130BDD8
:101CD0005FEA4C0C404141EB010111F4801FA4F17B
:101CE0000104E9D191F0000F04BF01460020B1FAD0
:101CF00081F308BF2033A3F10B03B3F120020CDA08
:101D00000C3208DD02F1140CC2F10C0201FA0CF0E5
:101D100021FA02F10CE002F11402D8BFC2F1200C4A
:101D200001FA02F120FA0CFCDCBF41EA0C01904000
:101D3000E41AA2BF01EB0451294330BD6FEA040449
:101D40001F3C1CDA0C340EDC04F11404C4F1200234
:101D500020FA04F001FA02F340EA030021FA04F346
:101D600045EA030130BDC4F10C04C4F1200220FA9D
:101D700002F001FA04F340EA0300294630BD21FADB
:101D800004F0294630BD94F0000F83F4801306BFA1
:101D900081F480110134013D4EE77FEA645C18BF95
:101DA0007FEA655C29D094EA050F08BF90EA020F2C
:101DB00005D054EA000C04BF1946104630BD91EA24
:101DC000030F1EBF0021002030BD5FEA545C05D127
:101DD0004000494128BF41F0004130BD14F5800466
:101DE0003CBF01F5801130BD01F0004545F0FE41DA
:101DF00041F470014FF0000030BD7FEA645C1ABF0F
:101E0000194610467FEA655C1CBF0B46024650EA45
:101E1000013406BF52EA033591EA030F41F4002171
:101E200030BD00BF90F0000F04BF0021704730B5F7
:101E30004FF4806404F132044FF000054FF00001CC
:101E400050E700BF90F0000F04BF0021704730B58D
:101E50004FF4806404F1320410F0004548BF404262
:101E60004FF000013EE700BF42004FEAE2014FEAB7
:101E700031014FEA02701FBF12F07F4393F07F4F92
:101E800081F06051704792F0000F14BF93F07F4FC4
:101E9000704730B54FF4607401F0004521F0004107
:101EA00020E700BF50EA010208BF704730B54FF08D
:101EB00000050AE050EA010208BF704730B511F092
:101EC000004502D5404261EB41014FF4806404F1CA
:101ED00032045FEA915C3FF4DCAE4FF003025FEA4C
:101EE000DC0C18BF03325FEADC0C18BF033202EBD4
:101EF000DC02C2F1200300FA03FC20FA02F001FA2E
:101F000003FE40EA0E0021FA02F11444C1E600BFCC
:101F100070B54FF0FF0C4CF4E06C1CEA11541DBF7F
:101F20001CEA135594EA0C0F95EA0C0F00F0DEF84A
:101F30002C4481EA030621EA4C5123EA4C5350EA2F
:101F4000013518BF52EA033541F4801143F4801380
:101F500038D0A0FB02CE4FF00005E1FB02E506F011
:101F60000042E0FB03E54FF00006E1FB03569CF066
:101F7000000F18BF4EF0010EA4F1FF04B6F5007F6C
:101F800064F5407404D25FEA4E0E6D4146EB0606DE
:101F900042EAC62141EA55514FEAC52040EA5E5067
:101FA0004FEACE2EB4F1FD0C88BFBCF5E06F1ED811
:101FB000BEF1004F08BF5FEA500E50F1000041EB48
:101FC000045170BD06F0004646EA010140EA0200F5
:101FD00081EA0301B4EB5C04C2BFD4EB0C0541EA17
:101FE000045170BD41F480114FF0000E013C00F32C
:101FF000AB8014F1360FDEBF002001F0004170BD50
:10200000C4F10004203C35DA0C341BDC04F1140468
:10201000C4F1200500FA05F320FA04F001FA05F2F4
:1020200040EA020001F0004221F0004110EBD370C1
:1020300021FA04F642EB06015EEA430E08BF20EAED
:10204000D37070BDC4F10C04C4F1200500FA04F390
:1020500020FA05F001FA04F240EA020001F0004122
:1020600010EBD37041F100015EEA430E08BF20EA95
:10207000D37070BDC4F1200500FA05F24EEA020EDD
:1020800020FA04F301FA05F243EA020321FA04F00C
:1020900001F0004121FA04F220EA020000EBD370C3
:1020A0005EEA430E08BF20EAD37070BD94F0000FC3
:1020B0000FD101F00046400041EB010111F4801FF7
:1020C00008BF013CF7D041EA060195F0000F18BFA8
:1020D000704703F00046520043EB030313F4801FE4
:1020E00008BF013DF7D043EA0603704794EA0C0F9E
:1020F0000CEA135518BF95EA0C0F0CD050EA4106B4
:1021000018BF52EA4306D1D181EA030101F0004130
:102110004FF0000070BD50EA410606BF1046194658
:1021200052EA430619D094EA0C0F02D150EA013664
:1021300013D195EA0C0F05D152EA03361CBF1046A5
:1021400019460AD181EA030101F0004141F0FE4144
:1021500041F470014FF0000070BD41F0FE4141F4C8
:10216000780170BD70B54FF0FF0C4CF4E06C1CEAC8
:1021700011541DBF1CEA135594EA0C0F95EA0C0F7D
:1021800000F0A7F8A4EB050481EA030E52EA033538
:102190004FEA013100F088804FEA03334FF0805559
:1021A00045EA131343EA12634FEA022245EA111586
:1021B00045EA10654FEA00260EF000419D4208BF37
:1021C000964244F1FD0404F5407402D25B084FEAE4
:1021D0003202B61A65EB03055B084FEA32024FF490
:1021E00080104FF4002CB6EB020E75EB030E22BFED
:1021F000B61A754640EA0C005B084FEA3202B6EBAD
:10220000020E75EB030E22BFB61A754640EA5C005B
:102210005B084FEA3202B6EB020E75EB030E22BFEB
:10222000B61A754640EA9C005B084FEA3202B6EBEC
:10223000020E75EB030E22BFB61A754640EADC00AB
:1022400055EA060E18D04FEA051545EA16754FEA0D
:1022500006164FEAC30343EA52734FEAC2025FEA2B
:102260001C1CC0D111F4801F0BD141EA00014FF0BA
:1022700000004FF0004CB6E711F4801F04BF01438B
:102280000020B4F1FD0C88BFBCF5E06F3FF6AFAEA7
:10229000B5EB030C04BFB6EB020C5FEA500C50F137
:1022A000000041EB045170BD0EF0004E4EEA1131BA
:1022B00014EB5C04C2BFD4EB0C0541EA045170BDC1
:1022C00041F480114FF0000E013C90E645EA060E05
:1022D0008DE60CEA135594EA0C0F08BF95EA0C0F33
:1022E0003FF43BAF94EA0C0F0AD150EA01347FF47B
:1022F00034AF95EA0C0F7FF425AF104619462CE752
:1023000095EA0C0F06D152EA03353FF4FDAE1046B4
:10231000194622E750EA410618BF52EA43067FF405
:10232000C5AE50EA41047FF40DAF52EA43057FF495
:10233000EBAE12E74FEA4102B2F1E04324BFB3F53E
:10234000001CDCF1FE5C0DD901F0004C4FEAC0022C
:102350004CEA5070B2F1004F40EB830008BF20F010
:102360000100704711F0804F21D113F13872BCBFCA
:1023700001F00040704741F480114FEA5252C2F11F
:102380001802C2F1200C10FA0CF320FA02F018BF68
:1023900040F001004FEAC1234FEAD32303FA0CFCBB
:1023A00040EA0C0023FA02F34FEA4303CCE77FEA4A
:1023B000625307D150EA01331EBF4FF0FE4040F494
:1023C0004000704701F0004040F0FE4040F4000043
:1023D000704700BF80F0004002E000BF81F0004184
:1023E00042001FBF5FEA410392EA030F7FEA226CBB
:1023F0007FEA236C6AD04FEA1262D2EB1363C1BF4B
:10240000D218414048404140B8BF5B42192B88BFB9
:10241000704710F0004F40F4000020F07F4018BFDC
:10242000404211F0004F41F4000121F07F4118BFFC
:10243000494292EA030F3FD0A2F1010241FA03FCA4
:1024400010EB0C00C3F1200301FA03F100F000438C
:1024500002D5494260EB4000B0F5000F13D3B0F154
:10246000807F06D340084FEA310102F10102FE2AC3
:1024700051D2B1F1004F40EBC25008BF20F0010033
:1024800040EA03007047490040EB000010F4000FE1
:10249000A2F10102EDD1B0FA80FCACF1080CB2EB74
:1024A0000C0200FA0CF0AABF00EBC25052421843D3
:1024B000BCBFD0401843704792F0000F81F4000178
:1024C00006BF80F400000132013BB5E74FEA41034B
:1024D0007FEA226C18BF7FEA236C21D092EA030FB7
:1024E00004D092F0000F08BF0846704790EA010F31
:1024F0001CBF0020704712F07F4F04D1400028BF5E
:1025000040F00040704712F100723CBF00F500003F
:10251000704700F0004343F0FE4040F40000704775
:102520007FEA226216BF08467FEA23630146420221
:1025300006BF5FEA412390EA010F40F48000704734
:102540004FF0000304E000BF10F0004348BF4042DA
:102550005FEA000C08BF704743F0964301464FF016
:1025600000001CE050EA010208BF70474FF0000372
:102570000AE000BF50EA010208BF704711F00043B3
:1025800002D5404261EB41015FEA010C02BF844683
:102590000146002043F0B64308BFA3F18053A3F5E2
:1025A0000003BCFA8CF2083AA3EBC25310DB01FA29
:1025B00002FC634400FA02FCC2F12002BCF1004FAD
:1025C00020FA02F243EB020008BF20F0010070473E
:1025D00002F1200201FA02FCC2F1200250EA4C0092
:1025E00021FA02F243EB020008BF20EADC707047D8
:1025F0004FF0FF0C1CEAD0521EBF1CEAD15392EAE6
:102600000C0F93EA0C0F6FD01A4480EA010C4002C1
:1026100018BF5FEA41211ED04FF0006343EA50101B
:1026200043EA5111A0FB01310CF00040B1F5000F5D
:102630003EBF490041EAD3715B0040EA010062F10C
:102640007F02FD2A1DD8B3F1004F40EBC25008BFF6
:1026500020F00100704790F0000F0CF0004C08BF14
:1026600049024CEA502040EA51207F3AC2BFD2F1E1
:10267000FF0340EAC250704740F400004FF00003EF
:10268000013A5DDC12F1190FDCBF00F00040704729
:10269000C2F10002410021FA02F1C2F1200200FA67
:1026A00002FC5FEA310040F1000053EA4C0308BF2E
:1026B00020EADC70704792F0000F00F0004C02BF7F
:1026C000400010F4000F013AF9D040EA0C0093F0FA
:1026D000000F01F0004C02BF490011F4000F013B54
:1026E000F9D041EA0C018FE70CEAD15392EA0C0FC2
:1026F00018BF93EA0C0F0AD030F0004C18BF31F02D
:10270000004CD8D180EA010000F00040704790F002
:10271000000F17BF90F0004F084691F0000F91F0A6
:10272000004F14D092EA0C0F01D142020FD193EA6C
:102730000C0F03D14B0218BF084608D180EA0100F4
:1027400000F0004040F0FE4040F40000704740F0D0
:10275000FE4040F4400070474FF0FF0C1CEAD0529E
:102760001EBF1CEAD15392EA0C0F93EA0C0F69D0FA
:10277000A2EB030280EA010C49024FEA402037D065
:102780004FF0805343EA111143EA10130CF000405C
:102790008B4238BF5B0042F17D024FF4000C8B424C
:1027A00024BF5B1A40EA0C00B3EB510F24BFA3EB2C
:1027B000510340EA5C00B3EB910F24BFA3EB9103FC
:1027C00040EA9C00B3EBD10F24BFA3EBD10340EA56
:1027D000DC001B0118BF5FEA1C1CE0D1FD2A3FF69C
:1027E00050AF8B4240EBC25008BF20F00100704751
:1027F0000CF0004C4CEA50207F32C2BFD2F1FF03F4
:1028000040EAC250704740F400004FF00003013A24
:1028100037E792F0000F00F0004C02BF400010F4C8
:10282000000F013AF9D040EA0C0093F0000F01F0DC
:10283000004C02BF490011F4000F013BF9D041EAFE
:102840000C0195E70CEAD15392EA0C0F08D1420231
:102850007FF47DAF93EA0C0F7FF470AF084676E704
:1028600093EA0C0F04D14B023FF44CAF08466EE7DD
:1028700030F0004C18BF31F0004CCAD130F00042AB
:102880007FF45CAF31F000437FF43CAF5FE700BF03
:102890004FF0FF3C06E000BF4FF0010C02E000BF2C
:1028A0004FF0010C4DF804CD4FEA40024FEA4103CE
:1028B0007FEA226C18BF7FEA236C11D001B052EA84
:1028C000530C18BF90EA010F58BFB2EB030088BF4A
:1028D000C81738BF6FEAE17018BF40F001007047B9
:1028E0007FEA226C02D15FEA402C05D17FEA236C9B
:1028F000E4D15FEA412CE1D05DF8040B704700BFE2
:10290000844608466146FFE70FB5FFF7C9FF002878
:1029100048BF10F1000F0FBD4DF808EDFFF7F4FFB1
:102920000CBF012000205DF808FB00BF4DF808ED4A
:10293000FFF7EAFF34BF012000205DF808FB00BF6D
:102940004DF808EDFFF7E0FF94BF012000205DF88F
:1029500008FB00BF4DF808EDFFF7D2FF94BF012040
:1029600000205DF808FB00BF4DF808EDFFF7C8FF39
:1029700034BF012000205DF808FB00BF4FEA400291
:10298000B2F1FE4F0FD34FF09E03B3EB12620DD99D
:102990004FEA002343F0004310F0004F23FA02F007
:1029A00018BF404270474FF00000704712F1610FAE
:1029B00001D1420205D110F0004008BF6FF0004085
:1029C00070474FF0000070472DE980480023A1B008
:1029D0000893624C09930A934FF4E0130B93236816
:1029E00043F480332360A36943F01003A361236899
:1029F00003F400330993089B01330893099B1BB927
:102A0000089BB3F5A06FF2D12368544913F4003347
:102A100001D0022315E00A6842F001020A6008931F
:102A2000236803F002030993089B01330893099B71
:102A30001BB9089BB3F5A06FF2D123689B0739D56A
:102A400001230A93464B47491A6842F010021A6064
:102A50001A6822F003021A601A6842F002021A6031
:102A60006368636063686360636843F480636360A2
:102A70003D4B1A68043B22F070425A603B4A116099
:102A8000616821F47C116160596841F0004159602E
:102A9000D96821F40041D9609B681F0449BF344BB9
:102AA0004FF4E01313604FF480130B930A9B012B38
:102AB00001D108E0FEE7022B09D10B9963680B43B3
:102AC00043F4803302E0636843F460136360236877
:102AD00043F0807323602168204B8E01FBD5596839
:102AE00021F003015960596841F00201596063689F
:102AF0001A4903F00C03082BF9D14B68DFF88090DA
:102B000003F00C03042B03D0082B03D0154B12E069
:102B1000136810E04B684868C3F38343C50303F1AF
:102B2000020301D4134905E0496811F4003F11681C
:102B300018BF49084B43C9F8003063680E4EC3F311
:102B40000313F15CD9F800300C4FCB40C9F80030CA
:102B50001368044A934215D1012317E00010024084
:102B60000020024000127A00041001402C000020D6
:102B7000001BB70000093D00000000206C09002088
:102B800044000020B04A934201D102233B60DFF8A9
:102B900004E315ADBEE80F000FC59EE80F0085E801
:102BA0000F00AA4AAA4BAB48DA60E3690DA943F0CB
:102BB0000703E361A36916AD43F4944343F01D0397
:102BC000A36163690DF1780A43F001036361636AED
:102BD00043F0807363624FF6FF73ADF83430002327
:102BE0008DF83630FDF7EAFB9B480DA9FDF7E6FBB3
:102BF0009A480DA9FDF7E2FB994A0020536843F07B
:102C0000007353603B68012BC8BF964A964BD8BFF0
:102C1000964A1A60FEF776FE8F4B08221A61102240
:102C20001A61D7F80080B8F1010F04DDAB78142BDE
:102C300004BF1023AB7055F8040C29460835FDF786
:102C4000BDFB5545EDD110A8FEF762FB109B884AED
:102C5000F021B3FBF2F3874A00251360D9F8003066
:102C60004FF47A72B3FBF2F3834A013B5360784B23
:102C7000642083F823100723956013607F4A804BFC
:102C80001A60804B1D60FEF766FE2B4641F2DA614A
:102C900003FB03F2193A4A4340F6C41102F55B32D2
:102CA00002F53A725A4392FBF1F2774921F8132068
:102CB0000133072BEAD100224FF47A7000FB02F3B4
:102CC000A3F59C534FF00A0E083B93FBFEF303F56C
:102CD000FA739BB24FF47F7E0EFB03F393FBF0F38A
:102CE000694D03F2DE3305F10E0121F81230013295
:102CF0000C2AE1D1E369DFF8609143F48043E3619A
:102D000018238DF832304FF420434846ADF8303068
:102D10000CA903238DF83330FDF750FB4FF48043AB
:102D20004846ADF830300CA904234FF0100B8DF855
:102D300032304FF4805AFDF741FB48460CA9ADF8FC
:102D400030A08DF832B0FDF739FB2369002143F440
:102D5000804323612369012023F4804323614FF4DE
:102D60008273ADF856304FF40073ADF85E30022335
:102D7000ADF85A300724454BADF85410ADF8581053
:102D8000ADF86210ADF86440ADF85C00ADF860B02D
:102D90001A8802F4415242F4457242F003021A804A
:102DA0009A8B22F4006202FA0BF222FA0BF29A8357
:102DB0001C821A8892B242F040021A809F228DF83B
:102DC00035108DF836108DF837108DF8342085F8D1
:102DD0002600C9F814A09B894FF005090DAB10A976
:102DE000B9F1010909D013B11878013300E0FF20CF
:102DF000264A1489A407FBD536E1174C4FF4805AB4
:102E0000C4F810A09DF842309DF841201B0243EA0F
:102E100002439DF843201C4D13431D4A934240D06A
:102E20003220FEF798FDC4F814A0F520FEF708F84C
:102E3000FF20FEF705F870288DF84000C4F810A0B8
:102E40002AD085F826902CE0001BB7000005FA0573
:102E500000ED00E000080140000C014000100140BE
:102E600000000140D716000878090020ED16000880
:102E700040420F000009002010E000E03108000887
:102E80009408002090080020B00000200038004086
:102E900015202000385E0008B8F1020F04BF03239C
:102EA0003B603C68032C02D00120FDF7B9FA0422F4
:102EB000012C8D4B85F827204FF000024FF00107C1
:102EC00085F82820C2BF052283F8292083F82A70BC
:102ED0008648C8BF02274FF00008FEF7D5FA022F38
:102EE00018BFC146824B08BF4FF080091593814B34
:102EF000CDF8689016934FF48073DFF8F0911B9330
:102F00004FF480631C9320231D9348464FF40053D5
:102F100015A918971E93CDF85C80CDF86480CDF884
:102F20007C80FEF793FAD9F800307348012F43F004
:102F300001034FF46022FFB2C9F8003012928DF8FD
:102F40005070CDF84080CDF84C804168D8BF4FF02C
:102F5000000E21F47022C8BF4FF0010E22F48072DF
:102F600042EA0E2201238DF844E08DF8453042609C
:102F70008168624A013F0A4042F4602242F0020244
:102F80008260C26AFFB222F4700242EA0757C76247
:102F90005B4A12F81870002F4FD0092F03F101017E
:102FA0005548DBB20DD9A7F10A02D0F80CE002EBCC
:102FB00042024FF0070C0CFA02F242EA0E02C26023
:102FC00009E0026907EB470C4FF0070E0EFA0CFE02
:102FD0004EEA02020261062B47480ED8013B03EB82
:102FE0008302D0F834C01F2393402CEA030E07FA63
:102FF00002F34EEA030343631EE00C2B0ED8DA1FE4
:10300000D0F830C002EB82021F2393402CEA030E5B
:1030100007FA02F34EEA030303630DE00D3BC26AB5
:1030200003EB83034FF01F0E0EFA03FE22EA0E029B
:1030300007FA03F31343C3620B4608F10108B8F122
:10304000040FA5D12C4B9A6842F480729A609A685A
:1030500042F001029A609A6842F008029A60996808
:10306000254A09070ED5FAE780B290811089C0077A
:10307000FCD5244A928992B200293FF4B1AE0A707D
:103080000131ADE6936843F0040393601A4B9A68EC
:103090005707FBD49A68062142F4A0029A604FF4C5
:1030A000805373820A4615AB6820FDF70BFB9DF831
:1030B00057309DF8592003F001035B0002F0010234
:1030C00043EA82029DF8553003F001031343DAB25C
:1030D0008DF84020C3B1012B01F04C83022A24D08B
:1030E0000520FEF742FC00BFB000002008000240AF
:1030F0004C240140E000002000240140FDF7F1FFD6
:10310000D70000200038004010AB68200C210122BD
:10311000FDF7D8FA9DF8403003F00F038DF84030EA
:10312000002BDDD0042B01F02583C04B012C6B64F8
:103130004FF0030333740DDD4FF40053ADF85430FA
:1031400002238DF85730BA48042315A98DF856305C
:10315000FDF734F980216B20FDF720FF6420FEF796
:10316000FAFB00211920FDF719FF03216B20FDF761
:1031700015FF0A20FEF7EFFB03211A20FDF70EFFD3
:1031800018211B20FDF70AFF10211C20FDF706FF68
:1031900012213720FDF702FF01213820FDF7FEFE46
:1031A000A44B0020AB64A44B0A24EB64A34BAB6399
:1031B000A34BEB63FDF704FDAB6B00209847A14BDD
:1031C00010225A6108221A619E4F1920FB68013CA7
:1031D00083F01003FB60FB6883F00803FB60FEF7DD
:1031E000BAFB0120FEF78EFB1920FEF7B4FB00208E
:1031F000FEF788FB14F0FF04E6D108233B6110239F
:103200003B61708AFFF7A0F98F490746FFF7F0F995
:1032100001F09EFC3946A5F858008C48FFF79CFA4F
:103220008B49FFF799FA8B4BE8652B668A4B6B66E7
:10323000DFF854E2DFF854C20EF16807274404EBCC
:103240000C031034402C0FCB87E80F00F0D1834CD7
:103250004FF47A73AEF8A830AEF8AA30AEF8AC30BE
:10326000AEF8AE300CF1400323600EF1B40363619D
:103270000EF5DA73A3614FF48073E3602361784B3A
:103280004FF00008774A4FF4E139CEF8B080C4F827
:1032900008902363143B63639369734843F480434A
:1032A000936102238DF843304FF40073ADF8403042
:1032B00010A918238DF84230FDF780F84FF4806391
:1032C00010A9ADF84030684848238DF84230FDF72A
:1032D00075F80E23654F8DF8543015A801238DF82D
:1032E00055308DF856308DF85730FEF745F90323E9
:1032F000237138460C2310A9ADF84A30A764C4F8EE
:103300002080C4F81C80C4F82880C4F82480C4F845
:103310002C80C4F80890CDF84090ADF84480ADF80A
:103320004680ADF84880ADF84C80FEF739F8BB898F
:10333000206B9BB243F40053BB814D4BCDF85880BA
:1033400015934FF480531E938023CDF85C80CDF805
:103350006080CDF86480CDF86C80CDF87080CDF8B9
:103360007480CDF87C801A93C8B1E3681893202349
:103370001D9363691693FEF787F8206B15A9FEF776
:1033800065F8226B136843F001031360BB8A9BB29C
:1033900043F04003BB8253689BB2236404E0354A88
:1033A000136843F020031360606BDFF8B080E0B176
:1033B000D8F8103000271893102317931D97FEF7A5
:1033C00063F8D8F8340015A9FEF740F8D8F834307F
:1033D0001A6842F002021A60244A5F605F60938AB2
:1033E0009BB243F08003938204E0224A136843F0C7
:1033F00080031360204B214A1C60D5F8B030924600
:103400000133C5F8B03040F2D93300271460B382DD
:1034100085F8B4721A4BFB5CFF2B03F00F0637D113
:10342000184BC5F8B8320023D6E100BF18449231DA
:1034300000100140C10B0008350C0008B50B000856
:10344000CD0B0008000C0140C903683F0AE81C418D
:1034500000401C46F62421443661023DB00800209D
:1034600058000240001002400008014000380140AE
:10347000043801400C3801405C0600209808002008
:10348000B05E000891080008B0000020585E0008F7
:10349000DC0606D53046BC490022FDF7E5FC0823D2
:1034A0000DE003F0200202F0FF0B5AB13046B7499D
:1034B00095F8BC22FDF7D8FC95F8BC32013385F8AD
:1034C000BC3284E1580640F1828195F8BD92182201
:1034D00009F1010385F8BD32AD4BDFF8B88202FB7C
:1034E0000633310158F801400093204608EB0103F0
:1034F00040F6C41103920193FDF7A4FD019B039ACA
:1035000003F1080C58689B6815A9ADF854300223E4
:10351000CDF808C08DF856208DF857300193FCF790
:103520004DFFDDF808C07021019BADF854109CF8E8
:1035300004200121ADF85610ADF85C304FF47A71DB
:103540004FF48073ADF858B0ADF85EB0ADF862B02E
:10355000ADF85A10ADF860300C2A00F2E980DFE8CF
:1035600012F00D00E700E700E7004D00E700E7007C
:10357000E7008200E700E700E700B600238CDFF8F1
:1035800018C223F001031B041B0C2384218CA08888
:10359000238B1FFA81FE23F073031B041B0C2EF0F8
:1035A0000201644580B243F0700341F003010FD083
:1035B0000CF5006C64450BD00CF5406C644507D0ED
:1035C0000CF5806C644503D00CF5806C644507D124
:1035D0002EF00E0120F4407041F0030140F48070A1
:1035E000A08023834FF47A73A3862184238B23F056
:1035F00008031B041B0C43F0080332E0238CDFF8A4
:1036000098C123F010031B041B0C2384218CA08879
:10361000238B1FFA81FE23F4E6431B041B0C2EF0C0
:103620002001644580B243F4E04341F0300103D00F
:103630000CF5006C644507D12EF0E00120F44060E9
:1036400041F0300140F48060A08023834FF47A730E
:1036500023872184238B23F400631B041B0C43F476
:103660000063238364E0238CDFF82CC123F4807390
:103670001B041B0C2384218CA088A38B1FFA81FEC2
:1036800023F073031B041B0C2EF40071644580B2FD
:1036900043F0700341F4407103D00CF5006C6445B5
:1036A00007D12EF4606120F4405041F4407140F4A1
:1036B0008050A080A3834FF47A73A3872184A38BC7
:1036C00023F008031B041B0C43F008032FE0238C9A
:1036D000DFF8C4E023F480531B041B0C2384238CE9
:1036E000A088A18B23F4005321F4E64109041B04B4
:1036F000090C1B0C744580B241F4E04143F4405383
:1037000003D00EF5006E744503D120F4804040F4E0
:103710008040A080A1834FF47A71A4F840102384E4
:10372000A38B23F400631B041B0C43F40063A383EB
:1037300008EB061898F80E3043B1B4F844306FEA3D
:1037400043436FEA53439BB2A4F84430238804F107
:1037500024009BB243F001032380182303FB06518E
:10376000C1F8C442C1F8C8020C2A24D8DFE802F02C
:1037700007232323162323231A2323231E0003FBBB
:103780000653343415E000BFF1080008410B00086F
:1037900070030020385F0008002C014003FB065333
:1037A000383406E003FB06533C3402E003FB0653C7
:1037B0004034C3F8C042182303FB065640F6C41336
:1037C000A6F8CC32009B05EB8909C9F81034013703
:1037D0000E2F7FF41FAE23E640F2DE51BD4C04F500
:1037E000846222F813100133122BF5D1BA4BC4F8BE
:1037F000443408238AF81430FEF78AF84FF47A73B9
:10380000A4F84C34012384F84E3420AA5123C4F880
:10381000480402F8613D70200021FDF7D8FB84F8D0
:103820004F04AC4CAD4ED4F85024336825469A1A58
:10383000002AC0F2A48704F5846904F25448CA46F9
:10384000C34603F59C432033C4F850340027D5F811
:103850004434F8B2984740F2DC52A0F2EE239BB217
:10386000934288BF1046D5F894249D4B9949134044
:10387000002BBEBF03F1FF3363F00303013303EBFF
:10388000870301EB4303A3F854043BF83710B8F85F
:10389000023001370B44B8F80410082F0B44B8F875
:1038A000061008F108080B441BB24FF0040193FB0B
:1038B000F1F329F8023BCAD1864B0132C3F89424B4
:1038C0000022134640F24C403AF912109B08814204
:1038D00006DD40F26B7063F07F038142DBB201DCF6
:1038E00043F040030132042AECD194F8982479493A
:1038F0009A4205D191F89924F92A04D8013200E0BE
:10390000002281F8992440F24B42B4F9261484F83D
:103910009834914241F3768094F899146D4A1429B1
:103920002BD192F89A1451B15F2B26D1D2F89C1466
:10393000002382F89A3401B3C2F89C341DE0572B5F
:1039400004D14FF47A73A2F84C3416E06F2B0ED1E9
:10395000B2F84C3433B992F8A0341BB1012382F889
:103960009A340AE00220FF21FDF7BEFB05E0972B09
:1039700002BF5C4B4FF4C8721A80B4F9A234322BE8
:103980001EDD594B00221A605A6019E094F84F244A
:10399000504F002A40F006870123C4F8AC34FDF7ED
:1039A000B7FF46F2A71ED4F8B014504A411A714529
:1039B0005388484F128800F229870023C4F8AC349A
:1039C000FDF7A6FFD4F8E0343060C31A002BDFF80F
:1039D0000481FFF626AF00F6AC50C8F8E004D8F832
:1039E0003C3008F2E4409847B8F84C3408F2E44719
:1039F00008F23459002B00F0AF8008F2EC4608F5CD
:103A00009F6B4FF00008B5F84C3437F91800B3F548
:103A10007A7F02BF00223260CBF810203268009318
:103A200002443260FEF790FDDBF810204FEA480AAE
:103A30000132012ACBF8102007D10022CBF8040074
:103A4000CBF80000CBF808202EE0DBF80030049221
:103A5000194602930390FEF7C1FC049A01901046A8
:103A6000FEF772FD01460198FEF776FE029B0146C5
:103A70001846FEF7B5FC0246DDF80CC01146CBF83F
:103A8000040060460292FEF7A9FC01460198FEF789
:103A9000AFFDDBF80810FEF7A3FC029ACBF80C0090
:103AA000CBF80020CBF80800009B0022012B27F860
:103AB0000A2029F80A2040D1DBF81000012817DD80
:103AC0000138FEF741FD0146DBF80C00FEF744FE2D
:103AD0000FE000BFB0000020851B0008680900202F
:103AE00003000080700900201C0900201809002034
:103AF000002001F0A9F84FF08441FEF735FF4FF4A4
:103B00007A7178B10022A5F84C14C5F80825C5F8DB
:103B10001C25C5F83025C5F8F424C5F8F024C5F8EF
:103B2000EC240AE032680A2002F5FA7292FBF1F204
:103B30000F2129F80A20FDF7D7FA08F10108B8F19A
:103B4000030F06F104060BF1140B7FF45CAFB4F81D
:103B50004C34013BA4F84C34002337F8132039F8D7
:103B60001310BB4E521A27F813200133032BF4D144
:103B7000B84DF36C06F23A509847298806F23A5647
:103B800000293DD04FF0000CB34BB1F5C87F04BF06
:103B9000002243F82C204FEA8C0E36F91C8053F893
:103BA0000E00AB4A404443F80E00002302F24C5092
:103BB00026F81C3020F81C300CF1010CBCF1030F6E
:103BC000E2D101291AD1D2F840354FF4C87603F179
:103BD000C80090FBF6F0A2F84C05D2F84405D2F8E4
:103BE0004835C83090FBF6F0C83393FBF6F3A2F8E3
:103BF0004E059A48408A1B1AA2F850354B1E2B805E
:103C0000B4F83A35B4F84C254FF000099B1AA4F8E3
:103C10003A35B4F84E25B4F83C35CB469B1AA4F897
:103C20003C35B4F85025B4F83E359B1AA4F83E351F
:103C3000FDF76EFED4F854350546C31A18460093B6
:103C4000FEF77EFC616C0190FEF7D2FC8246C4F860
:103C5000545537F91B00FEF777FC5146FEF7C8FCB8
:103C60007F4D0DF1340848F82B004FF07D5155F889
:103C70002B00FEF7BDFCA5F11E03064633F91B0021
:103C8000FEF762FC4FF07A51FEF7B2FC0146304677
:103C9000FEF7A6FB45F82B00FEF770FE05F10C06BB
:103CA00080B226F81B000BF1010B00B2BBF1030F31
:103CB00000FB0099CDD1694F642303FB09F3B7F8EA
:103CC000129005F1140009FB09F993FBF9F9A9F128
:103CD000490941461FFA89F9FCF7E5FFB9F13B0FA5
:103CE00005F1140540F29380B4F95800FEF72CFC5E
:103CF000D4F87465014630464FF00105FEF734FEF6
:103D000000B90546524B3146D4F8700583F84E543D
:103D100000F098FF0646C4F87805D4F86C05D4F88E
:103D200074A500F10045D4F870050146FEF760FC6B
:103D3000514681465046FEF75BFC01464846FEF779
:103D40004FFB00F081FF0146284600F07BFF05464F
:103D5000C4F87C053046FEF787F83BA3D3E900237F
:103D6000FEF7D6F8FEF7E6FA00F0F2FEDFF8FC9078
:103D7000A9F800002846FEF777F833A3D3E900231B
:103D8000FEF7C6F8FEF7D6FA00F0E2FEA9F8020048
:103D9000DFF8C890414609F11800FCF784FFB869C4
:103DA000D7F81CA00146FEF723FCD7F82080514627
:103DB00007465046FEF71CFC01463846FEF710FB4E
:103DC000414607464046FEF713FC01463846FEF7DB
:103DD00007FB00F039FF00210746FEF79DFD002894
:103DE00046D1D9F818003946FEF7B6FC3946C9F86D
:103DF0001800D9F81C00FEF7AFFC3946C9F81C00C2
:103E0000D9F82000FEF7A8FCC9F8200030E04FF0F8
:103E1000000955F829001349FEF7EAFB824636F9F6
:103E20001900FEF791FB01465046FEF7D9FA0E49FC
:103E3000FEF7DEFB45F8290009F10109B9F1030F8E
:103E4000E7D151E7AFF300803B597E90A9E781406D
:103E5000B000002070090020F005002000000020C4
:103E600008060020000016440017DA3A180900205E
:103E7000304600F037FE8046304600F0A5FE83460F
:103E8000284600F02FFE0590284600F09DFEC64F04
:103E90008146FB69414618460493FEF7A9FBD7F813
:103EA00020A0594602905046FEF7A2FB029A014616
:103EB0001046FEF793FADDF814C0B9690390604626
:103EC000FEF796FB049B594602901846FEF790FBBE
:103ED0004946FEF78DFBDDF808C001466046FEF757
:103EE0007FFA494683465046FEF782FB4146FEF77D
:103EF0007FFB01465846FEF773FA039A01461046C7
:103F000000F0A0FEA949FEF773FBFDF7ADFFA2A3E9
:103F1000D3E90023FEF726F900220023FDF746FE31
:103F20000022A34BFEF71EF9FEF704FA00F010FE84
:103F30001FFA80F919F4004F18BF00F5B47002970A
:103F40009C4F18BF1FFA80F99B490198A7F88095EC
:103F5000FEF74EFB06F1004605F1004580460FFADC
:103F600089F010961195FEF7EFFA00F10040FDF789
:103F70007BFF8BA3D3E90023FDF7CAFFFEF7DAF935
:103F80001290B7F96405FEF7DFFA1590B7F96605E8
:103F9000FEF7DAFA1690B7F96805FEF7D5FA10A918
:103FA000179015A8FCF77FFE97F89A643D4676B9FE
:103FB000D7F88405402390FBF3F3C01AFEF7C4FA48
:103FC0001799FEF70DFAFEF7D9FCC7F88405D4F867
:103FD0008405402390FBF3F0FEF7B6FA01461798EC
:103FE000FEF7FCF9616E074617904046FEF7F8F9B8
:103FF00001464046FEF7B0FBD4F888958046494616
:104000003846FEF7EBF901464046FEF7F1FA014665
:104010004846FEF7E5F9C4F888050746159800F00C
:1040200097FD2821FCF730FED4F8B4341844C4F8C6
:10403000B404169800F08CFD2821FCF725FED4F876
:10404000B8341844C4F8B804384600F081FD28217B
:10405000FCF71AFED4F8BC34584A18440099136887
:10406000C4F8BC041944D4F8C03411600133B4F866
:10407000E824C4F8C034524B9A80B4F8E4241A807F
:10408000B4F8E6245A80FDF743FC4E4B002218603A
:10409000D4F84834C4F84804C31AA4F88C35B4F8EA
:1040A0002644494B4FEA420A33F912E040F2DC530E
:1040B0009E4505DDBEF5FA6F0BDB4FF4FA710AE0A1
:1040C000CEF5BB610431B1F5FA7FA8BF4FF4FA71A8
:1040D00001E0AEF2DC51022A4FF06403DFF80491F4
:1040E00020D091FBF3FC334F6FF0630B37F81C804B
:1040F0000BFB0C1B0CF1010C37F91C700FFA88FC40
:10410000CCEB070707FB0BFB9BFBF3F3434429F8BE
:104110000A302E4B9B5C59432D4B91FBF3F36433D8
:104120009BB202E04942A9F804102A496427895C3D
:10413000DFF8B4C0594391FBF7F10CF8021026499F
:10414000DFF8A8C0895C594391FBF7F10CF8021025
:104150002249895C4B4393FBF7F32149214F8B5450
:1041600040F2DB539E45D8BF37F80A3002F1010216
:10417000DCBF5B4227F80A30032A92D140F24B435E
:1041800024B29C4234DDB4F5FA6FA8BF4FF4FA6450
:1041900030E000BFAFF30080182D4454FB210940EC
:1041A000399D52A246DF913F000000200000E1440B
:1041B00000002440B0000020BD378635740900207F
:1041C0002409002068090020D0040020BC5E0008FB
:1041D0000CFEFFFF105F0008135F0008BE5E0008C2
:1041E00052090020040900202A0900203E06002070
:1041F00040F24C444FF47A73A4F24C445C434FF4C5
:104200006173B4FBF3F44FF0640C94FBFCF205EB28
:104210004203B3F80EE06FF0630303FB024405EBC7
:104220004205B5F910200FFA8EF3D21A544394FBCD
:10423000FCF37344A9F80630B84BB9491B8813B98D
:10424000B1F84C342BB1B74AD36883F00803D3607C
:1042500009E091F8A03413B1B24B08221A6116B1EB
:10426000B04B08225A61AE4BD3F894251D46821AF2
:10427000002A13DB93F84E246AB9AA4983F8A024D4
:10428000CA6800F5F42082F0080200F59070CA6058
:10429000C3F8940502E0012283F8A0240026D5F893
:1042A000B0309F489E4280F2AA819F4A8C2303FB34
:1042B00006239E4C236090F8983543B39C4AD369FB
:1042C00043F0C053D361A2F5D032136843F4807336
:1042D00013604BF20702974B1A8045F2F7021A81DE
:1042E000954A964BDA6012E0D8F8003018680368F7
:1042F0009B689847D8F8003093F88920CAB9A0F194
:1043000024014A424A41522883F8892009D023686F
:10431000DFF81882186803685B6898470028E3D1C3
:104320006BE195F89A34002BF1D1854A854B1A60E0
:10433000C4E7012A03D14D2808BF022204E0022A63
:1043400005D13C2808BF032218BF002252E1032AEE
:104350000CD180284FF000029FBF83F887205A714C
:1043600083F88800187198BF042243E1042A06D11B
:104370001A7983F886005040187105223AE1052A1F
:10438000C5D193F8881093F887209142197907D9FD
:1043900041401971511C83F8871013449871B6E796
:1043A000814240F0258193F88630692B00F0D68059
:1043B00019D8652B5ED00BD8442B00F0F980452B23
:1043C00040F00E811320FCF715FA4FF00008F6E0DC
:1043D000662B62D0682B40F003811020FCF70AFAAC
:1043E0004FF000088FE07D2B00F0D8800FD86C2BA9
:1043F00000F0C4806D2B40F0F3800620FCF7FAF942
:10440000D5F8CC04FCF7F9F9B5F9D004CDE0C82B08
:104410000AD0D62B1ED07E2B40F0E2800220FCF783
:10442000E9F9B5F9AA04C0E04FF00008FCF7A2F9D9
:10443000DFF8EC9009F5846323F8180008F101080F
:10444000B8F1080FF2D10020FCF7D4F9012389F864
:104450009935C9E04FF00008FCF78CF93A4B23F886
:10446000180008F10108B8F1040FF5D10020FCF79D
:10447000C1F9B9E00B20FCF7BDF9B5F98C05FCF7E3
:10448000CDF9324B188800B2FCF7C8F90020FCF7D0
:10449000C5F90020FCF780F9A6E01220FCF7AAF984
:1044A000029B5B8AB3F5806F20D94FF00008284B40
:1044B00033F91800082390FBF3F008F10108FCF72A
:1044C000ADF9B8F1030FF2D1DFF88C80B8F9000034
:1044D000FCF7A4F9B8F90200FCF7A0F9B8F9040058
:1044E000FCF79CF90020FCF799F95AE0B5F964054E
:1044F000FCF794F9B5F96605FCF790F9B5F968058C
:10450000FCF78CF9E0E7134B13F8080008F10108F9
:10451000FCF742F9B8F1100FF5D165E07009002001
:10452000B0000020000C01405C06002024000020A8
:1045300000100240086C00400400FA0500ED00E0A5
:10454000EFBEADDEF04F00205801002058060020DD
:10455000140600204A060020240900201020FCF741
:1045600049F94FF00008B64B33F9180008F101087B
:10457000FCF754F9B8F1080FF5D135E0DFF8D8822F
:104580000620FCF737F9B8F90000FCF747F9B8F94D
:104590000200FCF743F9B5F9800506E00420FCF7BA
:1045A00029F90020FCF73AF90020FCF737F91BE065
:1045B0000020FCF71FF9012385F8983514E0A14B82
:1045C00013F8080008F10108FCF7E6F8B8F10B0F42
:1045D000F5D10020FCF711F90020FCF70EF903E0FB
:1045E00001200021FCF7E8F823681879FCF7D4F8DB
:1045F0002368002283F8892089E601364FE6036CA0
:1046000013B100F2A2509847FDF7DAF9B7F9043078
:104610008D4C83EAE371B4F90420A1EBE3716FF0F0
:104620006308C1EB0808424505DB01F164039342CE
:10463000A8BF13469846B7F90600A4F80480FDF712
:1046400083FF8246B4F90200FDF77EFF8146B4F98C
:104650000000FDF779FF83467C4F002357F8081CC4
:1046600050460193FDF7C4FF396800904846FDF7B6
:10467000BFFF009A01461046FDF7B2FE57F8041C32
:1046800000905846FDF7B4FF009A01461046FDF72A
:10469000A7FE0090C8F10000FDF756FF7968FDF70E
:1046A000A7FF009A01461046FDF79AFEFEF766F94D
:1046B000674C019B04F29A5626F813000133042B31
:1046C00007F11007CAD1B4F99A35B4F99C25B4F8AA
:1046D00026749342B8BF1346B4F99E2594F89AE421
:1046E0009342B8BF1346B4F9A02500209342B8BF47
:1046F000134604F5B36499B240F2DA730AB29A42EF
:10470000C1BF6388C1F5FB6202329B18C8BF6380DA
:1047100040F2DD3334F9022F9A4205DD40F2DA73BC
:104720009342A8BF134601E040F2DE33238040F2FB
:104730004B433AB29A42DCBF40F2DE332380BEF1F3
:10474000000F03D1434B33F810302380013004288D
:10475000D2D1002495F8BD32E0B2834236F814106D
:1047600003D93B4BD3F8B83298470134042CF1D12C
:10477000FFF757B84FF4FF637382FEF7D6BCD4F847
:10478000AC24042A3FF61CA901A151F822F000BF75
:104790008D3900089F390008BB390008BB39000873
:1047A000BB390008D7F8A4249A1A002AFFF6F4A807
:1047B00003F51C5397F8A8141033C7F8A43459B95B
:1047C00020AA512302F8503D7020FCF700FC00287D
:1047D0003FF4E2A8012315E0012912D170208F21B6
:1047E000022215ABFBF76EFF00283FF4D5A89DF819
:1047F00054209DF8553003EB0223A7F8AA34022376
:1048000000E0002387F8A834FFF7C6B81BB283EA9C
:10481000E37112B2A1EBE37182EAE273A3EBE273FC
:104820008B42B8BF0B460FFA83FBBBF1FA0FC7F8F8
:10483000B00413DD4FF6FF73A7F8AA3425E000BFDC
:10484000D00400201C6000084C090020200100203A
:10485000B00000205801002018090020B7F9AA0470
:10486000FDF772FE80465846FDF76EFE01466A4827
:10487000FDF7B4FD01464046FDF7BAFE6649FDF777
:104880006BFFFEF77BF8A7F8AA04DFF8ACA1DFF80E
:10489000AC91DAF80000FDF753FE60490090FDF797
:1048A000A7FE0746D4F8BC04FDF74EFE8046D4F8B8
:1048B000C004FDF749FE01464046FDF74DFFE16D9E
:1048C0008046FDF795FE009B1946FDF791FE4FF0DF
:1048D0007C510190FDF78CFE3946FDF789FED4F836
:1048E000C81400903846FDF783FE009A0146104632
:1048F000FDF776FD0146D4F8C404FDF771FDB4F967
:10490000AA14C4F8C4044648C4F8CC14FCF70AFC42
:10491000019BD4F8C8141846FDF762FD0027CAF8B9
:104920000070C4F8C804C4F8B474C4F8B874C4F807
:10493000BC74C4F8C07400F00BF905218246FCF782
:10494000A3F9BBF5487FC4F8D00455DAD9F8CC34C4
:1049500034485B42B3F5FA7FA8BF4FF4FA7398422C
:10496000B8BF18460A21FCF78FF932224243802053
:1049700092FBF0F2B2F5967FA0F5D670A8BF4FF487
:1049800096728242ACBFCAEB0202CAEB0002D9F8AF
:10499000D4342D2101FB0233234920278B42A8BFA9
:1049A0000B4622498B42B8BF0B4678214A4392FB03
:1049B000F7F242F20407C9F8D43493FBF7F3B2F5E7
:1049C000967FA8BF4FF496728242ACBF9F181F1803
:1049D000D9F8DC144046FDF703FD4FF06C51FDF7AC
:1049E00007FEFDF7CBFF9628A8BF96206FF0950332
:1049F0009842ACBF3F1AFF1AC9F8D874C4F8DC84D7
:104A0000FEF7DBBF0A4900220A604A608A60094952
:104A10000A604A60FEF780BF00006144BD378635FA
:104A2000186000080CFEFFFF20031900E0FCE6FF01
:104A30000C0900201C09002074090020B00000208F
:104A400019481A49026800608A4217D0002103E021
:104A5000174B5B58435004311648174B42189A4283
:104A6000F6D3164A02E0002342F8043B144B9A4264
:104A7000F9D3FCF7A5FDFDF7A7FFFEE7114E12489D
:104A800030601248016821F07061016041020160EC
:104A90000F4C182020600F490F4808600F48D0F8CD
:104AA00000D0406800470000F04F0020EFBEADDEB0
:104AB0002C64000800000020B0000020B00000209E
:104AC0007C09002018100240090000000400014089
:104AD000140C0140000C01404434434400F0FF1F1B
:104AE000FEE7000000B5194A20F00043934283B06E
:104AF000014617DDB3F1FF4F04DBFDF76FFC03B098
:104B00005DF804FB694600F07DF900F00302012A1C
:104B10000098019911D0022A0AD09AB1012200F01E
:104B200035FFECE7002100F033FB03B05DF804FB38
:104B300000F02EFB00F10040E1E700F027FF00F15C
:104B40000040DCE700F024FBD9E700BFD80F493F65
:104B500030B5C0F3C755A5F17F021E2A83B00146C8
:104B600021DC501C1CDB162A4FEAD1740ADDC1F38C
:104B7000160343F40003963DAB40604243401819CE
:104B800003B030BD0F4B53F824502846FDF728FCE6
:104B9000019001982946FDF721FC20F0004333B92C
:104BA000002003B030BDFDF7E9FE03B030BDC0F317
:104BB0001603C0F3C75043F40003C0F19600C3408E
:104BC000DBE700BF2860000800B51D4A20F0004365
:104BD000934283B0014618DDB3F1FF4F04DBFDF7CC
:104BE000FDFB03B05DF804FB694600F00BF900F033
:104BF0000300012818D002280ED0D0B100980199E6
:104C000000F0C6FA00F10040EBE70021002200F0BE
:104C1000BDFE03B05DF804FB00980199012200F08D
:104C2000B5FE00F10040DCE70098019900F0B0FA11
:104C3000D7E700980199012200F0A8FED1E700BF54
:104C4000D80F493F00F04EB870B58AB0064600F064
:104C50004BFA224D044695F90030013308D0304616
:104C600001F06CF820B130460021FDF75FFE10B96D
:104C700020460AB070BD1A49012200233046019136
:104C800000920893FDF7F0F82C78CDE90401CDE906
:104C900002017CB900220023CDE90623684600F01A
:104CA000EBFE88B1089BA3B9DDE90601FDF742FBE5
:104CB0000AB070BD0020002102460B46FDF752FAF3
:104CC000022CCDE90601E9D101F0B0F821230360FF
:104CD000E8E701F0ABF8089B0360E5E74800002037
:104CE00030600008F8B521F00044B4F1FF4F0346EE
:104CF00014DC20F00046B6F1FF4F07460EDCB1F1A0
:104D00007E5F3AD08D1705F0020545EAD07556B999
:104D1000022D30D0032D2BD13148F8BD084619465D
:104D2000FDF75EFBF8BDFCB1B4F1FF4F29D0B6F141
:104D3000FF4F19D0341BE4153C2C1ADC002938DB5A
:104D40001846FDF709FD00F0AFFF00F097FE012DBA
:104D50002CD0022D22D0002D2FD02249FDF740FB70
:104D60002149FDF73BFBF8BD002F15DB1F48F8BDBF
:104D7000F8BD1E48EBE71C48F8BDBDE8F84000F060
:104D80007DBEB6F1FF4F19D0022DF4D0032DC3D054
:104D9000012D1BD00020F8BD1548F8BD1149FDF7C5
:104DA0001FFB01461048FDF719FBF8BD00F100405C
:104DB000F8BD3C34C4DA0020C9E7F8BD022D0CD0A0
:104DC000032D08D0012D04D00A48F8BD4FF0004053
:104DD000F8BD0948F8BD0948F8BD0948F8BD00BF4D
:104DE000DB0F49C02EBDBB33DB0F4940DB0FC93F92
:104DF000DB0FC9BFDB0F493FDB0F49BFE4CB16C058
:104E0000E4CB16402DE9F04FAA4A20F0004494422A
:104E100089B007460D4664DDA74A94421CDC002891
:104E2000A64940F3EB80FDF7D9FAA54B24F00F0417
:104E30009C42064664D0A349FDF7D0FA01463046AD
:104E40002960FDF7CBFA9F49FDF7C8FA0123686096
:104E5000184609B0BDE8F08F9B4A944262DDB4F178
:104E6000FF4F46DAE615863EA4EBC6542046FDF712
:104E700085FDFDF769FB0346204619460593FDF7BE
:104E8000ADFA4FF08741FDF7B3FB8046FDF776FDA5
:104E9000FDF75AFB0446404621460694FDF79EFA6C
:104EA0004FF08741FDF7A4FB00210790FDF734FD8B
:104EB000002800F0C48020460021FDF72DFD0028C9
:104EC00014BF012302238148022101900091324640
:104ED00005A8294600F020FA002FC0F2A68003465C
:104EE00003E00022286000234A60184609B0BDE8AC
:104EF000F08F0146FDF772FA002368602860F4E73E
:104F00007349FDF76BFA73490446FDF767FA0146EA
:104F100020462960FDF762FA6E49FDF75FFA01232A
:104F20006860E2E700F0C0FE6B498046FDF760FB79
:104F30004FF07C51FDF754FAFDF720FD0646FDF7D2
:104F400003FB5E498346FDF753FB01464046FDF7F0
:104F500045FA5C4981465846FDF74AFB82461F2EBA
:104F60004846514618DC5D4B721E53F8223024F03F
:104F7000FF029A4210D0FDF731FA8046C5F8008052
:104F800041464846FDF72AFA5146FDF727FA002F19
:104F9000686056DB3346A8E7FDF720FAE215C0F358
:104FA000C753D31A082B8046E8DD49495846039277
:104FB000FDF71EFB804648464146FDF70FFA0446C2
:104FC00048462146FDF70AFA4146FDF707FA8046B2
:104FD00040495846FDF70CFB4146FDF7FFF9824674
:104FE00020465146FDF7FAF9039AC0F3C753D21A87
:104FF000192A804641DC2860A146C1E7FDF7F0F997
:105000002F4B24F00F049C42064623D02D49FDF778
:10501000E7F9014630462960FDF7E0F92949FDF737
:10502000DFF94FF0FF3368605FE795E80C0002F1AD
:10503000004103F10042296043426A6055E70323BF
:1050400041E708F1004800F10040C5F800806860C1
:1050500073424AE71E49FDF7C3F91E490446FDF7AE
:10506000BFF9014620462960FDF7B8F91949FDF757
:10507000B7F94FF0FF33686037E719495846FDF735
:10508000B7FA804620464146FDF7A8F981462046FA
:105090004946FDF7A3F94146FDF7A0F90446114939
:1050A0005846FDF7A5FA2146FDF798F9824648468D
:1050B000514660E7D80F493FE3CB1640800FC93F08
:1050C000D00FC93F43443537800F4943B8600008CB
:1050D0000044353708A3852E84F9223F3860000844
:1050E00000A3852E32318D2420F00042B2F1FF4F13
:1050F00070B5034604462DD25AB300283DDBB2F505
:10510000000F4FEAE0502CD3002631467F38C3F31E
:105110001603C20743F4000348BF5B0040105B0066
:1051200019244FF080728D189D4202DC5B1BA91878
:105130001644013C4FEA43034FEA5202F3D113B144
:1051400006F001031E44761006F17C5606EBC050B3
:1051500070BD70BD0146FDF74BFA2146FDF740F9E1
:1051600070BD14F400020FD15B00190202F10102BC
:10517000FAD5C2F101021044C6E70146FDF72EF947
:105180000146FDF7E9FA70BD01221044BCE700BFFB
:105190002DE9F84320F00044B4F1485F06460F467D
:1051A00049DAFDF7EBFB002800F09D8031463046E0
:1051B000FDF71EFA05464E49FDF71AFA4D49FDF76F
:1051C0000FF92946FDF714FA4B49FDF707F929466F
:1051D000FDF70EFA4949FDF703F92946FDF708FAEC
:1051E0004749FDF7FBF82946FDF702FA4549FDF767
:1051F000F7F82946FDF7FCF9804628464FF07C5128
:10520000FDF7F6F9414604462846FDF7F1F939461F
:1052100005463046FDF7ECF901462846FDF7DEF875
:1052200001462046FDF7DAF801464FF07E50FDF7C3
:10523000D5F8BDE8F8830146FDF7DAF905462C49B3
:10524000FDF7D6F92B49FDF7CBF82946FDF7D0F944
:105250002949FDF7C3F82946FDF7CAF92749FDF7A3
:10526000BFF82946FDF7C4F92549FDF7B7F82946E7
:10527000FDF7BEF92349FDF7B3F82946FDF7B8F964
:10528000214B80469C42B8DD204B9C4227DC04F138
:105290007F4421464FF07E50FDF7A0F88146284616
:1052A0004FF07C51FDF7A4F92146FDF797F84146F0
:1052B00004462846FDF79CF9394605463046FDF779
:1052C00097F901462846FDF789F801462046FDF783
:1052D00085F801464846FDF781F8BDE8F883DFF818
:1052E00034900B4CDBE74FF07E50BDE8F88300BFF5
:1052F0004ED747ADF6740F317CF29334010DD037A1
:10530000610BB63AABAA2A3D9999993E0000483FF5
:105310000000903E0000383F2DE9F04F1C46DFB002
:105320000891611E01910A936899BA4B039053F852
:10533000213001980793D31E48BF131DDB1023EAC9
:10534000E37319460C93DB4302EBC3030693079BFD
:105350000D1AC41815D42C44013421AE699F08E0FD
:1053600057F82500FDF7F0F80135A54246F8040F7F
:1053700007D0002DF4DA01350020A54246F8040FCD
:10538000F7D1079B002B2CDB079B0A9A1946019B40
:1053900001EB0208C2EB827722AA02EB830502EB43
:1053A0008808BF0049AE019B002BC0F2F5812C4656
:1053B000039B05EB0709A3F1040B4FF0000A54F817
:1053C00004095BF8041FFDF713F901465046FDF789
:1053D00007F84C458246F2D10435454546F804AFFE
:1053E000E1D1079B0EA91D4603F18043013B9B00C1
:1053F0001A1D0A440B440D920B93AB005EA91A468A
:105400000293002D0B4453F8508C20DD4AAFBC189A
:105410000DAE4FF06E514046FDF7EAF8FDF7AEFADB
:10542000FDF792F84FF087418146FDF7E1F801461C
:105430004046FCF7D3FFFDF7A1FA54F8041D46F8E7
:10544000040F4846FCF7CCFFBC428046E1D1069EE3
:105450004046314600F08CFC4FF078510446FDF791
:10546000C7F800F025FC4FF08241FDF7C1F8014676
:105470002046FCF7B3FF0446FDF780FA0746FDF728
:1054800063F801462046FCF7A9FF002E804634460B
:1054900040F36A81691E0EAB53F82130C6F1080053
:1054A00043FA00F202FA00F69E1B0EA8C4F10703AD
:1054B00040F8216017441E41002E2FDD002D07F11A
:1054C000010740F3F481002214460DA907E0C3F55B
:1054D00080700BB108600124013295420BDD51F858
:1054E000043F002CF3D00132C3F1FF0395420B605F
:1054F0004FF00104F3DC069B002B0DDD012B00F0C7
:105500003A81022B08D16A1E0EAB53F822300EA945
:1055100003F03F0341F82230022E7DD040460021A7
:10552000FDF7FAF9002800F09180079B6C1EA3425A
:105530000DDC029B0EAA0D981344002253F8041DA3
:10554000834242EA0102F9D1002A40F09981079B87
:105550000EAA013B52F82330002B40F0A6810B9A93
:10556000012352F8041D01330029FAD0EB181A4622
:1055700009936B1C934241DC0C9A9E180A9B099A72
:1055800005EB030B06F18046551B699A013E02EBC1
:105590008606AA004FEA8B03049222AA02EB0309B3
:1055A0000593029B4AAA02EB0308002556F8040F54
:1055B000FCF7CAFF019B49F8040B002B20DB029A81
:1055C000059BAC18EB1822AAD718039B4FF0000BD1
:1055D0001444A3F1040A57F804095AF8041FFDF70C
:1055E00007F801465846FCF7FBFEA7428346F2D176
:1055F000049B04359D4248F804BFD7D1099DFCE6C1
:10560000049B04354FF0000B9D4248F804BFCDD1F8
:10561000F4E700BFD063000841464FF07E50FCF72E
:10562000DDFE8046002C3FF479AF06994FF07E50A6
:1056300000F09EFB01464046FCF7D0FE804600216C
:105640004046FDF769F900287FF46FAF069B40469E
:105650005942029700F08CFB4FF087410446FDF75A
:1056600079F9002800F087814FF06E512046FCF751
:10567000BFFFFDF783F9FCF767FF4FF0874107464F
:10568000FCF7B6FF01462046FCF7A8FEFDF776F9C9
:105690000EAB43F825003846FDF770F9069B6C1CED
:1056A000083306930EAB43F8240006994FF07E5062
:1056B00000F05EFB002C0746C0F2CB80631C9D000F
:1056C00001930EAB03EB050A4AAB03EB05095AF84D
:1056D000040DFCF739FF3946FCF78AFF4FF06E5195
:1056E00049F8040D3846FCF783FF0EAB9A45074690
:1056F000EDD1083D4AABDDF81CA0DDF804B003EBAA
:105700000509002703960494BAF1000FC0F29E80A9
:10571000002FC0F29B809C4E4C464FF000080025A5
:1057200001E0BD420DDC54F8041F56F8040BFCF7F1
:105730005FFF01464046FCF753FE0135AA4580460F
:10574000EFDA5EAB03EB870301375F45A9F104098C
:1057500043F8A08CD8D1689B039E049C032B58D897
:10576000DFE803F05D3232A70FD16B1E0EAA52F8AC
:1057700023603612A0E66A1E0EAB53F822300EA943
:1057800003F07F0341F82230C6E64FF07C51FDF76D
:10579000E1F850B90646C1E604354FF0000A454528
:1057A00046F804AF7FF4FFAD1BE6002D07F10107BB
:1057B000C8BF02263FF787AE41464FF07E50FCF748
:1057C0000DFE02268046A9E6019B36AD05EB830857
:1057D000002058F8041DFCF703FEA845F9D1002E5F
:1057E00041D0089A00F10043014613603698FCF757
:1057F000F5FD002C09DD36AF0125013557F8041FF2
:10580000FCF7EEFDAC42F8DA0EB100F10040089B67
:105810005860029B03F007005FB0BDE8F08F019B6A
:1058200036AA002002EB8308013C58F8041DFCF75F
:10583000D7FD631CF8D10EB100F10040089B186041
:10584000029B03F007005FB0BDE8F08F4FF0000847
:1058500077E7689B032BDCD8DFE803F010020287B0
:105860000020002EBDD1089B014618603698FCF739
:10587000B5FD002CBFDC089B5860CAE70020DAE7C2
:10588000069A0EAB53F82430083A02970692002B82
:105890007FF40BAF0EAB03EB840353F8041D013C04
:1058A000083A0029F9D00692FFE601235EE60024BB
:1058B00021E6002C59DDA5005EAB2B440DF1D80884
:1058C00053F8A09C08EB050757F804BD4846594615
:1058D000FCF786FD824658465146FCF77FFD01469F
:1058E0004846FCF77DFD4745D1467860C7F800A0E3
:1058F000EAD1012C39DD5EAB2B4453F8A04C08EB08
:1059000005070DF1DC0B57F804AD21465046FCF7B6
:1059100067FD814650464946FCF760FD2146FCF78D
:105920005FFD5F454C467860C7F80090EBD10435C9
:1059300008EB0504002038AD54F8041DFCF750FDB9
:10594000AC42F9D1A6B1369A379B00F1004002F182
:10595000004203F10043089C6360029BA06003F0D7
:10596000070022605FB0BDE8F08F0020002EEAD172
:10597000369A379BEFE72046FDF700F80EAB2C4632
:1059800043F8250091E600BFDC6300082DE9F843E9
:1059900020F00043B3F1485F04460F46904603DA17
:1059A000FCF7ECFF002857D021462046FCF720FEEC
:1059B00021460546FCF71CFE294906462846FCF709
:1059C00017FE2849FCF70AFD2946FCF711FE264977
:1059D000FCF706FD2946FCF70BFE2449FCF7FEFC0C
:1059E0002946FCF705FE2249FCF7FAFC8146B8F18E
:1059F000000F22D038464FF07C51FCF7F9FD4946A4
:105A000080463046FCF7F4FD01464046FCF7E6FCD4
:105A10002946FCF7EDFD3946FCF7E0FC1549054643
:105A20003046FCF7E5FD01462846FCF7D9FC014667
:105A30002046FCF7D3FCBDE8F88349462846FCF72E
:105A4000D7FD0C49FCF7CAFC3146FCF7D1FD2146D5
:105A5000FCF7C6FCBDE8F8832046BDE8F88300BF2C
:105A6000D3C92E2F342FD7321BEF3836010D5039C2
:105A70008988083CABAA2A3E002070472DE9F041F6
:105A800020F00045B5F1A14F0446064608DBB5F10C
:105A9000FF4F6FDC002840F3A0806F48BDE8F08125
:105AA0006E4B9D4277DCB5F1445F68DB4FF0FF370A
:105AB00021462046FCF79CFD01468046FCF798FDF8
:105AC00005466749FCF794FD6649FCF789FC2946C1
:105AD000FCF78EFD6449FCF783FC2946FCF788FD42
