:020000040800F2
:1000000000500020894400082945000829450008BF
:10001000294500082945000829450008000000007E
:10002000000000000000000000000000294500085A
:100030002945000800000000294500080D050008BA
:1000400029450008294500082945000829450008D8
:1000500029450008294500082945000829450008C8
:1000600029450008294500082945000829450008B8
:100070002945000829450008AD1600082945000853
:100080002945000829450008294500082945000898
:100090002945000829450008294500082945000888
:1000A000294500082945000829450008490F00088E
:1000B000410F0008350F00082B0F00081F0500082E
:1000C0001B0800081D05000819080008294500083C
:1000D0002945000877160008294500082945000829
:1000E00029450008294500082945000800000000AE
:1000F0000000000000000000000000000000000000
:0C01000000000000000000005FF808F1A3
:100110007047044B4FF4805208B11A6170475A611E
:10012000704700BF00080140034B4FF4805208B1F4
:100130005A6170471A617047000801408748F0B55E
:100140000368874A9C8AA4B2E1B211F0010F32D051
:100150001988844C21F400610904090C198019885C
:1001600089B241F480611980002111707E490978BB
:10017000A9B1517819B97D490978FF290FD1012119
:1001800051707B490978022901BF198889B241F46D
:1001900000611980217841F001011982FFE0217886
:1001A00001F0FE011982714B1B78FF2B00F0F780E4
:1001B000FF231370F3E08E073CD5BFF35F8F6C49CC
:1001C0000C78E4B2012C14D1674D2D788DB155789F
:1001D0007DB1198821F480610904090C1980BFF3ED
:1001E0005F8F198B1988947089B241F4007119805E
:1001F0001BE01C8BBFF35F8F0C78022C0BD15A4C89
:10020000247844B1547834B1198821F48061090408
:10021000090C1980BDE00978032906D152490978F3
:1002200019B15178002940F0B480998889B241F41D
:100230008061B3E04D075BD5012191704A4909788F
:1002400000293AD05178002937D04949494D0978D9
:100250001C88022911781ED924F480642404240CFB
:100260001C801E8A2F68CCB2F6B249B27E5419881F
:100270002D6889B241F4007119800168A31C1370C4
:100280000B8A0134DBB264B22B558B889BB243F4EA
:1002900080638B8027E0A4B244F400741C802E6835
:1002A0001D8ACCB2EDB249B275541B8A611C49B2A9
:1002B000DBB203347354147015E0517811B92E4930
:1002C000097841B1198889B241F400711980137815
:1002D0000133137007E0198889B241F480711980E5
:1002E0001F4B0121597001680B88DC05FCD456E0D6
:1002F00001F0400101F0FF061D4DE9B114781D49E0
:100300001F8AD1F800E0E6B2FFB264B2711CC9B234
:100310000EF8047011702F7849B2CC1CA74205D199
:100320009C8824F480642404240C9C802B789942BB
:1003300035D10236167032E0210630D511784CB234
:10034000671C1DD00D4E01313668C9B2345D117085
:100350001C822C7849B28C4221D11AE0A8080020D6
:1003600064060020980800209B08002099080020BF
:10037000A4080020A00800209A0800209C08002063
:1003800012491670097819821149097809B9297832
:1003900029B9998821F480610904090C99800D4BD1
:1003A00092F900201B780C4901339A420DD10023A9
:1003B0004B708B7833B10268938823F440731B042D
:1003C0001B0C9380054B00221A70F0BD9908002089
:1003D0009B080020A408002064060020A508002037
:1003E00030B5002385B0ADF80A30ADF80430ADF873
:1003F0000630ADF80830ADF80C3003790446DA0762
:1004000044BF0422ADF80A209B0748BFBDF80A305C
:100410000D46009148BF43F008036946806C48BF11
:10042000ADF80A3000F0E2FFA56005B030BD836A88
:100430008169426B1944D160416A8B4229BF0169CD
:10044000CB1ACB1A53602ABF0023536083624FF04C
:10045000000380F84430136838BF816243F0010321
:1004600013607047014B5B68184700BF64060020AB
:1004700030B5094A094D9168AB689068064C8142D5
:10048000F9D1E2684FF47A704243E468D31AB3FBBF
:10049000F4F300FB013030BD6406002010E000E002
:1004A00038B50446FFF7E4FF0546FFF7E1FF401BC0
:1004B000A042FAD338BD10B504462CB14FF47A707F
:1004C000FFF7EEFF013CF8E710BD40F2DB15684393
:1004D0000D4C08B51023236108236361851EE36872
:1004E000284683F01003E360E36883F00803E360C9
:1004F000FFF7E1FF0120FFF7B5FF1920FFF7DBFF52
:100500000020FFF7AFFFEAE7000C0140024A9368C2
:1005100001339360704700BF640600200EE60DE6CD
:100520002DE9F043B1F800E000234FF00F0C012655
:100530004EFA03F2D20729D58D78DF0815F0100F97
:1005400018BF91F8039003F0070805F00F024FEA77
:10055000880850F8274018BF42EA09020CFA08F947
:1005600024EA090402FA08F22243282D40F8272041
:1005700005D1C26806FA03F422EA040205E0482D18
:1005800004D1C26806FA03F42243C2600133102B7F
:10059000CED1BDE8F083012828BF01202DE9F04F1E
:1005A0000546142000FB05F36B4FDFF8C881FA18ED
:1005B000FB581169C8F80030684B16891D74684BE8
:1005C000B2F80AA0DC6989B02143546846EA0A09F6
:1005D000D9610222C4F8109003A98DF80E002046BC
:1005E0000193ADF80C908DF80F20FFF799FF019B58
:1005F00000971F464FF0080BA268324203D10A2031
:10060000FFF74EFFF8E70A206661FFF749FF266112
:100610000A20FFF745FFBBF1010BEDD1C4F814A090
:100620000A20FFF73DFF66610A20FFF739FF2661C8
:100630000A20FFF735FF0222C4F810A003A92046C4
:100640008DF80F201C228DF80E20ADF80C90FFF7CE
:1006500067FFD8F80040434A03A894423A690BBFA9
:1006600042F4001242F480023A613A610BBF3A69E7
:100670003A6922F4001222F480023A61A38823F43A
:1006800040731B041B0CA38023889BB243F001031F
:100690002380A68800F062FE0599334B26F03F06C2
:1006A000B1FBF3F33604360C1E43B6B2A6802288A3
:1006B000002622F001021204120C22802B4A03A809
:1006C000B1FBF2F100298AB208BF012242F40041D5
:1006D0004FF4967253434FF47A7293FBF2F3013363
:1006E0009BB22384A1832388009A9BB243F0010329
:1006F0002380238823F4816323F002031B041B0C53
:1007000023804FF480432381142303FB05256B7B57
:1007100001248DF80C308DF80D608DF80E608DF889
:100720000F4000F0F7FD2B7B9DF80F208DF80C306B
:100730008DF80D601AB103A800F0ECFD08E05A092D
:100740000B4903F01F0304FA03F3203241F822306F
:1007500009B0BDE8F08F00BF2C5A000864060020E5
:10076000001002400054004040420F00804F120031
:1007700000E100E0A808002013B5234C23689A8A02
:1007800092B20192019A12F4706F1EBF1F4A0121AA
:100790001170019A12F4E06F2AD01A8B9A8822F411
:1007A00080621204120C9A80019A910520D41A8852
:1007B00092051DD41A88D0050FD51A88D105FCD40E
:1007C0001A8892B242F400721A801A889205FCD4F8
:1007D0000F4B187CFFF7DFFE0AE01A8892B242F452
:1007E00000721A809A8822F440721204120C9A80C5
:1007F0002268938A23F470631B041B0C9382054BBD
:1008000000221A7002B010BDA8080020A60800201F
:1008100064060020A5080020AEE7ADE7054A08B54C
:10082000538A107C01339BB25382FFF7B4FE002041
:1008300008BD00BF6406002010B440001F4CC0B2C9
:1008400020701F481F4C01701F48002101700120BB
:1008500020701E4C23601E4C23601E4B1A701E4AD3
:100860001E4B107019701E49086811461A4610B3C5
:1008700083889C0514D40388DB050CD447F23053DD
:100880000488A40502D5013BFAD10FE003889BB28E
:1008900043F48073038083889BB243F44073838066
:1008A00047F23053087818B1013BFBD110BCB5E7D3
:1008B000107880F0010010BC704700BF980800203D
:1008C000990800209B0800209A080020A00800201A
:1008D0009C080020A4080020A5080020A6080020ED
:1008E000A808002038B504460D46242000F0F4FF87
:1008F0004D2000F0F1FF002C094C14BF21203E20B8
:1009000000F0EAFF2368002228461A7100F0E4FF95
:10091000236893F88600BDE8384000F0DDBF00BFD3
:100920002400002001460020DCE7074B1A685379B9
:10093000D118981C0133DBB289791344507198792E
:1009400001EB002080B270472400002010B504465F
:10095000C0B200F0C1FFC4F3072000F0BDFFC4F334
:10096000074000F0B9FF200EBDE8104000F0B4BF12
:1009700010B50446C0B200F0AFFFC4F30720BDE8D5
:10098000104000F0A9BF00BF024B186803681B6845
:10099000184700BF60030020F8B50746104C114E01
:1009A00004EB811101F10C0400257119388A4B8880
:1009B000BA89034292B20DD013420BD0DB439BB2F3
:1009C0003B8238464B68984754F8043C01460BB1CB
:1009D000207898470835202D04F11004E5D1F8BDA2
:1009E00090070020545A0008024B53F820301B682F
:1009F00019807047D40400200328104B0BD8104AEC
:100A000012888A4207D2012202FA00F093F80021EC
:100A1000104383F8000193F800310F2B0CD1074BE2
:100A2000084A002183F80011138818B2142802DD47
:100A3000143B138070471180704700BF900700205F
:100A4000140000206C050020134B10B5B3F80221F0
:100A5000A3F80211891A40F68C2289B291421C46F1
:100A600003D9002283F8042110BD40F2DA52A1F22A
:100A7000EF239BB2934208D894F80401072804D8C6
:100A8000064B23F81010FFF7B7FF94F80431013339
:100A900084F8043110BD00BF900700204A090020EF
:100AA00030B57A4B1C78038C91BB23F001031B04F7
:100AB0001B0C0384018B038C89B221F0F30141F0FC
:100AC000010141EA0411724C9BB2A04212D004F51C
:100AD0000064A0420ED0B0F1804F0BD0A4F5983442
:100AE000A04207D004F58064A04203D004F58064DE
:100AF000A04202D123F0020301E023F00A0343F0F5
:100B000001031A4301830284038B23F00C033AE0B0
:100B100004293FD123F010031B041B0C0384038B17
:100B2000018C23F440731B051B0D43F4807343EACF
:100B30000433574C89B2A0429BB212D004F5006432
:100B4000A0420ED0B0F1804F0BD0A4F59834A04253
:100B500007D004F58064A04203D004F58064A0426D
:100B600007D121F0200141F0100141EA021292B2B6
:100B700004E021F0A00141F010010A430383028444
:100B8000038B23F440631B041B0C0383038B9BB276
:100B9000038330BD082937D123F480731B041B0C59
:100BA0000384818B038C89B221F0F30141F00101B0
:100BB00041EA0411364C9BB2A04212D004F5006405
:100BC000A0420ED0B0F1804F0BD0A4F59834A042D3
:100BD00007D004F58064A04203D004F58064A042ED
:100BE00007D123F4007343F4807343EA022292B2E4
:100BF00004E023F4206343F480731A438183028466
:100C0000838B23F00C0339E023F480531B041B0C6B
:100C10000384818B038C21F4407109059DB2090D79
:100C20001B4B41F4807141EA0431984289B212D0E1
:100C300003F5006398420ED0B0F1804F0BD0A3F5BE
:100C40009833984207D003F58063984203D003F5A8
:100C50008063984207D125F4005343F4805343EA5C
:100C6000023292B205E047F6FF532B4043F4805323
:100C70001A4381830284838B23F440631B041B0C7F
:100C80008383838B9BB2838330BD00BF78030020B6
:100C9000002C0140F8B5164F182303FB0073DA7BD4
:100CA0000446144E05012AB90122DA731982022280
:100CB000731917E040F2DA501A8A5982891A89B2F8
:100CC000A1F2EF2292B28242998205D8987B0A4B18
:100CD00023F81010FFF790FE182303FB0474002282
:100CE000E2737319197B7059BDE8F840D8E600BF6C
:100CF00084030020445900084A09002008B1014B30
:100D0000187070472800002008B1014B58707047D8
:100D1000280000201FB5044602AB062243216820AC
:100D2000FFF78AFD9DF809309DF80820042143EA69
:100D3000022212B292FBF1F29DF80A30ADF80020C7
:100D40009DF80B20684642EA032212B292FBF1F2B0
:100D50009DF80C30ADF802209DF80D2042EA0323E7
:100D60001BB293FBF1F3ADF80430034B21461A7824
:100D700000F04CFC04B010BD280000201FB5044654
:100D800002AB06223B216820FFF756FD9DF80820A4
:100D90009DF80930214643EA0223ADF800309DF862
:100DA0000A209DF80B30684643EA0223ADF8023072
:100DB0009DF80C209DF80D3043EA0223ADF8043075
:100DC000024B5A7800F022FC04B010BD280000202D
:100DD0002DE9F04F0C68836889B0D0F80080D0F816
:100DE00004900746204602938A4603F09FFB019039
:100DF000204603F013FCDAF804400546204603F0D1
:100E000095FB0646204603F009FCDAF808A00446E4
:100E1000504603F08BFB8346504603F0FFFB5946D8
:100E20008246019801F090FA51460390019801F032
:100E30008BFA59460490284601F086FA51460590EF
:100E4000284601F081FA05990690204601F07CFAC7
:100E5000049901F071F9494601F076FA5946079074
:100E6000304601F071FA414601F06EFA079A0146E8
:100E7000104601F061F903998346204601F064FAB7
:100E80000146069801F056F9029901F05DFA014613
:100E9000584601F051F95146386006F1004001F022
:100EA00053FA414601F050FA06998246204601F075
:100EB0004BFA0146039801F03DF9494601F044FA26
:100EC0000146504601F038F904998246204601F067
:100ED0003BFA059901F030F9029901F035FA014623
:100EE000504601F029F93146786005F1004001F0E3
:100EF0002BFA494601F028FA41460546204601F002
:100F000023FA0146284601F017F9314604460198B4
:100F100001F01AFA029901F017FA0146204601F091
:100F20000BF9B86009B0BDE8F08F0321004833E544
:100F300000080040022101482EE500BF00040040E7
:100F400001214FF0804027E50021014824E500BF42
:100F5000002C0140084B9A8998811989064AC907D3
:100F6000FBD59089C0B21389034913F0020FFAD060
:100F70000B891B06FCD4704700380040484B2DE914
:100F8000F347484E182707FB0037040106EB040A15
:100F9000DAF80830BA73ADF8043080462823DAF85E
:100FA00004008946022501A98DF806308DF8075006
:100FB000FFF7B6FA34599AF80C6000223146204601
:100FC000FFF76EFD4FF6FF71204600F00DF9238804
:100FD00001A89BB243F0010323809AF80D304FF033
:100FE000010A8DF804308DF805A08DF806A08DF863
:100FF00007A000F08FF92C4B9C420DD0B4F1804F2C
:101000000CD0A3F594339C420AD003F580639C4234
:101010000CBF0323042304E0002302E0534600E056
:101020002B4636B1042E31D0082E31D00C2E0DD1E6
:1010300030E03246042B09D002EB83031B4A02EB5B
:101040000313C3F808901E7183F80C800C2E23D86C
:10105000DFE806F0072222220C222222112222227D
:101060001600A3899BB243F002030DE0A3899BB253
:1010700043F0040308E0A3899BB243F0080303E0B4
:10108000A3899BB243F01003A38105E00122D1E7BD
:101090000222CFE70322CDE7384602B0BDE8F08751
:1010A0008403002044590008002C014090070020D0
:1010B00007B502AA02F8011D0146682000F05CF89D
:1010C00003B05DF804FB00BFB0F8400080B2704789
:1010D000808F80B27047008F80B27047808E80B260
:1010E0007047016B0346C26810B5406941B1196C85
:1010F000541A013918BF0A46005D1A64C0B210BD07
:10110000196A405C0131B1FBF2F402FB1412C0B267
:101110001A6210BD436B13B190F844007047836AA4
:10112000406A1B1A584258417047036B1BB15A68FA
:10113000036C981A02E0036AC069181A18BF0120EC
:101140007047426A10B48469A154426A046901324A
:10115000B2FBF4F104FB11224262426B2AB1136824
:10116000DB0707D410BCFFF762B9826CD36843F089
:101170008003D36010BC70471A4B4000C0B2187097
:101180005970002001219970D870197359739873A0
:1011900018695A609A6018B38288910514D402883D
:1011A000D2050CD447F230520188890502D5013AA4
:1011B000FAD10FE0028892B242F4807202808288F3
:1011C00092B242F44072828047F23052597B19B198
:1011D000013AFBD1FFF722BB024B987B80F0010064
:1011E000704700BF98080020244B254A1B6810B5A3
:1011F000B3FBF2F2234C03880139013AA04289B2D1
:1012000092B29BB212D004F50064A0420ED0B0F1AD
:10121000804F0BD0A4F59834A04207D004F5806429
:10122000A04203D004F58064A04202D123F07003F1
:101230009BB2154CA04206D004F58064A0421CBFAE
:1012400023F440739BB203800E4B81859842028544
:101250000FD003F5006398420BD003F5406398422A
:1012600007D003F58063984203D003F5806398426A
:1012700001D1002303860123838210BD2C000020AE
:1012800040420F00002C01400010004080EAE07353
:10129000A3EBE073272B06DD002801DD283870471B
:1012A00002D02830704700207047F8B506460F4638
:1012B0000B4D0024B4420ED0EB68012083F00803EC
:1012C000EB60FFF7CFF83846FFF7F5F80020FFF79F
:1012D000C9F80134EEE73C20BDE8F840FFF7EBB871
:1012E000000C0140094AD36943F0C053D361A2F511
:1012F000D032136843F4807313604BF20702044B3F
:101300001A8045F2F7021A81704700BF00100240B0
:10131000086C00400F4BDA684378D243C2F30222D4
:10132000C2F1040103FA01F10F23D3408278134084
:101330000B43027808491B01DBB20A4482F80033F0
:1013400003780122580903F01F0302FA03F341F85E
:101350002030704700ED00E000E100E01F4A10B5CA
:1013600053681F4903F00C03042B03D0082B03D050
:101370001C4B12E04B6810E053685468C3F383437E
:10138000E40303F1020301D4174C05E0546814F49C
:10139000003F4C6818BF6408634303605368C3F39D
:1013A00003130B441C7A0368E34043605468C4F39E
:1013B00002240C44247A23FA04F484605468C4F3AD
:1013C000C2240C44247AE340C3605268C2F38132E1
:1013D00011440A7EB3FBF2F3036110BD001002401A
:1013E0002C00002000127A0000093D0070B50E4666
:1013F0000446038ACA889BB223F4405313430382F2
:1014000082898988338992B20B43718922F4B05260
:101410000B4322F00C0213439BB28381838AB2896F
:101420009BB223F4407386B01343838201A8FFF775
:1014300095FF174A039B049D3168944218BF1D46CF
:1014400019226A43A389642613F4004F14BF4D0088
:101450008D00B2FBF5F5B5FBF6F0A289000101099C
:10146000120406FB115307D5D9003231B1FBF6F255
:1014700002F00702104306E01A013232B2FBF6F323
:1014800003F00F03184380B2208106B070BD00BF87
:10149000003801400A6A10B58C68036814430A6971
:1014A00023F4FF4314434A6923F0700314438A6909
:1014B0001443CA6914434A6A14438A6A2243134391
:1014C0000360CB6843600B6883604B68C36010BDEA
:1014D0004FF6FE730268134003600023036043600D
:1014E0008360C360284B984201D1284A27E0284BEB
:1014F000984201D1254A2AE0264B984201D1234A3D
:101500002DE0254B984201D1204A30E0234B9842F0
:1015100001D11E4A33E0224B984204D11B4A536842
:1015200043F470032EE01F4B984204D1174A5368CE
:1015300043F0706326E01C4B984204D11B4A536869
:1015400043F00F031EE01A4B984204D1174A536828
:1015500043F0F00316E0174B984204D1134A536846
:1015600043F470630EE0144B984204D10F4A536861
:1015700043F4704306E0114B984204D10B4A536880
:1015800043F470235360704708000240000002409B
:101590001C0002403000024044000240580002405B
:1015A0006C00024080000240080402400004024037
:1015B0001C0402403004024044040240580402402B
:1015C0000F4B1A6842F001021A6059680D4A0A402E
:1015D0005A601A6822F0847222F480321A601A6803
:1015E00022F480221A605A6822F4FE025A604FF4F4
:1015F0001F029A60044B4FF000629A60704700BF70
:10160000001002400000FFF800ED00E0013A072A58
:1016100030D8DFE802F004080C12191E22260388D5
:101620000B8043880DE043880B80038803E0038828
:101630005B420B8043885B4203E043885B420B8044
:1016400003884B80838814E003885B420B804388C7
:101650000CE043880B80038808E003880B804388F4
:1016600003E043885B420B8003885B424B808388A6
:101670005B428B8070470C4BD96D0A88120612D5DD
:10168000DA6B986B82420AD0D86A805C013288801B
:10169000586AB2FBF0F100FB1122DA637047CB68A5
:1016A00023F08003CB607047980800200A4B4FF46A
:1016B00000525A604FF6FE730848826C11680B4066
:1016C0001360826BC36B9A4202D01430FEF7AFBE38
:1016D000012380F85830704700000240980800202D
:1016E0002DE9F74F6A480025B0F90030B0F9021033
:1016F00083EAE372A2EBE37281EAE173A3EBE173A5
:101700009A42B8BF1A462B469346DFF8AC8100F1E7
:10171000080E00950190022B4FEA430C37D0019A36
:101720005C4932F9132031F913505200B2F5FA7FB7
:101730005949A8BF4FF4FA728A42ACBFC5EB020206
:10174000C5EB010238F91350642115445A226A434B
:1017500092FBF1F2B2F5FA7FA8BF4FF4FA72A1F54D
:1017600016718A42B8BF0A4642F210744B49009281
:1017700051F823202A44A242A8BF2246484C0A25F9
:10178000A242B8BF224641F823206A431513404ABB
:1017900032F90C40203232F80C703EB286EAE67222
:1017A000A2EBE672B2F5207F1EDC022B16D050228F
:1017B00062433C49C95C92FBF1F2DEF80010921BD7
:1017C0001144B1F57A5F384AA8BF4FF47A5191427B
:1017D000ACBFCEF80010CEF8002008E084EAE47236
:1017E000A2EBE472642AE2DD0022CEF80020DEF8EB
:1017F00000107D2291FBF2F12C4A022BD25C02FBFD
:1018000001F14FEAA11110D004FB0BF201FB0BF127
:10181000009CCBF5FA7909FB042209FB05114FF472
:10182000FA7A92FBFAF491FBFAF1214A6FF04F0930
:10183000D25C0EF1040E724392FBF9F222441D4C6D
:1018400034F90C9004F1120AC9EB060604F10609FA
:1018500059F8230024F80C705AF8237049F82360D3
:101860000744374404F11E062434E45C4AF823009C
:101870006743202497FBF4F70133CF1B1744032B56
:1018800026F80C707FF447AF03B0BDE8F08F00BFBF
:10189000F80800200C0900200CFEFFFF10090020B2
:1018A000F0D8FFFF785A000880C1FFFF7B5A00087C
:1018B0001E09002022090020745A0008044B03EB83
:1018C0008000027B034B03EB4203B3F852007047E6
:1018D000745A0008F808002038B50446054D214622
:1018E0002B68186803681B6898472B681879604054
:1018F000187138BD2400002081F0004102E000BFD3
:1019000083F0004330B54FEA41044FEA430594EABF
:10191000050F08BF90EA020F1FBF54EA000C55EAFA
:10192000020C7FEA645C7FEA655C00F0E2804FEACB
:101930005454D4EB5555B8BF6D420CDD2C4480EAAD
:10194000020281EA030382EA000083EA010180EADD
:10195000020281EA0303362D88BF30BD11F0004F2B
:101960004FEA01314FF4801C4CEA113102D0404261
:1019700061EB410113F0004F4FEA03334CEA13339C
:1019800002D0524263EB430394EA050F00F0A780B4
:10199000A4F10104D5F1200E0DDB02FA0EFC22FAAF
:1019A00005F2801841F1000103FA0EF2801843FAA3
:1019B00005F359410EE0A5F120050EF1200E012A94
:1019C00003FA0EFC28BF4CF0020C43FA05F3C018D2
:1019D00051EBE37101F0004507D54FF0000EDCF14B
:1019E000000C7EEB00006EEB0101B1F5801F1BD3F4
:1019F000B1F5001F0CD349085FEA30004FEA3C0CF8
:101A000004F101044FEA445212F5800F80F09A80ED
:101A1000BCF1004F08BF5FEA500C50F1000041EBF1
:101A2000045141EA050130BD5FEA4C0C404141EBF5
:101A3000010111F4801FA4F10104E9D191F0000F1C
:101A400004BF01460020B1FA81F308BF2033A3F19F
:101A50000B03B3F120020CDA0C3208DD02F1140C96
:101A6000C2F10C0201FA0CF021FA02F10CE002F1D1
:101A70001402D8BFC2F1200C01FA02F120FA0CFCCA
:101A8000DCBF41EA0C019040E41AA2BF01EB045113
:101A9000294330BD6FEA04041F3C1CDA0C340EDC11
:101AA00004F11404C4F1200220FA04F001FA02F354
:101AB00040EA030021FA04F345EA030130BDC4F112
:101AC0000C04C4F1200220FA02F001FA04F340EA07
:101AD0000300294630BD21FA04F0294630BD94F0B8
:101AE000000F83F4801306BF81F480110134013D9F
:101AF0004EE77FEA645C18BF7FEA655C29D094EA10
:101B0000050F08BF90EA020F05D054EA000C04BF8D
:101B10001946104630BD91EA030F1EBF0021002078
:101B200030BD5FEA545C05D14000494128BF41F017
:101B3000004130BD14F580043CBF01F5801130BD7B
:101B400001F0004545F0FE4141F470014FF0000006
:101B500030BD7FEA645C1ABF194610467FEA655CB7
:101B60001CBF0B46024650EA013406BF52EA033559
:101B700091EA030F41F4002130BD00BF90F0000F47
:101B800004BF0021704730B54FF4806404F1320483
:101B90004FF000054FF0000150E700BF90F0000F3C
:101BA00004BF0021704730B54FF4806404F1320463
:101BB00010F0004548BF40424FF000013EE700BF33
:101BC00042004FEAE2014FEA31014FEA02701FBFC3
:101BD00012F07F4393F07F4F81F06051704792F095
:101BE000000F14BF93F07F4F704730B54FF460740F
:101BF00001F0004521F0004120E700BF50EA01025A
:101C000008BF704730B54FF000050AE050EA010206
:101C100008BF704730B511F0004502D5404261EB76
:101C200041014FF4806404F132045FEA915C3FF4B7
:101C3000DCAE4FF003025FEADC0C18BF03325FEA50
:101C4000DC0C18BF033202EBDC02C2F1200300FA05
:101C500003FC20FA02F001FA03FE40EA0E0021FA2A
:101C600002F11444C1E600BF70B54FF0FF0C4CF414
:101C7000E06C1CEA11541DBF1CEA135594EA0C0FCA
:101C800095EA0C0F00F0DEF82C4481EA030621EA05
:101C90004C5123EA4C5350EA013518BF52EA033540
:101CA00041F4801143F4801338D0A0FB02CE4FF0F2
:101CB0000005E1FB02E506F00042E0FB03E54FF022
:101CC0000006E1FB03569CF0000F18BF4EF0010E1A
:101CD000A4F1FF04B6F5007F64F5407404D25FEA16
:101CE0004E0E6D4146EB060642EAC62141EA5551C9
:101CF0004FEAC52040EA5E504FEACE2EB4F1FD0C0B
:101D000088BFBCF5E06F1ED8BEF1004F08BF5FEA88
:101D1000500E50F1000041EB045170BD06F000463A
:101D200046EA010140EA020081EA0301B4EB5C04E7
:101D3000C2BFD4EB0C0541EA045170BD41F48011DF
:101D40004FF0000E013C00F3AB8014F1360FDEBF04
:101D5000002001F0004170BDC4F10004203C35DAE0
:101D60000C341BDC04F11404C4F1200500FA05F363
:101D700020FA04F001FA05F240EA020001F0004204
:101D800021F0004110EBD37021FA04F642EB06017A
:101D90005EEA430E08BF20EAD37070BDC4F10C04A4
:101DA000C4F1200500FA04F320FA05F001FA04F268
:101DB00040EA020001F0004110EBD37041F1000154
:101DC0005EEA430E08BF20EAD37070BDC4F120055F
:101DD00000FA05F24EEA020E20FA04F301FA05F2C7
:101DE00043EA020321FA04F001F0004121FA04F26F
:101DF00020EA020000EBD3705EEA430E08BF20EA3F
:101E0000D37070BD94F0000F0FD101F00046400078
:101E100041EB010111F4801F08BF013CF7D041EAFA
:101E2000060195F0000F18BF704703F000465200FE
:101E300043EB030313F4801F08BF013DF7D043EACF
:101E40000603704794EA0C0F0CEA135518BF95EA85
:101E50000C0F0CD050EA410618BF52EA4306D1D10C
:101E600081EA030101F000414FF0000070BD50EA2B
:101E7000410606BF1046194652EA430619D094EAB5
:101E80000C0F02D150EA013613D195EA0C0F05D19F
:101E900052EA03361CBF104619460AD181EA0301F3
:101EA00001F0004141F0FE4141F470014FF00000AB
:101EB00070BD41F0FE4141F4780170BD70B54FF046
:101EC000FF0C4CF4E06C1CEA11541DBF1CEA1355C6
:101ED00094EA0C0F95EA0C0F00F0A7F8A4EB0504A8
:101EE00081EA030E52EA03354FEA013100F088809F
:101EF0004FEA03334FF0805545EA131343EA126368
:101F00004FEA022245EA111545EA10654FEA00261C
:101F10000EF000419D4208BF964244F1FD0404F5D5
:101F2000407402D25B084FEA3202B61A65EB030531
:101F30005B084FEA32024FF480104FF4002CB6EBEE
:101F4000020E75EB030E22BFB61A754640EA0C006E
:101F50005B084FEA3202B6EB020E75EB030E22BFAE
:101F6000B61A754640EA5C005B084FEA3202B6EBEF
:101F7000020E75EB030E22BFB61A754640EA9C00AE
:101F80005B084FEA3202B6EB020E75EB030E22BF7E
:101F9000B61A754640EADC0055EA060E18D04FEA3C
:101FA000051545EA16754FEA06164FEAC30343EADC
:101FB00052734FEAC2025FEA1C1CC0D111F4801FA9
:101FC0000BD141EA00014FF000004FF0004CB6E7A2
:101FD00011F4801F04BF01430020B4F1FD0C88BF41
:101FE000BCF5E06F3FF6AFAEB5EB030C04BFB6EB4C
:101FF000020C5FEA500C50F1000041EB045170BD3F
:102000000EF0004E4EEA113114EB5C04C2BFD4EB6B
:102010000C0541EA045170BD41F480114FF0000EEF
:10202000013C90E645EA060E8DE60CEA135594EA6B
:102030000C0F08BF95EA0C0F3FF43BAF94EA0C0F6E
:102040000AD150EA01347FF434AF95EA0C0F7FF4E3
:1020500025AF104619462CE795EA0C0F06D152EA37
:1020600003353FF4FDAE1046194622E750EA41061B
:1020700018BF52EA43067FF4C5AE50EA41047FF42C
:102080000DAF52EA43057FF4EBAE12E74FEA41028F
:10209000B2F1E04324BFB3F5001CDCF1FE5C0DD9C6
:1020A00001F0004C4FEAC0024CEA5070B2F1004F10
:1020B00040EB830008BF20F00100704711F0804F13
:1020C00021D113F13872BCBF01F00040704741F4D8
:1020D00080114FEA5252C2F11802C2F1200C10FADC
:1020E0000CF320FA02F018BF40F001004FEAC123C0
:1020F0004FEAD32303FA0CFC40EA0C0023FA02F364
:102100004FEA4303CCE77FEA625307D150EA013339
:102110001EBF4FF0FE4040F44000704701F0004009
:1021200040F0FE4040F40000704700BF80F00040E7
:1021300002E000BF81F0004142001FBF5FEA41039F
:1021400092EA030F7FEA226C7FEA236C6AD04FEA9F
:102150001262D2EB1363C1BFD218414048404140E4
:10216000B8BF5B42192B88BF704710F0004F40F496
:10217000000020F07F4018BF404211F0004F41F4B2
:10218000000121F07F4118BF494292EA030F3FD07E
:10219000A2F1010241FA03FC10EB0C00C3F1200391
:1021A00001FA03F100F0004302D5494260EB400020
:1021B000B0F5000F13D3B0F1807F06D340084FEA8B
:1021C000310102F10102FE2A51D2B1F1004F40EB80
:1021D000C25008BF20F0010040EA030070474900E8
:1021E00040EB000010F4000FA2F10102EDD1B0FAB3
:1021F00080FCACF1080CB2EB0C0200FA0CF0AABFA8
:1022000000EBC25052421843BCBFD0401843704745
:1022100092F0000F81F4000106BF80F4000001324B
:10222000013BB5E74FEA41037FEA226C18BF7FEA22
:10223000236C21D092EA030F04D092F0000F08BF64
:102240000846704790EA010F1CBF0020704712F04B
:102250007F4F04D1400028BF40F00040704712F18A
:1022600000723CBF00F50000704700F0004343F0EF
:10227000FE4040F4000070477FEA226216BF084625
:102280007FEA23630146420206BF5FEA412390EAE8
:10229000010F40F4800070474FF0000304E000BFDE
:1022A00010F0004348BF40425FEA000C08BF70478F
:1022B00043F0964301464FF000001CE050EA010253
:1022C00008BF70474FF000030AE000BF50EA010268
:1022D00008BF704711F0004302D5404261EB410155
:1022E0005FEA010C02BF84460146002043F0B6437A
:1022F00008BFA3F18053A3F50003BCFA8CF2083A9F
:10230000A3EBC25310DB01FA02FC634400FA02FCA7
:10231000C2F12002BCF1004F20FA02F243EB0200AE
:1023200008BF20F00100704702F1200201FA02FC10
:10233000C2F1200250EA4C0021FA02F243EB020003
:1023400008BF20EADC7070474FF0FF0C1CEAD05247
:102350001EBF1CEAD15392EA0C0F93EA0C0F6FD008
:102360001A4480EA010C400218BF5FEA41211ED0E6
:102370004FF0006343EA501043EA5111A0FB0131D2
:102380000CF00040B1F5000F3EBF490041EAD371A7
:102390005B0040EA010062F17F02FD2A1DD8B3F123
:1023A000004F40EBC25008BF20F00100704790F092
:1023B000000F0CF0004C08BF49024CEA502040EAE4
:1023C00051207F3AC2BFD2F1FF0340EAC2507047AA
:1023D00040F400004FF00003013A5DDC12F1190FE8
:1023E000DCBF00F000407047C2F10002410021FA5A
:1023F00002F1C2F1200200FA02FC5FEA310040F172
:10240000000053EA4C0308BF20EADC70704792F0EA
:10241000000F00F0004C02BF400010F4000F013A22
:10242000F9D040EA0C0093F0000F01F0004C02BF1D
:10243000490011F4000F013BF9D041EA0C018FE78C
:102440000CEAD15392EA0C0F18BF93EA0C0F0AD092
:1024500030F0004C18BF31F0004CD8D180EA0100B8
:1024600000F00040704790F0000F17BF90F0004F51
:10247000084691F0000F91F0004F14D092EA0C0F33
:1024800001D142020FD193EA0C0F03D14B0218BFC6
:10249000084608D180EA010000F0004040F0FE400C
:1024A00040F40000704740F0FE4040F440007047A8
:1024B0004FF0FF0C1CEAD0521EBF1CEAD15392EA27
:1024C0000C0F93EA0C0F69D0A2EB030280EA010C17
:1024D00049024FEA402037D04FF0805343EA1111B0
:1024E00043EA10130CF000408B4238BF5B0042F10E
:1024F0007D024FF4000C8B4224BF5B1A40EA0C00B3
:10250000B3EB510F24BFA3EB510340EA5C00B3EBE4
:10251000910F24BFA3EB910340EA9C00B3EBD10FD2
:1025200024BFA3EBD10340EADC001B0118BF5FEA24
:102530001C1CE0D1FD2A3FF650AF8B4240EBC2504D
:1025400008BF20F0010070470CF0004C4CEA50200E
:102550007F32C2BFD2F1FF0340EAC250704740F45D
:1025600000004FF00003013A37E792F0000F00F04F
:10257000004C02BF400010F4000F013AF9D040EACD
:102580000C0093F0000F01F0004C02BF490011F461
:10259000000F013BF9D041EA0C0195E70CEAD15359
:1025A00092EA0C0F08D142027FF47DAF93EA0C0F40
:1025B0007FF470AF084676E793EA0C0F04D14B0224
:1025C0003FF44CAF08466EE730F0004C18BF31F0D6
:1025D000004CCAD130F000427FF45CAF31F00043D0
:1025E0007FF43CAF5FE700BF4FF0FF3C06E000BF69
:1025F0004FF0010C02E000BF4FF0010C4DF804CD8C
:102600004FEA40024FEA41037FEA226C18BF7FEA9B
:10261000236C11D001B052EA530C18BF90EA010F9D
:1026200058BFB2EB030088BFC81738BF6FEAE1702C
:1026300018BF40F0010070477FEA226C02D15FEAC8
:10264000402C05D17FEA236CE4D15FEA412CE1D034
:102650005DF8040B704700BF844608466146FFE7FB
:102660000FB5FFF7C9FF002848BF10F1000F0FBDDD
:102670004DF808EDFFF7F4FF0CBF012000205DF8D6
:1026800008FB00BF4DF808EDFFF7EAFF34BF01205B
:1026900000205DF808FB00BF4DF808EDFFF7E0FFF4
:1026A00094BF012000205DF808FB00BF4DF808ED45
:1026B000FFF7D2FF94BF012000205DF808FB00BFA8
:1026C0004DF808EDFFF7C8FF34BF012000205DF88A
:1026D00008FB00BF4FEA4002B2F1FE4F0FD34FF0AC
:1026E0009E03B3EB12620DD94FEA002343F000437F
:1026F00010F0004F23FA02F018BF404270474FF02D
:102700000000704712F1610F01D1420205D110F0B3
:10271000004008BF6FF0004070474FF00000704766
:102720002DE9804800239FB00693624C07930893DD
:102730004FF4E0130993236843F480332360A369C3
:1027400043F01003A361236803F400330793069B4F
:1027500001330693079B1BB9069BB3F5A06FF2D11B
:102760002368544913F4003301D0022315E00A68AA
:1027700042F001020A600693236803F00203079304
:10278000069B01330693079B1BB9069BB3F5A06F0D
:10279000F2D123689B0739D501230893464B47495B
:1027A0001A6842F010021A601A6822F003021A60D6
:1027B0001A6842F002021A606368636063686360CB
:1027C000636843F4806363603D4B1A68043B22F006
:1027D00070425A603B4A1160616821F47C1161606B
:1027E000596841F000415960D96821F40041D9602D
:1027F0009B681F0449BF344B4FF4E01313604FF440
:1028000080130993089B012B01D108E0FEE7022BFE
:1028100009D1099963680B4343F4803302E063688C
:1028200043F460136360236843F08073236021687E
:10283000204B8E01FBD5596821F00301596059687E
:1028400041F00201596063681A4903F00C03082B38
:10285000F9D14B68DFF8808003F00C03042B03D020
:10286000082B03D0154B12E0136810E04B68486842
:10287000C3F38343C50303F1020301D4134905E005
:10288000496811F4003F116818BF49084B43C8F864
:10289000003063680E4FC3F30313F95CD8F80030BF
:1028A0000C4DCB40C8F800301368044A934215D150
:1028B000012317E0001002400020024000127A00BD
:1028C0000410014030000020001BB70000093D004B
:1028D00000000020B00000202C000020AF4A9342EE
:1028E00001D102232B60DFF8FCE213AEBEE80F003B
:1028F0000FC69EE80F0086E80F00A94AA94B0BA956
:10290000DA60E369A84843F00703E361A3690DF1C6
:10291000500943F4944343F01D03A36163690DF12F
:10292000700B43F001036361636A43F08073636279
:102930004FF6FF73ADF82C3000238DF82E30FDF7E5
:10294000EFFD0BA99948FDF7EBFD0BA99848FDF7A2
:10295000E7FD984A0020536843F0007353602B68EA
:10296000012BC8BF944A954BD8BF954A1A60FDF712
:1029700079FD8E4A0823136110239A4613612E684D
:10298000012E05DD99F80230142B08BF89F802A04A
:1029900059F8040C494609F10809FDF7C1FDD9456C
:1029A000EDD10EA8FEF7DAFC0E9B864AF021B3FBB0
:1029B000F2F3854A64201360D8F800304FF47A723D
:1029C000B3FBF2F3814A013B5360764B4FF00008B2
:1029D00083F823100723C2F808801360FDF76BFD0E
:1029E000424641F2DA6E40F6C410794902FB02F326
:1029F000193B0EFB03F303F55B3303F53A735343C3
:102A000093FBF0F321F812300132072AEED141F6A0
:102A100058307049704A4FF00A084FF47F7C4FF4E9
:102A20007A7E92FBF8F303F5FA739BB20CFB03F387
:102A300093FBFEF302F57A7203F2DE33824221F851
:102A4000023FEED1E369DFF8648143F48043E36140
:102A500018238DF82A304FF42043ADF828300AA906
:102A6000032340468DF82B30FDF75AFD4FF4804389
:102A7000ADF828300AA9042340464FF0100A8DF81B
:102A80002A304FF48059FDF74BFD0AA940468DF8D6
:102A90002AA0ADF82890FDF743FD2369002143F4F7
:102AA000804323612369012023F4804323614FF491
:102AB0008273ADF84E304FF40073ADF856300223F8
:102AC000ADF852300724454BADF84C10ADF850101E
:102AD000ADF85A10ADF85C40ADF858A0ADF8540010
:102AE0001A889E4602F4415242F4457242F00302B3
:102AF0001A809A8B22F4006202FA0AF222FA0AF28F
:102B00009A831C821C461A884FF0050A92B242F042
:102B100040021A809F228DF82D108DF82E108DF80E
:102B20002F108DF82C2085F82A00C8F814909A8967
:102B30000EA90BAABAF1010A0AD012B1107801321B
:102B400000E0FF20B3F808C01CF0020FFAD03AE111
:102B5000164C4FF48058C4F810809DF83A309DF818
:102B600039201B0243EA02439DF83B2013431C4AD1
:102B700093423DD03220FDF79EFCC4F81480F5202E
:102B8000FEF7E8F9FF20FEF7E5F970288DF8380028
:102B9000C4F8108028D085F82AA029E0001BB700CF
:102BA0000005FA0500ED00E000080140000C0140BE
:102BB00000100140000001401301000868060020D9
:102BC0002901000840420F007006002010E000E0DC
:102BD000B4000020C000002078ECFFFF0038004067
:102BE00015202000C0580008022E04BF03232B60CC
:102BF0002C68032C02D00120FDF7CDFC0422012C0F
:102C0000904B85F82B204FF000024FF0010685F81D
:102C10002C20C2BF052283F82D2083F82E608A481D
:102C2000C8BF02264FF00009FEF752FC022E18BF63
:102C3000CA46864B08BF4FF0800A13934FF4807347
:102C4000CDF860A01993DFF800A24FF48063DFF89D
:102C500008821A9320231B9313A94FF40053504664
:102C600016961C93CDF85080CDF85490CDF85C901A
:102C7000CDF87490FEF70EFCDAF800304FF46022C5
:102C800043F00103CAF80030012E1092F6B2704AE8
:102C90008DF84860CDF83890CDF844905068D8BF92
:102CA0004FF0000E20F47021C8BF4FF0010E21F448
:102CB000807141EA0E2101238DF83CE08DF83D3012
:102CC000516090686349013E014041F4602141F048
:102CD00002019160D16AF6B221F4700141EA065610
:102CE0004946D662A8F109001F264FF0070C10F8DC
:102CF0001180B8F1000F51D0B8F1090F03F1010EA6
:102D00005FFA83FA0CD9A8F10A09D2F80CB009EBE2
:102D100049090CFA09F949EA0B09C2F80C9009E0D3
:102D2000D2F810B008EB48090CFA09F949EA0B0986
:102D3000C2F81090BAF1060FDBB20ED8013BD2F800
:102D4000349003EB830306FA03FA29EA0A0908FA26
:102D500003F343EA090353631FE0BAF10C0F0ED8E3
:102D6000073BD2F8309003EB830306FA03FA29EA13
:102D70000A0908FA03F343EA090313630DE00D3B64
:102D8000D2F82C9003EB830306FA03FA29EA0A0926
:102D900008FA03F343EA0903D362734601310429B5
:102DA000A5D12B4B9A6842F480729A609A6842F0DF
:102DB00001029A609A6842F008029A609968244A6F
:102DC00009070ED5FAE780B2A081BEF80800C00757
:102DD000FBD5A08980B200293FF4ACAE0870013168
:102DE000A8E6936843F004039360936818495E076C
:102DF000FBD48B68062243F4A0038B604FF480530E
:102E00007B82114613AB6820FDF716FD9DF851201B
:102E10009DF84F3092005B0003F0020302F00402C1
:102E20001A439DF84D3003F001031343DAB28DF8D5
:102E300038209BB1012B01F0FA82022A1FD0052015
:102E4000FDF743FBB0000020080002404C24014085
:102E500000240140FDF7F1FFE40000200EAB012249
:102E60000C216820FDF7E8FC9DF8383003F00F03D3
:102E70008DF83830002BE2D0042B01F0D882BB4B08
:102E8000012CAB644FF003033B740DDD4FF4005392
:102E9000ADF84C3002238DF84F3013A90423B44809
:102EA0008DF84E30FDF73CFB80216B20FEF700F9DA
:102EB0006420FDF700FB00211920FEF7F9F803213B
:102EC0006B20FEF7F5F80A20FDF7F5FA03211A202A
:102ED000FEF7EEF818211B20FEF7EAF810211C205F
:102EE000FEF7E6F812213720FEF7E2F8012138203C
:102EF000FEF7DEF89F4B0020EB649F4B9F4E2B6547
:102F00009F4B0A24EB639F4B2B64FDF7FDFEEB6B9D
:102F1000002098471023736108233361F368192058
:102F200083F01003F360F368013C83F00803F3605F
:102F3000FDF7C1FA0120FDF795FA1920FDF7BBFA5C
:102F40000020FDF78FFA14F0FF04DFF83082E5D19E
:102F50000823C8F810301023C8F81030788AFFF71B
:102F60009FF98949FFF7F0F901F01CFB874BDFF867
:102F70005082DFF850C2A5F85C002B6604EB08060F
:102F800004EB0C031034402C0FCBDFF828E286E86A
:102F90000F00F3D14FF47A737D4CAEF8A430AEF845
:102FA000A630AEF8A830AEF8AA307A4B00262360DF
:102FB0000EF1B00363610EF5D873A3614FF4807313
:102FC000E3602361744B754A4FF4E139CEF8AC608D
:102FD000C4F808902363143B636393690EA943F418
:102FE0008043936102238DF83B304FF40073ADF8BA
:102FF00038306B4818238DF83A30FDF791FA4FF4CA
:1030000080630EA9ADF83830654848238DF83A3012
:10301000FDF786FA0E23DFF894818DF84C3013A863
:1030200001238DF84D308DF84E308DF84F30FEF77E
:1030300071F90323237140460C230EA9ADF84230E9
:10304000C4F848802662E661A6626662E662C4F859
:103050000890CDF83890ADF83C60ADF83E60ADF822
:103060004060ADF84460FEF7C1F9B8F80C30206B51
:103070009BB243F40053A8F80C304A4B14961393B8
:103080004FF480531C938023159616961796199625
:103090001A961B961D961893D8B1E36816932023B1
:1030A0001B9363691493FEF713FA13A9206BFEF7C1
:1030B000F1F9226B136843F001031360B8F8143080
:1030C0009BB243F04003A8F8143053689BB22364CA
:1030D00004E0354A136843F020031360606BDFF8A7
:1030E000B080E0B1D8F81030002616931023159365
:1030F0001B96FEF7EDF913A9D8F83400FEF7CAF9CC
:10310000D8F834301A6842F002021A60274A5E602A
:103110005E60938A9BB243F08003938204E0224A6C
:10312000136843F080031360D5F8AC30204A0133B4
:10313000C5F8AC3040F2D9330026BB82DFF888A056
:103140001C4FC5F8B042146085F8C86204921A4B4F
:10315000F35CFF2B03F00F0538D1184B154C40F2F0
:10316000DE51C4F8CC320023D2E100BF18449231C2
:1031700000100140090D00087D0D0008000C014001
:10318000FD0C0008150D0008C903683F3661023DBB
:10319000AC080020205900085800024000100240EE
:1031A00000080140043801400C380140003801405B
:1031B00078060020B000002038590008E90900080E
:1031C00014010020E0580008C0580008DC0608D5AB
:1031D0000022BF492846FDF7D1FE082387F8D032E8
:1031E00091E103F0200202F0FF0952B197F8D042BA
:1031F000B849224628460134FDF7C0FE87F8D04280
:1032000081E1580640F17F8197F8D1B2B24A0BF1C3
:10321000010387F8D132182303FB05220AEB0518B6
:10322000D8F8844040F6C411204601930092FDF77F
:10323000DBFF019BD8F88C108DF84E30ADF84C10A8
:10324000022313A9D8F888008DF84F300193FDF7B9
:1032500067F97020019BADF84C0098F890100120A0
:10326000ADF84E00ADF854304FF47A704FF48073DF
:10327000ADF85090ADF85690ADF85A90ADF85200B8
:10328000ADF858300C2900F2EE80DFE811F00D00A7
:10329000EC00EC00EC004E00EC00EC00EC008400D4
:1032A000EC00EC00EC00B900238C8C4A23F0010305
:1032B0001B041B0C2384B4F820E0A088238B1FFA86
:1032C0008EFE23F073031B041B0C2EF0020C9442A1
:1032D00080B243F070034CF0030C0FD002F5006293
:1032E00094420BD002F54062944207D002F580620E
:1032F000944203D002F58062944207D12EF00E0E64
:1033000020F440704EF0030C40F48070A0802383C2
:103310004FF47A73A386A4F820C0238B23F008030C
:103320001B041B0C43F0080333E0238C6B4A23F08F
:1033300010031B041B0C2384B4F820E0A088238B0B
:103340001FFA8EFE23F4E6431B041B0C2EF0200C08
:10335000944280B243F4E0434CF0300C03D002F5C9
:103360000062944207D12EF0E00E20F440604EF04F
:10337000300C40F48060A08023834FF47A7323875D
:10338000A4F820C0238B23F400631B041B0C43F41C
:103390000063238367E0238C504A23F480731B046B
:1033A0001B0C2384B4F820E0A088A38B1FFA8EFEA8
:1033B00023F073031B041B0C2EF4007C944280B298
:1033C00043F070034CF4407C03D002F50062944259
:1033D00007D12EF4606E20F440504EF4407C40F44F
:1033E0008050A080A3834FF47A73A387A4F820C0F1
:1033F000A38B23F008031B041B0C43F0080331E0EC
:10340000238C364A23F480531B041B0C2384238C07
:10341000B4F804E0A08B23F4005320F4E640000449
:103420001B04000C1B0C94421FFA8EFE40F4E0407B
:1034300043F4405303D002F50062944203D12EF4CA
:10344000804E4EF4804EA4F804E0A0834FF47A70CE
:10345000A4F840002384A38B23F400631B041B0CFB
:1034600043F40063A3830AEB051393F8923043B14E
:10347000B4F844306FEA43436FEA53439BB2A4F875
:103480004430238804F124029BB243F001032380DB
:10349000182303FB0570C0F8D842C0F8DC2210489E
:1034A0000C2924D8DFE801F0072323230B2323234F
:1034B0000F2323231E0003FB0503343415E003FB15
:1034C0000503383411E003FB05033C340DE000BF75
:1034D000490A0008950C000884030020002C0140D4
:1034E000B000002003FB05034034C3F8D442182386
:1034F00003FB050540F6C413A5F8E032009B00EB82
:103500008B0BCBF8243401360E2E7FF420AE24E64C
:10351000BC4D05F2344222F813100133122BF7D1BF
:10352000B94B2E46C5F85834082385F8C432FCF749
:103530009FFF4FF47A73C5F85C04A5F8603400214E
:1035400001230AAA422085F862348DF82810FDF77D
:1035500013FE85F86304D5F86434D5F868249A1A04
:10356000002AC0F26987DFF8B49240F2DC5A09F110
:103570003808CB46414603F59C432033C5F86834F0
:103580000027D6F85834F8B200919847A0F2EE23FD
:103590009BB2534588BF5046D6F8AC249B4B00994C
:1035A0001340002BBEBF03F1FF3363F0030301336D
:1035B00003EB870305EB4303A3F86C0431F83700F2
:1035C000B8F8023001370344B8F80400082F034468
:1035D000B8F8060008F1080803441BB24FF00400D5
:1035E00093FBF0F329F8023BCBD1531C0022C6F821
:1035F000AC3440F24C40134640F26B773BF912106A
:103600009B08814204DD63F07F03B942DBB201DC39
:1036100043F040030132042AF0D196F8B0249A42D4
:1036200005D195F8B124F92A04D8013200E000222E
:1036300085F8B12440F24B42B6F93A1486F8B0341A
:10364000914240F30B8796F8B124142A2BD195F8B8
:10365000B22452B15F2B26D1D5F8B424002385F8CB
:10366000B23402B3C5F8B4341DE0572B04D14FF483
:103670007A73A5F8603416E06F2B0ED1B5F860347C
:1036800033B995F8B8341BB1012385F8B2340AE098
:10369000FF210220FDF709FE05E0972B04BF4FF440
:1036A000C873A5F8BA34B6F9BC34322B13DD584BC5
:1036B00000221A605A600EE00123C6F8C03496F862
:1036C00063342BB1534B162200214220FDF7B4F88E
:1036D0000023C6F8C034FCF7CBFED6F8DC34C6F8BD
:1036E0006404C31A002BFFF636AF00F6AC50C6F8E0
:1036F000DC04336C48489847B6F86034002B00F07F
:10370000AD804FF0000BD846434B03F1080903F19D
:1037100014073C4BB3F86034B3F57A7F01934FEA5A
:103720004B0300933C4B08BFC9F8008033F91B00E2
:10373000D9F8003008BFC7F810800344C9F800303A
:10374000FEF7AEFD3A6902F1010ABAF1010FC7F8BE
:1037500010A004D1002378603860BB6022E03A6892
:10376000059011460392FEF7E5FC02905046FEF7E5
:1037700097FD01460298FEF79BFE039A1146FEF75D
:10378000DBFC059B0146824678601846FEF7D2FCBA
:103790000299FEF7D9FDB968FEF7CEFCC7F800A084
:1037A000F860B8601C4B009A03F1500A23F80280BD
:1037B000019B22F80A80012B3FD13869012807DDDF
:1037C0000138FEF76DFD0146F868FEF771FE00E076
:1037D000002000F063FF4FF08441FEF771FF4FF4CB
:1037E0007A72E8B1074BA3F86024C3F80485C3F8E4
:1037F0001885C3F82C85C3F8F084C3F8EC84C3F8AB
:10380000E8841AE0B0000020BD1800080300008022
:10381000100900207405002090050020E404002019
:10382000D9F800300F2103F5FA7393FBF2F3009AF5
:103830000A202AF80230FDF738FD0BF1010BBBF12D
:10384000030F09F1040907F114077FF462AFC44BB9
:10385000C34AB3F86034013BA2F860340023C14F7F
:10386000A7F1500232F8132037F81310521AA7F1BB
:10387000500121F813200133032BF0D1336DB81D13
:103880009847B6F8BA2407F1060C002A3DD04FF04D
:10389000000E07F10C087746B2F5C87F08BF48F85C
:1038A0002E704FEA8E013CF91E3058F801002CF8BA
:1038B0001E70034448F80130AB4B23F81E700EF124
:1038C000010EBEF1030FE7D1012A1AD1D6F83C351B
:1038D0004FF4C87003F1C80191FBF0F1A6F8481548
:1038E000D6F84015D6F84435C83191FBF0F1C8330D
:1038F00093FBF0F3A6F84A159C49498A5B1AA6F88F
:103900004C35531E964AA2F8BA34B4F83635B4F89A
:1039100048254FF0000A9B1AA4F83635B4F84A251A
:10392000B4F838350DF12C099B1AA4F83835B4F8E1
:103930004C25B4F83A359B1AA4F83A35FCF798FDB3
:10394000D4F850350746C31A18460093FEF7A4FC76
:10395000A16C0390FEF7F8FCC4F850755746844BF1
:10396000019033F917000593FEF79AFC0199FEF7D1
:10397000EBFCDFF8088249F8270038F91700FEF75A
:103980008FFC4FF07A51FEF7DFFC08F11E0B02901E
:103990004FF07D515BF82700FEF7D6FC029A0146F6
:1039A0001046FEF7C9FB4BF82700FEF793FE08F11F
:1039B0002A0380B223F81700013700B2032F9B4679
:1039C00000FB00AA059BCCD1642707FB0AF3DFF8B4
:1039D0009CA108F13200BAF8127049467F4393FB6C
:1039E000F7F7BFB2493FFDF7F3F93B2F08F1320873
:1039F00040F29780B6F95C00FEF752FCD5F870757E
:103A0000014638464FF00108FEF75AFE00B98046DD
:103A10003946D4F86C0586F8628400F03DFED4F88F
:103A20006C15D4F870358046C4F8740508460193C7
:103A3000FEF78AFC019B834619461846FEF784FC74
:103A400001465846FEF778FBD4F8687500F026FE6C
:103A500007F100470146384600F01EFE0746C4F84D
:103A600078054046FEF7ACF83BA3D3E90023FEF708
:103A7000FBF8FEF70BFB00F095FDDFF804B1ABF8A7
:103A800000003846FEF79CF833A3D3E90023FEF785
:103A9000EBF8FEF7FBFA00F085FDABF80200DFF86B
:103AA000CCB049460BF11800FDF792F9DAF818107E
:103AB000DAF81C3008460193FEF746FC019BDAF861
:103AC0002090194682461846FEF73EFC01465046B5
:103AD000FEF732FB494682464846FEF735FC014672
:103AE0005046FEF729FB00F0D9FD00218146FEF784
:103AF000BFFD002846D14946DBF81800FEF7D8FC88
:103B00004946CBF81800DBF81C00FEF7D1FC49460B
:103B1000CBF81C00DBF82000FEF7CAFCCBF8200035
:103B200030E000273BF91700FEF7BAFB114901907E
:103B300058F82700FEF708FC019B01461846FEF7DF
:103B4000FBFA0D49FEF700FC48F827000137032F68
:103B5000E8D14FE7AFF300803B597E90A9E7814061
:103B6000B0000020E0050020F80500200000002043
:103B700090050020000016440017DA3AE605002000
:103B80000C090020404600F0D1FC8246404600F07F
:103B900045FD8146384600F0C9FC0590384600F0E6
:103BA0003DFDBF4B8346DA69996901921A6A08F1B3
:103BB00000480292059A07F100471046FEF7C4FB41
:103BC000019905904846FEF7BFFB5946FEF7BCFB3E
:103BD000059B01461846FEF7AFFA02990590584634
:103BE000FEF7B2FB5146FEF7AFFB059B01461846B8
:103BF000FEF7A2FA019983465046FEF7A5FB02990B
:103C000082464846FEF7A0FB01465046FEF792FA70
:103C1000594600F041FDA349FEF796FBFDF7D0FFA2
:103C20009BA3D3E90023FEF749F900220023FDF707
:103C300069FE00229C4BFEF741F9FEF727FA00F0DF
:103C4000B1FC1FFA80FA1AF4004F1CBF00F5B470E3
:103C50001FFA80FA95490398A4F87CA5FEF774FB37
:103C600081460FFA8AF0CDF838800F97FEF718FBDF
:103C700000F10040FDF7A4FF87A3D3E90023FDF77F
:103C8000F3FFFEF703FA1090B4F96005FEF708FBA6
:103C90001390B4F96205FEF703FB1490B4F96405C0
:103CA000FEF7FEFA0EA9159013A8FDF791F894F807
:103CB000B234019373B9D5F88005402390FBF3F338
:103CC000C01AFEF7EDFA1599FEF736FAFEF702FD77
:103CD000C5F88005D4F88005402390FBF3F0FEF78B
:103CE000DFFA01461598FEF725FA216E80461590F9
:103CF0004846FEF721FA01464846FEF7D9FBD4F8BC
:103D00008475814639464046FEF714FA0146484616
:103D1000FEF71AFB3946FEF70FFA0746C4F884058A
:103D2000139800F03FFCFDF7B1FAD4F88835184439
:103D3000C4F88805149800F035FCFDF7A7FAD4F80C
:103D40008C351844C4F88C05384600F02BFCFDF780
:103D50009DFAD4F89035009A1844D4F89435C4F8F4
:103D600090051344C4F89435D4F89835B4F8E42495
:103D70000133C4F898354E4B9A80B4F8E0241A8089
:103D8000B4F8E2245A80FCF773FBD4F85C34DFF813
:103D900040C1C31AA4F89C35B4F83A34C4F864049A
:103DA000C4F85C04009300224FF0640E414B4FEACC
:103DB000420A33F9127040F2DC539F4205DDB7F539
:103DC000FA6F0BDB4FF4FA730AE0C7F5BB630433F9
:103DD000B3F5FA7FA8BF4FF4FA7301E0A7F2DC5302
:103DE000022A22D093FBFEF105EB4108B8F80480CB
:103DF00005EB4109B9F906B00FFA88F9C9EB0B09CF
:103E00006FF0630B0BFB013101FB09F191FBFEF13C
:103E100041442CF80A102849895C4B43274993FBFD
:103E2000F1F364331FFA83F804E05B42ACF804302A
:103E30004FF064082249234B895CDFF8949008FB1B
:103E400001F191FBFEF199541F49895C08FB01F3D4
:103E500093FBFEF31D498B5440F2DB539F42D8BFC6
:103E60003CF80A3002F10102DCBF5B422CF80A3058
:103E7000032A9BD140F24B43BDF900209A4229DD31
:103E8000B2F5FA6FA8BF4FF4FA6225E0AFF30080F5
:103E9000182D4454FB210940399D52A246DF913F21
:103EA000000000200000E14400002440BD378635BA
:103EB00018090020E4040020245A00080CFEFFFF2B
:103EC000785A00081E090020265A000846090020DA
:103ED000F808002040F24C424FF47A73A2F24C42B0
:103EE0005A434FF46173B2FBF3F24FF0640E92FB4E
:103EF000FEF104EB41035F8AB3F914C03BB2C3EB9C
:103F00000C036FF0630C0CFB01225A4392FBFEF38F
:103F10003B44A9F80630B4F8BA3413B9B5F86034A4
:103F20002BB1BD4AD36883F00803D3600AE095F84B
:103F3000B83413B1B84B08221A61019B13B1B64BC8
:103F400008225A61D5F8A035C31A002B0FDB95F86B
:103F500062348BB9B04A85F8B834D36800F5F420E0
:103F600083F0080300F59070D360C5F8A0054FF00A
:103F70000008DFF8D4A216E0012385F8B834F6E78C
:103F8000049A8C2303FB0823A44F3B6095F8A435C7
:103F900043BB3A68DFF884B2106802685268904701
:103FA00030B908F10108D6F8AC309845E8DB85E176
:103FB000DBF800201068026892689047DBF8003058
:103FC00093F88920A2B9A0F124014A424A4152281B
:103FD00083F88920DDD196F8B234002BD9D1904BEB
:103FE000904A1360FDF77EF98F4A904BDA60D0E774
:103FF000012A04D14D2814BF002202225BE1022ACB
:1040000004D13C2814BF0022032254E1032A0CD11E
:1040100080284FF000029FBF83F887205A7183F8F1
:104020008800187198BF042245E1042A06D11A7944
:1040300083F886005040187105223CE1052AA8D17A
:1040400093F8882093F887108A421A7907D942405A
:104050001A714A1C83F887200B44987199E78242B1
:1040600040F0278193F88630692B00F0B5801BD88B
:10407000652B55D00CD8442B00F0FA80452B40F02E
:1040800010811320FCF74EFC4FF0000B684AF6E05D
:10409000662B58D0682B40F004811020FCF742FCBE
:1040A0004FF0000B634A8BE07D2B00F0D3800CD8DF
:1040B0006C2B00F0A0806D2B40F0F3800620FCF705
:1040C00031FC0020FCF742FCCEE0C82B0AD0D62BF6
:1040D00017D07E2B40F0E5800220FCF723FCB6F9D8
:1040E000AE05C2E04FF0000BFCF71FFC2AF81B00E6
:1040F0000BF1010BBBF1080FF6D10020FCF712FC0D
:10410000D3E04D4A4FF0000B0092FCF70EFC009AF2
:1041100022F81B000BF1010BBBF1040FF4D1ECE70B
:104120000B20FCF7FFFBB6F99C05FCF721FC434B89
:10413000188800B2FCF71CFC0020FCF719FC0020DA
:10414000FDF7CAFBB1E01220FCF7ECFB3C4B5B8AAD
:10415000B3F5806F27D93B494FF0000B082231F9A6
:104160001B000BF1010B90FBF2F001910092FCF7A8
:10417000FFFBBBF1030F009A0199F0D1DFF8CCB03F
:10418000BBF90000FCF7F4FBBBF90200FCF7F0FB05
:10419000BBF90400FCF7ECFB0020FCF7E9FB002076
:1041A000FCF7E6FB60E0B6F96005FCF7E1FBB6F969
:1041B0006205FCF7DDFBB6F96405FCF7D9FBDDE72A
:1041C00012F80B000BF1010B0092FDF785FBBBF120
:1041D000100F009AF4D168E01020FCF7A3FB4FF019
:1041E000000B3AF91B000BF1010BFCF7C1FBBBF113
:1041F000080FF6D159E0DFF858B00620FCF792FB23
:10420000BBF90000FCF7B4FBBBF90200FCF7B0FB04
:10421000B6F97C0529E000BF000C01402400002015
:10422000EFBEADDEF04F00200400FA0500ED00E027
:10423000A05A0008560600205401002076060020EF
:104240000000002010060020E404002018090020CF
:104250000C0900200420FCF765FBB6F9C604FCF746
:1042600087FBB6F9C80400E00020FCF781FB1CE0E6
:104270000020FCF757FB012386F8A43515E012F85F
:104280000B000BF1010B0092FDF726FBBBF10B0FAE
:10429000009AF4D10020FCF759FB0020FCF756FBF4
:1042A00003E000210120FCF71DFB3B681879FDF7B6
:1042B00013FB3B68002283F889206AE66B6C0BB124
:1042C0006B489847FDF70CFAB9F90430DFF8B08174
:1042D00083EAE371B8F90420A1EBE3716FF063079F
:1042E0007F1ABA4204DB01F164079742A8BF174660
:1042F000A8F80470B9F90600FDF7D2FF8346B8F9B3
:104300000200FDF7CDFF8246B8F90000FDF7C8FFB7
:104310008146DFF8708100237F4258F8081C584618
:104320000193FEF711F8D8F8001000905046FEF700
:104330000BF8009A01461046FDF7FEFE58F8041CE3
:1043400000904846FEF700F8009A01461046FDF737
:10435000F3FE00903846FDF7A3FFD8F80410FDF7F0
:10436000F3FF009A01461046FDF7E6FEFEF7B2F9AC
:10437000019B404A08F1100822F813000133042B76
:10438000CBD1B6F9A815B6F9A605B6F9AA3581427A
:10439000B8BF01468B42B8BF0B46B6F9AC0540F238
:1043A000DA7E8342B8BF034640F2DD3940F2DE3A9E
:1043B00040F24B4896F8B2149BB20091B6F93AC459
:1043C00019B2C3F5FB63901E002701910233A2F2DC
:1043D000025B01997145C2BF4188C918418030F91B
:1043E000021F494503DD7145A8BF714601E040F257
:1043F000DE31C445D8BF51460180009911B93BF860
:10440000171001800137042FE3D1002795F8D1322E
:10441000F8B2834206D932F81710D5F8CC320092A0
:104420009847009A0137042FF0D1FFF794B84FF462
:10443000FF637B82FEF723BDD5F8C034042B3FF623
:104440004AA901A252F823F0B9360008BF36000885
:10445000D1360008D1360008D136000806490022BE
:104460000A604A608A6005490A604A60FFF7EBB853
:1044700060060020560600200009002010090020D8
:10448000400900201C01002019481A4902680060F8
:104490008A4217D0002103E0174B5B584350043188
:1044A0001648174B42189A42F6D3164A02E00023E8
:1044B00042F8043B144B9A42F9D3FDF781F8FEF71A
:1044C0002FF9FEE7114E124830601248016821F0C2
:1044D00070610160410201600F4C182020600F499B
:1044E0000F4808600F48D0F800D04068004700002F
:1044F000F04F0020EFBEADDEB05E000800000020EF
:10450000B0000020B00000205C090020181002401C
:104510000900000004000140140C0140000C01409F
:104520004434434400F0FF1FFEE7000000B51C4A7E
:1045300020F00043934283B018DDB3F1FF4F05DB59
:104540000146FDF7F7FD03B05DF804FB694600F096
:1045500083F900F00302012A15D0022A0CD0CAB157
:1045600001220199009800F055FFECE7002100F0CE
:1045700039FB03B05DF804FB0199009800F032FBB1
:1045800000F10040DFE70199009800F043FF00F1DF
:104590000040D8E70199009800F024FBD3E700BF62
:1045A000D80F493F30B5C0F3C751A1F17F021E2A91
:1045B00083B022DC531C1DDB162A4FEAD0740BDDBE
:1045C000C0F3160343F40003A1F1960003FA00F0D0
:1045D00004B1404203B030BD0F4B53F8245029467C
:1045E000FDF7AAFD019001982946FDF7A3FD20F0F3
:1045F000004333B9002003B030BDFEF76BF803B0C1
:1046000030BDC0F31603C0F3C75043F40003C0F13C
:10461000960023FA00F0DBE7AC5A000800B51D4A0B
:1046200020F00043934283B019DDB3F1FF4F05DB67
:104630000146FDF77FFD03B05DF804FB694600F01D
:104640000BF900F00300012818D002280ED0D0B1D9
:104650000199009800F0C6FA00F10040EBE7002253
:10466000002100F0D7FE03B05DF804FB01220199A0
:10467000009800F0CFFE00F10040DCE701990098BF
:1046800000F0B0FAD7E701220199009800F0C2FECD
:10469000D1E700BFD80F493F00F04CB870B58AB0E1
:1046A000064600F04BFA214D044695F900300133DF
:1046B00008D0304601F086F820B100213046FDF7E1
:1046C000E1FF10B920460AB070BD1949012200234C
:1046D0003046009208930191FDF772FA2C78CDE9EB
:1046E0000401CDE90201002200236CB9CDE90623C3
:1046F000684600F005FF78B1089B93B9DDE9060133
:10470000FDF7C4FC0AB070BD10461946FDF7D6FB94
:10471000022CCDE90601EBD101F0CCF82123036096
:10472000EAE701F0C7F8089B0360E7E748000020CC
:10473000B45A0008F8B50C4621F00041B1F1FF4F22
:10474000034614DC20F00046B6F1FF4F07460EDCAE
:10475000B4F17E5F3DD0A51705F0020545EAD0759E
:1047600056B9022D31D0032D2CD13248F8BD19464F
:104770002046FDF7E1FCF8BD01B3B1F1FF4F2CD0AD
:10478000B6F1FF4F1AD0711AC9153C291BDC002C59
:1047900039DB21461846FDF78BFE00F0C9FF00F01B
:1047A000B1FE012D2CD0022D22D0002D2FD0224978
:1047B000FDF7C2FC2149FDF7BDFCF8BD002F06DB6B
:1047C0001F48F8BDF8BD1E48EBE71C48F8BD1D4862
:1047D000F8BDBDE8F84000F095BEB6F1FF4F17D028
:1047E000022DF2D0032DC0D0012D19D00020F8BD2C
:1047F0001149FDF7A1FC01461048FDF79BFCF8BDEF
:1048000000F10040F8BD3C31C3DA0020C9E7F8BD33
:10481000022D0CD0032D08D0012D04D00A48F8BD7C
:104820004FF00040F8BD0948F8BD0948F8BD0948F7
:10483000F8BD00BFDB0F49C02EBDBB33DB0F4940C5
:10484000DB0FC93FDB0FC9BFDB0F493FDB0F49BFA0
:10485000E4CB16C0E4CB16402DE9F04FAA4A20F075
:104860000044944289B067DDA84A0D469442074649
:1048700001461CDC0028A64940F3EA80FDF75AFCFB
:10488000A44B24F00F049C42064663D0A249FDF7D6
:1048900051FC014630462960FDF74CFC9E49FDF76E
:1048A00049FC01236860184609B0BDE8F08F9B4AB7
:1048B000944261DDB4F1FF4F46DAE615863EA4EB83
:1048C000C6542046FDF706FFFDF7EAFC03462046E6
:1048D00019460593FDF72EFC4FF08741FDF734FD97
:1048E0008046FDF7F7FEFDF7DBFC04464046214617
:1048F0000694FDF71FFC4FF08741FDF725FD0021D1
:104900000790FDF7B5FE002800F0C3802046002187
:10491000FDF7AEFE002814BF0123022380480221C8
:10492000019000913246294605A800F01FFA002F99
:10493000C0F2A580034603E0002208604A6000231D
:10494000184609B0BDE8F08FFDF7F4FB002368605E
:104950002860F5E77349FDF7EDFB73490446FDF761
:10496000E9FB014620462960FDF7E4FB6E49FDF7AF
:10497000E1FB01236860E3E700F0DAFE6B49804663
:10498000FDF7E2FC4FF07C51FDF7D6FBFDF7A2FEF0
:104990000646FDF785FC5E498346FDF7D5FC0146DA
:1049A0004046FDF7C7FB5C4981465846FDF7CCFC05
:1049B0001F2E82460146484618DC5D4B721E53F896
:1049C000223024F0FF029A4210D0FDF7B3FB80465C
:1049D000C5F8008041464846FDF7ACFB5146FDF75F
:1049E000A9FB002F686056DB3346A9E7FDF7A2FB61
:1049F000E215C0F3C753D31A082B8046E8DD4949B6
:104A000058460392FDF7A0FC804601464846FDF754
:104A100091FB014604464846FDF78CFB4146FDF7F5
:104A200089FB804640495846FDF78EFC4146FDF71C
:104A300081FB014682462046FDF77CFB039AC0F3CA
:104A4000C753D21A192A804641DC2860A146C1E723
:104A5000FDF772FB2F4B24F00F049C42064623D037
:104A60002D49FDF769FB014630462960FDF762FBE1
:104A70002949FDF761FB4FF0FF33686060E795E877
:104A80000C0002F1004103F10042296043426A60D8
:104A900056E7032342E708F1004800F10040C5F85B
:104AA0000080686073424BE71E49FDF745FB1E49D5
:104AB0000446FDF741FB014620462960FDF73AFB1D
:104AC0001949FDF739FB4FF0FF33686038E71949A2
:104AD0005846FDF739FC014680462046FDF72AFB83
:104AE000014681462046FDF725FB4146FDF722FBA6
:104AF000044611495846FDF727FC2146FDF71AFBED
:104B000082460146484660E7D80F493FE3CB16404E
:104B1000800FC93FD00FC93F43443537800F494309
:104B20003C5B00080044353708A3852E84F9223FFA
:104B3000BC5A000800A3852E32318D2420F000429B
:104B4000B2F1FF4F70B504462ED262B3002803467F
:104B50003DDBB2F5000F4FEAE0502CD30026314682
:104B60007F38C3F31603C20743F4000348BF5B005A
:104B700040105B0019244FF080728D189D4202DCBA
:104B80005B1BA9181644013C4FEA43034FEA52024B
:104B9000F3D113B106F001031E44761006F17C56E2
:104BA00006EBC05070BD70BD0146FDF7CDFB214640
:104BB000FDF7C2FA70BD14F4000201D00EE00A46FF
:104BC0005B001C0202F10101F9D5801AC6E701461B
:104BD000FDF7B0FA0146FDF76BFC70BD4FF0FF32F8
:104BE000F3E700BF2DE9F84320F00044B4F1485F3B
:104BF00006460F4649DAFDF76DFD002800F09D805E
:104C000031463046FDF7A0FB05464E49FDF79CFBBB
:104C10004D49FDF791FA2946FDF796FB4B49FDF703
:104C200089FA2946FDF790FB4949FDF785FA29469F
:104C3000FDF78AFB4749FDF77DFA2946FDF784FB1E
:104C40004549FDF779FA2946FDF77EFB80464FF08E
:104C50007C512846FDF778FB414604462846FDF77F
:104C600073FB394605463046FDF76EFB0146284684
:104C7000FDF760FA01462046FDF75CFA01464FF069
:104C80007E50FDF757FABDE8F8830146FDF75CFB5F
:104C900005462C49FDF758FB2B49FDF74DFA2946EF
:104CA000FDF752FB2949FDF745FA2946FDF74CFB74
:104CB0002749FDF741FA2946FDF746FB2549FDF74F
:104CC00039FA2946FDF740FB2349FDF735FA294615
:104CD000FDF73AFB214B80469C42B8DD204B9C42BD
:104CE00027DC04F17F4421464FF07E50FDF722FA85
:104CF00081464FF07C512846FDF726FB2146FDF703
:104D000019FA414604462846FDF71EFB394605467A
:104D10003046FDF719FB01462846FDF70BFA014620
:104D20002046FDF707FA01464846FDF703FABDE8BD
:104D3000F883DFF834900B4CDBE74FF07E50BDE892
:104D4000F88300BF4ED747ADF6740F317CF2933431
:104D5000010DD037610BB63AABAA2A3D9999993E1D
:104D60000000483F0000903E0000383F2DE9F04F22
:104D70001C46DFB00891611E01910A936899BD4BF2
:104D8000029053F821300793D31E48BF131DDB1048
:104D900023EAE37319460B930133A2EBC303069393
:104DA000019A079B8D1A9C1815D42C44013421AE0E
:104DB000699F08E057F82500FDF772FA0135A54212
:104DC00046F8040F07D0002DF4DA01350020A54283
:104DD00046F8040FF7D1079B002B2DDB079B0A9A9F
:104DE0001946019B01EB0208C2EB827B22AA02EB6F
:104DF000830602EB88084FEA8B0B49AF019B002B1F
:104E0000C0F29D813446029B06EB0B05A3F1040A18
:104E10004FF000095AF8041F54F80409FDF794FAFA
:104E200001464846FDF788F9AC428146F2D1043686
:104E3000464547F8049FE1D1079B0EA91E4603F1A2
:104E40008043023B9B001A1D0A440B440D920C93B5
:104E50005EAB03EB8603002E53F8508C23DD5EAB74
:104E600003EB8604543C0DAD49AF4FF06E51404604
:104E7000FDF76AFAFDF72EFCFDF712FA4FF08741B5
:104E80008146FDF761FA01464046FDF753F9FDF70B
:104E900021FC54F8041945F8040F4846FDF74CF975
:104EA000BC428046E1D14046DDF81880414600F022
:104EB000A3FC4FF078510446FDF746FA00F03CFCA5
:104EC0004FF08241FDF740FA01462046FDF732F9E6
:104ED0000446FDF7FFFB0746FDF7E2F901462046D1
:104EE0004446FDF727F9002C054640F30F81701E5C
:104EF0000EAB53F82030C8F1080243FA02F101FA70
:104F000002F29B1AC8F1070A0EAA42F820300F4499
:104F100043FA0AFABAF1000F30DD002E07F101075B
:104F200040F34E82002214460DA907E0C3F58070BD
:104F30000BB108600124013296420BDD51F8043FA9
:104F4000002CF3D00132C3F1FF0396420B604FF007
:104F50000104F3DC069B002B0DDD012B00F0DE804D
:104F6000022B08D1721E0EAB53F822300EA903F0AB
:104F70003F0341F82230BAF1020F7DD000212846CC
:104F8000FDF776FB002800F09180079B741EA3427A
:104F900010DC06F180430EAA013B0D9802EB83035F
:104FA000002253F80419834242EA0102F9D1002A8F
:104FB00040F0DF80079B0EAA013B52F82330002B04
:104FC00040F0FC810C9B012753F804290137002A8B
:104FD000FAD0F219731C9342099240DC0B9AB90083
:104FE00003EB02080A9A08F1804803916999164474
:104FF00008F1FF38B20001EB880822A99B00049257
:1050000001EB020A4AAA02EB0309043B05930026BE
:1050100058F8040FFDF744F9019B4AF8040B002BE4
:105020001FDB049B0027F418059BF51822AB1C44DA
:105030001D44029BA3F1040B5BF8041F54F8040900
:10504000FDF782F901463846FDF776F8AC4207468F
:10505000F2D1039B04369E4249F8047BD8D1099EC5
:10506000F6E6039B043600279E4249F8047BCFD125
:10507000F5E700BF545E000829464FF07E50FDF76B
:1050800059F80546002C3FF479AF06994FF07E5051
:1050900000F0B2FB01462846FDF74CF8054600211A
:1050A0002846FDF7E5FA00287FF46FAF0297069FC8
:1050B0002846794200F0A0FB4FF087410446FDF7F7
:1050C000F5FA002800F081814FF06E512046FDF77F
:1050D0003BF9FDF7FFFAFDF7E3F84FF0874105468E
:1050E000FDF732F901462046FDF724F8FDF7F2FA04
:1050F0000EAB43F826002846FDF7ECFA3B46083392
:10510000741C06930EAB43F8240047E010D1731EC5
:105110000EAA52F823304FEA232AFBE6721E0EAB8A
:1051200053F822300EA903F07F0341F8223022E722
:105130004FF07C51FDF7BAFA50B982461EE70436AB
:105140004FF00009464547F8049F7FF457AE73E6D9
:10515000002E07F10107C8BF4FF0020A3FF7E2AE89
:1051600029464FF07E50FCF7E5FF4FF0020A054656
:1051700004E7069A0EAB53F82430083A02970692D9
:1051800063B904F18043013B0EA901EB830353F89B
:105190000419013C083A0029F9D0069206994FF00B
:1051A0007E5000F029FB002C0546C0F21881A300B8
:1051B0004AAA1F1D02EB030901930EAB1F4409F11C
:1051C000040657F8040DFDF76BF82946FDF7BCF807
:1051D0004FF06E5146F8040D2846FDF7B5F80EABBA
:1051E0009F420546EDD1A346DDF81C80A9F10409D4
:1051F0000027CDF80CA0B8F1000FB8BF002615DBD2
:10520000824CCA4682480026002503E0AF420DDBEF
:1052100054F8040F5AF8041FFDF796F8014630467B
:10522000FCF78AFF0135A8450646EFDA5EAB03EBD3
:105230008703A9F1040943F8A06C48AB994507F12D
:105240000107D8D1689B5C46DDF80CA0032B5AD827
:10525000DFE803F08D5F5F02002C40F3BE80019A0F
:105260005EA98B1836AE53F8A07CB51855F8049C8F
:1052700039464846FCF760FF804601464846FCF741
:1052800059FF3946FCF758FF286045F8048DAE42B7
:105290004746EBD1012C40F3A080019B5EAAF41895
:1052A000254602EB030858F8A06C0DF1DC0955F80F
:1052B000048C30464146FCF73FFF07460146404616
:1052C000FCF738FF3146FCF737FF286045F8047DCE
:1052D000A9453E46EBD10020043438AD54F8041DF6
:1052E000FCF72AFFA542F9D1BAF1000F6AD0369A2D
:1052F000379B00F1004002F1004203F10043089C9B
:10530000A06022606360029B03F007005FB0BDE80D
:10531000F08F019D36AE04353544002055F8041D4C
:10532000FCF70AFFB542F9D1BAF1000F39D0089A5B
:1053300000F10043014613603698FCF7FBFE002C99
:105340000BDD36AE0125013556F8041FFCF7F4FEDF
:10535000AC42F8DABAF1000F50D0089A00F10043DD
:105360005360029B03F007005FB0BDE8F08F019B24
:105370005EAA13440020A3F19C05013C55F8041DCE
:10538000FCF7DAFE631CF8D1BAF1000F01D000F18E
:105390000040089B1860029B03F007005FB0BDE867
:1053A000F08F089B014618603698FCF7C3FE002C6E
:1053B000D8BF0346C5DC089A5360D2E7012708E648
:1053C0000024C7E5369A379B99E72046FDF782F916
:1053D0000EAB344643F82600E0E6002084E7689BE5
:1053E000032B90D801A252F823F000BF0954000803
:1053F0000554000805540008DB5300080346089ACA
:105400005360AEE700208FE70020BDE7605E000834
:105410000000C93F2DE9F84320F00043B3F1485F95
:1054200004460F46904603DAFDF754F9002858D099
:1054300021462046FCF788FF054601462046FCF73A
:1054400083FF294906462846FCF77EFF2749FCF7DB
:1054500071FE2946FCF778FF2549FCF76DFE2946C9
:10546000FCF772FF2349FCF765FE2946FCF76CFF49
:105470002149FCF761FE8146B8F1000F22D04FF0C0
:105480007C513846FCF760FF494680463046FCF7C1
:105490005BFF01464046FCF74DFE2946FCF754FFF2
:1054A0003946FCF747FE154905463046FCF74CFFE8
:1054B00001462846FCF740FE01462046FCF73AFE2E
:1054C000BDE8F88301462846FCF73EFF0B49FCF790
:1054D00031FE3146FCF738FF2146FCF72DFEBDE8D2
:1054E000F8832046BDE8F883D3C92E2F342FD73256
:1054F0001BEF3836010D50398988083CABAA2A3E8B
:10550000002070472DE9F04120F00045B5F1A14F92
:105510000446064608DBB5F1FF4F6FDC002840F378
:10552000A0806F48BDE8F0816E4B9D4277DCB5F1FD
:10553000445F68DB4FF0FF3721462046FCF704FF4D
:1055400001468046FCF700FF05466749FCF7FCFE74
:105550006649FCF7F1FD2946FCF7F6FE6449FCF7C5
:10556000EBFD2946FCF7F0FE6249FCF7E5FD294614
:10557000FCF7EAFE6049FCF7DFFD2946FCF7E4FE94
:105580005E49FCF7D9FD4146FCF7DEFE5C498046EA
:105590002846FCF7D9FE5B49FCF7CCFD2946FCF711
:1055A000D3FE5949FCF7C6FD2946FCF7CDFE574905
:1055B000FCF7C0FD2946FCF7C7FE5549FCF7BAFDCC
:1055C0002946FCF7C1FE7B1C014640464CD0FCF747
:1055D000B3FD2146FCF7B8FE4E4B4F4D53F8271054
:1055E000FCF7A8FD2146FCF7A5FD014655F827006C
:1055F000FCF7A0FD002E30DBBDE8F0810146FCF792
:105600009BFDBDE8F0814549FCF796FD4FF07E51CA
:10561000FDF756F800288DD02046BDE8F08100F057
:1056200087F83F4B04469D4229DCA3F5D0039D42F9
:1056300044DC0146FCF780FD4FF07E51FCF77AFD1B
:105640004FF0804105462046FCF776FD014628468E
:10565000FCF72EFF002704466EE700F10040BDE88E
:10566000F0813048BDE8F081FCF766FD2146FCF78B
:105670006BFE01462046FCF75DFDBDE8F0812A4B3C
:105680009D4214DC4FF07F51FCF754FD4FF07F51E9
:1056900005462046FCF758FE4FF07E51FCF74CFDC6
:1056A00001462846FCF704FF0227044644E701466A
:1056B0001E48FCF7FDFE032704463DE74FF07E51F0
:1056C000FCF738FD4FF07E5105462046FCF734FDCF
:1056D00001462846FCF7ECFE012704462CE700BFF4
:1056E000DB0FC93FFFFFDF3ED769853C59DA4B3DF1
:1056F000356B883D6E2EBA3D2549123EABAAAA3EB7
:1057000021A215BD6BF16E3D95879D3D388EE33D21
:10571000CDCC4C3E8C5E00089C5E0008CAF24971FC
:10572000FFFF973FDB0FC9BFFFFF1B40000080BF9B
:1057300020F00040704700BF2DE9F04120F0004705
:10574000FC0D7F3C162C054613DC002C80461BDB31
:10575000194F2741384214D01849FCF7EDFC0021BD
:10576000FCF7AEFF68B1002D1BDB28EA0700BDE89F
:10577000F081B7F1FF4F04D30146FCF7DDFCBDE833
:10578000F0812846BDE8F0810C49FCF7D5FC0021EA
:10579000FCF796FF0028F4D0002D08DB0020BDE8C0
:1057A000F0814FF4000343FA04F4A044DDE7002F36
:1057B000E7D00348BDE8F081FFFF7F00CAF24971DE
:1057C000000080BF30F0004001D102207047A0F5FA
:1057D0000003B3F1FE4F01D204207047054B421E77
:1057E0009A4201D803207047A0F1FF40B0FA80F040
:1057F00040097047FEFF7F0030F0004238B5034695
:1058000016D0B2F1FF4F0FD2B2F5000F0D4610D3F4
:105810000446D20D2A44FE2A2EDC002A1DDD24F087
:10582000FF4444EAC25038BD0146FCF785FC38BD50
:1058300038BD4FF09841FCF787FD184A0346954262
:1058400007DBC0F3C7520446193AE3E7144800F0F7
:105850002BF81349FCF778FD38BD12F1160F13DA57
:105860004CF2503295421946F0DD0E4800F01CF81B
:105870000C49FCF769FD38BD19460A4800F014F8D8
:105880000849FCF761FD38BD193224F0FF4040EAB9
:10589000C2504FF04C51FCF757FD38BDB03CFFFFF4
:1058A0006042A20DCAF2497101F0004120F00040AF
:1058B00008437047014B1868704700BFAC000020D8
:1058C000000C014008001002000C01401000100202
:1058D0000008014000101402000C014004001002F6
:1058E0000000803F000080BF0000803F000080BFBC
:1058F0000000803F000080BF000080BF0000803FAC
:105900000000803F0000803F0000803F0000803F9B
:105910000000803F0000803F000080BF000080BF8B
:10592000431100082B110008E3100008E1030008F0
:1059300015110008110100081048494A4B4C4D440C
:10594000454647FF000000400008014001000000FC
:10595000001C0000000000400008014002000000A0
:10596000041C00000000004000080140040000008A
:10597000081C000000000040000801400800000072
:105980000C1C000000040040000801404000000022
:10599000001D0000000400400008014080000000DD
:1059A000041D000000040040000C01400100000044
:1059B000081D000000040040000C0140020000002F
:1059C0000C1D0000002C01400008014000010000F7
:1059D000001B0100002C01400008014000080000ED
:1059E0000C1B010000080040000C014040000000BA
:1059F000001E000000080040000C01408000000074
:105A0000041E000000080040000C014000010000DE
:105A1000081E000000080040000C014000020000C9
:105A20000C1E00000000171700000000005400408A
:105A3000000C0140400080001F20000000002000FA
:105A400000580040000C0140000400082122000022
:105A50000000400000000200DD1000080400040007
:105A6000D710000808000800D11000080C00100032
:105A7000C9100008000000002828551E1E2D000037
:105A80000000000001000000030000000200000010
:105A900004000000050000000600000007000000F0
:105AA0004D61722020392032303136000000004B29
:105AB000000000CB7371727466000000000FC93FD4
:105AC000000F494000CB9640000FC9400053FB40F7
:105AD00000CB164100ED2F41000F494100316241DA
