:020000040800F2
:100000000050002001450008A1450008A145000856
:10001000A1450008A1450008A14500080000000016
:10002000000000000000000000000000A1450008E2
:10003000A145000800000000A145000815050008C2
:10004000A1450008A1450008A1450008A1450008F8
:10005000A1450008A1450008A1450008A1450008E8
:10006000A1450008A1450008A1450008A1450008D8
:10007000A1450008A1450008A9160008A1450008EF
:10008000A1450008A1450008A1450008A1450008B8
:10009000A1450008A1450008A1450008A1450008A8
:1000A000A1450008A1450008A14500086D0F000802
:1000B000650F0008590F00084D0F000827050008BC
:1000C000130800082505000811080008A1450008CC
:1000D000A145000873160008A1450008A1450008C5
:1000E000A1450008A1450008A14500080000000046
:1000F0000000000000000000000000000000000000
:0C01000000000000000000005FF808F1A3
:100110007047044B4FF4805208B11A6170475A611E
:10012000704700BF00080140034B4FF4805208B1F4
:100130005A6170471A617047000801408848F0B55D
:100140000368884A9C8AA4B2E1B211F0010F32D050
:100150001988854C21F400610904090C198019885B
:1001600089B241F480611980002111707F490978BA
:10017000A9B1517819B97E490978FF290FD1012118
:1001800051707C490978022901BF198889B241F46C
:1001900000611980217841F00101198201E1217883
:1001A00001F0FE011982724B1B78FF2B00F0F980E1
:1001B000FF231370F5E08E073CD5BFF35F8F6D49C9
:1001C0000C78E4B2012C14D1684D2D788DB155789E
:1001D0007DB1198821F480610904090C1980BFF3ED
:1001E0005F8F198B1988947089B241F4007119805E
:1001F0001BE01C8BBFF35F8F0C78022C0BD15B4C88
:10020000247844B1547834B1198821F48061090408
:10021000090C1980BFE00978032906D153490978F0
:1002200019B15178002940F0B680998889B241F41B
:100230008061B5E04D075BD5012191704B4909788C
:1002400000293AD05178002937D04A494A4D0978D7
:100250001C88022911781ED924F480642404240CFB
:100260001C801E8A2F68CCB2F6B249B27E5419881F
:100270002D6889B241F4007119800168A31C1370C4
:100280000B8A0134DBB264B22B558B889BB243F4EA
:1002900080638B8027E0A4B244F400741C802E6835
:1002A0001D8ACCB2EDB249B275541B8A611C49B2A9
:1002B000DBB203347354147015E0517811B92F492F
:1002C000097841B1198889B241F400711980137815
:1002D0000133137007E0198889B241F480711980E5
:1002E000204B0121597001680B88DC05FCD458E0D3
:1002F00001F0400101F0FF061E4DF1B114781E49D6
:100300001F8AD1F800E0E6B2FFB264B2711C0EF8A9
:100310000470C9B22F78117049B2CC1CA74201BF3A
:100320009C8824F480642404240C08BF9C802B78CF
:100330008B4236D10236167033E0210631D5117862
:100340004CB2671C1ED00E4E01313668C9B2345D06
:1003500011701C822C7849B28C4222D11BE000BF64
:10036000A808002068060020980800209B080020AC
:1003700099080020A4080020A00800209A08002066
:100380009C080020124916700978198211490978D1
:1003900009B9297829B9998821F480610904090CDF
:1003A00099800D4B92F900201B780C4901339A4239
:1003B0000DD100234B708B7833B10268938823F4FE
:1003C00040731B041B0C9380054B00221A70F0BD78
:1003D000990800209B080020A4080020680600203F
:1003E000A508002030B5002385B0ADF80A30ADF87F
:1003F0000430ADF80630ADF80830ADF80C300379B4
:100400000446DA0744BF0422ADF80A209B0748BF20
:10041000BDF80A300D46009148BF43F00803806CD8
:10042000694648BFADF80A3000F0B8FFA56005B0D6
:1004300030BD836A8169426B1944D160416A994237
:1004400097BF0169CB1ACB1A536096BF0023536044
:1004500083624FF0000380F84430136888BF8162E4
:1004600043F0010313607047014B1B68184700BF3E
:100470006C09002010B50949094B4C689B684A6813
:100480009442F8D18A684FF47A7042438968D31A4B
:10049000B3FBF1F300FB043010BD00BF6806002081
:1004A00010E000E038B50446FFF7E4FF0546FFF72B
:1004B000E1FF401BA042FAD338BD10B504462CB171
:1004C0004FF47A70FFF7EEFF013CF8E710BD40F201
:1004D000DB14604308B50E4B10221A6108225A61E2
:1004E000841E0B4B2046DA6882F01002DA60DA686C
:1004F00082F00802DA60FFF7E0FF0120FFF7B4FFA7
:100500001920FFF7DAFF0020FFF7AEFFE9E700BF91
:10051000000C0140024A536801335360704700BF2A
:10052000680600200AE609E6F0B5B1F800E000230D
:100530004EFA03F2D50725D58E784FEAD30CF40690
:1005400048BFCC7806F00F0203F0070748BF2243EC
:10055000BF0050F82C500F24BC4025EA0404BA40D8
:100560002243282E40F82C2005D1C46801229A404D
:1005700024EA020205E0482E04D1C46801229A4010
:100580002243C2600133102BD2D1F0BD012828BF15
:1005900001202DE9F04F0546142000FB05F36B4FB9
:1005A000DFF8C481FA18FB581169C8F80030684BAD
:1005B00016891D73674BB2F80AA0DC6989B0214324
:1005C00054684AEA0609D9610222C4F8109003A9C6
:1005D0008DF80E0020460193ADF80C908DF80F2099
:1005E000FFF7A2FF019B00971F464FF0080BA26880
:1005F000164203D10A20FFF755FFF8E70A2066618B
:10060000FFF750FF26610A20FFF74CFFBBF1010BFB
:10061000EDD1C4F814A00A20FFF744FF66610A2058
:10062000FFF740FF26610A20FFF73CFF0222C4F8D3
:1006300010A0204603A98DF80F201C228DF80E2053
:10064000ADF80C90FFF770FFD8F80040424A03A8BD
:1006500094423A690BBF42F4001242F480023A61BC
:100660003A610BBF3A693A6922F4001222F480021F
:100670003A61A38823F440731B041B0CA3802388D6
:100680009BB243F001032380A68800F03FFE05994A
:10069000324B26F03F06B1FBF3F33604360C1E4313
:1006A000B6B2A6802288002622F001021204120CA3
:1006B00022802B4A03A8B1FBF2F100298AB208BFBD
:1006C000012242F400414FF4967253434FF47A7280
:1006D00093FBF2F301339BB22384A1832388009A16
:1006E0009BB243F001032380238823F4816323F02A
:1006F00002031B041B0C23804FF48043238114232B
:1007000003FB05256B7B01248DF80C308DF80D6003
:100710008DF80E608DF80F4000F02CFF2B7B9DF8BC
:100720000F208DF80C308DF80D601AB103A800F081
:1007300021FF08E05A0903F01F039C4002F1200347
:10074000084A42F8234009B0BDE8F08F84590008F8
:1007500068060020001002400054004040420F0094
:10076000804F120000E100E0A808002013B52449E2
:100770000B680C469A8A92B20192019A12F4706F39
:100780001EBF204A01211170019A12F4E06F2AD095
:100790001A8B9A8822F480621204120C9A80019AB1
:1007A000910520D41A8892051DD41A88D0050FD53A
:1007B0001A88D105FCD41A8892B242F400721A80C9
:1007C0001A889205FCD4104B187BFFF7DFFE0AE075
:1007D0001A8892B242F400721A809A8822F4407207
:1007E0001204120C9A802268938A23F470631B040B
:1007F0001B0C9382054B00221A7002B010BD00BF83
:10080000A8080020A608002068060020A5080020EF
:10081000ACE7ABE7054A08B5D389107B01339BB23F
:10082000D381FFF7B3FE002008BD00BF680600209B
:1008300010B54000204CC0B220702048204C017000
:10084000204800210170012020701F4C23601F4CA4
:1008500023601F4B1A701F4A1F4B107019701F49DD
:10086000086811461A4630B383889C0515D403885E
:10087000DB050DD447F230530488A40502D5013BB3
:10088000FAD112E08BB103889BB243F480730380EA
:1008900083889BB243F44073838047F230530878D7
:1008A00010B1013BFBD100E013B9BDE81040B1E746
:1008B000107880F0010010BD9808002099080020F1
:1008C0009B0800209A080020A00800209C08002017
:1008D000A4080020A5080020A6080020A8080020E1
:1008E00038B504460D46242000F0E8FF4D2000F006
:1008F000E5FF002C094C14BF21203E2000F0DEFF54
:100900002368002228461A7100F0D8FF236893F864
:100910008600BDE8384000F0D1BF00BF24000020B1
:1009200001460020DCE7074B1A685379D118981C60
:100930000133DBB2134489795071987901EB0020BF
:1009400080B270472400002010B50446C0B200F009
:10095000B5FFC4F3072000F0B1FFC4F3074000F077
:10096000ADFF200EBDE8104000F0A8BF10B5044652
:10097000C0B200F0A3FFC4F30720BDE8104000F0B0
:100980009DBF00BF024B186803681B68184700BF73
:100990006C03002070B50646104C002504EB811155
:1009A00001F10C040E4A308A2A445388B18903426B
:1009B00089B20DD00B420BD0DB439BB23382304661
:1009C0005368984754F8043C01460BB12078984787
:1009D0000835202D04F11004E4D170BD90070020EB
:1009E000AC590008024B53F820301B68198070473F
:1009F000E00400200328104B0BD8104A12888A42CA
:100A00003FBF012293F8001182400A4338BF83F8A8
:100A1000002193F800310F2B0CD1074B084A00211D
:100A200083F80011138818B2142802DD143B1380D8
:100A300070471180704700BF90070020140000200D
:100A400072050020144B10B5B3F80221A3F802116F
:100A5000A3F80421891A40F68C2289B291421C46DF
:100A600003D9002283F8062110BD40F2DA52A1F228
:100A7000EF239BB2934208D894F80601072804D8C4
:100A8000064B23F81010FFF7B5FF94F80631013339
:100A900084F8063110BD00BF900700204A090020ED
:100AA00030B57A4B1D78038C91BB23F001031B04F6
:100AB0001B0C0384048B7649A4B2038C24F0F3044A
:100AC00044F0010488429BB244EA051512D001F5B6
:100AD000006188420ED0B0F1804F0BD0A1F5983163
:100AE000884207D001F58061884203D001F580611A
:100AF000884202D123F0020301E023F00A0343F00D
:100B000001031A4305830284038B23F00C033AE0AC
:100B100004293FD123F010031B041B0C0384048B16
:100B2000018C24F440742405240D44F48073584C43
:100B300043EA0533A04289B29BB212D004F50064A7
:100B4000A0420ED0B0F1804F0BD0A4F59834A04253
:100B500007D004F58064A04203D004F58064A0426D
:100B600007D121F0200141F0100141EA021292B2B6
:100B700004E021F0A00141F010010A430383028444
:100B8000038B23F440631B041B0C0383038B9BB276
:100B9000038330BD082937D123F480731B041B0C59
:100BA0000384848B3A49A4B2038C24F0F30444F008
:100BB000010488429BB244EA051512D001F5006198
:100BC00088420ED0B0F1804F0BD0A1F59831884209
:100BD00007D001F58061884203D001F58061884229
:100BE00007D123F4007343F4807343EA022292B2E4
:100BF00004E023F4206343F480731A438583028462
:100C0000838B23F00C0339E023F480531B041B0C6B
:100C10000384818B048C21F440731B051B0D1C493C
:100C200043F4807343EA05338842A4B29BB212D0E6
:100C300001F5006188420ED0B0F1804F0BD0A1F5D4
:100C40009831884207D001F58061884203D001F5D0
:100C50008061884207D124F4005444F4805444EA6B
:100C6000023292B205E047F6FF51214041F4805133
:100C70000A4383830284838B23F440631B041B0C8D
:100C80008383838B9BB2838330BD00BF84030020AA
:100C9000002C0140F8B50446184F182303FB0073DD
:100CA00003F10802D079164E250138B919820123C3
:100CB000D37173197059197B02221CE003F11000E3
:100CC00059821B8AC91A89B2818040F2DA50A1F296
:100CD000EF239BB2834205D890790A4B23F810107A
:100CE000FFF788FE182303FB0474731908340022ED
:100CF0007059197BE271BDE8F840D1E690030020FD
:100D0000F85900084A09002008B1014B18707047D3
:100D10002800002008B1014B5870704728000020BF
:100D20001FB504466B46432106226820FFF780FD6D
:100D30009DF801309DF80020042143EA022212B2FE
:100D400092FBF1F29DF80230ADF808209DF80320E7
:100D500002A842EA032212B292FBF1F29DF804309B
:100D6000ADF80A209DF8052042EA03231BB293FB4D
:100D7000F1F3ADF80C30034B21461A7800F044FC37
:100D800004B010BD280000201FB504466B463B216F
:100D900006226820FFF74CFD9DF800209DF80130E9
:100DA00002A843EA0223ADF808309DF802209DF81E
:100DB0000330214643EA0223ADF80A309DF80420AF
:100DC0009DF8053043EA0223ADF80C30024B5A7807
:100DD00000F01AFC04B010BD280000202DE9F04FEF
:100DE0000C68836887B0D0F800A0D0F8049007465C
:100DF000204601938B4603F0D5FB8046204603F046
:100E000043FCDBF804500446284603F0CBFB0646BF
:100E1000284603F039FCDBF808200546104600920E
:100E200003F0C0FB009A8346104603F02DFC4146B8
:100E30000090584601F07AFA41460290009801F07D
:100E400075FA59460390204601F070FA0099049013
:100E5000204601F06BFA31460590584601F066FADB
:100E60000146504601F062FA29468346049801F093
:100E70005DFA0146039801F051F90146484601F038
:100E800055FA0146584601F049F929468346029829
:100E900001F04CFA0146059801F03EF9014601982F
:100EA00001F044FA0146584601F038F900993860DB
:100EB00006F1004001F03AFA0146504601F036FAD8
:100EC00029468346059801F031FA0146029801F05F
:100ED00023F90146484601F029FA0146584601F037
:100EE0001DF929468346039801F020FA014604982B
:100EF00001F014F90146019801F018FA014658462C
:100F000001F00CF929467860504601F00FFA31469D
:100F1000054604F1004001F009FA0146484601F097
:100F200005FA0146284601F0F9F8414604463046E4
:100F300001F0FCF90146019801F0F8F9014620465C
:100F400001F0ECF8B86007B0BDE8F08F014803216C
:100F500020E500BF00080040014802211AE500BF5B
:100F6000000400404FF08040012113E501480021BA
:100F700010E500BF002C0140084B9A8998811A891E
:100F8000D007FCD5054B9889C0B2044B1A8991074C
:100F9000FBD51A891206FCD4704700BF0038004008
:100FA000484B2DE9F347484E182707FB003704014B
:100FB000331903F1080A814658689B68BA73ADF883
:100FC00004308846282301A902258DF806308DF8C3
:100FD0000750FFF7A9FA34599AF804600022204616
:100FE0003146FFF75DFD20464FF6FF7100F010F926
:100FF000238801A89BB243F0010323809AF80530AF
:101000004FF0010A8DF804308DF805A08DF806A088
:101010008DF807A000F0AEFA2C4B9C420DD0B4F135
:10102000804F0CD0A3F594339C420AD003F5806323
:101030009C4214BF0423032304E0002302E0534630
:1010400000E02B4636B1042E31D0082E31D00C2EC4
:101050000DD130E03246042B09D002EB83031C4A49
:1010600002EB0313C3F808801E7183F80C900C2E5A
:1010700023D8DFE806F0072222220C2222221122A6
:1010800022221600A3899BB243F002030DE0A3893C
:101090009BB243F0040308E0A3899BB243F008032A
:1010A00003E0A3899BB243F01003A38105E0012272
:1010B000D1E70222CFE70322CDE7384602B0BDE8F0
:1010C000F08700BF90030020F8590008002C014071
:1010D00090070020034607B502AA02F8011D682008
:1010E000194600F05AF803B05DF804FBB0F8400070
:1010F00080B27047808F80B27047008F80B2704797
:10110000808E80B27047016B0346C26810B540699B
:1011100041B1196C541A013918BF0A46005D1A64AE
:10112000C0B210BD196A405C0131B1FBF2F402FBA0
:101130001412C0B21A6210BD436B13B190F8440090
:101140007047836A406A1B1A584258417047036BC4
:1011500013B15B68006C01E0036AC069181A18BF1C
:1011600001207047426A10B58469A154426A04693B
:101170000132B2FBF4F104FB11224262426B32B144
:101180001368DB0708D4BDE81040FFF752B9826C42
:10119000D36843F08003D36010BD1C4B4000C0B245
:1011A00018705970002001219970D8701973597303
:1011B000987318695A609A6030B38288910515D483
:1011C0000288D2050DD447F230520188890502D534
:1011D000013AFAD112E08AB1028892B242F48072E6
:1011E0000280828892B242F44072828047F230528A
:1011F000597B11B1013AFBD100E00AB9FFF70ABBF4
:10120000024B987B80F00100704700BF98080020D7
:10121000244B254A1B6810B5B3FBF2F2234C03881C
:101220000139013AA04289B292B29BB212D004F5C0
:101230000064A0420ED0B0F1804F0BD0A4F59834DA
:10124000A04207D004F58064A04203D004F5806476
:10125000A04202D123F070039BB2154CA04206D0ED
:1012600004F58064A0421CBF23F440739BB203804A
:101270000E4B8185984202850FD003F5006398429A
:101280000BD003F54063984207D003F58063984282
:1012900003D003F58063984201D100230386012324
:1012A000838210BD4400002040420F00002C01400A
:1012B0000010004080EAE073A3EBE073272B06DD0B
:1012C000002801DD2838704702D028307047002000
:1012D000704770B505460E460024AC420FD00A4A4E
:1012E0000120D368013483F00803D360FFF7BCF812
:1012F0003046FFF7E2F80020FFF7B6F8EDE73C20B4
:10130000BDE87040FFF7D9B8000C01401F4A10B586
:1013100053681F4903F00C03042B03D0082B03D0A0
:101320001C4B12E00B6810E053685468C3F383430E
:10133000E40303F1020301D4174C05E0546814F4EC
:10134000003F0C6818BF6408634303605368C3F32D
:1013500003130B441C790368E34043605468C4F3EF
:1013600002240C44247923FA04F484605468C4F3FE
:10137000C2240C442479E340C3605268C2F3813232
:1013800011440A7DB3FBF2F3036110BD001002406B
:101390002C00002000127A0000093D0070B50E46B6
:1013A0000446038ACA889BB223F440531343038242
:1013B00082890989B38892B20B43718922F4B052B1
:1013C0000B4322F00C0213439BB28381838AB289C0
:1013D0009BB223F4407386B01343838201A8FFF7C6
:1013E00095FF039B049D174A3168944218BF1D4620
:1013F000A38919226A431BB2002BB4BF4D008D0094
:10140000B2FBF5F56426B5FBF6F00001010906FB19
:101410001153A28912B2002AADBF1A01D90032318C
:101420003232B5BFB1FBF6F2B2FBF6F302F00702BF
:1014300003F00F03B4BF1043184380B2208106B0FD
:1014400070BD00BF003801408A6810B50C6A03689F
:1014500014430A6923F4FF4314434A6923F07003D9
:1014600014438A691443CA6914434A6A14438A6A52
:10147000224313430360CB6843600B6883604B686F
:10148000C36010BD4FF6FE73026813400360002373
:10149000036043608360C360284B984201D1284AAF
:1014A00027E0284B984201D1254A2AE0264B984252
:1014B00001D1234A2DE0254B984201D1204A30E04A
:1014C000234B984201D11E4A33E0224B984204D16B
:1014D0001B4A536843F470032EE01F4B984204D11B
:1014E000174A536843F0706326E01C4B984204D1BE
:1014F0001B4A536843F00F031EE01A4B984204D175
:10150000174A536843F0F00316E0174B984204D192
:10151000134A536843F470630EE0144B984204D1AD
:101520000F4A536843F4704306E0114B984204D1CC
:101530000B4A536843F4702353607047080002401D
:10154000000002401C000240300002404400024003
:10155000580002406C000240800002400804024033
:10156000000402401C0402403004024044040240D3
:10157000580402400F4BD9684378C943C1F3022194
:10158000C1F1040203FA02F20F23CB4081780B4031
:101590001343094902781B01DBB20A4482F8003385
:1015A00003780122580903F01F0302FA03F341F8FC
:1015B0002030704700ED00E000E100E00F4B1A68BA
:1015C00042F001021A6059680D4A0A405A601A68CE
:1015D00022F0847222F480321A601A6822F4802287
:1015E0001A605A6822F4FE025A604FF41F029A6091
:1015F000044B4FF000629A60704700BF0010024039
:101600000000FFF800ED00E0013A072A30D8DFE8DB
:1016100002F004080C12191E222603880B8043884E
:101620000DE043880B80038803E003885B420B8056
:1016300043885B4203E043885B420B8003884B8016
:10164000838814E003885B420B8043880CE0438866
:101650000B80038808E003880B80438803E04388FD
:101660005B420B8003885B424B8083885B428B80AC
:1016700070470C4BD96D0A88120612D5DA6B986B3D
:1016800082420AD0D86A805C01328880586AB2FBF4
:10169000F0F100FB1122DA637047CB6823F080037E
:1016A000CB607047980800200A4B4FF400525A60F4
:1016B0004FF6FE730848826C11680B401360826B12
:1016C000C36B9A4202D01430FEF7B3BE012380F8F8
:1016D0005830704700000240980800202DE9F74F6D
:1016E000664A00251046B2F9023030F9081B83EA39
:1016F000E37EAEEBE37E81EAE173A3EBE1739E450B
:10170000B8BF9E46A8462B469146022B4FEA430C93
:1017100036D039F913205A4C5200B2F5FA7F594E9F
:1017200034F91350A8BF4FF4FA72B242ACBFC5EB04
:101730000202C5EB060254494FF0640831F9135018
:101740005A211544694391FBF8F1B1F5FA7FA8BF1E
:101750004FF4FA71B142B8BF31468846211D42F2BA
:10176000107451F823202A44A242A8BF2246474CB5
:101770000A25A242B8BF2246554341F823202D1323
:101780003E4A434932F90CA0203232F80C705C5CBE
:101790003EB286EAE672A2EBE672B2F5207F0168FD
:1017A00019DC022B11D0502202FB0AF292FBF4F456
:1017B000A41B0C44B4F57A5F364AA8BF4FF47A54A0
:1017C0009442ACBF0460026007E08AEAEA72A2EBCE
:1017D000EA72642AE7DD0022026004687D2294FB3D
:1017E000F2F22D49022BC95C01FB02F24FEAA21270
:1017F0000FD00EFB0AF10EFB02F2CEF5FA7404FBD9
:10180000081104FB05224FF4FA7B91FBFBFA92FBD3
:10181000FBF2224C6FF04F0BE15C0430714391FB03
:10182000FBF1514404F1040A3AF90CB02AF80C70A7
:10183000CBEB060604F10A0A04F1160B5BF82370E1
:1018400001915AF823104AF823600F44374404F1F9
:1018500022062834E45C4BF823106743202497FBCE
:10186000F4F70199D21B01330A44032B26F80C200C
:101870007FF44BAF03B0BDE8F08F00BFF808002045
:101880000C0900200CFEFFFFCC590008F0D8FFFF28
:10189000D059000880C1FFFFD35900081E0900205D
:1018A000044B03EB8000027B034B03EB4203B3F8D2
:1018B00052007047CC590008F808002038B504469B
:1018C000054D21462B68186803681B6898472B68EC
:1018D00018796040187138BD2400002081F0004163
:1018E00002E000BF83F0004330B54FEA41044FEA05
:1018F000430594EA050F08BF90EA020F1FBF54EAA0
:10190000000C55EA020C7FEA645C7FEA655C00F03B
:10191000E2804FEA5454D4EB5555B8BF6D420CDD0C
:101920002C4480EA020281EA030382EA000083EA8F
:10193000010180EA020281EA0303362D88BF30BD2F
:1019400011F0004F4FEA01314FF4801C4CEA113185
:1019500002D0404261EB410113F0004F4FEA0333E4
:101960004CEA133302D0524263EB430394EA050F6F
:1019700000F0A780A4F10104D5F1200E0DDB02FADE
:101980000EFC22FA05F2801841F1000103FA0EF272
:10199000801843FA05F359410EE0A5F120050EF138
:1019A000200E012A03FA0EFC28BF4CF0020C43FA69
:1019B00005F3C01851EBE37101F0004507D54FF076
:1019C000000EDCF1000C7EEB00006EEB0101B1F5C6
:1019D000801F1BD3B1F5001F0CD349085FEA30000C
:1019E0004FEA3C0C04F101044FEA445212F5800F17
:1019F00080F09A80BCF1004F08BF5FEA500C50F1B4
:101A0000000041EB045141EA050130BD5FEA4C0C96
:101A1000404141EB010111F4801FA4F10104E9D11F
:101A200091F0000F04BF01460020B1FA81F308BF16
:101A30002033A3F10B03B3F120020CDA0C3208DDE2
:101A400002F1140CC2F10C0201FA0CF021FA02F1BD
:101A50000CE002F11402D8BFC2F1200C01FA02F12D
:101A600020FA0CFCDCBF41EA0C019040E41AA2BF52
:101A700001EB0451294330BD6FEA04041F3C1CDA1A
:101A80000C340EDC04F11404C4F1200220FA04F03A
:101A900001FA02F340EA030021FA04F345EA0301E4
:101AA00030BDC4F10C04C4F1200220FA02F001FAA6
:101AB00004F340EA0300294630BD21FA04F0294628
:101AC00030BD94F0000F83F4801306BF81F48011C1
:101AD0000134013D4EE77FEA645C18BF7FEA655C34
:101AE00029D094EA050F08BF90EA020F05D054EA06
:101AF000000C04BF1946104630BD91EA030F1EBF0B
:101B00000021002030BD5FEA545C05D1400049410E
:101B100028BF41F0004130BD14F580043CBF01F501
:101B2000801130BD01F0004545F0FE4141F47001E7
:101B30004FF0000030BD7FEA645C1ABF19461046C2
:101B40007FEA655C1CBF0B46024650EA013406BFC3
:101B500052EA033591EA030F41F4002130BD00BF82
:101B600090F0000F04BF0021704730B54FF480643F
:101B700004F132044FF000054FF0000150E700BFC0
:101B800090F0000F04BF0021704730B54FF480641F
:101B900004F1320410F0004548BF40424FF000010C
:101BA0003EE700BF42004FEAE2014FEA31014FEA4F
:101BB00002701FBF12F07F4393F07F4F81F060519E
:101BC000704792F0000F14BF93F07F4F704730B50D
:101BD0004FF4607401F0004521F0004120E700BFA0
:101BE00050EA010208BF704730B54FF000050AE027
:101BF00050EA010208BF704730B511F0004502D528
:101C0000404261EB41014FF4806404F132045FEA29
:101C1000915C3FF4DCAE4FF003025FEADC0C18BFCE
:101C200003325FEADC0C18BF033202EBDC02C2F1C4
:101C3000200300FA03FC20FA02F001FA03FE40EA56
:101C40000E0021FA02F11444C1E600BF70B54FF056
:101C5000FF0C4CF4E06C1CEA11541DBF1CEA135538
:101C600094EA0C0F95EA0C0F00F0DEF82C4481EAA0
:101C7000030621EA4C5123EA4C5350EA013518BFC0
:101C800052EA033541F4801143F4801338D0A0FBAD
:101C900002CE4FF00005E1FB02E506F00042E0FB5A
:101CA00003E54FF00006E1FB03569CF0000F18BF60
:101CB0004EF0010EA4F1FF04B6F5007F64F5407408
:101CC00004D25FEA4E0E6D4146EB060642EAC6219B
:101CD00041EA55514FEAC52040EA5E504FEACE2E08
:101CE000B4F1FD0C88BFBCF5E06F1ED8BEF1004F0B
:101CF00008BF5FEA500E50F1000041EB045170BD87
:101D000006F0004646EA010140EA020081EA0301CA
:101D1000B4EB5C04C2BFD4EB0C0541EA045170BDC6
:101D200041F480114FF0000E013C00F3AB8014F140
:101D3000360FDEBF002001F0004170BDC4F1000489
:101D4000203C35DA0C341BDC04F11404C4F120050A
:101D500000FA05F320FA04F001FA05F240EA020065
:101D600001F0004221F0004110EBD37021FA04F69B
:101D700042EB06015EEA430E08BF20EAD37070BD55
:101D8000C4F10C04C4F1200500FA04F320FA05F0B4
:101D900001FA04F240EA020001F0004110EBD370B6
:101DA00041F100015EEA430E08BF20EAD37070BD26
:101DB000C4F1200500FA05F24EEA020E20FA04F3FF
:101DC00001FA05F243EA020321FA04F001F00041AE
:101DD00021FA04F220EA020000EBD3705EEA430E1F
:101DE00008BF20EAD37070BD94F0000F0FD101F04E
:101DF0000046400041EB010111F4801F08BF013C87
:101E0000F7D041EA060195F0000F18BF704703F0C4
:101E10000046520043EB030313F4801F08BF013D4B
:101E2000F7D043EA0603704794EA0C0F0CEA135507
:101E300018BF95EA0C0F0CD050EA410618BF52EAC1
:101E40004306D1D181EA030101F000414FF00000C7
:101E500070BD50EA410606BF1046194652EA4306D5
:101E600019D094EA0C0F02D150EA013613D195EA49
:101E70000C0F05D152EA03361CBF104619460AD191
:101E800081EA030101F0004141F0FE4141F470019B
:101E90004FF0000070BD41F0FE4141F4780170BD8B
:101EA00070B54FF0FF0C4CF4E06C1CEA11541DBFF0
:101EB0001CEA135594EA0C0F95EA0C0F00F0A7F8F2
:101EC000A4EB050481EA030E52EA03354FEA01311F
:101ED00000F088804FEA03334FF0805545EA131332
:101EE00043EA12634FEA022245EA111545EA1065FA
:101EF0004FEA00260EF000419D4208BF964244F191
:101F0000FD0404F5407402D25B084FEA3202B61AAF
:101F100065EB03055B084FEA32024FF480104FF483
:101F2000002CB6EB020E75EB030E22BFB61A7546F7
:101F300040EA0C005B084FEA3202B6EB020E75EB8A
:101F4000030E22BFB61A754640EA5C005B084FEAF2
:101F50003202B6EB020E75EB030E22BFB61A7546BF
:101F600040EA9C005B084FEA3202B6EB020E75EBCA
:101F7000030E22BFB61A754640EADC0055EA060E8B
:101F800018D04FEA051545EA16754FEA06164FEACE
:101F9000C30343EA52734FEAC2025FEA1C1CC0D17A
:101FA00011F4801F0BD141EA00014FF000004FF007
:101FB000004CB6E711F4801F04BF01430020B4F1C8
:101FC000FD0C88BFBCF5E06F3FF6AFAEB5EB030C80
:101FD00004BFB6EB020C5FEA500C50F1000041EB7D
:101FE000045170BD0EF0004E4EEA113114EB5C044A
:101FF000C2BFD4EB0C0541EA045170BD41F480111D
:102000004FF0000E013C90E645EA060E8DE60CEA24
:10201000135594EA0C0F08BF95EA0C0F3FF43BAF41
:1020200094EA0C0F0AD150EA01347FF434AF95EAF8
:102030000C0F7FF425AF104619462CE795EA0C0FDC
:1020400006D152EA03353FF4FDAE1046194622E7A9
:1020500050EA410618BF52EA43067FF4C5AE50EA83
:1020600041047FF40DAF52EA43057FF4EBAE12E773
:102070004FEA4102B2F1E04324BFB3F5001CDCF1AA
:10208000FE5C0DD901F0004C4FEAC0024CEA5070E2
:10209000B2F1004F40EB830008BF20F00100704711
:1020A00011F0804F21D113F13872BCBF01F0004014
:1020B000704741F480114FEA5252C2F11802C2F146
:1020C000200C10FA0CF320FA02F018BF40F00100C7
:1020D0004FEAC1234FEAD32303FA0CFC40EA0C0079
:1020E00023FA02F34FEA4303CCE77FEA625307D1B6
:1020F00050EA01331EBF4FF0FE4040F440007047ED
:1021000001F0004040F0FE4040F40000704700BF86
:1021100080F0004002E000BF81F0004142001FBF9C
:102120005FEA410392EA030F7FEA226C7FEA236CA5
:102130006AD04FEA1262D2EB1363C1BFD21841409A
:1021400048404140B8BF5B42192B88BF704710F030
:10215000004F40F4000020F07F4018BF404211F0D3
:10216000004F41F4000121F07F4118BF494292EA3B
:10217000030F3FD0A2F1010241FA03FC10EB0C0067
:10218000C3F1200301FA03F100F0004302D54942F4
:1021900060EB4000B0F5000F13D3B0F1807F06D3A1
:1021A00040084FEA310102F10102FE2A51D2B1F199
:1021B000004F40EBC25008BF20F0010040EA03008E
:1021C0007047490040EB000010F4000FA2F101023B
:1021D000EDD1B0FA80FCACF1080CB2EB0C0200FAC5
:1021E0000CF0AABF00EBC25052421843BCBFD04013
:1021F0001843704792F0000F81F4000106BF80F48D
:1022000000000132013BB5E74FEA41037FEA226C4F
:1022100018BF7FEA236C21D092EA030F04D092F01A
:10222000000F08BF0846704790EA010F1CBF00204E
:10223000704712F07F4F04D1400028BF40F00040AB
:10224000704712F100723CBF00F50000704700F0CB
:10225000004343F0FE4040F4000070477FEA2262F2
:1022600016BF08467FEA23630146420206BF5FEAC3
:10227000412390EA010F40F4800070474FF00003C3
:1022800004E000BF10F0004348BF40425FEA000C8A
:1022900008BF704743F0964301464FF000001CE032
:1022A00050EA010208BF70474FF000030AE000BF88
:1022B00050EA010208BF704711F0004302D54042C6
:1022C00061EB41015FEA010C02BF84460146002038
:1022D00043F0B64308BFA3F18053A3F50003BCFA53
:1022E0008CF2083AA3EBC25310DB01FA02FC634400
:1022F00000FA02FCC2F12002BCF1004F20FA02F207
:1023000043EB020008BF20F00100704702F12002F9
:1023100001FA02FCC2F1200250EA4C0021FA02F25A
:1023200043EB020008BF20EADC7070474FF0FF0C5F
:102330001CEAD0521EBF1CEAD15392EA0C0F93EA5A
:102340000C0F6FD01A4480EA010C400218BF5FEAFC
:1023500041211ED04FF0006343EA501043EA51116F
:10236000A0FB01310CF00040B1F5000F3EBF490069
:1023700041EAD3715B0040EA010062F17F02FD2A6D
:102380001DD8B3F1004F40EBC25008BF20F0010050
:10239000704790F0000F0CF0004C08BF49024CEA67
:1023A000502040EA51207F3AC2BFD2F1FF0340EAF9
:1023B000C250704740F400004FF00003013A5DDC6A
:1023C00012F1190FDCBF00F000407047C2F10002AB
:1023D000410021FA02F1C2F1200200FA02FC5FEA98
:1023E000310040F1000053EA4C0308BF20EADC70E2
:1023F000704792F0000F00F0004C02BF400010F454
:10240000000F013AF9D040EA0C0093F0000F01F000
:10241000004C02BF490011F4000F013BF9D041EA22
:102420000C018FE70CEAD15392EA0C0F18BF93EA24
:102430000C0F0AD030F0004C18BF31F0004CD8D14E
:1024400080EA010000F00040704790F0000F17BFD5
:1024500090F0004F084691F0000F91F0004F14D01B
:1024600092EA0C0F01D142020FD193EA0C0F03D173
:102470004B0218BF084608D180EA010000F0004076
:1024800040F0FE4040F40000704740F0FE4040F451
:10249000400070474FF0FF0C1CEAD0521EBF1CEAF0
:1024A000D15392EA0C0F93EA0C0F69D0A2EB03020E
:1024B00080EA010C49024FEA402037D04FF08053A8
:1024C00043EA111143EA10130CF000408B4238BF6D
:1024D0005B0042F17D024FF4000C8B4224BF5B1A7B
:1024E00040EA0C00B3EB510F24BFA3EB510340EAC9
:1024F0005C00B3EB910F24BFA3EB910340EA9C0077
:10250000B3EBD10F24BFA3EBD10340EADC001B01E6
:1025100018BF5FEA1C1CE0D1FD2A3FF650AF8B428A
:1025200040EBC25008BF20F0010070470CF0004C97
:102530004CEA50207F32C2BFD2F1FF0340EAC250C2
:10254000704740F400004FF00003013A37E792F083
:10255000000F00F0004C02BF400010F4000F013AE1
:10256000F9D040EA0C0093F0000F01F0004C02BFDC
:10257000490011F4000F013BF9D041EA0C0195E745
:102580000CEAD15392EA0C0F08D142027FF47DAFDE
:1025900093EA0C0F7FF470AF084676E793EA0C0FCE
:1025A00004D14B023FF44CAF08466EE730F0004CCC
:1025B00018BF31F0004CCAD130F000427FF45CAF5C
:1025C00031F000437FF43CAF5FE700BF4FF0FF3CCA
:1025D00006E000BF4FF0010C02E000BF4FF0010C1D
:1025E0004DF804CD4FEA40024FEA41037FEA226CE6
:1025F00018BF7FEA236C11D001B052EA530C18BF08
:1026000090EA010F58BFB2EB030088BFC81738BF6C
:102610006FEAE17018BF40F0010070477FEA226C5A
:1026200002D15FEA402C05D17FEA236CE4D15FEA56
:10263000412CE1D05DF8040B704700BF844608468A
:102640006146FFE70FB5FFF7C9FF002848BF10F14B
:10265000000F0FBD4DF808EDFFF7F4FF0CBF012090
:1026600000205DF808FB00BF4DF808EDFFF7EAFF1A
:1026700034BF012000205DF808FB00BF4DF808EDD5
:10268000FFF7E0FF94BF012000205DF808FB00BFCA
:102690004DF808EDFFF7D2FF94BF012000205DF850
:1026A00008FB00BF4DF808EDFFF7C8FF34BF01205D
:1026B00000205DF808FB00BF4FEA4002B2F1FE4F78
:1026C0000FD34FF09E03B3EB12620DD94FEA0023F4
:1026D00043F0004310F0004F23FA02F018BF4042CD
:1026E00070474FF00000704712F1610F01D14202B4
:1026F00005D110F0004008BF6FF0004070474FF068
:1027000000007047000000002DE9804800239FB0C2
:102710000693624C079308934FF4E01309932368E0
:1027200043F480332360A36943F01003A36123685B
:1027300003F400330793069B01330693079B1BB9F1
:10274000069BB3F5A06FF2D12368544913F400330C
:1027500001D0022315E00A6842F001020A600693E4
:10276000236803F002030793069B01330693079B3C
:102770001BB9069BB3F5A06FF2D123689B0739D52F
:1027800001230893464B47491A6842F010021A6029
:102790001A6822F003021A601A6842F002021A60F4
:1027A0006368636063686360636843F48063636065
:1027B0003D4B1A68043B22F070425A603B4A11605C
:1027C000616821F47C116160596841F000415960F1
:1027D000D96821F40041D9609B681F0449BF344B7C
:1027E0004FF4E01313604FF480130993089B012BFF
:1027F00001D108E0FEE7022B09D1099963680B4378
:1028000043F4803302E0636843F460136360236839
:1028100043F0807323602168204B8E01FBD55968FB
:1028200021F003015960596841F002015960636861
:102830001A4903F00C03082BF9D14B68DFF880909C
:1028400003F00C03042B03D0082B03D0154B12E02C
:10285000136810E04B684868C3F38343C50303F172
:10286000020301D4134905E0496811F4003F1168DF
:1028700018BF49084B43C9F8003063680E4EC3F3D4
:102880000313F15CD9F800300C4FCB40C9F800308D
:102890001368044A934215D1012317E00010024047
:1028A0000020024000127A00041001402C00002099
:1028B000001BB70000093D00000000206009002057
:1028C00044000020B04A934201D102233B60DFF86C
:1028D00000E313ADBEE80F000FC59EE80F0085E8CA
:1028E0000F00AA4AAA4BAB48DA60E3690BA943F090
:1028F0000703E361A36914AD43F4944343F01D035C
:10290000A36163690DF1700A43F001036361636AB7
:1029100043F0807363624FF6FF73ADF82C300023F1
:102920008DF82E30FDF700FE9B480BA9FDF7FCFD4E
:102930009A480BA9FDF7F8FD994A0020536843F027
:10294000007353603B68012BC8BF964A964BD8BFB3
:10295000964A1A60FDF788FD8F4B08221A611022F3
:102960001A61D7F80080B8F1010F04DDAB78142BA1
:1029700004BF1023AB7055F8040C29460835FDF749
:10298000D3FD5545EDD10EA8FEF7C0FC0E9B884A3D
:10299000F021B3FBF2F3874A00251360D9F8003029
:1029A0004FF47A72B3FBF2F3834A013B5360784BE6
:1029B000642083F823100723956013607F4B804ABF
:1029C00083E82400FDF779FD2B4641F2DA6103FB31
:1029D00003F2193A4A4340F6C41102F55B3202F59C
:1029E0003A725A4392FBF1F2764921F813200133EF
:1029F000072BEAD100224FF47A7000FB02F3A3F513
:102A00009C534FF00A0E083B93FBFEF303F5FA7359
:102A10009BB24FF47F7E0EFB03F393FBF0F3674D05
:102A200003F2DE3305F1160121F8123001320C2ACF
:102A3000E1D1E369DFF8609143F48043E361182357
:102A40008DF82A304FF420434846ADF828300AA9C3
:102A500003238DF82B30FDF767FD4FF48043484684
:102A6000ADF828300AA904234FF0100B8DF82A3056
:102A70004FF4805AFDF758FD48460AA9ADF828A042
:102A80008DF82AB0FDF750FD2369002143F48043FF
:102A900023612369012023F4804323614FF482736F
:102AA000ADF84E304FF40073ADF856300223ADF858
:102AB00052300724444BADF84C10ADF85010ADF82F
:102AC0005A10ADF85C40ADF85400ADF858B01A8813
:102AD00002F4415242F4457242F003021A809A8B8A
:102AE00022F4006202FA0BF222FA0BF29A831C82A1
:102AF0001A8892B242F040021A809F228DF82D105F
:102B00008DF82E108DF82F108DF82C2085F82E00C2
:102B1000C9F814A09B894FF005090BAB0EA9B9F1B8
:102B2000010909D013B11878013300E0FF20264ACB
:102B30001489A407FBD535E1174C4FF4805AC4F82B
:102B400010A09DF83A309DF839201B0243EA024359
:102B50009DF83B20194D13431C4A93423FD032202D
:102B6000FDF7ABFCC4F814A0F520FEF705FAFF2032
:102B7000FEF702FA70288DF83800C4F810A029D0AA
:102B800085F82E902BE000BF001BB7000005FA056A
:102B900000ED00E000080140000C01400010014081
:102BA00000000140130100086C0900202901000801
:102BB00040420F007006002010E000E0B00000204E
:102BC00085090008B80000200038004015202000CA
:102BD000F8580008B8F1020F04BF03233B603C68BB
:102BE000032C02D00120FDF7D1FC0422012C8D4BD7
:102BF00085F82F204FF000024FF0010785F83020B4
:102C0000C2BF052283F8312083F832708648C8BFDE
:102C100002274FF00008FEF735FC022F18BFC1460F
:102C2000824B08BF4FF080091393814BCDF8609021
:102C300014934FF48073DFF8F09119934FF480638D
:102C40001A9320231B9348464FF4005313A9169759
:102C50001C93CDF85480CDF85C80CDF87480FEF7DD
:102C6000F3FBD9F800307348012F43F001034FF410
:102C70006022FFB2C9F8003010928DF84870CDF88C
:102C80003880CDF844804168D8BF4FF0000E21F461
:102C90007022C8BF4FF0010E22F4807242EA0E2269
:102CA00001238DF83CE08DF83D3042608168624A36
:102CB000013F0A4042F4602242F002028260C26A8E
:102CC000FFB222F4700242EA0757C7625B4A12F869
:102CD0001870002F4FD0092F03F101015548DBB2C6
:102CE0000DD9A7F10A02D0F80CE002EB42024FF036
:102CF000070C0CFA02F242EA0E02C26009E0026915
:102D000007EB470C4FF0070E0EFA0CFE4EEA0202DC
:102D10000261062B47480ED8013B03EB8302D0F833
:102D200034C01F2393402CEA030E07FA02F34EEA45
:102D3000030343631EE00C2B0ED8DA1FD0F830C01B
:102D400002EB82021F2393402CEA030E07FA02F3E0
:102D50004EEA030303630DE00D3BC26A03EB8303FA
:102D60004FF01F0E0EFA03FE22EA0E0207FA03F3DB
:102D70001343C3620B4608F10108B8F1040FA5D153
:102D80002C4B9A6842F480729A609A6842F0010271
:102D90009A609A6842F008029A609968254A090781
:102DA0000ED5FAE780B290811089C007FCD5244A7D
:102DB000928992B200293FF4B2AE0A700131AEE6B8
:102DC000936843F0040393601A4B9A685707FBD447
:102DD0009A68062142F4A0029A604FF480537382ED
:102DE0000A4613AB6820FDF723FD9DF84F309DF890
:102DF000512003F001035B0002F0010243EA82026A
:102E00009DF84D3003F001031343DAB28DF83820FA
:102E1000C3B1012B01F04083022A24D00520FDF725
:102E200056FB00BFB0000020080002404C240140C7
:102E3000E800002000240140FDF7F1FFDF00002042
:102E4000003800400EAB68200C210122FDF7F0FC99
:102E50009DF8383003F00F038DF83830002BDDD0AB
:102E6000042B01F01983BF4B012CEB644FF00303DB
:102E700033740DDD4FF40053ADF84C3002238DF860
:102E80004F30B948042313A98DF84E30FDF74CFBA1
:102E900080216B20FEF71EF96420FDF70EFB002158
:102EA0001920FEF717F903216B20FEF713F90A200A
:102EB000FDF703FB03211A20FEF70CF918211B2054
:102EC000FEF708F910211C20FEF704F91221372023
:102ED000FEF700F901213820FEF7FCF8A34B002093
:102EE0002B65A34B0A246B65A24B2B64A24B6B642E
:102EF000FDF710FF2B6C00209847A04B10225A6161
:102F000008221A619D4F1920FB68013C83F01003D1
:102F1000FB60FB6883F00803FB60FDF7CEFA01203D
:102F2000FDF7A2FA1920FDF7C8FA0020FDF79CFA78
:102F300014F0FF04E6D108233B6110233B61708A43
:102F4000FFF7A0F98E490746FFF7F0F901F060FBA3
:102F50003946A5F860008B48FFF79CFA8A49FFF7CD
:102F600099FA8A4B6866AB66894BEB66DFF84CE2F0
:102F7000DFF84CC20EF17007274404EB0C03103449
:102F8000402C0FCB87E80F00F0D1824C4FF47A73BE
:102F9000AEF8B030AEF8B230AEF8B430AEF8B6300D
:102FA0000CF1400323600EF1BC0363610EF5DE7388
:102FB000A3614FF48073E3602361774B4FF0000807
:102FC000764A4FF4E139CEF8B880C4F8089023630C
:102FD000143B63639369724843F480439361022313
:102FE0008DF83B304FF40073ADF838300EA918233C
:102FF0008DF83A30FDF798FA4FF480630EA9ADF8DA
:103000003830674848238DF83A30FDF78DFA0E23A3
:10301000644F8DF84C3013A801238DF84D308DF896
:103020004E308DF84F30FEF7A5FA03232371384652
:103030000C230EA9ADF84230A764C4F82080C4F870
:103040001C80C4F82880C4F82480C4F82C80C4F8FC
:103050000890CDF83890ADF83C80ADF83E80ADF8E2
:103060004080ADF84480FEF799F9BB89206B9BB294
:1030700043F40053BB814C4BCDF8508013934FF475
:1030800080531C938023CDF85480CDF85880CDF820
:103090005C80CDF86480CDF86880CDF86C80CDF888
:1030A00074801893C8B1E368169320231B93636957
:1030B0001493FEF7E7F9206B13A9FEF7C5F9226B0D
:1030C000136843F001031360BB8A9BB243F04003D3
:1030D000BB8253689BB2236404E0344A136843F014
:1030E00020031360606BDFF8AC80E0B1D8F81030DB
:1030F00000271693102315931B97FEF7C3F9D8F8F2
:10310000340013A9FEF7A0F9D8F834301A6842F059
:1031100002021A60234A5F605F60938A9BB243F0A9
:103120008003938204E0214A136843F08003136014
:103130001F4BC5F8BC421C60D5F8B8300133C5F848
:10314000B83040F2D933B382002685F8D462194BE7
:10315000F35CFF2B03F00F0734D1174BC5F8D832BF
:103160000023D9E11844923100100140150D0008E8
:10317000890D0008090D0008210D0008000C014010
:10318000C903683F0AE81C4100401C46F62421445C
:103190003661023DAC080020580002400010024099
:1031A0000008014000380140043801400C3801405B
:1031B0007806002070590008E5090008B0000020DA
:1031C00018590008DC0606D53846C1490022FDF72B
:1031D000E7FE08230DE003F0200202F0FF0A5AB1D7
:1031E0003846BC4995F8DC22FDF7DAFE95F8DC326A
:1031F000013385F8DC328AE1580640F1888195F880
:10320000DD924FF0180809F1010385F8DD32B24B69
:10321000DFF8C8B208FB073300933B015BF80340BB
:103220000BEB0302204640F6C4110192FDF7F0FFBC
:10323000019A8DF84E8002F10803506892684FF0B1
:10324000020813A90193ADF84C208DF84F80FDF7CB
:103250006BF9019BADF850A01A797023ADF84C3092
:103260000123ADF84E304FF47A73ADF852304FF47D
:103270008073ADF856A0ADF85AA0ADF85480ADF803
:10328000583059460C2A00F2F580DFE812F00D00A4
:10329000F300F300F3005000F300F300F3008800A4
:1032A000F300F300F300BF00238CDFF834A223F017
:1032B00001031B041B0C2384208CB4F804E0238B33
:1032C0001FFA80FC23F073031B041B0C2CF002007C
:1032D00054451FFA8EFE43F0700340F003000FD0F8
:1032E0000AF5006A54450BD00AF5406A544507D0E8
:1032F0000AF5806A544503D00AF5806A544507D11F
:103300002CF00E002EF4407E40F003004EF4807E40
:10331000A4F804E023834FF47A73A3862084238BDC
:1033200023F008031B041B0C43F0080335E0238C37
:10333000DFF8ACA123F010031B041B0C2384208CAA
:10334000B4F804E0238B1FFA80FC23F4E6431B044B
:103350001B0C2CF0200054451FFA8EFE43F4E04372
:1033600040F0300003D00AF5006A544507D12CF034
:10337000E0002EF4406E40F030004EF4806EA4F871
:1033800004E023834FF47A7323872084238B23F470
:1033900000631B041B0C43F4006323836AE0238C4B
:1033A000DFF83CA123F480731B041B0C2384208CC6
:1033B000B4F804E0A38B1FFA80FC23F073031B0412
:1033C0001B0C2CF4007054451FFA8EFE43F0700362
:1033D00040F4407003D00AF5006A544507D12CF43C
:1033E00060602EF4405E40F440704EF4805EA4F8BD
:1033F00004E0A3834FF47A73A3872084A38B23F084
:1034000008031B041B0C43F0080332E0238CDFF895
:10341000D0C023F480531B041B0C2384238CB4F8EA
:1034200004E0A08B23F4005320F4E64000041B04C6
:10343000000C1B0C64451FFA8EFE40F4E04043F480
:10344000405303D00CF5006C644503D12EF4804E3C
:103450004EF4804EA4F804E0A0834FF47A70A4F8F0
:1034600040002384A38B23F400631B041B0C43F450
:103470000063A38301EB07118B7B43B1B4F84430A5
:103480006FEA43436FEA53439BB2A4F84430238866
:1034900004F124009BB243F001032380182303FBB3
:1034A0000751C1F8E442C1F8E8020C2A23D8DFE84A
:1034B00002F0072222220B222222192222221D00A0
:1034C00003FB0753343414E003FB0753383410E094
:1034D000450A0008950C000890030020F8590008E0
:1034E000002C014003FB07533C3402E003FB07536D
:1034F0004034C3F8E042182303FB075740F6C413D7
:10350000A7F8EC32009B05EB8909C9F83034013685
:103510000E2E7FF41CAE20E640F2DE51C44C04F5C2
:10352000886222F813100133122BF5D1C14BC4F875
:103530006434082384F8D032FCF79CFF4FF47A738C
:10354000C4F86804A4F86C340021012342200AAABC
:1035500084F86E348DF82810FDF71FFE84F86F0490
:10356000B34CB54ED4F87024336825469A1A002A15
:10357000C0F2978704F5886904F27448CA46C346C6
:1035800003F59C432033C4F870340027D5F8643425
:10359000F8B2984740F2DC52A0F2EE239BB293427D
:1035A00088BF1046D5F8B424A44BA1491340002B82
:1035B000BEBF03F1FF3363F00303013303EB870363
:1035C00001EB4303A3F874043BF83710B8F802305A
:1035D00001370B44B8F80410082F0B44B8F8061054
:1035E00008F108080B441BB24FF0040193FBF1F300
:1035F00029F8023BCAD18E4B0132C3F8B424002211
:10360000134640F24C403AF912109B08814206DD05
:1036100040F26B7063F07F038142DBB201DC43F068
:1036200040030132042AECD194F8B82480499A422C
:1036300005D191F8B924F92A04D8013200E000221A
:1036400081F8B92440F24B42B4F9461484F8B834F6
:10365000914240F3398794F8B914754A14292BD153
:1036600092F8BA1451B15F2B26D1D2F8BC140023C2
:1036700082F8BA3401B3C2F8BC341DE0572B04D130
:103680004FF47A73A2F86C3416E06F2B0ED1B2F8B7
:103690006C3433B992F8C0341BB1012382F8BA34C8
:1036A0000AE00220FF21FDF714FE05E0972B02BF80
:1036B000634B4FF4C8721A80B4F9C234322B13DD55
:1036C000604B00221A605A600EE00123C4F8C43433
:1036D00094F86F342BB14220002116225A4BFDF78B
:1036E000A7F80023C4F8C434FCF7C4FED4F8E034CF
:1036F0003060C31A002BDFF83881FFF631AF00F6D7
:10370000AC50C8F8E004D8F8443008F2E4409847D8
:10371000B8F86C3408F2E44708F23459002B00F092
:10372000AF8008F2EC4608F59F6B4FF00008B5F843
:103730006C3437F91800B3F57A7F02BF002232608B
:10374000CBF810203268009302443260FEF79AFDF5
:10375000DBF810204FEA480A0132012ACBF810208A
:1037600007D10022CBF80400CBF80000CBF80820EA
:103770002EE0DBF800300492194602930390FEF726
:10378000CBFC049A01901046FEF77CFD014601989F
:10379000FEF780FE029B01461846FEF7BFFC02467C
:1037A000DDF80CC01146CBF8040060460292FEF72B
:1037B000B3FC01460198FEF7B9FDDBF80810FEF7EF
:1037C000ADFC029ACBF80C00CBF80020CBF8080037
:1037D000009B0022012B27F80A2029F80A2040D15B
:1037E000DBF81000012808DD0138FEF74BFD01462B
:1037F000DBF80C00FEF74EFE00E0002000F084FF36
:103800004FF08441FEF74EFF4FF47A71F0B1002281
:10381000A5F86C14C5F80825C5F81C25C5F8302591
:10382000C5F8F424C5F8F024C5F8EC2419E000BF6D
:10383000B0000020A11800085C09002003000080EF
:1038400064090020100900207805002032680A2051
:1038500002F5FA7292FBF1F20F2129F80A20FDF726
:1038600038FD08F10108B8F1030F06F104060BF169
:10387000140B7FF45CAFB4F86C34013BA4F86C34E7
:10388000002337F8132039F81310BB4E521A27F8CB
:1038900013200133032BF4D1B84D736D06F23A5067
:1038A0009847298806F23A5600293DD04FF0000C7F
:1038B000B34BB1F5C87F04BF002243F82C204FEA78
:1038C0008C0E36F91C8053F80E00AB4A404443F886
:1038D0000E00002302F24C5026F81C3020F81C3059
:1038E0000CF1010CBCF1030FE2D101291AD1D2F87D
:1038F00040354FF4C87603F1C80090FBF6F0A2F80B
:103900004C05D2F84405D2F84835C83090FBF6F0A3
:10391000C83393FBF6F3A2F84E059A48408A1B1A67
:10392000A2F850354B1E2B80B4F83A35B4F84C252C
:103930004FF000099B1AA4F83A35B4F84E25B4F8B4
:103940003C35CB469B1AA4F83C35B4F85025B4F866
:103950003E359B1AA4F83E35FCF78CFDD4F854355F
:103960000546C31A18460093FEF788FCE16C0190E7
:10397000FEF7DCFC8246C4F8545537F91B00FEF70D
:1039800081FC5146FEF7D2FC7F4D0DF12C0848F822
:103990002B004FF07D5155F82B00FEF7C7FCA5F129
:1039A0001E03064633F91B00FEF76CFC4FF07A51FC
:1039B000FEF7BCFC01463046FEF7B0FB45F82B0095
:1039C000FEF77AFE05F10C0680B226F81B000BF11B
:1039D000010B00B2BBF1030F00FB0099CDD1694F81
:1039E000642303FB09F3B7F8129005F1140009FBF7
:1039F00009F993FBF9F9A9F1490941461FFA89F937
:103A0000FDF7ECF9B9F13B0F05F1140540F2938095
:103A1000B4F96000FEF736FCD4F874650146304610
:103A20004FF00105FEF73EFE00B90546524B314608
:103A3000D4F8700583F86E5400F064FE0646C4F8AE
:103A40007805D4F86C05D4F874A500F10045D4F8D5
:103A500070050146FEF76AFC514681465046FEF766
:103A600065FC01464846FEF759FB00F04DFE014655
:103A7000284600F047FE0546C4F87C053046FEF7B0
:103A800091F83BA3D3E90023FEF7E0F8FEF7F0FA44
:103A900000F0BEFDDFF8FC90A9F800002846FEF714
:103AA00081F833A3D3E90023FEF7D0F8FEF7E0FA5C
:103AB00000F0AEFDA9F80200DFF8C890414609F118
:103AC0001800FDF78BF9B869D7F81CA00146FEF77E
:103AD0002DFCD7F82080514607465046FEF726FCBD
:103AE00001463846FEF71AFB414607464046FEF7B8
:103AF0001DFC01463846FEF711FB00F005FE0021D3
:103B00000746FEF7A7FD002846D1D9F81800394628
:103B1000FEF7C0FC3946C9F81800D9F81C00FEF7BA
:103B2000B9FC3946C9F81C00D9F82000FEF7B2FCF0
:103B3000C9F8200030E04FF0000955F8290013497A
:103B4000FEF7F4FB824636F91900FEF79BFB0146AF
:103B50005046FEF7E3FA0E49FEF7E8FB45F8290068
:103B600009F10109B9F1030FE7D151E7AFF3008083
:103B70003B597E90A9E78140B000002064090020F5
:103B8000F005002000000020080600200000164478
:103B90000017DA3A0C090020304600F003FD804699
:103BA000304600F071FD8346284600F0FBFC05908E
:103BB000284600F069FDC44F8146FB69414618461E
:103BC0000493FEF7B3FBD7F820A059460290504665
:103BD000FEF7ACFB029A01461046FEF79DFADDF8AF
:103BE00014C0B96903906046FEF7A0FB049B5946D8
:103BF00002901846FEF79AFB4946FEF797FBDDF860
:103C000008C001466046FEF789FA49468346504699
:103C1000FEF78CFB4146FEF789FB01465846FEF74E
:103C20007DFA039A0146104600F06CFDA749FEF7A5
:103C30007DFBFDF7B7FFA0A3D3E90023FEF730F922
:103C400000220023FDF750FE0022A14BFEF728F9C9
:103C5000FEF70EFA00F0DCFC1FFA80F919F4004FB1
:103C600018BF00F5B47002979A4F18BF1FFA80F979
:103C700099490198A7F88095FEF758FB06F1004690
:103C800005F1004580460FFA89F00E960F95FEF774
:103C9000F9FA00F10040FDF785FF89A3D3E900237D
:103CA000FDF7D4FFFEF7E4F91090B7F96405FEF7CD
:103CB000E9FA1390B7F96605FEF7E4FA1490B7F93C
:103CC0006805FEF7DFFA0EA9159013A8FDF786F830
:103CD00097F8BA643D4676B9D7F88405402390FB3F
:103CE000F3F3C01AFEF7CEFA1599FEF717FAFEF7AE
:103CF000E3FCC7F88405D4F88405402390FBF3F077
:103D0000FEF7C0FA01461598FEF706FAE16E07467F
:103D100015904046FEF702FA01464046FEF7BAFB10
:103D2000D4F88895804649463846FEF7F5F90146AD
:103D30004046FEF7FBFA01464846FEF7EFF9C4F8A5
:103D400088050746139800F063FCFDF7B3FAD4F832
:103D50008C351844C4F88C05149800F059FCFDF714
:103D6000A9FAD4F890351844C4F89005384600F004
:103D70004FFCFDF79FFAD4F89435584A184400993F
:103D80001368C4F894051944D4F8983511600133C8
:103D9000B4F8E824C4F89835514B9A80B4F8E42478
:103DA0001A80B4F8E6245A80FCF764FB4D4B0022DD
:103DB0001860D4F86834C4F86804C31AA4F89C35B1
:103DC000B4F84644484B4FEA420833F912E040F257
:103DD000DC539E4505DDBEF5FA6F0BDB4FF4FA713F
:103DE0000AE0CEF5BB610431B1F5FA7FA8BF4FF40C
:103DF000FA7101E0AEF2DC51022A4FF06403DFF801
:103E000004A122D091FBF3FB324F6FF0630907EB63
:103E10004B0C09FB0B19BCF808C007EB4B07B7F9B3
:103E20000A700FFA8CFBCBEB070707FB09F999FB2C
:103E3000F3F363442AF808302C4B9B5C59432C4B1A
:103E400091FBF3F364339BB202E04942AAF80410F9
:103E500028496427895CDFF8B0C0594391FBF7F12A
:103E60000CF802102449DFF8A4C0895C594391FB87
:103E7000F7F10CF802102149895C4B4393FBF7F3EF
:103E80001F49204F8B5440F2DB539E45D8BF37F873
:103E9000083002F10102DCBF5B4227F80830032A38
:103EA00090D140F24B4324B29C4231DDB4F5FA6F1D
:103EB000A8BF4FF4FA642DE0182D4454FB210940AB
:103EC000399D52A246DF913F000000200000E144EE
:103ED00000002440B0000020BD378635680900206E
:103EE000180900205C090020F00400207C5900081B
:103EF0000CFEFFFFD0590008D35900087E59000876
:103F000046090020F80800201E0900204E06002067
:103F100040F24C444FF47A73A4F24C445C434FF4A7
:103F20006173B4FBF3F44FF0640C94FBFCF205EB0B
:103F30004203D98A6FF0630303FB024405EB420599
:103F4000B5F918200BB2D21A544394FBFCF30B447E
:103F5000FB80B94BDFF8E8E21B8813B9BEF86C347C
:103F60002BB1B64AD36883F00803D36009E09EF80A
:103F7000C03413B1B14B08221A6116B1AF4B0822FD
:103F80005A61AF4BD3F8A4251D46821A002A13DBD1
:103F900093F86E246AB9A94983F8C024CA6800F569
:103FA000F42082F0080200F59070CA60C3F8A405FE
:103FB00002E0012283F8C0240026D5F8B830A048DA
:103FC0009E4280F2AE819F4A8C2303FB06239E4CC7
:103FD000236090F8A83543B39C4AD36943F0C0539B
:103FE000D361A2F5D032136843F4807313604BF2AF
:103FF0000702974B1A8045F2F7021A81954A964BB1
:10400000DA6012E0D8F80030186803689B689847B7
:10401000D8F8003093F88920CAB9A0F124014A42A7
:104020004A41522883F8892009D02368DFF8188292
:10403000186803685B6898470028E3D16FE195F83A
:10404000BA34002BF1D1854A854B1A60C4E7012AA6
:1040500003D14D2808BF022204E0022A05D13C28E2
:1040600008BF032218BF002256E1032A0CD1802882
:104070004FF000029FBF83F887205A7183F88800B1
:10408000187198BF042247E1042A06D11A7983F8EF
:1040900086005040187105223EE1052AC5D193F8EB
:1040A000881093F887209142197907D941401971F6
:1040B000511C83F8871013449871B6E7814240F091
:1040C000298193F88630692B00F0D68019D8652BAA
:1040D0005BD00BD8442B00F0FD80452B40F01281C3
:1040E0001320FCF71DFC4FF00008FAE0662B5FD0B0
:1040F000682B40F007811020FCF712FC4FF00008FD
:104100008FE07D2B00F0D8800CD86C2B00F0C480A1
:104110006D2B40F0F7800620FCF702FC0020FCF736
:1041200013FCD3E0C82B0AD0D62B1ED07E2B40F038
:10413000E9800220FCF7F4FBB5F9B205C7E04FF0C7
:104140000008FCF7F0FBDFF8F89009F5886323F826
:10415000180008F10108B8F1080FF2D10020FCF7AF
:10416000DFFB012389F8A935D0E04FF00008FCF708
:10417000DAFB3C4B23F8180008F10108B8F1040FF2
:10418000F5D10020FCF7CCFBC0E00B20FCF7C8FB0E
:10419000B5F99C05FCF7EAFB334B188800B2FCF735
:1041A000E5FB0020FCF7E2FB0020FDF787FBADE01C
:1041B0001220FCF7B5FB029B5B8AB3F5806F23D915
:1041C0004FF00008294B33F91800082390FBF3F057
:1041D00008F10108FCF7CAFBB8F1030FF2D1DFF8D0
:1041E0009480B8F90000FCF7C1FBB8F90200FCF7B5
:1041F000BDFBB8F90400FCF7B9FB0020FCF7B6FBE7
:104200000020FCF7B3FB61E0B5F96405FCF7AEFBF9
:10421000B5F96605FCF7AAFBB5F96805FCF7A6FB3E
:10422000DDE7134B13F8080008F10108FDF746FB22
:10423000B8F1100FF5D169E064090020000C0140CD
:10424000B00000207806002024000020001002406A
:10425000086C00400400FA0500ED00E0EFBEADDEA2
:10426000F04F002060010020760600201406002098
:104270005A060020180900201020FCF751FB4FF0CF
:104280000008964B33F9180008F10108FCF76EFBA3
:10429000B8F1080FF5D139E0DFF860820620FCF7AD
:1042A0003FFBB8F90000FCF761FBB8F90200FCF72E
:1042B0005DFBB5F980050AE00420FCF731FBB5F998
:1042C000CA04FCF753FBB5F9CC0400E00020FCF76E
:1042D0004DFB1BE00020FCF723FB012385F8A835EC
:1042E00014E07F4B13F8080008F10108FDF7E6FA27
:1042F000B8F10B0FF5D10020FCF726FB0020FCF7EE
:1043000023FB03E001200021FCF7EAFA2368187977
:10431000FDF7D4FA2368002283F8892085E6013668
:104320004BE6836C13B100F2B4509847FDF7D6F911
:10433000B7F904306B4C83EAE371B4F90420A1EBC4
:10434000E3716FF06308C1EB0808424505DB01F13A
:1043500064039342A8BF13469846B7F90600A4F831
:104360000480FDF78FFF8246B4F90200FDF78AFF53
:104370008146B4F90000FDF785FF83465A4F0023BC
:1043800057F8081C50460193FDF7D0FF396800909C
:104390004846FDF7CBFF009A01461046FDF7BEFEEA
:1043A00057F8041C00905846FDF7C0FF009A0146DC
:1043B0001046FDF7B3FE0090C8F10000FDF762FF64
:1043C0007968FDF7B3FF009A01461046FDF7A6FE97
:1043D000FEF772F9454C019B04F2AA5626F8130029
:1043E0000133042B07F11007CAD1B4F9AA35B4F987
:1043F000AC25B4F846749342B8BF1346B4F9AE2561
:1044000094F8BAE49342B8BF1346B4F9B02500203B
:104410009342B8BF134604F5B56499B240F2DA731B
:104420000AB29A42C1BF6388C1F5FB6202329B188F
:10443000C8BF638040F2DD3334F9022F9A4205DDB4
:1044400040F2DA739342A8BF134601E040F2DE3334
:10445000238040F24B433AB29A42DCBF40F2DE3353
:104460002380BEF1000F03D1214B33F8103023809D
:1044700001300428D2D1002495F8DD32E0B2834225
:1044800036F8141003D9194BD3F8D83298470134B1
:10449000042CF1D1FFF764B84FF4FF637382FEF789
:1044A000E2BCD4F8C434042B3FF61EA901A252F892
:1044B00023F000BFCB360008D1360008E3360008F1
:1044C000E3360008E33600080A4900220A604A6021
:1044D0008A6009490A604A60FFF7BDB8F00400200D
:1044E000D85A00084009002028010020B000002010
:1044F0006001002000090020100900200C090020A4
:1045000019481A49026800608A4217D0002103E066
:10451000174B5B58435004311648174B42189A42C8
:10452000F6D3164A02E0002342F8043B144B9A42A9
:10453000F9D3FDF743F8FEF7E7F8FEE7114E12480E
:1045400030601248016821F0706101604102016031
:104550000F4C182020600F490F4808600F48D0F812
:1045600000D0406800470000F04F0020EFBEADDEF5
:10457000E85E000800000020B0000020B00000202D
:1045800070090020181002400900000004000140DA
:10459000140C0140000C01404434434400F0FF1F60
:1045A000FEE7000000B5194A20F00043934283B0B3
:1045B000014617DDB3F1FF4F04DBFDF7ADFD03B09E
:1045C0005DF804FB694600F07DF900F00302012A62
:1045D0000098019911D0022A0AD09AB1012200F064
:1045E00035FFECE7002100F033FB03B05DF804FB7E
:1045F00000F02EFB00F10040E1E700F027FF00F1A2
:104600000040DCE700F024FBD9E700BFD80F493FAA
:1046100030B5C0F3C755A5F17F021E2A83B001460D
:1046200021DC501C1CDB162A4FEAD1740ADDC1F3D1
:10463000160343F40003963DAB4060424340181913
:1046400003B030BD0F4B53F824502846FDF766FDEC
:10465000019001982946FDF75FFD20F0004333B932
:10466000002003B030BDFEF727F803B030BDC0F323
:104670001603C0F3C75043F40003C0F19600C340D3
:10468000DBE700BFE45A000800B51D4A20F00043F4
:10469000934283B0014618DDB3F1FF4F04DBFDF711
:1046A0003BFD03B05DF804FB694600F00BF900F038
:1046B0000300012818D002280ED0D0B1009801992B
:1046C00000F0C6FA00F10040EBE70021002200F004
:1046D000BDFE03B05DF804FB00980199012200F0D3
:1046E000B5FE00F10040DCE70098019900F0B0FA57
:1046F000D7E700980199012200F0A8FED1E700BF9A
:10470000D80F493F00F04EB870B58AB0064600F0A9
:104710004BFA224D044695F90030013308D030465B
:1047200001F06CF820B130460021FDF79DFF10B973
:1047300020460AB070BD1A4901220023304601917B
:1047400000920893FDF72EFA2C78CDE90401CDE90B
:1047500002017CB900220023CDE90623684600F05F
:10476000EBFE88B1089BA3B9DDE90601FDF780FCEB
:104770000AB070BD0020002102460B46FDF790FBF9
:10478000022CCDE90601E9D101F0B0F82123036044
:10479000E8E701F0ABF8089B0360E5E7480000207C
:1047A000EC5A0008F8B521F00044B4F1FF4F03467D
:1047B00014DC20F00046B6F1FF4F07460EDCB1F1E5
:1047C0007E5F3AD08D1705F0020545EAD07556B9DF
:1047D000022D30D0032D2BD13148F8BD08461946A3
:1047E000FDF79CFCF8BDFCB1B4F1FF4F29D0B6F148
:1047F000FF4F19D0341BE4153C2C1ADC002938DBA0
:104800001846FDF747FE00F0AFFF00F097FE012DC0
:104810002CD0022D22D0002D2FD02249FDF77EFC76
:104820002149FDF779FCF8BD002F15DB1F48F8BDC5
:10483000F8BD1E48EBE71C48F8BDBDE8F84000F0A5
:104840007DBEB6F1FF4F19D0022DF4D0032DC3D099
:10485000012D1BD00020F8BD1548F8BD1149FDF70A
:104860005DFC01461048FDF757FCF8BD00F1004023
:10487000F8BD3C34C4DA0020C9E7F8BD022D0CD0E5
:10488000032D08D0012D04D00A48F8BD4FF0004098
:10489000F8BD0948F8BD0948F8BD0948F8BD00BF92
:1048A000DB0F49C02EBDBB33DB0F4940DB0FC93FD7
:1048B000DB0FC9BFDB0F493FDB0F49BFE4CB16C09D
:1048C000E4CB16402DE9F04FAA4A20F00044944270
:1048D00089B007460D4664DDA74A94421CDC0028D7
:1048E000A64940F3EB80FDF717FCA54B24F00F041D
:1048F0009C42064664D0A349FDF70EFC01463046B3
:104900002960FDF709FC9F49FDF706FC012368605B
:10491000184609B0BDE8F08F9B4A944262DDB4F1BD
:10492000FF4F46DAE615863EA4EBC6542046FDF757
:10493000C3FEFDF7A7FC0346204619460593FDF785
:10494000EBFB4FF08741FDF7F1FC8046FDF7B4FE2D
:10495000FDF798FC0446404621460694FDF7DCFB33
:104960004FF08741FDF7E2FC00210790FDF772FE52
:10497000002800F0C48020460021FDF76BFE0028CF
:1049800014BF012302238148022101900091324685
:1049900005A8294600F020FA002FC0F2A6800346A1
:1049A00003E00022286000234A60184609B0BDE8F1
:1049B000F08F0146FDF7B0FB002368602860F4E744
:1049C0007349FDF7A9FB73490446FDF7A5FB0146B2
:1049D00020462960FDF7A0FB6E49FDF79DFB0123F2
:1049E0006860E2E700F0C0FE6B498046FDF79EFC80
:1049F0004FF07C51FDF792FBFDF75EFE0646FDF79A
:104A000041FC5E498346FDF791FC01464046FDF7B7
:104A100083FB5C4981465846FDF788FC82461F2E81
:104A20004846514618DC5D4B721E53F8223024F084
:104A3000FF029A4210D0FDF76FFB8046C5F8008058
:104A400041464846FDF768FB5146FDF765FB002FE0
:104A5000686056DB3346A8E7FDF75EFBE215C0F35E
:104A6000C753D31A082B8046E8DD494958460392BC
:104A7000FDF75CFC804648464146FDF74DFB044689
:104A800048462146FDF748FB4146FDF745FB804679
:104A900040495846FDF74AFC4146FDF73DFB82463A
:104AA00020465146FDF738FB039AC0F3C753D21A8C
:104AB000192A804641DC2860A146C1E7FDF72EFB9C
:104AC0002F4B24F00F049C42064623D02D49FDF7BE
:104AD00025FB014630462960FDF71EFB2949FDF7FD
:104AE0001DFB4FF0FF3368605FE795E80C0002F1B3
:104AF000004103F10042296043426A6055E7032305
:104B000041E708F1004800F10040C5F80080686006
:104B100073424AE71E49FDF701FB1E490446FDF7B3
:104B2000FDFA014620462960FDF7F6FA1949FDF71E
:104B3000F5FA4FF0FF33686037E719495846FDF73B
:104B4000F5FB804620464146FDF7E6FA81462046C1
:104B50004946FDF7E1FA4146FDF7DEFA0446114900
:104B60005846FDF7E3FB2146FDF7D6FA8246484654
:104B7000514660E7D80F493FE3CB1640800FC93F4D
:104B8000D00FC93F43443537800F4943745B000859
:104B90000044353708A3852E84F9223FF45A0008D3
:104BA00000A3852E32318D2420F00042B2F1FF4F58
:104BB00070B5034604462DD25AB300283DDBB2F54A
:104BC000000F4FEAE0502CD3002631467F38C3F364
:104BD0001603C20743F4000348BF5B0040105B00AC
:104BE00019244FF080728D189D4202DC5B1BA918BE
:104BF0001644013C4FEA43034FEA5202F3D113B18A
:104C000006F001031E44761006F17C5606EBC050F8
:104C100070BD70BD0146FDF789FB2146FDF77EFAA8
:104C200070BD14F400020FD15B00190202F1010201
:104C3000FAD5C2F101021044C6E70146FDF76CFA4D
:104C40000146FDF727FC70BD01221044BCE700BF00
:104C50002DE9F84320F00044B4F1485F06460F46C2
:104C600049DAFDF729FD002800F09D8031463046E5
:104C7000FDF75CFB05464E49FDF758FB4D49FDF736
:104C80004DFA2946FDF752FB4B49FDF745FA2946F7
:104C9000FDF74CFB4949FDF741FA2946FDF746FB74
:104CA0004749FDF739FA2946FDF740FB4549FDF72D
:104CB00035FA2946FDF73AFB804628464FF07C51ED
:104CC000FDF734FB414604462846FDF72FFB3946E5
:104CD00005463046FDF72AFB01462846FDF71CFA3B
:104CE00001462046FDF718FA01464FF07E50FDF7C9
:104CF00013FABDE8F8830146FDF718FB05462C4979
:104D0000FDF714FB2B49FDF709FA2946FDF70EFBC9
:104D10002949FDF701FA2946FDF708FB2749FDF768
:104D2000FDF92946FDF702FB2549FDF7F5F929466E
:104D3000FDF7FCFA2349FDF7F1F92946FDF7F6FAEC
:104D4000214B80469C42B8DD204B9C4227DC04F17D
:104D50007F4421464FF07E50FDF7DEF9814628461C
:104D60004FF07C51FDF7E2FA2146FDF7D5F94146B7
:104D700004462846FDF7DAFA394605463046FDF77F
:104D8000D5FA01462846FDF7C7F901462046FDF74A
:104D9000C3F901464846FDF7BFF9BDE8F883DFF8DF
:104DA00034900B4CDBE74FF07E50BDE8F88300BF3A
:104DB0004ED747ADF6740F317CF29334010DD037E6
:104DC000610BB63AABAA2A3D9999993E0000483F3B
:104DD0000000903E0000383F2DE9F04F1C46DFB048
:104DE0000891611E01910A936899BA4B039053F898
:104DF000213001980793D31E48BF131DDB1023EA0F
:104E0000E37319460C93DB4302EBC3030693079B42
:104E10000D1AC41815D42C44013421AE699F08E042
:104E200057F82500FDF72EFA0135A54246F8040F84
:104E300007D0002DF4DA01350020A54246F8040F12
:104E4000F7D1079B002B2CDB079B0A9A1946019B85
:104E500001EB0208C2EB827722AA02EB830502EB88
:104E60008808BF0049AE019B002BC0F2F5812C469B
:104E7000039B05EB0709A3F1040B4FF0000A54F85C
:104E800004095BF8041FFDF751FA01465046FDF78F
:104E900045F94C458246F2D10435454546F804AF04
:104EA000E1D1079B0EA91D4603F18043013B9B0006
:104EB0001A1D0A440B440D920B93AB005EA91A46CF
:104EC0000293002D0B4453F8508C20DD4AAFBC18E0
:104ED0000DAE4FF06E514046FDF728FAFDF7ECFBA2
:104EE000FDF7D0F94FF087418146FDF71FFA0146E3
:104EF0004046FDF711F9FDF7DFFB54F8041D46F8B5
:104F0000040F4846FDF70AF9BC428046E1D1069EEF
:104F10004046314600F08CFC4FF078510446FDF7D6
:104F200005FA00F025FC4FF08241FDF7FFF901463C
:104F30002046FDF7F1F80446FDF7BEFB0746FDF7F6
:104F4000A1F901462046FDF7E7F8002E80463446D9
:104F500040F36A81691E0EAB53F82130C6F1080098
:104F600043FA00F202FA00F69E1B0EA8C4F10703F2
:104F700040F8216017441E41002E2FDD002D07F15F
:104F8000010740F3F481002214460DA907E0C3F5A0
:104F900080700BB108600124013295420BDD51F89D
:104FA000043F002CF3D00132C3F1FF0395420B60A4
:104FB0004FF00104F3DC069B002B0DDD012B00F00C
:104FC0003A81022B08D16A1E0EAB53F822300EA98B
:104FD00003F03F0341F82230022E7DD040460021ED
:104FE000FDF738FB002800F09180079B6C1EA34260
:104FF0000DDC029B0EAA0D981344002253F8041DE9
:10500000834242EA0102F9D1002A40F09981079BCC
:105010000EAA013B52F82330002B40F0A6810B9AD8
:10502000012352F8041D01330029FAD0EB181A4667
:1050300009936B1C934241DC0C9A9E180A9B099AB7
:1050400005EB030B06F18046551B699A013E02EB06
:105050008606AA004FEA8B03049222AA02EB0309F8
:105060000593029B4AAA02EB0308002556F8040F99
:10507000FDF708F9019B49F8040B002B20DB029A8D
:10508000059BAC18EB1822AAD718039B4FF0000B16
:105090001444A3F1040A57F804095AF8041FFDF751
:1050A00045F901465846FDF739F8A7428346F2D143
:1050B000049B04359D4248F804BFD7D1099DFCE606
:1050C000049B04354FF0000B9D4248F804BFCDD13E
:1050D000F4E700BF8C5E000841464FF07E50FDF7BC
:1050E0001BF88046002C3FF479AF06994FF07E50B4
:1050F00000F09EFB01464046FDF70EF88046002179
:105100004046FDF7A7FA00287FF46FAF069B4046A4
:105110005942029700F08CFB4FF087410446FDF79F
:10512000B7FA002800F087814FF06E512046FDF756
:10513000FDF8FDF7C1FAFDF7A5F84FF087410746E6
:10514000FDF7F4F801462046FCF7E6FFFDF7B4FA58
:105150000EAB43F825003846FDF7AEFA069B6C1CF3
:10516000083306930EAB43F8240006994FF07E50A7
:1051700000F05EFB002C0746C0F2CB80631C9D0054
:1051800001930EAB03EB050A4AAB03EB05095AF892
:10519000040DFDF777F83946FDF7C8F84FF06E516A
:1051A00049F8040D3846FDF7C1F80EAB9A4507469D
:1051B000EDD1083D4AABDDF81CA0DDF804B003EBEF
:1051C0000509002703960494BAF1000FC0F29E80EF
:1051D000002FC0F29B809C4E4C464FF000080025EB
:1051E00001E0BD420DDC54F8041F56F8040BFDF736
:1051F0009DF801464046FCF791FF0135AA458046DF
:10520000EFDA5EAB03EB870301375F45A9F10409D1
:1052100043F8A08CD8D1689B039E049C032B58D8DC
:10522000DFE803F05D3232A70FD16B1E0EAA52F8F1
:1052300023603612A0E66A1E0EAB53F822300EA988
:1052400003F07F0341F82230C6E64FF07C51FDF7B2
:105250001FFA50B90646C1E604354FF0000A45452D
:1052600046F804AF7FF4FFAD1BE6002D07F1010700
:10527000C8BF02263FF787AE41464FF07E50FCF78D
:105280004BFF02268046A9E6019B36AD05EB83085D
:10529000002058F8041DFCF741FFA845F9D1002E65
:1052A00041D0089A00F10043014613603698FCF79C
:1052B00033FF002C09DD36AF0125013557F8041FF7
:1052C000FCF72CFFAC42F8DA0EB100F10040089B6D
:1052D0005860029B03F007005FB0BDE8F08F019BB0
:1052E00036AA002002EB8308013C58F8041DFCF7A5
:1052F00015FF631CF8D10EB100F10040089B186047
:10530000029B03F007005FB0BDE8F08F4FF000088C
:1053100077E7689B032BDCD8DFE803F010020287F5
:105320000020002EBDD1089B014618603698FCF77E
:10533000F3FE002CBFDC089B5860CAE70020DAE7C8
:10534000069A0EAB53F82430083A02970692002BC7
:105350007FF40BAF0EAB03EB840353F8041D013C49
:10536000083A0029F9D00692FFE601235EE6002400
:1053700021E6002C59DDA5005EAB2B440DF1D808C9
:1053800053F8A09C08EB050757F804BD484659465A
:10539000FCF7C4FE824658465146FCF7BDFE014666
:1053A0004846FCF7BBFE4745D1467860C7F800A0E9
:1053B000EAD1012C39DD5EAB2B4453F8A04C08EB4D
:1053C00005070DF1DC0B57F804AD21465046FCF7FC
:1053D000A5FE814650464946FCF79EFE2146FCF755
:1053E0009DFE5F454C467860C7F80090EBD10435D0
:1053F00008EB0504002038AD54F8041DFCF78EFEC0
:10540000AC42F9D1A6B1369A379B00F1004002F1C7
:10541000004203F10043089C6360029BA06003F01C
:10542000070022605FB0BDE8F08F0020002EEAD1B7
:10543000369A379BEFE72046FDF73EF90EAB2C4638
:1054400043F8250091E600BF985E00082DE9F84377
:1054500020F00043B3F1485F04460F46904603DA5C
:10546000FDF72AF9002857D021462046FCF75EFFB9
:1054700021460546FCF75AFF294906462846FCF70F
:1054800055FF2849FCF748FE2946FCF74FFF2649FF
:10549000FCF744FE2946FCF749FF2449FCF73CFE93
:1054A0002946FCF743FF2249FCF738FE8146B8F154
:1054B000000F22D038464FF07C51FCF737FF4946A9
:1054C00080463046FCF732FF01464046FCF724FE9A
:1054D0002946FCF72BFF3946FCF71EFE1549054609
:1054E0003046FCF723FF01462846FCF717FE01462D
:1054F0002046FCF711FEBDE8F88349462846FCF734
:1055000015FF0C49FCF708FE3146FCF70FFF21465A
:10551000FCF704FEBDE8F8832046BDE8F88300BF31
:10552000D3C92E2F342FD7321BEF3836010D503907
:105530008988083CABAA2A3E002070472DE9F0413B
:1055400020F00045B5F1A14F0446064608DBB5F151
:10555000FF4F6FDC002840F3A0806F48BDE8F0816A
:105560006E4B9D4277DCB5F1445F68DB4FF0FF374F
:1055700021462046FCF7DAFE01468046FCF7D6FEBF
:1055800005466749FCF7D2FE6649FCF7C7FD294688
:10559000FCF7CCFE6449FCF7C1FD2946FCF7C6FECA
:1055A0006249FCF7BBFD2946FCF7C0FE6049FCF7E9
:1055B000B5FD2946FCF7BAFE5E49FCF7AFFD414652
:1055C000FCF7B4FE5C4980462846FCF7AFFE5B4919
:1055D000FCF7A2FD2946FCF7A9FE5949FCF79CFD02
:1055E0002946FCF7A3FE5749FCF796FD2946FCF730
:1055F0009DFE5549FCF790FD2946FCF797FE7B1C64
:10560000014640464CD0FCF789FD2146FCF78EFE52
:105610004E4B4F4D53F82710FCF77EFD2146FCF70B
:105620007BFD014655F82700FCF776FD002E30DBA8
:10563000BDE8F0810146FCF771FDBDE8F081454908
:10564000FCF76CFD4FF07E51FDF72CF800288DD053
:105650002046BDE8F08100F087F83F4B04469D42AC
:1056600029DCA3F5D0039D4244DC0146FCF756FD3E
:105670004FF07E51FCF750FD4FF08041054620462B
:10568000FCF74CFD01462846FCF704FF00270446C2
:105690006EE700F10040BDE8F0813048BDE8F081E0
:1056A000FCF73CFD2146FCF741FE01462046FCF795
:1056B00033FDBDE8F0812A4B9D4214DC4FF07F5151
:1056C000FCF72AFD4FF07F5105462046FCF72EFEE1
:1056D0004FF07E51FCF722FD01462846FCF7DAFE2A
:1056E0000227044644E701461E48FCF7D3FE032781
:1056F00004463DE74FF07E51FCF70EFD4FF07E5122
:1057000005462046FCF70AFD01462846FCF7C2FE86
:10571000012704462CE700BFDB0FC93FFFFFDF3E38
:10572000D769853C59DA4B3D356B883D6E2EBA3DC5
:105730002549123EABAAAA3E21A215BD6BF16E3DD2
:1057400095879D3D388EE33DCDCC4C3EC45E000830
:10575000D45E0008CAF24971FFFF973FDB0FC9BF53
:10576000FFFF1B40000080BF20F00040704700BFDB
:105770002DE9F04120F00047FC0D7F3C162C05463A
:1057800013DC002C80461BDB194F2741074214D045
:105790001849FCF7C3FC0021FCF784FF68B1002D19
:1057A0001BDB28EA0700BDE8F081B7F1FF4F04D307
:1057B0000146FCF7B3FCBDE8F0812846BDE8F08166
:1057C0000C49FCF7ABFC0021FCF76CFF0028F4D07F
:1057D000002D07DB0020BDE8F0814FF400032341DA
:1057E0009844DEE7002FE8D00348BDE8F08100BF11
:1057F000FFFF7F00CAF24971000080BF30F0004017
:1058000001D102207047A0F50003B3F1FE4F01D291
:1058100004207047054B421E9A4201D8032070476E
:10582000A0F1FF40B0FA80F040097047FEFF7F0012
:1058300030F0004238B50346044615D0B2F1FF4FB0
:105840000ED2B2F5000F0D460FD3D20D2A44FE2A18
:105850002EDC002A1DDD24F0FF4444EAC25038BD8E
:105860000146FCF75BFC38BD38BD4FF09841FCF7B2
:105870005DFD184A0346954207DBC0F3C752044654
:10588000193AE3E7144800F02BF81349FCF74EFDF2
:1058900038BD12F1160F13DA4CF250329542194608
:1058A000F0DD0E4800F01CF80C49FCF73FFD38BD58
:1058B00019460A4800F014F80849FCF737FD38BDCE
:1058C000193224F0FF4040EAC2504FF04C51FCF72F
:1058D0002DFD38BDB03CFFFF6042A20DCAF24971F8
:1058E00001F0004120F0004008437047014B186868
:1058F000704700BFAC000020000C014008001002FF
:10590000000C0140100010020008014000101402B9
:10591000000C0140040010020000803F000080BF26
:105920000000803F000080BF0000803F000080BF7B
:10593000000080BF0000803F0000803F0000803FEB
:105940000000803F0000803F0000803F0000803F5B
:10595000000080BF000080BF651100084F110008E3
:1059600007110008E50300083911000811010008BB
:105970001048494A4B4C4D44454647FF0000171715
:105980000000000000540040000C01404000800076
:105990001F2000000000200000580040000C0140C3
:1059A0000004000821220000000040000000020066
:1059B0000111000804000400FB10000808000800A2
:1059C000F51000080C001000ED10000800000000A9
:1059D0002828551E1E2D00000000000001000000B8
:1059E00003000000020000000400000005000000A9
:1059F0000600000007000000000000400008014011
:105A000001000000001C00000000004000080140F0
:105A100002000000041C00000000004000080140DB
:105A200004000000081C00000000004000080140C5
:105A3000080000000C1C00000004004000080140A9
:105A400040000000001D000000040040000801406C
:105A500080000000041D000000040040000C014014
:105A600001000000081D000000040040000C01407F
:105A7000020000000C1D0000002C01400008014045
:105A800000010000001B0100002C01400008014043
:105A9000000800000C1B010000080040000C014041
:105AA00040000000001E000000080040000C014003
:105AB00080000000041E000000080040000C0140AF
:105AC00000010000081E000000080040000C01401A
:105AD000000200000C1E00004465632032382032B2
